:0600000002006B0215076F
:03000B000217F1E8
:0300130002155A79
:01001B0032B2
:0300230002146F55
:03002B00021A773F
:01003300329A
:03003B000215ADFE
:0300430002143074
:01004B003282
:030053000214BBD9
:01005B003272
:03006300021A0777
:030066000216017E
:02006900E4733E
:0D006B0075815312160CE5826003020066D9
:1000780079DFE94400601B7A01901D7878F075A05B
:1000880001E493F2A308B8000205A0D9F4DAF275E6
:02009800A0FFC7
:06009A00E478FFF6D8FD3A
:1000A0007800E84400600A799475A000E4F309D868
:1000B000FC785CE84401600C7902900094E4F0A3C1
:0400C000D8FCD9FA95
:1000C40075220175231675240075250075260175A2
:1000D400280F75290F752A94752B00753F037540F9
:0600E40000E4F541F542C5
:0900EA0075141A75150075160055
:0E00F4007808E4F608F608F608F6780C7600B0
:02010200C20336
:02010400C20433
:030106000200668E
:10010A007582001217E1AF82BF0F028010BF0C0286
:10011A00800B8529827583001217AB80028F29759F
:10012A0082011217E1AF82BF0F02800EBF0C02805C
:10013A00098528827583010217AB8F28229001ADA9
:10014A007401F075820E1216109001AE7401F075EA
:10015A00820E1217179001AD7401F075820F1216F4
:10016A00109001AE7401F075820F121717900BB838
:10017A00E4F5F01218AE9001AEE4F075820E121793
:10018A00179001AEE4F075820F1217179001F4E48C
:10019A00F5F01218AE9001AD7401F07582111216C5
:1001AA00109001ADE4F07582241216109001ADE4AE
:1001BA00F07582251216107582241216C7758225CB
:1001CA001216C7E58260057526008003752601E4CC
:1001DA00B526030203827401B526028001221209A0
:1001EA00529001AE7401F07582111217179001AD89
:1001FA007401F07582101216107F00BF5500504F1F
:10020A008F17751800900003C0071219EAAD82AE65
:10021A0083ED2494FDEE3400FE8D828E83E4F08D0E
:10022A00828E83A37464F08D828E83A3A3E4F07D0F
:10023A00947E007B007CFF8D828E838CF0EB121AF9
:10024A0079900005E4F5F01218AED0070F80AC7F64
:10025A0000BF5500504E8F17751800900003C00755
:10026A001219EAAD82AE83ED2494FDEE3400FE8DC0
:10027A00828E837464F08D828E83A3E4F08D828EE5
:10028A0083A3A3F07D947E007B007CFF8D828E8306
:10029A008CF0EB121A79900005E4F5F01218AED042
:1002AA00070F80AD7F00BF5500504E8F177518009D
:1002BA00900003C0071219EAAD82AE83ED2494FDC3
:1002CA00EE3400FE8D828E83E4F08D828E83A3F05D
:1002DA008D828E83A3A37464F07D947E007B007C60
:1002EA00FF8D828E838CF0EB121A79900005E4F56B
:1002FA00F01218AED0070F80AD7F00BF5500504CEA
:10030A008F17751800900003C0071219EAAD82AE64
:10031A0083ED2494FDEE3400FE8D828E83E4F08D0D
:10032A00828E83A3F08D828E83A3A3F07D947E00B8
:10033A007B007CFF8D828E838CF0EB121A79900001
:10034A0005E4F5F01218AED0070F80AF121871ACA1
:10035A0082AD83AEF0FF8C3B8D3C8E3D8F3E8C3759
:10036A008D388E398F3A120A41900064E4F5F01202
:10037A0018AE120A4102010A7F00BF5500504F8F82
:10038A0017751800900003C0071219EAAD82AE83F0
:10039A00ED2494FDEE3400FE8D828E83E4F08D828E
:1003AA008E83A37464F08D828E83A3A3E4F07D947C
:1003BA007E007B007CFF8D828E838CF0EB121A7993
:1003CA00900005E4F5F01218AED0070F80AC90014A
:1003DA00ADE4F075821012161053C67F9001AD7409
:1003EA0001F07582251216109001AEE4F07582258F
:1003FA001217179001AEE4F07582111217179001C7
:10040A00AE7401F075820F1217179001AEE4F07501
:10041A00820E021717E4B5260280587401B5265FCA
:10042A0012187185823385833485F035F536120BBF
:10043A00A7E582603B120BAE858232AC33AD34AE97
:10044A0035AF368C3B8D3C8E3D8F3E8C378D388E4A
:10045A00398F3AE4B52402800E7401B52402800A69
:10046A007402B5241A800602048A02079F02071240
:10047A0002084E9001AE7401F075820F021717221E
:10048A0074FD254350030205EAE543901CB693B573
:10049A00320B7402B54303752500054322E54390E8
:1004AA001CBC93B5320B7402B54303752501054391
:1004BA0022E543901CB993FFB5320280030205CDB1
:1004CA007402B5430280030205CA75820F120A60DC
:1004DA0075820C120A6075825D120A6075820612B4
:1004EA000A60903FFCE493F582120A60903FFDE4B3
:1004FA0093F582120A60903FFEE493F582120A6035
:10050A00903FFFE493F582120A60903FFAE493F574
:10051A0082120A60903FFBE493F582120A607582A8
:10052A000C120A607E007F00C3EE940CEF64809484
:10053A00805020EE24C2F582EF341CF583E493F553
:10054A0082C007C006120A60D006D0070EBE00D8C5
:10055A000F80D5758205120A607E007F00C3EE9473
:10056A0005EF648094805020EE24CEF582EF341C8F
:10057A00F583E493F582C007C006120A60D006D05C
:10058A00070EBE00D80F80D5758205120A607E005C
:10059A007F00C3EE9405EF648094805020EE24D34C
:1005AA00F582EF341CF583E493F582C007C0061286
:1005BA000A60D006D0070EBE00D80F80D57543005A
:1005CA00054322E543901CBF93B532107402B5432C
:1005DA0008752402E4F52CF52D0543227543002203
:1005EA00E54324F7500122E543240B83F582E543D2
:1005FA00240D83F583E47311111113191F252B2E72
:10060A0007070706060606060685324405432285BD
:10061A003245054322853246054322853247054342
:10062A0022054322E4B5250280087401B52502801B
:10063A006D22E54565446455B5465F9001AE740187
:10064A00F075820E121717AC447D007E008E078D5E
:10065A00068C057C00A845E4F9FAFBE82CF517E9B5
:10066A003DF518EA3EF519EB3FF51A900003E4F55B
:10067A00F0121A0985822E85832F85F030F531E430
:10068A00F52CF52DF5177518FFF51990009475F0EE
:10069A000012178C85472775240175430022E5450A
:1006AA0065446455FFB5465C9001AE7401F07582ED
:1006BA000E121717AC447D007E008E078D068C053E
:1006CA007C00A845E4F9FAFBE82CF517E93DF51892
:1006DA00EA3EF519EB3FF51A900003E4F5F0121A19
:1006EA000985822E85832F85F030F531E4F52CF5C6
:1006FA002DF5177518FFF51990009475F00012176B
:10070A008C75240175430022AE2CAF2DBE0005BFA7
:10071A0000028008BE0137BF0034801A740FB53258
:10072A00028005740CB532268532298529827583A3
:10073A00001217AB8018740FB532028005740CB51D
:10074A00320C8532288528827583011217ABAE2CAC
:10075A00AF2DC3EE940DEF94005008052CE4B52C90
:10076A0002052DAE2CAF2DBE0D2ABF002775240021
:10077A0075820F120A6075820C120A6075825D1208
:10078A000A607582001217E1120A60758201121757
:10079A00E1020A6022AE2CAF2DC3EE9402EF94015F
:1007AA005017E52C252AF582E52D352BF583E53200
:1007BA00F0052CE4B52C02052D152E74FFB52E0C70
:1007CA00152FB52F071530B530021531E52E452FF7
:1007DA00453045317047F524B527347E947F00AC07
:1007EA002CAD2D0CBC00010D7D008D028C037C000C
:1007FA007D008E008F01E4FEFFE84204E94205EE27
:10080A004203EF42028C828D838BF0EA121A7990AE
:10081A0001AEE4F075820E121717020A4122E54171
:10082A0045427011754101F5429001AE7401F075AF
:10083A00820E021717E4F541F5429001AEF0758277
:10084A000E021717E533C3953BFCE534953CFDE5ED
:10085A0035953DFEE536953EFFC3EC94E8ED9403ED
:10086A00EE9400EF9400500122E4B525028007744B
:10087A0001B5251A800D120A41740FB52810120805
:10088A0028800B120A41740FB528031208288533F1
:10089A003B85343C85353D85363E740FB52902804B
:1008AA000122E533C39537FCE5349538FDE53595E6
:1008BA0039FEE536953AFF853F17854018751900C8
:1008CA00751A009003E8E4F5F0C007C006C005C039
:1008DA0004121A09A882A983AAF0FBD004D005D071
:1008EA0006D007C3EC98ED99EE9AEF9B40597F002A
:1008FA00BF550050318F17751800900003C00712BA
:10090A0019EAAD82AE83D007ED2494FDEE3400FEE1
:10091A008D828E83E4F08D828E83A3F08D828E8306
:10092A00A3A3F00F80CA7E947F007C007DFF8E8295
:10093A008F838DF0EC121A7975240085333785344C
:08094A003885353985363A2263
:100952001213DD1214071213F675DD0075D300753C
:10096200D500229001F7E4F09001F9F0227F00C354
:10097200E5DB9407920040067D077E008004ADDB34
:100982007E008F037C00C3EB9DEC64808EF063F0ED
:100992008095F05017EF24F0FDE43401FE8F82754C
:1009A2008300E0FC8D828E83F00F80C3227F008F54
:1009B200057E00C3ED9407EE940050188F057E006B
:1009C200EF24F0F582E43401F583E0FC8D828E831E
:1009D200F00F80DB90000722900002E0FF9001FA06
:1009E200F0E020E0499001F0E0FCA3E0FDA3E0FE8E
:1009F200A3E0FFBCB038BD0435BE0032BF002F7586
:100A0200E200C2AF75890075100075113890C350AD
:100A120012195F90C35012195FAE10AF11C007C018
:100A2200068E828F83120069D006D00780FE22755F
:100A320017009001FAE06003751701851782229072
:100A420001F9E070189001FBE0FFE060108FD553D0
:100A5200D4FC9001F97401F09001FBE4F022AF8222
:100A62009001FAE060617D007E009001F9E060246F
:100A72000DBD00010E900005C007C006C005121989
:100A82005FD005D006D007C3ED9450EE94C340DA90
:100A9200758200229001FBE0FEBE400050207D00E6
:100AA20074402EFEE43DFDEE2414F582ED3400F593
:100AB20083EFF09001FBE02401F075820122C00770
:100AC200120A41D007809F75820022AFF0AE83E503
:100AD20082900195F0EEA3F0EFA3F09001FAE0709E
:100AE20003020BA3900193E0FEA3E0FFC3E49E7414
:100AF200808FF063F08095F04003020BA37E007FAD
:100B0200009001F9E060200EBE00010F900005C0C8
:100B120007C00612195FD006D007C3EE9450EF94B7
:100B2200C340DE75820022900195E0FDA3E0FEA3A2
:100B3200E0FF900193E0FBA3E0FCC3E49B74808C94
:100B4200F063F08095F0509C9001FBE0FABA40000F
:100B520050498A017A00744029F9E43AFAE92414E6
:100B6200F9EA3400FA8D828E838FF0121B23F8A3E8
:100B7200AD82AE83900195EDF0EEA3F0EFA3F08984
:100B8200828A83E8F09001FBE02401F01BBBFF01A5
:100B92001C900193EBF0ECA3F0809F120A41020A31
:100BA200E6758200229001F7E0F582229001F7E0DB
:100BB2007003F582229001F8E02414F582E43400F7
:100BC200F583E0FF9001F8E004F09001F7E014F003
:100BD200E0700353D4F38F822275D50074FC55D490
:100BE2004402F5D49001F9E4F02230DE199001F7C5
:100BF200E5DBF09001F8E4F09001F7E0600874F3AF
:070C020055D44408F5D4228B
:100C0A00AFDBBF0802800302122C900007E0FE7FD0
:100C1A0000900006E0FD7C00900198ED4FF0EC4E4C
:100C2A00A3F07F00900001E0FE90019AF08F1690E9
:100C3A000000E05460604D900000E0FD5305607CC8
:100C4A0000BD2005BC0002800BBD4033BC00307FD4
:100C5A00FF02122EBE200302122EBE21028005BE02
:100C6A002218800C1209AFAC82AD838C0702122EB7
:100C7A00C0071209DAD00702122E7FFF02122E7F56
:100C8A00FF02122EEEFD24F45003021228ED240A6C
:100C9A0083F582ED241083F583E473023128F0286A
:100CAA00F5BD2804252E2E12101210120F0C121048
:100CBA00101212900003E0FEBE0102800DBE020275
:100CCA00801BBE03028029020F687512FC7513018E
:100CDA0090020EE0FDA3E0FE8D07020F6A75121066
:100CEA0075130290025BE0FDA3E0FE8D07020F6A16
:100CFA00900002E0701375125D751302900261E0B4
:100D0A00FDA3E0FE8D07020F6A900002E0FEBE011D
:100D1A00137512977513029002A5E0FDA3E0FE8DEC
:100D2A0007020F6A900002E0FEBE02137512637595
:100D3A00130290027DE0FDA3E0FE8D07020F6A9088
:100D4A000002E0FEBE03028003020F4490019C747D
:100D5A0030F090019D04F090019E04F090019F04F0
:100D6A00F09001A004F09001A104F09001A204F017
:100D7A009001A304F09001A404F09001A504F0905E
:100D8A0001A67441F09001A704F09001A804F09024
:100D9A0001A904F09001AA04F09001AB04F09001BB
:100DAA00ACE4F09002A7741AF09002A87403F090D1
:100DBA003FFCE493C4540FFE53060F7D00EE249CBF
:100DCA00F582ED3401F583E09002A9F09002AAE4DD
:100DDA00F0903FFC93FE53060F7D00EE249CF582B3
:100DEA00ED3401F583E09002ABF09002ACE4F090B0
:100DFA003FFD93C4540FFE53060F7D00EE249CF56D
:100E0A0082ED3401F583E09002ADF09002AEE4F099
:100E1A00903FFD93FE53060F7D00EE249CF582ED74
:100E2A003401F583E09002AFF09002B0E4F0903F15
:100E3A00FE93C4540FFE53060F7D00EE249CF582E8
:100E4A00ED3401F583E09002B1F09002B2E4F09043
:100E5A003FFE93FE53060F7D00EE249CF582ED348F
:100E6A0001F583E09002B3F09002B4E4F0903FFF02
:100E7A0093C4540FFE53060F7D00EE249CF582EDB9
:100E8A003401F583E09002B5F09002B6E4F0903FA9
:100E9A00FF93FE53060F7D00EE249CF582ED34018C
:100EAA00F583E09002B7F09002B8E4F0903FFA932D
:100EBA00C4540FFE53060F7D00EE249CF582ED34D8
:100ECA0001F583E09002B9F09002BAE4F0903FFA9B
:100EDA0093FE53060F7D00EE249CF582ED3401F556
:100EEA0083E09002BBF09002BCE4F0903FFB93C415
:100EFA00540FFE53060F7D00EE249CF582ED34015B
:100F0A00F583E09002BDF09002BEE4F0903FFB93BF
:100F1A00FE53060F7D00EE249CF582ED3401F58325
:100F2A00E0FE9002BFF09002C0E4F075141AF515C5
:100F3A007512A77513027F1A8026900002E0FEBE82
:100F4A00041275127F751302900295E0FDA3E0FE6C
:100F5A008D07800C7512A7751302AF1480027FFFEC
:100F6A00BFFF0302122E900198E0FDA3E0FE8F035B
:100F7A007C00C3EB9DEC9E5008900198EBF0ECA32B
:100F8A00F0900198E0FDA3E0FE8D038E04C3EB947C
:100F9A0008EC9400920140067B087C0080048D03D3
:100FAA008E048B077E00C3EE9F50188E047D00EEE0
:100FBA002512F582E43513F583E0FB8C828D83F0EC
:100FCA000E80E38F057E00900198E0FBA3E0FCEB26
:100FDA00C39DFBEC9EFC900198EBF0ECA3F0EF258F
:100FEA0012F512E43513F51302122E900002E0FEF8
:100FFA00900198F0E4A3F002122E90019BE0900079
:10100A0000F0900198E0FDA3E0FEC3ED9401EE9498
:10101A0000500302122E7F0102122E900002E0FEFF
:10102A0090019BF002122E900000E0541F702E9047
:10103A000003E0FD7E00900002E0FC7B004206EB2C
:10104A004205BE0113BD0010900217E0FE30E50311
:10105A0002122E7FFF02122E7FFF02122E90000034
:10106A00E0FE53061F7D00BE0277BD0074900004A7
:10107A00E0FEBE0102805FBE02028049BE0302801A
:10108A0033BE0402801DBE81028040BE8202802AD5
:10109A00BE83028014BE844474BC55DE4402F5DE6D
:1010AA0002122E53DE7302122E74BC55D64402F578
:1010BA00D602122E53D67302122E74BC55D4440291
:1010CA00F5D402122E53D47302122E74BC55D24494
:1010DA0002F5D202122E53D27302122E7FFF02128F
:1010EA002E7FFF02122E900000E0541F702E9000F7
:1010FA0003E0FD7E00900002E0FC7B004206EB422A
:10110A0005BE0113BD0010900217E0FE30E5030290
:10111A00122E7FFF02122E7FFF02122E900000E095
:10112A00FE53061F7D00BE0205BD000280030211A8
:10113A00FE900003E0FD7E00900002E0FC7B00428E
:10114A0006EB4205EE4D60030211FA900005E0FD40
:10115A007E00900004E0FC7B004206EB4205BE01E3
:10116A0006BD00030211EEBE0205BD00028061BE8B
:10117A000305BD00028045BE0405BD00028029BEEC
:10118A008105BD00028053BE8205BD00028037BEC4
:10119A008305BD0002801BBE8452BD004F74BF553B
:1011AA00DE4403F5DE02122E747F55DE440CF5DEB2
:1011BA00807274BF55D64403F5D68068747F55D6BD
:1011CA00440CF5D6805E74BF55D44403F5D48054DC
:1011DA00747F55D4440CF5D4804A74BF55D2440365
:1011EA00F5D28040747F55D2440CF5D27FFF80340B
:1011FA007FFF80307FFF802C900000E4F090000198
:10120A00F0900198E0FDA3E0FE8D038E04C3EB94F9
:10121A0002EC940040047F02800A8D0780067FFF5B
:10122A0080027FFFBFFF0A90019A74FFF075DCCF3E
:10123A0022EF24F740068FDD75DCC02275DD0075CC
:10124A00DCC02290019AE0FFBF05028073BF06024C
:10125A0080030212DE900198E0FEA3E0FF8E048F65
:10126A0005C3EC9408ED9400920240067C087D00C8
:10127A0080048E048F057F00C3EF9C50188F057E73
:10128A0000EF2512F582E43513F583E0FB8D828E9B
:10129A0083F00F80E38C067F00900198E0FBA3E0C7
:1012AA00FDEBC39EFBED9FFD900198EBF0EDA3F0E3
:1012BA00EC2512F512E43513F5138CDD63DC4022BC
:1012CA00E5E35480FF900198E0FDA3E0ED4FF5E3DC
:1012DA0075DC022275DD0075DC022290019AE0FFBE
:1012EA00BF200D30DE1012096F75DD0085DCDC22AF
:1012FA0075DD0043DC022275D30074FC55D244022A
:10130A00F5D22220D9030213B8E5D9540FFFADD97B
:10131A005305307E00BD0005BE0002801CBD1005CD
:10132A00BE00028036BD2005BE00028043BD3006E5
:10133A00BE000302139E0213B6EF24FB50030213EE
:10134A00B6EF2F90135173800880618009805D8009
:10135A005B1212E58056120BEC8051EF24FB404CD5
:10136A00EF2F90137073804480428040803E803C0F
:10137A00EF24FB4037EF2F901385738008800B8092
:10138A000E8029802712124D8022121301801D120D
:10139A000BDB8018EF24FB4013EF2F9013A9738007
:1013AA00088009800780058003120C0AC2D930D848
:1013BA001575DC0275D21275D41275E300C2DAC251
:1013CA00D9C2D812096510DA0122E5DA20E20375DA
:1013DA00D8FF2275E20053E27F43E22975E3005306
:1013EA00E2BF53D1FB75D18043D1012243E10443CB
:1013FA00E10243E10143D81FD2EAD2AF227E0A7F3B
:10140A00008EEE8FEF7E147F008EE48FE575EB0C75
:10141A0075D21275D4127E007F008EEC8FED75EABC
:05142A004075DC022208
:10143000C021C0E0C0F0C082C083C007C006C005A4
:10144000C004C003C002C001C000C0D075D00012EB
:10145000130DD0D0D000D001D002D003D004D005DD
:10146000D006D007D083D082D0F0D0E0D02132C0D7
:1014700021C0E0C0F0C082C083C007C006C005C064
:1014800004C003C002C001C000C0D075D0003098B5
:1014900005121B3FC298309905121B75C299D0D016
:1014A000D000D001D002D003D004D005D006D007A0
:1014B000D083D082D0F0D0E0D02132C021C0E0C0B3
:1014C000F0C082C083C007C006C005C004C003C00E
:1014D00002C001C000C0D075D00030C005121BB9D9
:1014E000C2C030C105121BEFC2C1D0D0D000D001A4
:1014F000D002D003D004D005D006D007D083D0824C
:10150000D0F0D0E0D02132C021C0E0C0F0C082C015
:1015100083C007C006C005C004C003C002C001C02C
:1015200000C0D075D0009002C3E0FEA3E0FFC0076A
:10153000C0068E828F83120069D006D007D0D0D02B
:1015400000D001D002D003D004D005D006D007D0FF
:1015500083D082D0F0D0E0D02132C021C0E0C0F0F2
:10156000C082C083C007C006C005C004C003C0025B
:10157000C001C000C0D075D0009002C5E0FEA3E05D
:10158000FFC007C0068E828F83120069D006D00785
:10159000D0D0D000D001D002D003D004D005D006E6
:1015A000D007D083D082D0F0D0E0D02132C021C08B
:1015B000E0C0F0C082C083C007C006C005C004C040
:1015C00003C002C001C000C0D075D0009002C1E0CD
:1015D000FEA3E04E600E9002C1E0F8A3E0F5838820
:1015E00082120069D0D0D000D001D002D003D00444
:1015F000D005D006D007D083D082D0F0D0E0D02163
:101600003212199A12014712041F80FB75820022C0
:10161000E582FF901D2893FEEF901D0093FF70015F
:10162000229001ADE0FD701BBF0209EEF4FC529266
:10163000EC529322BF0402800122EEF4FC5296EC9D
:10164000529722BD0214BF0207EE4292EE4293224D
:10165000BF0439EE4296EE429722BD0116BF020842
:10166000EEF45292EE429322BF0421EEF45296EE33
:10167000429722BD0316BF0208EE4292EEF4529347
:1016800022BF0408EE4296EEF4FE529722AF82BFCC
:101690000102800FBF02028013BF03028017BF0444
:1016A00025801BE5C620E21E539DFB22E5C620E3F4
:1016B00015539DF722E5C630E20C539DFB22E5C68B
:1016C00030E303539DF722E582FF901CD893FEEF91
:1016D000901D2893FDEF901D0093FF7003F582226B
:1016E000EE600D8E82C007C00512168DD005D007A2
:1016F0007E00BF0202800ABF03028009BF040C8083
:1017000008AE908006AEA08002AEB0ED5E600475BB
:1017100082012275820022E582FF901CD893FEEFA1
:10172000901D2893FDEF901D0093FFEE600D8E82BB
:10173000C007C00512168DD005D007A2AFE433FE56
:10174000C2AFBF0202800ABF03028017BF04368007
:10175000249001AEE07007EDF4FF52908027ED4237
:101760009080229001AEE07007EDF4FF52A080154A
:10177000ED42A080109001AEE07007EDF4FF52B092
:0B1780008003ED42B0EE6002D2AF2209
:10178C00AC82AD83AE18AF19BE0004EF600C1F0F16
:0F179C00E5171219CFA3DEFADFF88C828D8322B6
:1017AB00AE82AF838F05BD800040012275A15575B8
:1017BB00A1AA43B10475A1007585C0ED2DF5848EEA
:1017CB008EE58630E60375869A75A15575A1AA53E9
:1017DB00B1FB75A10022AF827585C0EF2FF5847523
:1017EB00868E858E8222C0D075D00808B8000D0970
:1017FB00B900090ABA00050BBB00010CD0D032A20C
:10180B00AFC2AFA808A909AA0AAB0BAC8A8588F0AE
:10181B0092AF30F51274012C600D08B8000909B9AC
:10182B0000050ABA00010BC3EC9406FCECC313FCD5
:10183B0075F07DE8A4F8ADF075F07DE9A42DF9E421
:10184B0035F0FD75F07DEAA42DFAE435F0FD75F069
:10185B007DEBA42DFB7D00EC28F582E93DF583EAB9
:10186B003DF5F0EB3D22A2AFC2AFA808A909AA0A29
:10187B00AB0BAC0C92AF75F020E8A4A8F075F02080
:10188B00E9A428F582A8F075F020EAA428F583A82E
:10189B00F075F020EBA428F9A8F075F020ECA42843
:1018AB0089F02285824885834985F04AF54B1218C9
:1018BB000A85824C85834D85F04EF54FE5484549A9
:1018CB00454A454B700122A848A949AA4AAB4B850A
:1018DB004C50854D51854E52854F53E8494A4B60CC
:1018EB00DBC003C002C001C00012180AAC82AD837A
:1018FB00AEF0FFD000D001D002D003ECC39550FC6A
:10190B00ED9551FDEE9552FEEF9553FFC3EC94E828
:10191B00ED9403EE9400EF940040A118B8FF091961
:10192B00B9FF051ABAFF011B884889498A4A8B4BB4
:10193B0074E82550F55074033551F551E43552F5E3
:10194B0052E43553F55385504C85514D85524E8598
:10195B00534F8087AE82AF83C374019EE49F4002D6
:10196B002200C374029EFE74009FFF00BE0005BFE1
:10197B000002002200000000000000000000000038
:10198B0000000000000EBE00EB0FBF00ED00227543
:10199B00A15575A1AA74F855B94406F5B975A100FE
:1019AB0090138812195F759E5D759D0074F05589B3
:1019BB004402F58953C9EF758C06C28DD2A9D28C1E
:0319CB00D2AF2276
:1019CF0020F71130F6138883A88220F509F6A88333
:1019DF007583002280FEF280F5F022E5828517F0F4
:1019EF00A4C582C0F08518F0A4D0F025F0C583857A
:0919FF0017F0A42583F5832232C0
:101A0900AAF0FBE5828517F0A4FCADF0E583851704
:101A1900F0A42DFDE435F0FEE5828518F0A42DFD36
:101A2900E5F03EFEE433FFEA8517F0A42EFEE5F06B
:101A39003FFFE5838518F0A42EFEE5F03FFFE58220
:101A49008519F0A42EFEE5F03FFFEB8517F0A42FD2
:101A5900FFEA8518F0A42FFFE5838519F0A42FFF6D
:0F1A6900E582851AF0A42F8EF08D838C822232B5
:091A7900ABF0A2AFE433FEC2AFF2
:101A8300E0A3D2963300500A0000000000000000DB
:101A93000000C296400A00000000000000000000A1
:101AA300530207DADDDBD900C296EE6002D2AF2221
:101AB30022AF82BF02005036EF75F002A424C3F5B3
:101AC30082740235F0F583E517F0E518A3F0BF0043
:101AD300028005BF0118800B9001AFE024FF9288BC
:101AE300D2A8229001AFE0FF24FF928AD2AA22AFAC
:101AF30082BF02005028BF00028005BF0108800496
:101B0300C2A88002C2AAEF75F002A424C3FE740225
:0F1B130035F0FF8E828F8374B3F0741AA3F02223
:101B230020F71430F6148883A88220F507E6A883EB
:0C1B330075830022E280F7E49322E02298
:101B3F009002C7E0FF7E008F828E83A37517108EF1
:101B4F0018121C80AE829002C8E0FFEEB50701228A
:101B5F009002C7E024B0F582E43401F583E599F0F3
:101B6F009002C7EEF0223003409002C9E0FF9002CE
:101B7F00CAE0FEEFB50605A203C203229002CAE037
:101B8F0024C0F582E43401F583E0F5999002CAE0B0
:101B9F00FF7E008F828E83A37517108E18121C8004
:0A1BAF00AE82AF839002CAEEF0226E
:101BB9009002CBE0FF7E008F828E83A37517108E73
:101BC90018121C80AE829002CCE0FFEEB50701220C
:101BD9009002CBE024D0F582E43401F583E5C1F02D
:101BE9009002CBEEF0223004409002CDE0FF90024B
:101BF900CEE0FEEFB50605A204C204229002CEE0B3
:101C090024E0F582E43401F583E0F5C19002CEE0E9
:101C1900FF7E008F828E83A37517108E18121C8089
:0A1C2900AE82AF839002CEEEF022EF
:101C3300E517451860467A01E51725E0F517E5181D
:101C4300334012F518E5829517E583951840030A8A
:101C530080E6C3E51813F518E51713F517C3E582F6
:101C63009517F5F0E58395184005F58385F082C354
:101C7300E51813F518E51713F517DAE122C2D5E5D0
:101C83008330E70DD2D5E4C39582F582E49583F5DD
:101C930083E51830E70BE4C39517F517E49518F5BA
:101CA30018121C3330D50BE4C39582F582E4958377
:031CB300F5832294
:101CB60061626E646972416461687364416D6269F0
:101CC6006E6F204261736963312E302E3841425265
:021CD600326575
:101CD80000000000000000000000000000000001FB
:101CE80000000000000000000000000000000304E5
:101CF80000000200000000000101010101010101D2
:101D080000000202020202020202000003030303AF
:101D1800030303030000040404040404040400008F
:101D2800010204081020408000000102040810206D
:101D380040800000010204081020408000000102D9
:101D48000408102040800000FFFFFFFFFFFFFFFF97
:101D5800FFFFFF00FFFF0102FFFFFFFFFFFFFFFF85
:101D6800FFFFFFFFFFFFFFFF03FFFFFFFFFFFFFF77
:101D780000E100000000080000000000120110014E
:101D8800EF020108091250C5010101020301120006
:101D980009024B000201008064080B0002020201E4
:101DA80004090400000102020104052400100105D1
:101DB800240100000424020205240600010705810D
:101DC8000308004009040100020A00000407050294
:101DD80002400000070582024000004B000403098E
:101DE8000404001A0341006D00620069006E006F70
:101DF800002000420061007300690063001A0016A9
:101E0800034300440043002000530065007200694A
:101E18000061006C0016000E0341006D006200694D
:071E2800006E006F000E00C8
:101E2F000C0330003100320033003400350036002F
:0A1E3F00370038003900410042006E
:021E4900000097
:041E4B00B31AB31AF9
:041E4F00000000008F
:041E5300000000008B
:00000001FF
