:0600000002006B02162154
:03000B000218CE0A
:030013000216745E
:01001B0032B2
:030023000215893A
:03002B00021B674E
:01003300329A
:03003B000216C7E3
:0300430002154A59
:01004B003282
:030053000215D5BE
:01005B003272
:03006300021B6518
:0300660002171B63
:02006900E4733E
:0D006B0075812D121F12E5826003020066F0
:100078007927E94400601B7A0190215F78FC75A01C
:1000880001E493F2A308B8000205A0D9F4DAF275E6
:02009800A0FFC7
:06009A00E478FFF6D8FD3A
:1000A0007800E84400600A799475A000E4F309D868
:1000B000FC7868E84401600C7902900094E4F0A3B5
:0400C000D8FCD9FA95
:0200C400C20078
:0E00C6007808E4F608F608F608F6780C7600DE
:0200D400C20464
:0200D600C20561
:0300D800020066BD
:1000DC001208D21208FC1208EB75DD0075D30075FE
:1000EC00D50022900203E4F0C200227F00C3E5DBBE
:1000FC009407920140067D077E008004ADDB7E00F4
:10010C008F037C00C3EB9DEC64808EF063F08095D4
:10011C00F05017EF24FCFDE43401FE8F8275830050
:10012C00E0FC8D828E83F00F80C3227F008F057ED2
:10013C0000C3ED9407EE940050188F057E00EF2459
:10014C00FCF582E43401F583E0FC8D828E83F00FA4
:10015C0080DB90000722900002E0FF900205F0E0A7
:10016C0020E0339001FCE0FCA3E0FDA3E0FEA3E063
:10017C00FFBCB022BD041FBE001CBF001975E200FD
:10018C00C2AF75890090C350121A3C90C350121A1A
:10019C003C12380080FE227E007F003000200EBE14
:1001AC0000010F900005C007C006121A3CD006D003
:1001BC0007C3EE9450EF94C340E175820022758220
:1001CC000122751600900205E06003751601851674
:1001DC008222200025900206E0FF601E8FD553D4AA
:1001EC00FCD200BF400F1201A3E582600875D50058
:1001FC0053D4FCD200900206E4F022AF82900205A8
:10020C00E06041C0071201A3E582D0077003F582BC
:10021C0022900206E0FEBE400050207D0074402E6D
:10022C00FEE43DFDEE2414F582ED3400F583EFF091
:10023C00900206E02401F075820122C0071201DE53
:10024C00D00780BF75820022AFF0AE83E5829000AC
:10025C0096F0EEA3F0EFA3F0900205E0700302031A
:10026C000A900094E0FEA3E0FFC3E49E74808FF03C
:10027C0063F08095F0400302030AC007C006120128
:10028C00A3E582D006D0077003F58222900096E099
:10029C00FBA3E0FCA3E0FDC3E49E74808FF063F04D
:1002AC008095F050BC900206E0FABA400050498AA2
:1002BC00017A00744029F9E43AFAE92414F9EA3491
:1002CC0000FA8B828C838DF0121C05F8A3AB82ACE8
:1002DC0083900096EBF0ECA3F0EDA3F089828A8377
:1002EC00E8F0900206E02401F01EBEFF011F900012
:1002FC0094EEF0EFA3F0809F1201DE02026D758286
:10030C000022900203E0F58222900203E07003F5D4
:10031C008222900204E02414F582E43400F583E098
:10032C00FF900204E004F0900203E014F0E070038C
:10033C0053D4F38F822275D50074FC55D44402F546
:10034C00D4C2002230DE19900203E5DBF0900204E7
:10035C00E4F0900203E0600874F355D44408F5D43B
:01036C00226E
:10036E00AFDBBF08028003020741900007E0FE7F6B
:10037E0000900006E0FD7C004FF510EC4EF5117F6D
:10038E0000900001E0F512900000E0FE5460605312
:10039E00900000E0FE5306607D00BE2005BD000209
:1003AE00800BBE4039BD00367FFF0207437420B577
:1003BE0012030207437421B5120280077422B5128C
:1003CE0018800C120137AD82AE838D07020743C031
:1003DE0007120162D0070207437FFF0207437FFF28
:1003EE00020743E51224F4500302073DE512240BE5
:1003FE0083F582E512241083F583E4731F4D3D0DC2
:10040E003D17223D24414343070507060705040710
:10041E0005050707900003E0FEBE0102800ABE023A
:10042E0002800FBE037380147513037514207F12A0
:10043E0080697513157514207F46805F900002E069
:10044E00700875135B7514208044900002E0FEBEA8
:10045E00010875138F7514208034900002E0FEBEE3
:10046E00020875135F7514208024900002E0FEBE12
:10047E0003087513007514008014900002E0FEBE90
:10048E00040875137975142080047FFF800D851381
:10049E0082851483E493FF80027FFFBFFF03020770
:1004AE00438F057E00C3ED9510EE951150048D100F
:1004BE008E11AD10AE11C3ED9408EE940092024071
:1004CE00067B087C008004AB10AC118B077C00C34C
:1004DE00EC9F50198C027B00EC2513F582E4351449
:1004EE00F583E493F98A828B83F00C80E28F037C90
:1004FE0000EDC39BFDEE9CFE8D108E11EF2513F5C6
:10050E0013E43514F514020743900002E0FE8E103A
:10051E00751100020743900099E0900000F0AD10B5
:10052E00AE11C3ED9401EE940050030207437F0118
:10053E00020743900002E0FE900099F002074390FC
:10054E000000E0541F702F900003E0FD7E0090002D
:10055E0002E0FC7B004206EB4205BE0114BD001119
:10056E0090201CE493FE30E5030207437FFF020751
:10057E00437FFF020743900000E0FE53061F7D00FD
:10058E00BE0277BD0074900004E0FEBE0102805FE3
:10059E00BE02028049BE03028033BE0402801DBE2D
:1005AE0081028040BE8202802ABE83028014BE84F5
:1005BE004474BC55DE4402F5DE02074353DE73027B
:1005CE00074374BC55D64402F5D602074353D6737F
:1005DE0002074374BC55D44402F5D402074353D4E6
:1005EE007302074374BC55D24402F5D2020743533B
:1005FE00D2730207437FFF0207437FFF0207439038
:10060E000000E0541F702F900003E0FD7E0090006C
:10061E0002E0FC7B004206EB4205BE0114BD001158
:10062E0090201CE493FE30E5030207437FFF020790
:10063E00437FFF020743900000E0FE53061F7D003C
:10064E00BE0205BD0002800302071B900003E0FD01
:10065E007E00900002E0FC7B004206EB4205EE4D70
:10066E006003020717900005E0FD7E00900004E095
:10067E00FC7B004206EB4205BE0106BD00030207ED
:10068E000BBE0205BD00028060BE0305BD000280E8
:10069E0044BE0405BD00028028BE8105BD00028057
:1006AE0052BE8205BD00028036BE8305BD000280AB
:1006BE001ABE8451BD004E74BF55DE4403F5DE8074
:1006CE0074747F55DE440CF5DE806A74BF55D644D3
:1006DE0003F5D68060747F55D6440CF5D6805674DB
:1006EE00BF55D44403F5D4804C747F55D4440CF5D7
:1006FE00D4804274BF55D24403F5D28038747F55EE
:10070E00D2440CF5D27FFF802C7FFF80287FFF80A4
:10071E0024900000E4F0900001F0AD10AE11C3ED96
:10072E009402EE940040047F02800AAF1080067F90
:10073E00FF80027FFFBFFF077512FF75DCCF22EF30
:10074E0024F740068FDD75DCC02275DD0075DCC038
:10075E00227405B51202805D7406B51266AE10AF36
:10076E0011C3EE9408EF9400920340067C087D00BE
:10077E008004AC10AD117D00C3ED9C50198D027B31
:10078E0000ED2513F582E43514F583E493F98A829E
:10079E008B83F00D80E28C037D00EEC39BFEEF9DFC
:1007AE00FF8E108F11EC2513F513E43514F5148C10
:1007BE00DD63DC4022E5E35480FFE5104FF5E37581
:1007CE00DC022275DD0075DC02227420B5120D30BC
:1007DE00DE101200F775DD0085DCDC2275DD0043CE
:1007EE00DC022275D30074FC55D24402F5D22220CD
:1007FE00D9030208A8E5D9540FFFADD95305307EB1
:10080E0000BD0005BE0002801CBD1005BE000280AA
:10081E0036BD2005BE00028043BD3006BE00030279
:10082E00088E0208A6EF24FB50030208A6EF2F90B5
:10083E00084173800880618009805D805B1207D853
:10084E0080561203508051EF24FB404CEF2F90083E
:10085E006073804480428040803E803CEF24FB40A9
:10086E0037EF2F900875738008800B800E802980DB
:10087E002712075F80221207F1801D120342801893
:10088E00EF24FB4013EF2F900899738008800980A6
:10089E00078005800312036EC2D930D81A75DC02A8
:1008AE0075D21275D41275E300C2DAC2D9C2D890CD
:1008BE000099E4F01200EF10DA0122E5DA20E203EB
:1008CE0075D8FF2275E20053E27F43E22975E300FB
:1008DE0053E2BF53D1FB75D18043D1012243E104D2
:1008EE0043E10243E10143D81FD2EAD2AF227E0098
:1008FE007F008EEC8FED7E0A7F008EEE8FEF7E14E2
:10090E007F008EE48FE575EB0C75D21275D41275DF
:10091E00EA4075DC022275820012153AAF82BF0FD3
:10092E00028015BF0C02801090020EE09001B2F012
:10093E00758200121504800590020EEFF07582018B
:10094E0012153AAF82BF0F028013BF0C02800E90B9
:10095E00020DE09001B2F075820102150490020DB5
:10096E00EFF0229001B37401F075820E12172A90E7
:10097E0001B47401F075820E1218319001B3740136
:10098E00F075820F12172A9001B47401F075820F60
:10099E00121831900BB8E4F5F012198B9001B4E4F3
:1009AE00F075820E1218319001B4E4F075820F12B8
:1009BE0018319001F4E4F5F012198B9001B3740123
:1009CE00F075821112172A9001B3E4F07582241289
:1009DE00172A9001B3E4F075822512172A75822426
:1009EE001217E17582251217E1E582600790020C5D
:1009FE00E4F0800690020C7401F090020CE0FFBF50
:100A0E000003020BD8BF01028001221200DC90010C
:100A1E00B47401F07582111218319001B37401F0A3
:100A2E0075821012172A7F00BF550050568F057E13
:100A3E0000C007C005C006900003121AC7AD82AEF3
:100A4E008315811581ED249AFDEE3400FE8D828E84
:100A5E0083E4F08D828E83A37464F08D828E83A3E3
:100A6E00A3E4F07D9A7E007B007CFF8D828E838CCA
:100A7E00F0EB121B69900005E4F5F012198BD0070C
:100A8E000F80A57F00BF550050558F057E00C00713
:100A9E00C005C006900003121AC7AD82AE83158141
:100AAE001581ED249AFDEE3400FE8D828E837464E2
:100ABE00F08D828E83A3E4F08D828E83A3A3F07DCE
:100ACE009A7E007B007CFF8D828E838CF0EB121B56
:100ADE0069900005E4F5F012198BD0070F80A67F00
:100AEE0000BF550050558F057E00C007C005C006DB
:100AFE00900003121AC7AD82AE8315811581ED24C5
:100B0E009AFDEE3400FE8D828E83E4F08D828E830C
:100B1E00A3F08D828E83A3A37464F07D9A7E007BF6
:100B2E00007CFF8D828E838CF0EB121B699000058A
:100B3E00E4F5F012198BD0070F80A67F00BF550089
:100B4E0050538F057E00C007C005C00690000312EB
:100B5E001AC7AD82AE8315811581ED249AFDEE3450
:100B6E0000FE8D828E83E4F08D828E83A3F08D82C3
:100B7E008E83A3A3F07D9A7E007B007CFF8D828EF8
:100B8E00838CF0EB121B69900005E4F5F012198BC3
:100B9E00D0070F80A812194EAC82AD83AEF0FF9035
:100BAE0001A9ECF0EDA3F0EEA3F0EFA3F09001A5F8
:100BBE00ECF0EDA3F0EEA3F0EFA3F0900064E4F5FB
:100BCE00F012198B1201DE0209247F00BF5500506E
:100BDE00568F057E00C007C005C006900003121A8E
:100BEE00C7AD82AE8315811581ED249AFDEE3400DA
:100BFE00FE8D828E83E4F08D828E83A37464F08DDD
:100C0E00828E83A3A3E4F07D9A7E007B007CFF8D11
:100C1E00828E838CF0EB121B69900005E4F5F012C6
:100C2E00198BD0070F80A59001B3E4F075821012D6
:100C3E00172A53C67F9001B37401F07582251217DF
:100C4E002A9001B4E4F07582251218319001B4E4B3
:100C5E00F07582111218319001B47401F075820F83
:100C6E001218319001B4E4F075820E021831900220
:100C7E000CE0FFBF0003020CFCBF01028001221238
:100C8E00194EAC82AD83AEF0FF9001A1ECF0EDA356
:100C9E00F0EEA3F0EFA3F012030EE582604D120307
:100CAE0015E5829001A0F09001A1E0FCA3E0FDA368
:100CBE00E0FEA3E0FF9001A9ECF0EDA3F0EEA3F0AF
:100CCE00EFA3F09001A5ECF0EDA3F0EEA3F0EFA3EF
:100CDE00F090020AE0FF600ABF01028008BF021A0C
:100CEE008006020D090212A40210530213989001FD
:100CFE00B47401F075820F021831229001ADE0FF3D
:100D0E00BF03004003020E93EF90209D93FE9001CF
:100D1E00A0E0FDB5060FBF020590020BE4F09001B6
:100D2E00ADEF04F022EF9020A393FEEDB50610BFB9
:100D3E00020690020B7401F09001ADEF04F022EF69
:100D4E009020A093FEEDB506028003020E67BF024F
:100D5E00028003020E5F75820F12020775820C125B
:100D6E00020775825D120207758206120207903F16
:100D7E00FCE493F582120207903FFDE493F5821294
:100D8E000207903FFEE493F582120207903FFFE4C4
:100D9E0093F582120207903FFAE493F5821202074E
:100DAE00903FFBE493F58212020775820C12020744
:100DBE007C007E00C3EC940CEE648094805020EC9A
:100DCE0024A9F582EE3420F583E493F582C006C0A3
:100DDE0004120207D004D0060CBC00D80E80D575C4
:100DEE0082051202077C007E00C3EC9405EE64803F
:100DFE0094805020EC24B5F582EE3420F583E493F4
:100E0E00F582C006C004120207D004D0060CBC0046
:100E1E00D80E80D57582051202077C007E00C3ECC9
:100E2E009405EE648094805020EC24BAF582EE3462
:100E3E0020F583E493F582C006C004120207D004A5
:100E4E00D0060CBC00D80E80D59001ADE4F0120196
:100E5E00DE9001ADE02401F022EF9020A693FEED8E
:100E6E00B5061CBF021190020A7402F090019AE4BA
:100E7E00F0A3F09001ADF09001ADE02401F02290CE
:100E8E0001ADE4F022EFFE24F7500122EE240A8396
:100E9E00F582EE240D83F583E473525252BAC9D80B
:100EAE00E7F6FD1010100E0E0E0E0E0E9001A0E0C5
:100EBE009001AEF09001ADEF04F0229001A0E09011
:100ECE0001AFF09001ADEF04F0229001A0E090018F
:100EDE00B0F09001ADEF04F0229001A0E09001B1CE
:100EEE00F09001ADEF04F0229001ADEF04F02290EE
:100EFE00020BE0FF6007BF0103020FB3229001AFA8
:100F0E00E0FF9001AEE06F6455FF9001B0E0FEB5DA
:100F1E0007028003020FAD9001B47401F075820ECA
:100F2E001218319001AEE0FF7E007D008D048E051B
:100F3E008F067F009001AFE0F8E4F9FAFBE82FFF8F
:100F4E00E93EFEEA3DFDEB3CFCC007C006C005C015
:100F5E0004900003E4F5F0121C21AC82AD83AEF0D8
:100F6E00FFE58124FCF58190019CECF0EDA3F0EE01
:100F7E00A3F0EFA3F090019AE4F0A3F09001B5F086
:100F8E009001B614F0E4A3F090009A75F0001218D8
:100F9E00A69001B1E0900199F090020A7401F090D0
:100FAE0001ADE4F0229001AFE0FF9001AEE06F647E
:100FBE0055FF9001B0E0FEB50702800302104D9080
:100FCE0001B47401F075820E1218319001AEE0FF7B
:100FDE007E007D008D048E058F067F009001AFE0B0
:100FEE00F8E4F9FAFBE82FFFE93EFEEA3DFDEB3CA3
:100FFE00FCC007C006C005C004900003E4F5F01263
:10100E001C21AC82AD83AEF0FFE58124FCF581900E
:10101E00019CECF0EDA3F0EEA3F0EFA3F090019A9B
:10102E00E4F0A3F09001B5F09001B614F0E4A3F053
:10103E0090009A75F0001218A690020A7401F090B2
:10104E0001ADE4F02290019AE0FEA3E0FFC3740C20
:10105E009EE49F50030211E2EE240A83F582EE24F1
:10106E001183F583E4738EB7D3E9FF152B4967849B
:10107E009CB4CC101010101011111111111111116E
:10108E009001A0E0FFBFFF08900209E4F00211E218
:10109E009002097401F090020EEFF09001B2EFF0A1
:1010AE007582001215040211E2900209E0FFBF01E1
:1010BE00149001A0E0FF90020DF09001B2EFF075D8
:1010CE008201121504900209E0FFBF010E9001A0EB
:1010DE00E09001B2F0758202121504900209E0FF51
:1010EE00BF010E9001A0E09001B2F07582031215BF
:1010FE0004900209E0FFBF010E9001A0E09001B242
:10110E00F0758204121504900209E0FFBF010E90E3
:10111E0001A0E09001B2F07582051215049002094B
:10112E00E0FFBF010280030211E29001A0E09001F6
:10113E00B2F07582061215040211E2900209E0FF68
:10114E00BF010280030211E29001A0E09001B2F013
:10115E007582071215040211E2900209E0FFBF0129
:10116E000280030211E29001A0E09001B2F07582BC
:10117E0008121504805E900209E0FFBF015690012F
:10118E00A0E09001B2F0758209121504804690021B
:10119E0009E0FFBF013E9001A0E09001B2F0758220
:1011AE000A121504802E900209E0FFBF012690015D
:1011BE00A0E09001B2F075820B1215048016900219
:1011CE0009E0FFBF010E9001A0E09001B2F0758220
:1011DE000C12150490019AE0FEA3E0FF8E048F0519
:1011EE00C3EC940DED9400500B90019A74012EF007
:1011FE00E43FA3F090019AE0FEA3E0FFBE0D05BF11
:10120E00000280030212A190020AE4F075820F120E
:10121E00020775820C12020775825D120207758233
:10122E000012153A12020775820112153A120207C0
:10123E0075820212153A12020775820312153A12BE
:10124E00020775820412153A1202077582051215ED
:10125E003A12020775820612153A120207758207B4
:10126E0012153A12020775820812153A1202077504
:10127E00820912153A12020775820A12153A1202E3
:10128E000775820B12153A12020775820C12153A67
:10129E001202070201DE90019AE0FEA3E0FF8E0427
:1012AE008F05C3EC9402ED9401502490020FE0FCE4
:1012BE00A3E0FDEE2CFEEF3DFF9001A0E0FD8E823F
:1012CE008F83F090019AE02401F0A3E03400F090B7
:1012DE00019CE024FFFCA3E034FFFDA3E034FFFEFD
:1012EE00A3E034FFFF90019CECF0EDA3F0EEA3F031
:1012FE00EFA3F090019CE0F5F0A3E042F0A3E042F2
:10130E00F0A3E045F0705190020AE4F0900199E0EC
:10131E0070387E9A7F0090019AE0FCA3E0FD0CBC31
:10132E0000010D7D008D028C037C007D008E008FF0
:10133E0001E4FEFFE84204E94205EE4203EF4202F9
:10134E008C828D838BF0EA121B699001B4E4F075E8
:10135E00820E1218310201DE22900213E0F5F0A384
:10136E00E045F070149002137401F0E4A3F09001C4
:10137E00B404F075820E021831900213E4F0A3F05B
:10138E009001B4F075820E0218319001A9E0FCA311
:10139E00E0FDA3E0FEA3E0FF9001A1E0F8A3E0F9D9
:1013AE00A3E0FAA3E0FBE8C39CFCE99DFDEA9EFEE8
:1013BE00EB9FFFC3EC94E8ED9403EE9400EF9400E2
:1013CE0050012290020BE0FF6005BF012080101239
:1013DE0001DE90020DE0FFBF0F13121367800E1295
:1013EE0001DE90020DE0FFBF0F031213679001A103
:1013FE00E0FCA3E0FDA3E0FEA3E0FF9001A9ECF06A
:10140E00EDA3F0EEA3F0EFA3F090020EE0FBBB0F06
:10141E00028001229001A5E0F8A3E0F9A3E0FAA36F
:10142E00E0FBECC398FCED99FDEE9AFEEF9BFF906E
:10143E000211E0FAA3E0FB8A008B017A007B00C068
:10144E0007C006C005C004C000C001C002C00390A2
:10145E0003E8E4F5F0121C21A882A983AAF0FBE5AB
:10146E008124FCF581D004D005D006D007C3EC98BA
:10147E00ED99EE9AEF9B5001227F00BF5500503838
:10148E008F057E00C007C005C006900003121AC764
:10149E00AD82AE8315811581D007ED249AFDEE3411
:1014AE0000FE8D828E83E4F08D828E83A3F08D827A
:1014BE008E83A3A3F00F80C37E9A7F007C007DFFF6
:1014CE008E828F838DF0EC121B69900001E4F5F093
:1014DE0012198B90020AE4F09001A1E0FCA3E0FD4A
:1014EE00A3E0FEA3E0FF9001A5ECF0EDA3F0EEA3C8
:0514FE00F0EFA3F02255
:10150400AF82BF800040012275A15575A1AA43B1E5
:101514000475A1007585C0EF2FF5849001B2E0F544
:101524008EE58630E60375869A75A15575A1AA5392
:10153400B1FB75A10022AF827585C0EF2FF58475CC
:06154400868E858E8222D6
:10154A00C021C0E0C0F0C082C083C007C006C00589
:10155A00C004C003C002C001C000C0D075D00012D0
:10156A0007FDD0D0D000D001D002D003D004D005DE
:10157A00D006D007D083D082D0F0D0E0D02132C0BC
:10158A0021C0E0C0F0C082C083C007C006C005C049
:10159A0004C003C002C001C000C0D075D00030989A
:1015AA0005121DF6C298309905121E36C299D0D07E
:1015BA00D000D001D002D003D004D005D006D00785
:1015CA00D083D082D0F0D0E0D02132C021C0E0C098
:1015DA00F0C082C083C007C006C005C004C003C0F3
:1015EA0002C001C000C0D075D00030C005121E84F0
:1015FA00C2C030C105121EC4C2C1D0D0D000D001B1
:10160A00D002D003D004D005D006D007D083D08230
:10161A00D0F0D0E0D02132C021C0E0C0F0C082C0FA
:10162A0083C007C006C005C004C003C002C001C011
:10163A0000C0D075D000900217E0FEA3E0FFC007FB
:10164A00C0068E828F83120069D006D007D0D0D010
:10165A0000D001D002D003D004D005D006D007D0E4
:10166A0083D082D0F0D0E0D02132C021C0E0C0F0D7
:10167A00C082C083C007C006C005C004C003C00240
:10168A00C001C000C0D075D000900219E0FEA3E0EE
:10169A00FFC007C0068E828F83120069D006D0076A
:1016AA00D0D0D000D001D002D003D004D005D006CB
:1016BA00D007D083D082D0F0D0E0D02132C021C070
:1016CA00E0C0F0C082C083C007C006C005C004C025
:1016DA0003C002C001C000C0D075D000900215E05E
:1016EA00FEA3E04E600E900215E0F8A3E0F58388B1
:1016FA0082120069D0D0D000D001D002D003D00429
:10170A00D005D006D007D083D082D0F0D0E0D02147
:10171A0032121A77120971120C7C80FB7582002230
:10172A00E582FF90210F93FEEF9020E793FF70016F
:10173A00229001B3E0FD701BBF0209EEF4FC529245
:10174A00EC529322BF0402800122EEF4FC5296EC82
:10175A00529722BD0214BF0207EE4292EE42932232
:10176A00BF0439EE4296EE429722BD0116BF020827
:10177A00EEF45292EE429322BF0421EEF45296EE18
:10178A00429722BD0316BF0208EE4292EEF452932C
:10179A0022BF0408EE4296EEF4FE529722AF82BFB1
:1017AA000102800FBF02028013BF03028017BF0429
:1017BA0025801BE5C620E21E539DFB22E5C620E3D9
:1017CA0015539DF722E5C630E20C539DFB22E5C670
:1017DA0030E303539DF722E582FF9020BF93FEEF8B
:1017EA0090210F93FDEF9020E793FF7003F582227B
:1017FA00EE600D8E82C007C0051217A7D005D0076C
:10180A007E00BF0202800ABF03028009BF040C8067
:10181A0008AE908006AEA08002AEB0ED5E600475A0
:10182A0082012275820022E582FF9020BF93FEEF9B
:10183A0090210F93FDEF9020E793FFEE600D8E82CB
:10184A00C007C0051217A7D005D007A2AFE433FE20
:10185A00C2AFBF0202800ABF03028017BF043680EC
:10186A00249001B4E07007EDF4FF52908027ED4216
:10187A009080229001B4E07007EDF4FF52A0801529
:10188A00ED42A080109001B4E07007EDF4FF52B071
:0B189A008003ED42B0EE6002D2AF22EE
:1018A600AC82AD839001B6E0FEA3E0FFBE0003600C
:1018B600121F0F9001B5E08C828D83121AACA3DE45
:0818C600FADFF88C828D832209
:1018CE00C0D075D00808B8000D09B900090ABA00D1
:1018DE00050BBB00010CD0D032A2AFC2AFA808A935
:1018EE0009AA0AAB0BAC8A8588F092AF30F5127458
:1018FE00012C600D08B8000909B900050ABA0001EB
:10190E000BC3EC9406FCECC313FC75F07DE8A4F855
:10191E00ADF075F07DE9A42DF9E435F0FD75F07D9F
:10192E00EAA42DFAE435F0FD75F07DEBA42DFB7DD8
:10193E0000EC28F582E93DF583EA3DF5F0EB3D221A
:10194E00A2AFC2AFA808A909AA0AAB0BAC0C92AF02
:10195E0075F020E8A4A8F075F020E9A428F582A877
:10196E00F075F020EAA428F583A8F075F020EBA41A
:10197E0028F9A8F075F020ECA42889F0228582229F
:10198E0085832385F024F5251218E7858226858325
:10199E002785F028F529E5224523452445257001A4
:1019AE0022A822A923AA24AB2585262A85272B85A2
:1019BE00282C85292DE8494A4B60DBC003C002C0A4
:1019CE0001C0001218E7AC82AD83AEF0FFD000D09C
:1019DE0001D002D003ECC3952AFCED952BFDEE95BC
:1019EE002CFEEF952DFFC3EC94E8ED9403EE9400DE
:1019FE00EF940040A118B8FF0919B9FF051ABAFFF4
:101A0E00011B882289238A248B2574E8252AF52A2E
:101A1E007403352BF52BE4352CF52CE4352DF52DF3
:101A2E00852A26852B27852C28852D298087AE8211
:101A3E00AF83C374019EE49F40022200C374029ED2
:101A4E00FE74009FFF00BE0005BF000200220000D2
:101A5E000000000000000000000000000000000E6A
:101A6E00BE00EB0FBF00ED002275A15575A1AA7443
:101A7E00F855B94406F5B975A100901388121A3CB1
:101A8E00759E5D759D0074F055894402F58953C9A4
:0D1A9E00EF758C06C28DD2A9D28CD2AF227A
:101AAC0020F71130F6138883A88220F509F6A88355
:101ABC007583002280FEF280F5F022C01585811519
:101ACC00C082C083E5812405F581AF150FE515248F
:101ADC0003F8A607087600087640E51524FCFD7E81
:101AEC00007F40E5152406F9A815088604E51524A1
:101AFC00FCF886038CF0EBA4F709A7F0E515240697
:101B0C0004F98704A81508860374012DFAE43EFE37
:101B1C008A828E838FF0121C058BF0A4FBE51524B2
:101B2C0003F8740126FDE40836FE0886078D828EC4
:101B3C00838FF0121C05FDE51524FCF886078DF04B
:101B4C00EFA42B2CF7E5152406F987060987078ED9
:0A1B5C00828F83851581D015223297
:011B6700324B
:101B6900ABF0A2AFE433FEC2AFE0A37A0833D2965A
:101B79004002C2967905D9FEC296DAF1DBEBEE6036
:041B890002D2AF22B3
:101B8D0022AF82BF0200503EEF75F002A42417FD74
:101B9D00740235F0FE9001B9E0FBA3E0FC8D828E5E
:101BAD0083EBF0ECA3F0BF00028005BF0118800BA2
:101BBD009001BBE024FF9288D2A8229001BBE0FFE8
:101BCD0024FF928AD2AA22AF82BF02005028BF0002
:101BDD00028005BF01088004C2A88002C2AAEF7569
:101BED00F002A42417FE740235F0FF8E828F8374E9
:071BFD008DF0741BA3F02220
:101C050020F71430F6148883A88220F507E6A88308
:101C150075830022E280F7E49322E022C0158581D6
:101C250015C082C083C0F0C0E0E5812408F581E5D8
:101C3500152409F92402F8AF150F8F06C000A80670
:101C45008606E51524FAFDFC0C0CA8048604D000D4
:101C55008EF0ECA4FEABF0A60608A6038F068E0058
:101C650086068D048C0086048EF0ECA4FEABF0A7EE
:101C75000609A703E51524092403F987068F0474CB
:101C8500032CF886048D038B0086038CF0EBA42EC1
:101C9500FEF78F0474022CF886048D03EB04F88696
:101CA500038CF0EBA42EF7E51524092402F987042B
:101CB500098706198F0374022BF886038D028A00A3
:101CC50086028BF0EAA4ABF02CFCEB3EFEA70409E0
:101CD500A706198F03EB04F886038D02EA04F8863C
:101CE500028BF0EAA4ABF02CFCEB3EFEA70409A79F
:101CF500068F0674032EF98F06EE04F886068D040A
:101D050074022CF886048EF0ECA4F78F06EE04F925
:101D15008F06EE04F886068D048C0086048EF0ECA2
:101D2500A4FEABF0A70609A7038D0674032EF98F51
:101D3500068E0086068D0474032CF886048EF0EC5E
:101D4500A4F78D06EE04F98F068E0086068D04EC49
:101D550004F886048EF0ECA4FEABF0A70609A703F1
:101D65008D0177008F017700E5152409F9E5152424
:101D750005F8E7F609E708F609E708F609E708F6BA
:101D8500191919A815088602088603088606088603
:101D950007E5152405F8EA26F6EB0836F6EE0836CB
:101DA500F6EF0836F6E5152405F8E6F70908E6F72F
:101DB5000908E6F70908E6F7191919E709E709E730
:101DC50009E7E51524FAF886040886050886060855
:101DD5008607E5152405F8EC26FCED0836FDEE082A
:101DE50036FEEF08368C828D838EF0851581D015F1
:011DF50022CB
:101DF60090021BE0FF7E000FBF00010E7410C0E0D2
:101E0600E4C0E08F828E83121F16AE821581158183
:101E160090021CE0FFEEB507012290021BE024BCF5
:101E2600F582E43401F583E599F090021BEEF02289
:101E360030044A90021DE0FF90021EE0FEEFB50658
:101E460005A204C2042290021EE024CCF582E434EA
:101E560001F583E0F59990021EE0FF7E000FBF00BA
:101E6600010E7410C0E0E4C0E08F828E83121F164C
:0E1E7600AE82AF831581158190021EEEF02220
:101E840090021FE0FF7E000FBF00010E7410C0E03F
:101E9400E4C0E08F828E83121F16AE8215811581F5
:101EA400900220E0FFEEB507012290021FE024DC3F
:101EB400F582E43401F583E5C1F090021FEEF022CF
:101EC40030054A900221E0FF900222E0FEEFB506C1
:101ED40005A205C20522900222E024ECF582E43436
:101EE40001F583E0F5C1900222E0FF7E000FBF0000
:101EF400010E7410C0E0E4C0E08F828E83121F16BE
:0E1F0400AE82AF8315811581900222EEF0228D
:101F120075820022C015858115AE82E583FF33E408
:101F220033FD6009C3E49EFBE49FFC80048E038FB3
:101F320004E51524FCF808E630E70FE51524FCF863
:101F4200C3E496FE08E496FF800AE51524FCF886B1
:101F520006088607C005C006C0078B828C83121F45
:101F620084AE82AF8315811581D005ED600DC3E487
:101F72009EFCE49FFD8C828D8380048E828F83D0B1
:101F82001522C015858115AE82AF837D007C00E5E8
:101F92001524FCF808E6235401FB702FE51524FCF8
:101FA200F8E626F608E633F6E51524FCF8C3EE96C5
:101FB200EF08965011E51524FCF808E618C313C67D
:101FC20013C608F680050C8C0580C4E51524FCF8C0
:101FD200C3EE96EF0896400DE51524FCF8EEC39685
:101FE200FEEF0896FFE51524FCF808E618C313C6B1
:101FF20013C608F68D041DEC70D18E828F83D01526
:0120020022BB
:1020030012011001EF020108091250C5010101027A
:102013000301090246000201008064080B0002026A
:102023000201040904000001020201040524001056
:1020330001042402020524060001070581030800A8
:102043004009040100020A000004070502024000DF
:102053000007058202400000040309041A0341003B
:102063006D00620069006E006F0020004200610095
:10207300730069006300160343004400430020001B
:10208300530065007200690061006C000E0341009B
:0A2093006D00620069006E006F002E
:10209D0061626E646972416461687364416D626905
:1020AD006E6F204261736963312E312E3041425281
:0220BD0032658A
:1020BF000000000000000000000000000000000110
:1020CF0000000000000000000000000000000304FA
:1020DF0000000200000000000101010101010101E7
:1020EF0000000202020202020202000003030303C5
:1020FF0003030303000004040404040404040000A5
:10210F000102040810204080000001020408102082
:10211F0040800000010204081020408000000102EE
:10212F000408102040800000FFFFFFFFFFFFFFFFAC
:10213F00FFFFFF00FFFF0102FFFFFFFFFFFFFFFF9A
:10214F00FFFFFFFFFFFFFFFF03FFFFFFFFFFFFFF8C
:0B215F0000E10000000008000000008C
:0E216A001B17000000010F0F9A000300000079
:02217800000065
:04217A008D1B8D1B11
:04217E00000000005D
:042182000000000059
:00000001FF
