:0600000002006B02151165
:03000B000217FBDE
:030013000215646F
:01001B0032B2
:030023000214794B
:03002B00021A8135
:01003300329A
:03003B000215B7F4
:0300430002143A6A
:01004B003282
:030053000214C5CF
:01005B003272
:03006300021A116D
:0300660002160B74
:02006900E4733E
:0D006B00758153121616E5826003020066CF
:1000780079DFE94400601B7A01901D8278F075A051
:1000880001E493F2A308B8000205A0D9F4DAF275E6
:02009800A0FFC7
:06009A00E478FFF6D8FD3A
:1000A0007800E84400600A799475A000E4F309D868
:1000B000FC785CE84401600C7902900094E4F0A3C1
:0400C000D8FCD9FA95
:1000C40075220B7523167524007525007526017598
:1000D400280F75290F752A94752B00753F037540F9
:0600E40000E4F541F542C5
:0900EA0075141A75150075160055
:0E00F4007808E4F608F608F608F6780C7600B0
:02010200C20336
:02010400C20433
:030106000200668E
:10010A007582001217EBAF82BF0F028010BF0C027C
:10011A00800B8529827583001217B580028F297595
:10012A0082011217EBAF82BF0F02800EBF0C028052
:10013A00098528827583010217B58F28229001AD9F
:10014A007401F075820E12161A9001AE7401F075E0
:10015A00820E1217219001AD7401F075820F1216EA
:10016A001A9001AE7401F075820F121721900BB824
:10017A00E4F5F01218B89001AEE4F075820E121789
:10018A00219001AEE4F075820F1217219001F4E478
:10019A00F5F01218B89001AD7401F07582111216BB
:1001AA001A9001ADE4F075822412161A9001ADE49A
:1001BA00F075822512161A7582241216D1758225B7
:1001CA001216D1E58260057526008003752601E4C2
:1001DA00B526030203827401B526028001221209A0
:1001EA005C9001AE7401F07582111217219001AD75
:1001FA007401F075821012161A7F00BF5500504F15
:10020A008F17751800900003C0071219F4AD82AE5B
:10021A0083ED2494FDEE3400FE8D828E83E4F08D0E
:10022A00828E83A37464F08D828E83A3A3E4F07D0F
:10023A00947E007B007CFF8D828E838CF0EB121AF9
:10024A0083900005E4F5F01218B8D0070F80AC7F50
:10025A0000BF5500504E8F17751800900003C00755
:10026A001219F4AD82AE83ED2494FDEE3400FE8DB6
:10027A00828E837464F08D828E83A3E4F08D828EE5
:10028A0083A3A3F07D947E007B007CFF8D828E8306
:10029A008CF0EB121A83900005E4F5F01218B8D02E
:1002AA00070F80AD7F00BF5500504E8F177518009D
:1002BA00900003C0071219F4AD82AE83ED2494FDB9
:1002CA00EE3400FE8D828E83E4F08D828E83A3F05D
:1002DA008D828E83A3A37464F07D947E007B007C60
:1002EA00FF8D828E838CF0EB121A83900005E4F561
:1002FA00F01218B8D0070F80AD7F00BF5500504CE0
:10030A008F17751800900003C0071219F4AD82AE5A
:10031A0083ED2494FDEE3400FE8D828E83E4F08D0D
:10032A00828E83A3F08D828E83A3A3F07D947E00B8
:10033A007B007CFF8D828E838CF0EB121A839000F7
:10034A0005E4F5F01218B8D0070F80AF12187BAC8D
:10035A0082AD83AEF0FF8C3B8D3C8E3D8F3E8C3759
:10036A008D388E398F3A120A4B900064E4F5F012F8
:10037A0018B8120A4B02010A7F00BF5500504F8F6E
:10038A0017751800900003C0071219F4AD82AE83E6
:10039A00ED2494FDEE3400FE8D828E83E4F08D828E
:1003AA008E83A37464F08D828E83A3A3E4F07D947C
:1003BA007E007B007CFF8D828E838CF0EB121A8389
:1003CA00900005E4F5F01218B8D0070F80AC900140
:1003DA00ADE4F075821012161A53C67F9001AD74FF
:1003EA0001F075822512161A9001AEE4F075822585
:1003FA001217219001AEE4F07582111217219001B3
:10040A00AE7401F075820F1217219001AEE4F075F7
:10041A00820E021721E4B5260280587401B5265FC0
:10042A0012187B85823385833485F035F536120BB5
:10043A00B1E582603B120BB8858232AC33AD34AE83
:10044A0035AF368C3B8D3C8E3D8F3E8C378D388E4A
:10045A00398F3AE4B52402800E7401B52402800A69
:10046A007402B5241A800602048A02079F02071240
:10047A0002084E9001AE7401F075820F0217212214
:10048A0074FD254350030205EAE543901CC093B569
:10049A00320B7402B54303752500054322E54390E8
:1004AA001CC693B5320B7402B54303752501054387
:1004BA0022E543901CC393FFB5320280030205CDA7
:1004CA007402B5430280030205CA75820F120A6AD2
:1004DA0075820C120A6A75825D120A6A75820612A0
:1004EA000A6A903FFCE493F582120A6A903FFDE49F
:1004FA0093F582120A6A903FFEE493F582120A6A21
:10050A00903FFFE493F582120A6A903FFAE493F56A
:10051A0082120A6A903FFBE493F582120A6A758294
:10052A000C120A6A7E007F00C3EE940CEF6480947A
:10053A00805020EE24CCF582EF341CF583E493F549
:10054A0082C007C006120A6AD006D0070EBE00D8BB
:10055A000F80D5758205120A6A7E007F00C3EE9469
:10056A0005EF648094805020EE24D8F582EF341C85
:10057A00F583E493F582C007C006120A6AD006D052
:10058A00070EBE00D80F80D5758205120A6A7E0052
:10059A007F00C3EE9405EF648094805020EE24DD42
:1005AA00F582EF341CF583E493F582C007C0061286
:1005BA000A6AD006D0070EBE00D80F80D575430050
:1005CA00054322E543901CC993B532107402B54322
:1005DA0008752402E4F52CF52D0543227543002203
:1005EA00E54324F7500122E543240B83F582E543D2
:1005FA00240D83F583E47311111113191F252B2E72
:10060A0007070706060606060685324405432285BD
:10061A003245054322853246054322853247054342
:10062A0022054322E4B5250280087401B52502801B
:10063A006D22E54565446455B5465F9001AE740187
:10064A00F075820E121721AC447D007E008E078D54
:10065A00068C057C00A845E4F9FAFBE82CF517E9B5
:10066A003DF518EA3EF519EB3FF51A900003E4F55B
:10067A00F0121A1385822E85832F85F030F531E426
:10068A00F52CF52DF5177518FFF51990009475F0EE
:10069A000012179685472775240175430022E54500
:1006AA0065446455FFB5465C9001AE7401F07582ED
:1006BA000E121721AC447D007E008E078D068C0534
:1006CA007C00A845E4F9FAFBE82CF517E93DF51892
:1006DA00EA3EF519EB3FF51A900003E4F5F0121A19
:1006EA001385822E85832F85F030F531E4F52CF5BC
:1006FA002DF5177518FFF51990009475F00012176B
:10070A009675240175430022AE2CAF2DBE0005BF9D
:10071A0000028008BE0137BF0034801A740FB53258
:10072A00028005740CB532268532298529827583A3
:10073A00001217B58018740FB532028005740CB513
:10074A00320C8532288528827583011217B5AE2CA2
:10075A00AF2DC3EE940DEF94005008052CE4B52C90
:10076A0002052DAE2CAF2DBE0D2ABF002775240021
:10077A0075820F120A6A75820C120A6A75825D12F4
:10078A000A6A7582001217EB120A6A758201121739
:10079A00EB020A6A22AE2CAF2DC3EE9402EF94014B
:1007AA005017E52C252AF582E52D352BF583E53200
:1007BA00F0052CE4B52C02052D152E74FFB52E0C70
:1007CA00152FB52F071530B530021531E52E452FF7
:1007DA00453045317047F524B527347E947F00AC07
:1007EA002CAD2D0CBC00010D7D008D028C037C000C
:1007FA007D008E008F01E4FEFFE84204E94205EE27
:10080A004203EF42028C828D838BF0EA121A8390A4
:10081A0001AEE4F075820E121721020A4B22E5415D
:10082A0045427011754101F5429001AE7401F075AF
:10083A00820E021721E4F541F5429001AEF075826D
:10084A000E021721E533C3953BFCE534953CFDE5E3
:10085A0035953DFEE536953EFFC3EC94E8ED9403ED
:10086A00EE9400EF9400500122E4B525028007744B
:10087A0001B5251A800D120A4B740FB528101208FB
:10088A0028800B120A4B740FB528031208288533E7
:10089A003B85343C85353D85363E740FB52902804B
:1008AA000122E533C39537FCE5349538FDE53595E6
:1008BA0039FEE536953AFF853F17854018751900C8
:1008CA00751A009003E8E4F5F0C007C006C005C039
:1008DA0004121A13A882A983AAF0FBD004D005D067
:1008EA0006D007C3EC98ED99EE9AEF9B40627F0021
:1008FA00BF550050318F17751800900003C00712BA
:10090A0019F4AD82AE83D007ED2494FDEE3400FED7
:10091A008D828E83E4F08D828E83A3F08D828E8306
:10092A00A3A3F00F80CA7E947F007C007DFF8E8295
:10093A008F838DF0EC121A83900001E4F5F01218FF
:10094A00B875240085333785343885353985363A84
:01095A00227A
:10095C001213E712141112140075DD0075D3007513
:10096C00D500229001F7E4F09001F9F0227F00C34A
:10097C00E5DB9407920040067D077E008004ADDB2A
:10098C007E008F037C00C3EB9DEC64808EF063F0E3
:10099C008095F05017EF24F0FDE43401FE8F827542
:1009AC008300E0FC8D828E83F00F80C3227F008F4A
:1009BC00057E00C3ED9407EE940050188F057E0061
:1009CC00EF24F0F582E43401F583E0FC8D828E8314
:1009DC00F00F80DB90000722900002E0FF9001FAFC
:1009EC00F0E020E0499001F0E0FCA3E0FDA3E0FE84
:1009FC00A3E0FFBCB038BD0435BE0032BF002F757C
:100A0C00E200C2AF75890075100075113890C350A3
:100A1C0012196990C350121969AE10AF11C007C0FA
:100A2C00068E828F83120069D006D00780FE227555
:100A3C0017009001FAE06003751701851782229068
:100A4C0001F9E070189001FBE0FFE060108FD553C6
:100A5C00D4FC9001F97401F09001FBE4F022AF8218
:100A6C009001FAE060617D007E009001F9E0602465
:100A7C000DBD00010E900005C007C006C00512197F
:100A8C0069D005D006D007C3ED9450EE94C340DA7C
:100A9C00758200229001FBE0FEBE400050207D00DC
:100AAC0074402EFEE43DFDEE2414F582ED3400F589
:100ABC0083EFF09001FBE02401F075820122C00766
:100ACC00120A4BD007809F75820022AFF0AE83E5EF
:100ADC0082900195F0EEA3F0EFA3F09001FAE07094
:100AEC0003020BAD900193E0FEA3E0FFC3E49E7400
:100AFC00808FF063F08095F04003020BAD7E007F99
:100B0C00009001F9E060200EBE00010F900005C0BE
:100B1C0007C006121969D006D007C3EE9450EF94A3
:100B2C00C340DE75820022900195E0FDA3E0FEA398
:100B3C00E0FF900193E0FBA3E0FCC3E49B74808C8A
:100B4C00F063F08095F0509C9001FBE0FABA400005
:100B5C0050498A017A00744029F9E43AFAE92414DC
:100B6C00F9EA3400FA8D828E838FF0121B2DF8A3D4
:100B7C00AD82AE83900195EDF0EEA3F0EFA3F0897A
:100B8C00828A83E8F09001FBE02401F01BBBFF019B
:100B9C001C900193EBF0ECA3F0809F120A4B020A1D
:100BAC00F0758200229001F7E0F582229001F7E0C7
:100BBC007003F582229001F8E02414F582E43400ED
:100BCC00F583E0FF9001F8E004F09001F7E014F0F9
:100BDC00E0700353D4F38F822275D50074FC55D486
:100BEC004402F5D49001F9E4F02230DE199001F7BB
:100BFC00E5DBF09001F8E4F09001F7E0600874F3A5
:070C0C0055D44408F5D42281
:100C1400AFDBBF08028003021236900007E0FE7FBC
:100C240000900006E0FD7C00900198ED4FF0EC4E42
:100C3400A3F07F00900001E0FE90019AF08F1690DF
:100C44000000E05460604D900000E0FD5305607CBE
:100C540000BD2005BC0002800BBD4033BC00307FCA
:100C6400FF021238BE2003021238BE21028005BEE4
:100C74002218800C1209B9AC82AD838C0702123899
:100C8400C0071209E4D0070212387FFF0212387F2E
:100C9400FF021238EEFD24F45003021232ED240A4E
:100CA40083F582ED241083F583E4730C3B32FA322E
:100CB400FFC7320E2F383812101210120F0C1210F8
:100CC400101212900003E0FEBE0102800DBE02026B
:100CD400801BBE03028029020F727512FC7513017A
:100CE40090020EE0FDA3E0FE8D07020F7475121052
:100CF40075130290025BE0FDA3E0FE8D07020F7402
:100D0400900002E0701375125D751302900261E0A9
:100D1400FDA3E0FE8D07020F74900002E0FEBE0109
:100D2400137512977513029002A5E0FDA3E0FE8DE2
:100D340007020F74900002E0FEBE02137512637581
:100D4400130290027DE0FDA3E0FE8D07020F749074
:100D54000002E0FEBE03028003020F4E90019C7469
:100D640030F090019D04F090019E04F090019F04E6
:100D7400F09001A004F09001A104F09001A204F00D
:100D84009001A304F09001A404F09001A504F09054
:100D940001A67441F09001A704F09001A804F0901A
:100DA40001A904F09001AA04F09001AB04F09001B1
:100DB400ACE4F09002A7741AF09002A87403F090C7
:100DC4003FFCE493C4540FFE53060F7D00EE249CB5
:100DD400F582ED3401F583E09002A9F09002AAE4D3
:100DE400F0903FFC93FE53060F7D00EE249CF582A9
:100DF400ED3401F583E09002ABF09002ACE4F090A6
:100E04003FFD93C4540FFE53060F7D00EE249CF562
:100E140082ED3401F583E09002ADF09002AEE4F08F
:100E2400903FFD93FE53060F7D00EE249CF582ED6A
:100E34003401F583E09002AFF09002B0E4F0903F0B
:100E4400FE93C4540FFE53060F7D00EE249CF582DE
:100E5400ED3401F583E09002B1F09002B2E4F09039
:100E64003FFE93FE53060F7D00EE249CF582ED3485
:100E740001F583E09002B3F09002B4E4F0903FFFF8
:100E840093C4540FFE53060F7D00EE249CF582EDAF
:100E94003401F583E09002B5F09002B6E4F0903F9F
:100EA400FF93FE53060F7D00EE249CF582ED340182
:100EB400F583E09002B7F09002B8E4F0903FFA9323
:100EC400C4540FFE53060F7D00EE249CF582ED34CE
:100ED40001F583E09002B9F09002BAE4F0903FFA91
:100EE40093FE53060F7D00EE249CF582ED3401F54C
:100EF40083E09002BBF09002BCE4F0903FFB93C40B
:100F0400540FFE53060F7D00EE249CF582ED340150
:100F1400F583E09002BDF09002BEE4F0903FFB93B5
:100F2400FE53060F7D00EE249CF582ED3401F5831B
:100F3400E0FE9002BFF09002C0E4F075141AF515BB
:100F44007512A77513027F1A8026900002E0FEBE78
:100F5400041275127F751302900295E0FDA3E0FE62
:100F64008D07800C7512A7751302AF1480027FFFE2
:100F7400BFFF03021238900198E0FDA3E0FE8F0347
:100F84007C00C3EB9DEC9E5008900198EBF0ECA321
:100F9400F0900198E0FDA3E0FE8D038E04C3EB9472
:100FA40008EC9400920140067B087C0080048D03C9
:100FB4008E048B077E00C3EE9F50188E047D00EED6
:100FC4002512F582E43513F583E0FB8C828D83F0E2
:100FD4000E80E38F057E00900198E0FBA3E0FCEB1C
:100FE400C39DFBEC9EFC900198EBF0ECA3F0EF2585
:100FF40012F512E43513F513021238900002E0FEE4
:10100400900198F0E4A3F002123890019BE0900064
:1010140000F0900198E0FDA3E0FEC3ED9401EE948E
:101024000050030212387F01021238900002E0FEE1
:1010340090019BF0021238900000E0541F702E9033
:101044000003E0FD7E00900002E0FC7B004206EB22
:101054004205BE0113BD0010900217E0FE30E50307
:101064000212387FFF0212387FFF0212389000000C
:10107400E0FE53061F7D00BE0277BD00749000049D
:10108400E0FEBE0102805FBE02028049BE03028010
:1010940033BE0402801DBE81028040BE8202802ACB
:1010A400BE83028014BE844474BC55DE4402F5DE63
:1010B40002123853DE7302123874BC55D64402F55A
:1010C400D602123853D67302123874BC55D4440273
:1010D400F5D402123853D47302123874BC55D24476
:1010E40002F5D202123853D2730212387FFF021271
:1010F400387FFF021238900000E0541F702E9000D9
:1011040003E0FD7E00900002E0FC7B004206EB421F
:1011140005BE0113BD0010900217E0FE30E5030286
:1011240012387FFF0212387FFF021238900000E06D
:10113400FE53061F7D00BE0205BD0002800302129D
:1011440008900003E0FD7E00900002E0FC7B00427A
:1011540006EB4205EE4D6003021204900005E0FD2B
:101164007E00900004E0FC7B004206EB4205BE01D9
:1011740006BD00030211F8BE0205BD00028061BE77
:101184000305BD00028045BE0405BD00028029BEE2
:101194008105BD00028053BE8205BD00028037BEBA
:1011A4008305BD0002801BBE8452BD004F74BF5531
:1011B400DE4403F5DE021238747F55DE440CF5DE9E
:1011C400807274BF55D64403F5D68068747F55D6B3
:1011D400440CF5D6805E74BF55D44403F5D48054D2
:1011E400747F55D4440CF5D4804A74BF55D244035B
:1011F400F5D28040747F55D2440CF5D27FFF803401
:101204007FFF80307FFF802C900000E4F09000018D
:10121400F0900198E0FDA3E0FE8D038E04C3EB94EF
:1012240002EC940040047F02800A8D0780067FFF51
:1012340080027FFFBFFF0A90019A74FFF075DCCF34
:1012440022EF24F740068FDD75DCC02275DD0075C2
:10125400DCC02290019AE0FFBF05028073BF060242
:1012640080030212E8900198E0FEA3E0FF8E048F51
:1012740005C3EC9408ED9400920240067C087D00BE
:1012840080048E048F057F00C3EF9C50188F057E69
:1012940000EF2512F582E43513F583E0FB8D828E91
:1012A40083F00F80E38C067F00900198E0FBA3E0BD
:1012B400FDEBC39EFBED9FFD900198EBF0EDA3F0D9
:1012C400EC2512F512E43513F5138CDD63DC4022B2
:1012D400E5E35480FF900198E0FDA3E0ED4FF5E3D2
:1012E40075DC022275DD0075DC022290019AE0FFB4
:1012F400BF200D30DE1012097975DD0085DCDC229B
:1013040075DD0043DC022275D30074FC55D244021F
:10131400F5D22220D9030213C2E5D9540FFFADD967
:101324005305307E00BD0005BE0002801CBD1005C3
:10133400BE00028036BD2005BE00028043BD3006DB
:10134400BE00030213A80213C0EF24FB50030213D0
:10135400C0EF2F90135B73800880618009805D80EB
:101364005B1212EF8056120BF68051EF24FB404CB7
:10137400EF2F90137A73804480428040803E803CFB
:10138400EF24FB4037EF2F90138F738008800B807E
:101394000E80298027121257802212130B801D12EF
:1013A4000BE58018EF24FB4013EF2F9013B37380E9
:1013B400088009800780058003120C14C2D930D834
:1013C4001575DC0275D21275D41275E300C2DAC247
:1013D400D9C2D812096F10DA0122E5DA20E20375C6
:1013E400D8FF2275E20053E27F43E22975E30053FC
:1013F400E2BF53D1FB75D18043D1012243E10443C1
:10140400E10243E10143D81FD2EAD2AF227E0A7F30
:10141400008EEE8FEF7E147F008EE48FE575EB0C6B
:1014240075D21275D4127E007F008EEC8FED75EAB2
:051434004075DC0222FE
:10143A00C021C0E0C0F0C082C083C007C006C0059A
:10144A00C004C003C002C001C000C0D075D00012E1
:10145A001317D0D0D000D001D002D003D004D005C9
:10146A00D006D007D083D082D0F0D0E0D02132C0CD
:10147A0021C0E0C0F0C082C083C007C006C005C05A
:10148A0004C003C002C001C000C0D075D0003098AB
:10149A0005121B49C298309905121B7FC299D0D0F8
:1014AA00D000D001D002D003D004D005D006D00796
:1014BA00D083D082D0F0D0E0D02132C021C0E0C0A9
:1014CA00F0C082C083C007C006C005C004C003C004
:1014DA0002C001C000C0D075D00030C005121BC3C5
:1014EA00C2C030C105121BF9C2C1D0D0D000D00190
:1014FA00D002D003D004D005D006D007D083D08242
:10150A00D0F0D0E0D02132C021C0E0C0F0C082C00B
:10151A0083C007C006C005C004C003C002C001C022
:10152A0000C0D075D0009002C3E0FEA3E0FFC00760
:10153A00C0068E828F83120069D006D007D0D0D021
:10154A0000D001D002D003D004D005D006D007D0F5
:10155A0083D082D0F0D0E0D02132C021C0E0C0F0E8
:10156A00C082C083C007C006C005C004C003C00251
:10157A00C001C000C0D075D0009002C5E0FEA3E053
:10158A00FFC007C0068E828F83120069D006D0077B
:10159A00D0D0D000D001D002D003D004D005D006DC
:1015AA00D007D083D082D0F0D0E0D02132C021C081
:1015BA00E0C0F0C082C083C007C006C005C004C036
:1015CA0003C002C001C000C0D075D0009002C1E0C3
:1015DA00FEA3E04E600E9002C1E0F8A3E0F5838816
:1015EA0082120069D0D0D000D001D002D003D0043A
:1015FA00D005D006D007D083D082D0F0D0E0D02159
:10160A00321219A412014712041F80FB75820022AC
:10161A00E582FF901D3293FEEF901D0A93FF700141
:10162A00229001ADE0FD701BBF0209EEF4FC52925C
:10163A00EC529322BF0402800122EEF4FC5296EC93
:10164A00529722BD0214BF0207EE4292EE42932243
:10165A00BF0439EE4296EE429722BD0116BF020838
:10166A00EEF45292EE429322BF0421EEF45296EE29
:10167A00429722BD0316BF0208EE4292EEF452933D
:10168A0022BF0408EE4296EEF4FE529722AF82BFC2
:10169A000102800FBF02028013BF03028017BF043A
:1016AA0025801BE5C620E21E539DFB22E5C620E3EA
:1016BA0015539DF722E5C630E20C539DFB22E5C681
:1016CA0030E303539DF722E582FF901CE293FEEF7D
:1016DA00901D3293FDEF901D0A93FF7003F582224D
:1016EA00EE600D8E82C007C005121697D005D0078E
:1016FA007E00BF0202800ABF03028009BF040C8079
:10170A0008AE908006AEA08002AEB0ED5E600475B1
:10171A0082012275820022E582FF901CE293FEEF8D
:10172A00901D3293FDEF901D0A93FFEE600D8E829D
:10173A00C007C005121697D005D007A2AFE433FE42
:10174A00C2AFBF0202800ABF03028017BF043680FD
:10175A00249001AEE07007EDF4FF52908027ED422D
:10176A009080229001AEE07007EDF4FF52A0801540
:10177A00ED42A080109001AEE07007EDF4FF52B088
:0B178A008003ED42B0EE6002D2AF22FF
:10179600AC82AD83AE18AF19BE0004EF600C1F0F0C
:0F17A600E5171219D9A3DEFADFF88C828D8322A2
:1017B500AE82AF838F05BD800040012275A15575AE
:1017C500A1AA43B10475A1007585C0ED2DF5848EE0
:1017D5008EE58630E60375869A75A15575A1AA53DF
:1017E500B1FB75A10022AF827585C0EF2FF5847519
:1017F500868E858E8222C0D075D00808B8000D0966
:10180500B900090ABA00050BBB00010CD0D032A201
:10181500AFC2AFA808A909AA0AAB0BAC8A8588F0A4
:1018250092AF30F51274012C600D08B8000909B9A2
:1018350000050ABA00010BC3EC9406FCECC313FCCB
:1018450075F07DE8A4F8ADF075F07DE9A42DF9E417
:1018550035F0FD75F07DEAA42DFAE435F0FD75F05F
:101865007DEBA42DFB7D00EC28F582E93DF583EAAF
:101875003DF5F0EB3D22A2AFC2AFA808A909AA0A1F
:10188500AB0BAC0C92AF75F020E8A4A8F075F02076
:10189500E9A428F582A8F075F020EAA428F583A824
:1018A500F075F020EBA428F9A8F075F020ECA42839
:1018B50089F02285824885834985F04AF54B1218BF
:1018C5001485824C85834D85F04EF54FE548454995
:1018D500454A454B700122A848A949AA4AAB4B8500
:1018E5004C50854D51854E52854F53E8494A4B60C2
:1018F500DBC003C002C001C000121814AC82AD8366
:10190500AEF0FFD000D001D002D003ECC39550FC5F
:10191500ED9551FDEE9552FEEF9553FFC3EC94E81E
:10192500ED9403EE9400EF940040A118B8FF091957
:10193500B9FF051ABAFF011B884889498A4A8B4BAA
:1019450074E82550F55074033551F551E43552F5D9
:1019550052E43553F55385504C85514D85524E858E
:10196500534F8087AE82AF83C374019EE49F4002CC
:101975002200C374029EFE74009FFF00BE0005BFD7
:10198500000200220000000000000000000000002E
:1019950000000000000EBE00EB0FBF00ED00227539
:1019A500A15575A1AA74F855B94406F5B975A100F4
:1019B500901388121969759E5D759D0074F055899F
:1019C5004402F58953C9EF758C06C28DD2A9D28C14
:0319D500D2AF226C
:1019D90020F71130F6138883A88220F509F6A88329
:1019E9007583002280FEF280F5F022E5828517F0EA
:1019F900A4C582C0F08518F0A4D0F025F0C5838570
:091A090017F0A42583F5832232B5
:101A1300AAF0FBE5828517F0A4FCADF0E5838517FA
:101A2300F0A42DFDE435F0FEE5828518F0A42DFD2C
:101A3300E5F03EFEE433FFEA8517F0A42EFEE5F061
:101A43003FFFE5838518F0A42EFEE5F03FFFE58216
:101A53008519F0A42EFEE5F03FFFEB8517F0A42FC8
:101A6300FFEA8518F0A42FFFE5838519F0A42FFF63
:0F1A7300E582851AF0A42F8EF08D838C822232AB
:091A8300ABF0A2AFE433FEC2AFE8
:101A8D00E0A3D2963300500A0000000000000000D1
:101A9D000000C296400A0000000000000000000097
:101AAD00530207DADDDBD900C296EE6002D2AF2217
:101ABD0022AF82BF02005036EF75F002A424C3F5A9
:101ACD0082740235F0F583E517F0E518A3F0BF0039
:101ADD00028005BF0118800B9001AFE024FF9288B2
:101AED00D2A8229001AFE0FF24FF928AD2AA22AFA2
:101AFD0082BF02005028BF00028005BF010880048C
:101B0D00C2A88002C2AAEF75F002A424C3FE74021B
:0F1B1D0035F0FF8E828F8374BDF0741AA3F0220F
:101B2D0020F71430F6148883A88220F507E6A883E1
:0C1B3D0075830022E280F7E49322E0228E
:101B49009002C7E0FF7E008F828E83A37517108EE7
:101B590018121C8AAE829002C8E0FFEEB507012276
:101B69009002C7E024B0F582E43401F583E599F0E9
:101B79009002C7EEF0223003409002C9E0FF9002C4
:101B8900CAE0FEEFB50605A203C203229002CAE02D
:101B990024C0F582E43401F583E0F5999002CAE0A6
:101BA900FF7E008F828E83A37517108E18121C8AF0
:0A1BB900AE82AF839002CAEEF02264
:101BC3009002CBE0FF7E008F828E83A37517108E69
:101BD30018121C8AAE829002CCE0FFEEB5070122F8
:101BE3009002CBE024D0F582E43401F583E5C1F023
:101BF3009002CBEEF0223004409002CDE0FF900241
:101C0300CEE0FEEFB50605A204C204229002CEE0A8
:101C130024E0F582E43401F583E0F5C19002CEE0DF
:101C2300FF7E008F828E83A37517108E18121C8A75
:0A1C3300AE82AF839002CEEEF022E5
:101C3D00E517451860467A01E51725E0F517E51813
:101C4D00334012F518E5829517E583951840030A80
:101C5D0080E6C3E51813F518E51713F517C3E582EC
:101C6D009517F5F0E58395184005F58385F082C34A
:101C7D00E51813F518E51713F517DAE122C2D5E5C6
:101C8D008330E70DD2D5E4C39582F582E49583F5D3
:101C9D0083E51830E70BE4C39517F517E49518F5B0
:101CAD0018121C3D30D50BE4C39582F582E4958363
:031CBD00F583228A
:101CC00061626E646972416461687364416D6269E6
:101CD0006E6F204261736963312E302E394142525A
:021CE00032656B
:101CE20000000000000000000000000000000001F1
:101CF20000000000000000000000000000000304DB
:101D020000000200000000000101010101010101C7
:101D120000000202020202020202000003030303A5
:101D22000303030300000404040404040404000085
:101D32000102040810204080000001020408102063
:101D420040800000010204081020408000000102CF
:101D52000408102040800000FFFFFFFFFFFFFFFF8D
:101D6200FFFFFF00FFFF0102FFFFFFFFFFFFFFFF7B
:101D7200FFFFFFFFFFFFFFFF03FFFFFFFFFFFFFF6D
:101D820000E1000000000800000000001201100144
:101D9200EF020108091250C50101010203011200FC
:101DA20009024B000201008064080B0002020201DA
:101DB20004090400000102020104052400100105C7
:101DC2002401000004240202052406000107058103
:101DD2000308004009040100020A0000040705028A
:101DE20002400000070582024000004B0004030984
:101DF2000404001A0341006D00620069006E006F66
:101E0200002000420061007300690063001A00169E
:101E12000343004400430020005300650072006940
:101E22000061006C0016000E0341006D0062006943
:071E3200006E006F000E00BE
:101E39000C03300031003200330034003500360025
:0A1E49003700380039004100420064
:021E530000008D
:041E5500BD1ABD1ADB
:041E59000000000085
:041E5D000000000081
:00000001FF
