:0600000002006B0223C1A7
:03000B000226CFFB
:03001300022414B0
:01001B0032B2
:030023000223298C
:03002B000229980F
:01003300329A
:03003B0002246735
:030043000222EAAC
:01004B003282
:0300530002237510
:01005B003272
:03006300022996D9
:030066000224BBB6
:02006900E4733E
:0D006B007581451230D9E582600302006600
:10007800793EE94400601B7A019032F1781775A047
:1000880002E493F2A308B8000205A0D9F4DAF275E5
:02009800A0FFC7
:06009A00E478FFF6D8FD3A
:1000A0007800E84400600A799475A000E4F309D868
:1000B000FC7883E84401600C7902900094E4F0A39A
:0400C000D8FCD9FA95
:0200C400C20078
:0E00C6007808E4F608F608F608F6780C7600DE
:0200D400C20464
:0200D600C20561
:0300D800020066BD
:1000DC001208D21208FC1208EB75DD0075D30075FE
:1000EC00D5002290021EE4F0C200227F00C3E5DBA3
:1000FC009407920140067D077E008004ADDB7E00F4
:10010C008F037C00C3EB9DEC64808EF063F08095D4
:10011C00F05017EF2417FDE43402FE8F8275830034
:10012C00E0FC8D828E83F00F80C3227F008F057ED2
:10013C0000C3ED9407EE940050188F057E00EF2459
:10014C0017F582E43402F583E0FC8D828E83F00F88
:10015C0080DB90000722900002E0FF900220F0E08C
:10016C0020E033900217E0FCA3E0FDA3E0FEA3E047
:10017C00FFBCB022BD041FBE001CBF001975E200FD
:10018C00C2AF75890090C35012283D90C3501228FD
:10019C003D12380080FE227E007F003000200EBE13
:1001AC0000010F900005C007C00612283DD006D0F4
:1001BC0007C3EE9450EF94C340E175820022758220
:1001CC000122751600900220E06003751601851659
:1001DC008222200025900221E0FF601E8FD553D48F
:1001EC00FCD200BF400F1201A3E582600875D50058
:1001FC0053D4FCD200900221E4F022AF8290022072
:10020C00E06041C0071201A3E582D0077003F582BC
:10021C0022900221E0FEBE400050207D0074402E52
:10022C00FEE43DFDEE2414F582ED3400F583EFF091
:10023C00900221E02401F075820122C0071201DE38
:10024C00D00780BF75820022AFF0AE83E5829000AC
:10025C0096F0EEA3F0EFA3F0900220E070030203FF
:10026C000A900094E0FEA3E0FFC3E49E74808FF03C
:10027C0063F08095F0400302030AC007C006120128
:10028C00A3E582D006D0077003F58222900096E099
:10029C00FBA3E0FCA3E0FDC3E49E74808FF063F04D
:1002AC008095F050BC900221E0FABA400050498A87
:1002BC00017A00744029F9E43AFAE92414F9EA3491
:1002CC0000FA8B828C838DF0122C6FF8A3AB82AC6E
:1002DC0083900096EBF0ECA3F0EDA3F089828A8377
:1002EC00E8F0900221E02401F01EBEFF011F9000F7
:1002FC0094EEF0EFA3F0809F1201DE02026D758286
:10030C00002290021EE0F5822290021EE07003F59E
:10031C00822290021FE02414F582E43400F583E07D
:10032C00FF90021FE004F090021EE014F0E0700356
:10033C0053D4F38F822275D50074FC55D44402F546
:10034C00D4C2002230DE1990021EE5DBF090021FB1
:10035C00E4F090021EE0600874F355D44408F5D420
:01036C00226E
:10036E00AFDBBF08028003020741900007E0FE7F6B
:10037E0000900006E0FD7C004FF510EC4EF5117F6D
:10038E0000900001E0F512900000E0FE5460605312
:10039E00900000E0FE5306607D00BE2005BD000209
:1003AE00800BBE4039BD00367FFF0207437420B577
:1003BE0012030207437421B5120280077422B5128C
:1003CE0018800C120137AD82AE838D07020743C031
:1003DE0007120162D0070207437FFF0207437FFF28
:1003EE00020743E51224F4500302073DE512240BE5
:1003FE0083F582E512241083F583E4731F4D3D0DC2
:10040E003D17223D24414343070507060705040710
:10041E0005050707900003E0FEBE0102800ABE023A
:10042E0002800FBE037380147513847514317F120E
:10043E0080697513967514317F46805F900002E0D7
:10044E0070087513DC7514318044900002E0FEBE16
:10045E00010875130E7514328034900002E0FEBE52
:10046E0002087513E07514318024900002E0FEBE80
:10047E0003087513007514008014900002E0FEBE90
:10048E0004087513F875143180047FFF800D8513F1
:10049E0082851483E493FF80027FFFBFFF03020770
:1004AE00438F057E00C3ED9510EE951150048D100F
:1004BE008E11AD10AE11C3ED9408EE940092024071
:1004CE00067B087C008004AB10AC118B077C00C34C
:1004DE00EC9F50198C027B00EC2513F582E4351449
:1004EE00F583E493F98A828B83F00C80E28F037C90
:1004FE0000EDC39BFDEE9CFE8D108E11EF2513F5C6
:10050E0013E43514F514020743900002E0FE8E103A
:10051E00751100020743900099E0900000F0AD10B5
:10052E00AE11C3ED9401EE940050030207437F0118
:10053E00020743900002E0FE900099F002074390FC
:10054E000000E0541F702F900003E0FD7E0090002D
:10055E0002E0FC7B004206EB4205BE0114BD001119
:10056E0090319DE493FE30E5030207437FFF0207BF
:10057E00437FFF020743900000E0FE53061F7D00FD
:10058E00BE0277BD0074900004E0FEBE0102805FE3
:10059E00BE02028049BE03028033BE0402801DBE2D
:1005AE0081028040BE8202802ABE83028014BE84F5
:1005BE004474BC55DE4402F5DE02074353DE73027B
:1005CE00074374BC55D64402F5D602074353D6737F
:1005DE0002074374BC55D44402F5D402074353D4E6
:1005EE007302074374BC55D24402F5D2020743533B
:1005FE00D2730207437FFF0207437FFF0207439038
:10060E000000E0541F702F900003E0FD7E0090006C
:10061E0002E0FC7B004206EB4205BE0114BD001158
:10062E0090319DE493FE30E5030207437FFF0207FE
:10063E00437FFF020743900000E0FE53061F7D003C
:10064E00BE0205BD0002800302071B900003E0FD01
:10065E007E00900002E0FC7B004206EB4205EE4D70
:10066E006003020717900005E0FD7E00900004E095
:10067E00FC7B004206EB4205BE0106BD00030207ED
:10068E000BBE0205BD00028060BE0305BD000280E8
:10069E0044BE0405BD00028028BE8105BD00028057
:1006AE0052BE8205BD00028036BE8305BD000280AB
:1006BE001ABE8451BD004E74BF55DE4403F5DE8074
:1006CE0074747F55DE440CF5DE806A74BF55D644D3
:1006DE0003F5D68060747F55D6440CF5D6805674DB
:1006EE00BF55D44403F5D4804C747F55D4440CF5D7
:1006FE00D4804274BF55D24403F5D28038747F55EE
:10070E00D2440CF5D27FFF802C7FFF80287FFF80A4
:10071E0024900000E4F0900001F0AD10AE11C3ED96
:10072E009402EE940040047F02800AAF1080067F90
:10073E00FF80027FFFBFFF077512FF75DCCF22EF30
:10074E0024F740068FDD75DCC02275DD0075DCC038
:10075E00227405B51202805D7406B51266AE10AF36
:10076E0011C3EE9408EF9400920340067C087D00BE
:10077E008004AC10AD117D00C3ED9C50198D027B31
:10078E0000ED2513F582E43514F583E493F98A829E
:10079E008B83F00D80E28C037D00EEC39BFEEF9DFC
:1007AE00FF8E108F11EC2513F513E43514F5148C10
:1007BE00DD63DC4022E5E35480FFE5104FF5E37581
:1007CE00DC022275DD0075DC02227420B5120D30BC
:1007DE00DE101200F775DD0085DCDC2275DD0043CE
:1007EE00DC022275D30074FC55D24402F5D22220CD
:1007FE00D9030208A8E5D9540FFFADD95305307EB1
:10080E0000BD0005BE0002801CBD1005BE000280AA
:10081E0036BD2005BE00028043BD3006BE00030279
:10082E00088E0208A6EF24FB50030208A6EF2F90B5
:10083E00084173800880618009805D805B1207D853
:10084E0080561203508051EF24FB404CEF2F90083E
:10085E006073804480428040803E803CEF24FB40A9
:10086E0037EF2F900875738008800B800E802980DB
:10087E002712075F80221207F1801D120342801893
:10088E00EF24FB4013EF2F900899738008800980A6
:10089E00078005800312036EC2D930D81A75DC02A8
:1008AE0075D21275D41275E300C2DAC2D9C2D890CD
:1008BE000099E4F01200EF10DA0122E5DA20E203EB
:1008CE0075D8FF2275E20053E27F43E22975E300FB
:1008DE0053E2BF53D1FB75D18043D1012243E104D2
:1008EE0043E10243E10143D81FD2EAD2AF227E0098
:1008FE007F008EEC8FED7E0A7F008EEE8FEF7E14E2
:10090E007F008EE48FE575EB0C75D21275D41275DF
:10091E00EA4075DC0222900245E0F5F0A3E045F0D6
:10092E0070149002457401F0E4A3F09001CF04F02E
:10093E0075820E0225FF900245E4F0A3F09001CFE0
:10094E00F075820E0225FF9001CE7401F075820EB5
:10095E001224F89001CF7401F075820E1225FF90CB
:10096E0001CE7401F075820F1224F89001CF74013C
:10097E00F075820F1225FF900BB8E4F5F012278C5C
:10098E009001CFE4F075820E1225FF9001CFE4F0B6
:10099E0075820F1225FF9001F4E4F5F002278C907A
:1009AE0001CE7401F07582111224F89001CEE4F09C
:1009BE007582241224F89001CEE4F075822512245B
:1009CE00F87582241225AF7582251225AFE5826057
:1009DE0007900227E4F080069002277401F090023F
:1009EE0027E0FF6030BF01028001221200DC90017F
:1009FE00CF7401F07582111225FF9001CE7401F0B3
:100A0E007582101224F8900064E4F5F012278C120F
:100A1E0001DE020B859001CEE4F07582101224F8EF
:100A2E0053C67F9001CE7401F07582251224F89082
:100A3E0001CFE4F07582251225FF9001CFE4F07509
:100A4E0082111225FF9001CF7401F075820F1225CD
:100A5E00FF9001CFE4F075820E1225FF9000A4E402
:100A6E00F0221209551209AD12274FAC82AD83AE9A
:100A7E00F0FF9001AEECF0EDA3F0EEA3F0EFA3F0DB
:100A8E009001AAECF0EDA3F0EEA3F0EFA3F01201AB
:100A9E00DE900064E4F5F012278C020B859002279D
:100AAE00E0FFBF0003020B3ABF01028003020B46B8
:100ABE0012274FAC82AD83AEF0FF9001A6ECF0EDA5
:100ACE00A3F0EEA3F0EFA3F012030EE582605890B0
:100ADE000228E4F0120315E5829001A5F09001A61C
:100AEE00E0FCA3E0FDA3E0FEA3E0FF9001AEECF07E
:100AFE00EDA3F0EEA3F0EFA3F09001AAECF0EDA3BE
:100B0E00F0EEA3F0EFA3F0900225E0FF600ABF0124
:100B1E0002800ABF0222800A120DCF801B121056CD
:100B2E0080161210F4801112144E800C9001CF74A6
:100B3E0001F075820F1225FF021DBF90019EE0602D
:100B4E0001227EAE7F009001B2E0FCA3E03395E07F
:100B5E007D008D028C037C007D008E008F01E4FEF3
:100B6E00FFE84204E94205EE4203EF42028C828D19
:100B7E00838BF0EA022A7D90321CE493FE7401937B
:100B8E008E82122237AF82BFFF067E017F00801455
:100B9E0090321CE493FC7401938C82122237AD8246
:100BAE008D067F009000A4EEF090321EE493FE744A
:100BBE0001938E82122237AF82BFFF067E007F0026
:100BCE00801490321EE493FC7401938C82122237AF
:100BDE00AD828D067F009000A5EEF0903220E4935A
:100BEE00FE7401938E82122237AF82BFFF067E0AF9
:100BFE007F008014903220E493FC7401938C821257
:100C0E002237AD828D067F009000A6EEF090322244
:100C1E00E493FE7401938E82122237AF82BFFF06D9
:100C2E007E017F008014903222E493FC7401938C39
:100C3E0082122237AD828D067F009000A7EEF090D3
:100C4E003224E493FE7401938E82122237AF82BF58
:100C5E00FF067E067F008014903224E493FC74011C
:100C6E00938C82122237AD828D067F009000A8EE03
:100C7E00F0903226E493FE7401938E82122237AFE7
:100C8E0082BFFF067E7F7F008014903226E493FCA5
:100C9E007401938C82122237AD828D067F009000F4
:100CAE00A9EEF0903228E493FE7401938E82122204
:100CBE0037AF829000ABEFF090322AE493FE7401CE
:100CCE00938E82122237AF829000ACEFF090322CCE
:100CDE00E493FE7401938E82122237AF829000ADA0
:100CEE00EFF07E007F00C3EE9408EF6480948040A6
:100CFE0003020D9C8E05ED75F003A4FDFB3395E00C
:100D0E00FCEB242DFBEC3402FC74092DFAF582C0A9
:100D1E0007C006C005C004C003C002122237A98254
:100D2E00D002D003D004D0058B828C83E9F0ED0481
:100D3E00FC3395E0FBEC242DFCEB3402FBEA04F5CE
:100D4E0082C005C004C003C002122237A982D0029D
:100D5E00D003D004D0058C828B83E9F00D0DED33DA
:100D6E0095E0FCED242DFDEC3402FC0A0A8A82C0CB
:100D7E0005C004122237AB82D004D005D006D007AE
:100D8E008D828C83EBF00EBE00010F020CF49032BC
:100D9E002EE493FE7401938E82122237AF82BFFF30
:100DAE00067E7F7F00801490322EE493FC740193B4
:100DBE008C82122237AD828D067F009000AAEEF053
:100DCE00229001B4E0FFBF03004003020F3DEF90FD
:100DDE00323093FE9001A5E0FDB506079001B4EF09
:100DEE0004F022EF90323393FEEDB506028003023B
:100DFE000F11BF02028003020F0975820F12020744
:100E0E0075820C12020775825D1202077582061238
:100E1E000207903FFCE493F582120207903FFDE437
:100E2E0093F582120207903FFEE493F582120207B9
:100E3E00903FFFE493F582120207903FFAE493F598
:100E4E0082120207903FFBE493F58212020775822D
:100E5E000B1202077C007E00C3EC940BEE648094B0
:100E6E00805020EC243CF582EE3432F583E493F589
:100E7E0082C006C004120207D004D0060CBC00D8F3
:100E8E000E80D57582051202077C007E00C3EC949D
:100E9E0005EE648094805020EC2447F582EE3432C7
:100EAE00F583E493F582C006C004120207D004D085
:100EBE00060CBC00D80E80D57582051202077C0088
:100ECE007E00C3EC9405EE648094805020EC244C9C
:100EDE00F582EE3432F583E493F582C006C0041237
:100EEE000207D004D0060CBC00D80E80D575820146
:100EFE001202079001B4E4F01201DE9001B4E02476
:100F0E0001F022EF90323993FEEDB5061CBF0211AF
:100F1E009002257402F090019FE4F0A3F09001B4CA
:100F2E00F09001B4E02401F0229001B4E4F022EF3D
:100F3E00FE24F7500122EE240A83F582EE240D835F
:100F4E00F583E47355555564738291A0A710101064
:100F5E000F0F0F0F0F0F9001A5E09001B5F090014C
:100F6E00B4EF04F0229001A5E09001B6F09001B428
:100F7E00EF04F0229001A5E09001B7F09001B4EFDC
:100F8E0004F0229001A5E09001B8F09001B4EF04B6
:100F9E00F0229001B4EF04F0229001B6E0FF900130
:100FAE00B5E06F6455FF9001B7E0FEB50702800310
:100FBE000210509000A5E0600C9001CF7401F07506
:100FCE00820E1225FF9001B5E0FF7E007D008D049C
:100FDE008E058F067F009001B6E0F8E4F9FAFBE883
:100FEE002FFFE93EFEEA3DFDEB3CFCC007C006C00C
:100FFE0005C004900003E4F5F0122C8BAC82AD8397
:10100E00AEF0FFE58124FCF5819001A1ECF0EDA39B
:10101E00F0EEA3F0EFA3F090019FE4F0A3F09001A7
:10102E00D0F09001D17450F0E4A3F09000AE75F0C2
:10103E00001226A79001B8E090019EF09002257450
:10104E0001F09001B4E4F02290019FE0FEA3E0FFD6
:10105E00C3EE94F0EF9400501EEE24AEFEEF34007B
:10106E00FF9001A5E0FD8E828F83F090019FE0241A
:10107E0001F0A3E03400F09001A1E024FFFCA3E016
:10108E0034FFFDA3E034FFFEA3E034FFFF9001A187
:10109E00ECF0EDA3F0EEA3F0EFA3F09001A1E0F5DC
:1010AE00F0A3E042F0A3E042F0A3E045F0703690EA
:1010BE000225E4F090019EE0FF90019FE0FDA3E089
:1010CE00FE9001B274012DF0E43EA3F08F82120B5C
:1010DE00499000A5E0600B9001CFE4F075820E12EE
:1010EE0025FF0201DE2290019FE0FEA3E0FFC37404
:1010FE00219EE49F5003021256EE240A83F582EEDF
:10110E00242683F583E47359778FA7BFD7E9FC0FA5
:10111E0022222222222222222222222222222222A1
:10112E0022222222222222224611111111111111E4
:10113E001112121212121212121212121212121282
:10114E0012121212121212121212129001A5E0FDB8
:10115E00BDFF08900224E4F002125690022474019E
:10116E00F09000A4EDF0021256900224E0FDBD01B5
:10117E000280030212569001A5E09000A5F0021223
:10118E0056900224E0FDBD0102800302125690012A
:10119E00A5E09000A6F0021256900224E0FDBD01DB
:1011AE000280030212569001A5E09000A7F00212F1
:1011BE0056900224E0FDBD010280030212569001FA
:1011CE00A5E09000A8F0021256900224E0FDBD01A9
:1011DE00779001A5E09000A9F0806D900224E0FDCB
:1011EE00BD01659001A5E0FD9000ABF0805A900224
:1011FE0024E0FDBD01529001A5E0FD9000ACF08011
:10120E0047900224E0FDBD013F9001A5E0FD900056
:10121E00ADF08034900224E0FDBD012CEE24F7FEEB
:10122E003395E0FFEE242DFEEF3402FF9001A5E092
:10123E00FD8E828F83F08010900224E0FFBF0108A4
:10124E009001A5E09000AAF090019FE0FEA3E0FFC0
:10125E008E048F05C3EC942DED9400500B90019FDE
:10126E0074012EF0E43FA3F090019FE0FEA3E0FF97
:10127E00BE2D05BF0002800122900224E0FFBF01B7
:10128E0002800302140290321CE493FE74019390C8
:10129E0000A4E09001CDF08E8212220190321EE465
:1012AE0093FE7401939000A5E09001CDF08E821212
:1012BE002201903226E493FE7401939000A9E090EF
:1012CE0001CDF08E82122201903222E493FE74013F
:1012DE00939000A7E09001CDF08E82122201903201
:1012EE0024E493FE7401939000A8E09001CDF08E5B
:1012FE0082122201903220E493FE7401939000A694
:10130E00E09001CDF08E82122201903228E493FEFD
:10131E007401939000ABE09001CDF08E8212220109
:10132E0090322AE493FE7401939000ACE09001CDCC
:10133E00F08E8212220190322CE493FE740193906F
:10134E0000ADE09001CDF08E821222017E007F0072
:10135E00C3EE9408EF6480948040030213EC8E0574
:10136E00ED75F003A4FD2409FCEDFA3395E0FBEADC
:10137E00242DF582EB3402F583E09001CDF08C82C2
:10138E00C007C006C005C004122201D004D005EC6F
:10139E0004FBED04F93395E0FAE9242DF582EA34E5
:1013AE0002F583E09001CDF08B82C005C0041222BD
:1013BE0001D004D0050C0C0D0DED3395E0FBED24A2
:1013CE002DF582EB3402F583E09001CDF08C821284
:1013DE002201D006D0070EBE00010F02135E90321E
:1013EE002EE493FE7401939000AAE09001CDF08E4E
:1013FE008212220175820F12020775820C120207E9
:10140E0075825D1202077E007F00C3EE942DEF649D
:10141E0080948050228E058D82C007C0061222371E
:10142E00120207900001E4F5F012278CD006D007C7
:10143E000EBE00D60F80D31201DE900225E4F022FC
:10144E009001AEE0FCA3E0FDA3E0FEA3E0FF90015F
:10145E00A6E0F8A3E0F9A3E0FAA3E0FBE8C39CFC46
:10146E00E99DFDEA9EFEEB9FFFC3EC94E8ED94032D
:10147E00EE9400EF9400500122900226E0FF6005EA
:10148E00BF011E80101201DE9000A5E0FFBF01110A
:10149E00120924800C1201DE9000A5E070031209DF
:1014AE00249001A6E0FCA3E0FDA3E0FEA3E0FF90E4
:1014BE0001AEECF0EDA3F0EEA3F0EFA3F09001AAD5
:1014CE00E0F8A3E0F9A3E0FAA3E0FBECC398F52261
:1014DE00ED99F523EE9AF524EF9BF5259000A6E005
:1014EE00F879007A007B00C007C006C005C004C0B2
:1014FE0000C001C002C0039003E8E4F5F0122C8B8B
:10150E00A882A983AAF0FBE58124FCF581D004D042
:10151E0005D006D007C3E52298E52399E5249AE580
:10152E00259B500122900225E4F09001AAECF0EDEB
:10153E00A3F0EEA3F0EFA3F09000A4E0FFBF01072D
:10154E009002287401F0227F00BF500050388F05A2
:10155E007E00C007C005C0069000031228F8AD82B9
:10156E00AE8315811581D007ED24AEFDEE3400FE5D
:10157E008D828E83E4F08D828E83A3F08D828E8396
:10158E00A3A3F00F80C37E007F00C3EE9401EF642F
:10159E00809480501F8E059001B274F0F0E4A3F099
:1015AE008D82C007C006120B49D006D0070EBE00B2
:1015BE00D90F80D62290009EE4F0A3F012274FACF4
:1015CE0082AD83AEF0FF9000A0ECF0EDA3F0EEA3A1
:1015DE00F0EFA3F02212274FAC82AD83AEF0FF9056
:1015EE0000A0E0F8A3E0F9A3E0FAA3E0FBECC398B7
:1015FE00FCED99FDEE9AFEEF9BFF9000A8E0FB7AC2
:10160E00007415C39BFBE49AFAC007C006C005C060
:10161E000490009EE0C0E0A3E0C0E08B828A8312BB
:10162E0028F8AA82AB8315811581D004D005D00687
:10163E00D0078A008B017A007B00C3EC98ED99EEFF
:10164E009AEF9B5004758200227E007F008E048FDD
:10165E0005C3EC9450ED94004003021C979000AA31
:10166E00E0FD7C00C007C006C005C004900050120B
:10167E0021B5AC82AD83158115818C828D83122AA2
:10168E00A185822685832785F028F529D006D007E7
:10169E008E828F83C007C006122AA1A882A983ACAE
:1016AE00F0FDC026C027C028C029888289838CF00F
:1016BE00ED12224785822685832785F028F529E5B8
:1016CE008124FCF58190009EE0F8A3E0F9888289E0
:1016DE0083122AA1A882A983ACF0FDC026C027C020
:1016EE0028C029888289838CF0ED12299AAA82ABB0
:1016FE0083ACF0FDE58124FCF5818A828B838CF02E
:10170E00ED122AAD8582268583277450C0E0E4C091
:10171E00E0852682852783122F1BAA82AB83158133
:10172E0015818A828B83122AA185822A85832B8535
:10173E00F02CF52DE4C0E0C0E07420C0E07441C090
:10174E00E0852A82852B83852CF0E52D122B99AA14
:10175E0082AB83ACF0FDE58124FCF5818A828B831C
:10176E008CF0ED122A3CAC82AD839001C1ECF0ED11
:10177E00A3F08C828D83C005C004122A70A882A9A2
:10178E0083AAF0FBE4C0E0C0E07420C0E07441C066
:10179E00E0888289838AF0EB12224785822E858328
:1017AE002F85F030F531E58124FCF581C02EC02F58
:1017BE00C030C031852A82852B83852CF0E52D1211
:1017CE0021AAA882A983AAF0FBE58124FCF581E475
:1017DE00C0E0C0E07420C0E07441C0E0888289831C
:1017EE008AF0EB122B99A882A983AAF0FBE581243B
:1017FE00FCF581C000C001C002C00390000075F06E
:10180E0080743F1221AA85822A85832B85F02CF5C0
:10181E002DE58124FCF5819001B9E52AF0E52BA395
:10182E00F0E52CA3F0E52DA3F08526828527831203
:10183E002AA1A882A983AAF0FBC02EC02FC030C057
:10184E0031888289838AF0EB1221AAA882A983AA01
:10185E00F0FBE58124FCF581888289838AF0EB1206
:10186E002A3CAA82AB837450C0E0E4C0E08A828B2B
:10187E0083122F1BAA82AB83158115818A828B83DB
:10188E00122AA1A882A983AAF0FBE4C0E0C0E074EA
:10189E0020C0E07441C0E0888289838AF0EB122B6D
:1018AE0099A882A983AAF0FBE58124FCF581D004D6
:1018BE009001BDE8F0E9A3F0EAA3F0EBA3F0ECF59C
:1018CE002E75F003A4F93395E0FAE9242DF582EA9A
:1018DE003402F583E0F582C004122C5CA882A98341
:1018EE00AAF0FBC02AC02BC02CC02D888289838A07
:1018FE00F0EB12224785822A85832B85F02CF52D5D
:10190E00E58124FCF581D004D005D006D0070CBCAF
:10191E0000010DC374079C74808DF063F08095F008
:10192E0050067C007D008009E52E04FBFC3395E01B
:10193E00FDC006C007EC75F003A4FC3395E0FDEC8A
:10194E00242DF582ED3402F583E0F582C007C00642
:10195E00122C5CAA82AB83ACF0FD9001BDE0C0E01E
:10196E00A3E0C0E0A3E0C0E0A3E0C0E08A828B83E6
:10197E008CF0ED122247AA82AB83ACF0FDE58124F8
:10198E00FCF581C002C003C004C005852A82852BE8
:10199E0083852CF0E52D12299AAA82AB83ACF0FD3B
:1019AE00E58124FCF5818A828B838CF0ED122C6705
:1019BE00E582D006D0079001C3F09001C1E0FCA3F0
:1019CE00E0FD8C03EB75F003A404F93395E0FAE91E
:1019DE00242DF582EA3402F583E0F582C006C005B7
:1019EE00C004C003122C5CA882A983AAF0FFD00306
:1019FE00D004D005D006C007C006C005C004C00381
:101A0E009001B9E0C0E0A3E0C0E0A3E0C0E0A3E035
:101A1E00C0E0888289838AF0EF12224785822E8564
:101A2E00832F85F030F531E58124FCF581D003D08C
:101A3E0004D005D006D0070CBC00010DC374079C62
:101A4E0074808DF063F08095F0D007D00650067C40
:101A5E00007D0080070BEBFC3395E0FDC006C00750
:101A6E00EC75F003A404FD3395E0FCED242DF58216
:101A7E00EC3402F583E0F582C007C006122C5CAA96
:101A8E0082AB83ACF0FD9001BDE0C0E0A3E0C0E00E
:101A9E00A3E0C0E0A3E0C0E08A828B838CF0ED125D
:101AAE002247AA82AB83ACF0FDE58124FCF581C010
:101ABE0002C003C004C005852E82852F838530F0B9
:101ACE00E53112299AAA82AB83ACF0FDE58124FCA4
:101ADE00F5818A828B838CF0ED122C67E582D0061D
:101AEE00D0079001C4F09001C1E0FCA3E0FD8C038F
:101AFE00EB75F003A42402F93395E0FAE9242DF5F1
:101B0E0082EA3402F583E0F582C006C005C004C047
:101B1E0003122C5CA882A983AAF0FFD003D004D0B4
:101B2E0005D006C007C006C005C004C0039001B9A9
:101B3E00E0C0E0A3E0C0E0A3E0C0E0A3E0C0E08826
:101B4E008289838AF0EF12224785822E85832F8524
:101B5E00F030F531E58124FCF581D003D004D005B9
:101B6E00D006D0070CBC00010DC374079C74808D89
:101B7E00F063F08095F0D007D00650067C007D0013
:101B8E0080070BEBFC3395E0FDEC75F003A424020B
:101B9E00FD3395E0FCED242DF582EC3402F583E067
:101BAE00F582C007C006122C5CAA82AB83ACF0FD96
:101BBE009001BDE0C0E0A3E0C0E0A3E0C0E0A3E080
:101BCE00C0E08A828B838CF0ED122247AA82AB830F
:101BDE00ACF0FDE58124FCF581C002C003C004C059
:101BEE0005852E82852F838530F0E53112299AAA3C
:101BFE0082AB83ACF0FDE58124FCF5818A828B8378
:101C0E008CF0ED122C6785822ED006D0078E038FB6
:101C1E0004C007C006C003C0049000031228F8AB2E
:101C2E0082AC8315811581D006D007EB24AEFBEC78
:101C3E003400FC9000A9E0FA9001C4E0F5F0EAA4AB
:101C4E00AAF08A018B828C83E9F074012BF9E43CB3
:101C5E00FA9000A9E0F89001C3E0F5F0E8A4ADF029
:101C6E008D0089828A83E8F074022BFBE43CFC90A1
:101C7E0000A9E0852EF0A4AAF08A058B828C83ED54
:101C8E00F00EBE00010F02165B90009EE0FEA3E078
:101C9E00FFC3EE9450EF940040071215C3758203F4
:101CAE002290009E74012EF0E43FA3F07582012273
:101CBE00E5829001C8F09001C7E0FF9001C8E0F501
:101CCE00F0EFA4E5F0F09001C5E0F5F0EFA4E5F03B
:101CDE00F09001C6E0F5F0EFA4E5F0F09001C5E05C
:101CEE00FE7F009001C6E0FDE4FCED4207EC4206EB
:101CFE008F828E8322E5829001CCF09001CBE0FFA3
:101D0E009001C9E0F5F0EFA4AEF09001CCE0F5F053
:101D1E00EFA4ADF09001CAE0F5F0EFA4ACF08C07A3
:101D2E007B007C00C3EB9450EC64809480504AC0DE
:101D3E0007C006C005C004C003C003C00490000362
:101D4E001228F8A982AA8315811581D003D004D058
:101D5E0005D006D007E924AEF9EA3400FA89828A62
:101D6E0083EEF089828A83A3EDF089828A83A3A30E
:101D7E00EFF00BBB00AE0C80AB7E007F00C3EE9489
:101D8E000AEF6480948050288E059001B274F0F0B2
:101D9E00E4A3F08D82C007C006120B49900001E447
:101DAE00F5F012278CD006D0070EBE00D00F80CDD6
:101DBE002212274F900228E07001229000A7E0FF28
:101DCE0024FC500122EF2F2F901DDA73021DE60224
:101DDE001E0E021E450221A99000ABE0FF9000AC42
:101DEE00E0FE9000ADE0FD9000A9E0FC9001C9EE90
:101DFE00F09001CAEDF09001CBECF08F82021D0342
:101E0E001215E3E58230E02E7E007F00C3EE9401D2
:101E1E00EF64809480501F8E059001B274F0F0E450
:101E2E00A3F08D82C007C006120B49D006D0070E54
:101E3E00BE00D90F80D62212274FAC82AD83AEF0F2
:101E4E00FF90009AE0F8A3E0F9A3E0FAA3E0FBEC20
:101E5E00C398F8ED99F9EE9AFAEF9BFBC3E8940A52
:101E6E00E99400EA9400EB940050012290009AEC61
:101E7E00F0EDA3F0EEA3F0EFA3F09000A8E0FF7E4C
:101E8E0000C007C0069000641228F8AE82AF83151A
:101E9E00811581E4C39EFE74089FFF8E828F83128C
:101EAE002A7085823685833785F038F53990022978
:101EBE00E0F532A3E0F533A3E0F534A3E0F535E425
:101ECE00C0E0C0E07480C0E0743FC0E0853282851F
:101EDE0033838534F0E53512299AA882A983AAF0B6
:101EEE00FBE58124FCF581900229E8F0E9A3F0EAF4
:101EFE00A3F0EBA3F0C036C037C038C039853282AC
:101F0E008533838534F0E535122B99A882A983AAEF
:101F1E00F0FBE58124FCF581C000C001C002C003C6
:101F2E00900000E4F5F07440122247A882A983AA1B
:101F3E00F0FBE58124FCF581E4C0E0C0E07480C0D4
:101F4E00E0743FC0E0888289838AF0EB1221AAA850
:101F5E0082A983AAF0FBE58124FCF581C000C001B3
:101F6E00C002C003900000E4F5F01228C8AB82E571
:101F7E008124FCF581EB700302203B900229E0F5F1
:101F8E0032A3E0F533A3E0F534A3E0F535E4C0E089
:101F9E00C0E07480C0E0743FC0E085328285338338
:101FAE008534F0E53512299AA882A983AAF0FBE5BB
:101FBE008124FCF581900229E8F0E9A3F0EAA3F070
:101FCE00EBA3F0C036C037C038C0398532828533B6
:101FDE00838534F0E535122B99A882A983AAF0FBEC
:101FEE00E58124FCF581C000C001C002C003900051
:101FFE0000E4F5F07440122247A882A983AAF0FBF0
:10200E00E58124FCF581E4C0E0C0E07480C0E0749A
:10201E003FC0E0888289838AF0EB1221AAA882A9A8
:10202E0083AAF0FBE58124FCF5810220F4900229BD
:10203E00E0F532A3E0F533A3E0F534A3E0F535E4A3
:10204E00C0E0C0E07480C0E0743FC0E0853282859D
:10205E0033838534F0E53512299AAC82AD83AEF028
:10206E00FFE58124FCF581900229ECF0EDA3F0EE62
:10207E00A3F0EFA3F0C036C037C038C03985328226
:10208E008533838534F0E535122B99AC82AD83AE62
:10209E00F0FFE58124FCF581C004C005C006C00731
:1020AE00900000E4F5F07440122247AC82AD83AE8E
:1020BE00F0FFE58124FCF581E4C0E0C0E07480C04F
:1020CE00E0743FC0E08C828D838EF0EF1221AAACBB
:1020DE0082AD83AEF0FFE58124FCF5818C008D018D
:1020EE008E02EFB2E7FBC000C001C002C003900039
:1020FE000075F080743F1221AAAC82AD83AEF0FF62
:10210E00E58124FCF581C004C005C006C00790001F
:10211E000075F07F7443122247AC82AD83AEF0FFA0
:10212E00E58124FCF581C007C006C005C0049002FD
:10213E0029E0C0E0A3E0C0E0A3E0C0E0A3E0C0E07F
:10214E008536828537838538F0E5391228C8AB820B
:10215E00E58124FCF581D004D005D006D007EB60D4
:10216E000B900229E4F0A3F0A3F0A3F08C828D83F0
:10217E008EF0EF122C67AF829000ABE0FE9000ACB9
:10218E00E0FD9000ADE0FC9001C9EDF09001CAECCD
:0C219E00F09001CBEFF08E82021D0322B6
:1021AA00A8811818C6B2E7C602299AC015858115F2
:1021BA00AE82AF837C007D007B10EF235401FAEEE0
:1021CA002EFEEF33FFEC2CFCED33FDEA60034304F3
:1021DA0001E51524FCF8C3EC96ED08964010E515C8
:1021EA0024FCF8ECC396FCED0896FD430601DBCA15
:1021FA008E828F83D01522AF82BF80004001227564
:10220A00A15575A1AA43B10475A1007585C0EF2F28
:10221A00F5849001CDE0F58EE58630E60375869A61
:10222A0075A15575A1AA53B1FB75A10022AF82759C
:10223A0085C0EF2FF58475868E858E82221224CA78
:10224A00BC0003022AD9EF60FA30D502B2D1E58385
:10225A00B4FF03022AEFE582B4FF03022AEF2583C3
:10226A0040072482400B022AD92483145003022AED
:10227A00EFF582EA8DF0A4A8F0EA8EF0A428F8E43B
:10228A0035F0F9EB8DF0A428E935F0F9E433CA8F7B
:10229A00F0A429F9EA35F0FAEBF88EF0A429F9EA64
:1022AA0035F0FAE433FBEC8DF0A429F9EA35F0FABB
:1022BA00E43BFBE88FF0A42AFAEB35F0FBE433CCDD
:1022CA00FD8EF0A42AFAEB35F0FBE43CFCED8FF02E
:1022DA00A42BFBEC35F0FC20E703122674022AB883
:1022EA00C021C0E0C0F0C082C083C007C006C005DC
:1022FA00C004C003C002C001C000C0D075D0001223
:10230A0007FDD0D0D000D001D002D003D004D00530
:10231A00D006D007D083D082D0F0D0E0D02132C00E
:10232A0021C0E0C0F0C082C083C007C006C005C09B
:10233A0004C003C002C001C000C0D075D0003098EC
:10234A0005122E8DC298309905122ECDC299D0D081
:10235A00D000D001D002D003D004D005D006D007D7
:10236A00D083D082D0F0D0E0D02132C021C0E0C0EA
:10237A00F0C082C083C007C006C005C004C003C045
:10238A0002C001C000C0D075D00030C005122FAD08
:10239A00C2C030C105122FEDC2C1D0D0D000D001C9
:1023AA00D002D003D004D005D006D007D083D08283
:1023BA00D0F0D0E0D02132C021C0E0C0F0C082C04D
:1023CA0083C007C006C005C004C003C002C001C064
:1023DA0000C0D075D000900249E0FEA3E0FFC0071C
:1023EA00C0068E828F83120069D006D007D0D0D063
:1023FA0000D001D002D003D004D005D006D007D037
:10240A0083D082D0F0D0E0D02132C021C0E0C0F029
:10241A00C082C083C007C006C005C004C003C00292
:10242A00C001C000C0D075D00090024BE0FEA3E00E
:10243A00FFC007C0068E828F83120069D006D007BC
:10244A00D0D0D000D001D002D003D004D005D0061D
:10245A00D007D083D082D0F0D0E0D02132C021C0C2
:10246A00E0C0F0C082C083C007C006C005C004C077
:10247A0003C002C001C000C0D075D000900247E07E
:10248A00FEA3E04E600E900247E0F8A3E0F58388D1
:10249A0082120069D0D0D000D001D002D003D0047B
:1024AA00D005D006D007D083D082D0F0D0E0D0219A
:1024BA0032122878120A70120AAB80FB7582002247
:1024CA00AA82AB83A2F73392D1F5826002D2F7AC2B
:1024DA00F0E58124F9F8E6FD08E6FE0886F008E64C
:0E24EA00A2F73392D5F5836002D2F7AFF0224D
:1024F800E582FF9032A193FEEF90327993FF70014D
:10250800229001CEE0FD701BBF0209EEF4FC52924E
:10251800EC529322BF0402800122EEF4FC5296ECA6
:10252800529722BD0214BF0207EE4292EE42932256
:10253800BF0439EE4296EE429722BD0116BF02084B
:10254800EEF45292EE429322BF0421EEF45296EE3C
:10255800429722BD0316BF0208EE4292EEF4529350
:1025680022BF0408EE4296EEF4FE529722AF82BFD5
:102578000102800FBF02028013BF03028017BF044D
:1025880025801BE5C620E21E539DFB22E5C620E3FD
:1025980015539DF722E5C630E20C539DFB22E5C694
:1025A80030E303539DF722E582FF90325193FEEF0B
:1025B8009032A193FDEF90327993FF7003F5822258
:1025C800EE600D8E82C007C005122575D005D007B4
:1025D8007E00BF0202800ABF03028009BF040C808C
:1025E80008AE908006AEA08002AEB0ED5E600475C5
:1025F80082012275820022E582FF90325193FEEF1C
:102608009032A193FDEF90327993FFEE600D8E82A8
:10261800C007C005122575D005D007A2AFE433FE68
:10262800C2AFBF0202800ABF03028017BF04368010
:10263800249001CFE07007EDF4FF52908027ED421F
:102648009080229001CFE07007EDF4FF52A0801532
:10265800ED42A080109001CFE07007EDF4FF52B07A
:0B2668008003ED42B0EE6002D2AF2212
:102674007804EC7011E58224F8500AF582E4C9CAA2
:10268400CBFCD8EF22EC7820058220E713D5820119
:1026940022C3E933F9EA33FAEB33FBEC33FCD8EA2F
:1026A400158222AC82AD839001D1E0FEA3E0FFBE8F
:1026B400000360121F0F9001D0E08C828D831228DA
:0B26C400ADA3DEFADFF88C828D8322CC
:1026CF00C0D075D00808B8000D09B900090ABA00C2
:1026DF00050BBB00010CD0D032A2AFC2AFA808A926
:1026EF0009AA0AAB0BAC8A8588F092AF30F5127449
:1026FF00012C600D08B8000909B900050ABA0001DC
:10270F000BC3EC9406FCECC313FC75F07DE8A4F846
:10271F00ADF075F07DE9A42DF9E435F0FD75F07D90
:10272F00EAA42DFAE435F0FD75F07DEBA42DFB7DC9
:10273F0000EC28F582E93DF583EA3DF5F0EB3D220B
:10274F00A2AFC2AFA808A909AA0AAB0BAC0C92AFF3
:10275F0075F020E8A4A8F075F020E9A428F582A868
:10276F00F075F020EAA428F583A8F075F020EBA40B
:10277F0028F9A8F075F020ECA42889F02285823A78
:10278F0085833B85F03CF53D1226E885823E8583A7
:10279F003F85F040F541E53A453B453C453D7001ED
:1027AF0022A83AA93BAA3CAB3D853E42853F4385D3
:1027BF004044854145E8494A4B60DBC003C002C035
:1027CF0001C0001226E8AC82AD83AEF0FFD000D07E
:1027DF0001D002D003ECC39542FCED9543FDEE957D
:1027EF0044FEEF9545FFC3EC94E8ED9403EE94009F
:1027FF00EF940040A118B8FF0919B9FF051ABAFFE5
:10280F00011B883A893B8A3C8B3D74E82542F5428F
:10281F0074033543F543E43544F544E43545F54554
:10282F0085423E85433F8544408545418087AE8242
:10283F00AF83C374019EE49F40022200C374029EC3
:10284F00FE74009FFF00BE0005BF000200220000C3
:10285F000000000000000000000000000000000E5B
:10286F00BE00EB0FBF00ED002275A15575A1AA7434
:10287F00F855B94406F5B975A10090138812283D93
:10288F00759E5D759D0074F055894402F58953C995
:0D289F00EF758C06C28DD2A9D28CD2AF226B
:1028AD0020F71130F6138883A88220F509F6A88346
:1028BD007583002280FEF280F5F022FFA8811818A2
:1028CD00122A11D2D133E6400730E70B7582002270
:1028DD0020E70675820122C2D11229F3E97003F5B2
:1028ED00822220D101B3E433F58222C015858115F2
:1028FD00C082C083E5812405F581AF150FE5152450
:10290D0003F8A607087600087640E51524FCFD7E41
:10291D00007F40E5152406F9A815088604E5152461
:10292D00FCF886038CF0EBA4F709A7F0E515240657
:10293D0004F98704A81508860374012DFAE43EFEF8
:10294D008A828E838FF0122C6F8BF0A4FBE51524F9
:10295D0003F8740126FDE40836FE0886078D828E85
:10296D00838FF0122C6FFDE51524FCF886078DF092
:10297D00EFA42B2CF7E5152406F987060987078E9A
:0A298D00828F83851581D015223258
:01299800320C
:10299A001224CA7900E583B58202800D5003122BF6
:1029AA0007E583C3958212303BE5D0C465D020E1A8
:1029BA0017EA2DFAEB3EFBEC3FFC5009740112308A
:1029CA003BEC4480FC022AB8C3EA9DFAEB9EFBEC7E
:1029DA009FFC500FC3E499F9E49AFAE49BFBE49C48
:1029EA00FCB2D1122674022AB87901AA82E68F8231
:1029FA00B5821318E6B5F00E18E6B5830918E68A0B
:102A0A0082B58202790022B4800FE5F0700AE5836C
:102A1A007006E58270027F00EFB6801518B60010C6
:102A2A0018B6000B18B6000608080876002208082F
:102A3A00082212307E700AE582458345F070012231
:102A4A00E430D112F4700BE5F0F47006E58330E758
:102A5A00012290800022700AE5F07006E58320E7E3
:102A6A000122907FFF22AC83AB827A007900748EB8
:102A7A00022E69ABF0A2AFE433FEC2AFE0A37A083C
:102A8A0033D2964002C2967905D9FEC296DAF1DBB4
:102A9A00EBEE6002D2AF22E4AC83AB82FAF9748E19
:0E2AAA00022FA37F8E1230F1F58385F0822279
:102AB800B98003EA13B34010EA2401FAE43BFBE4CB
:102AC8003CFC50047C800582BC000EBB000BBA00A5
:102AD80008E4F5F0F583F58222A2D1E582138CF0A3
:102AE80092F78B838A8222E4F583F58275F080F46D
:102AF800A2D11322E4F583F58275F0C0747F22E534
:102B080082C583F582A2D133A2D592D11392D5EC96
:102B1800CFFCEBCEFBEACDFA2222AF82BF020050F7
:102B28003EEF75F002A42449FD740235F0FE9001D1
:102B3800D4E0FBA3E0FC8D828E83EBF0ECA3F0BF26
:102B480000028005BF0118800B9001D6E024FF9297
:102B580088D2A8229001D6E0FF24FF928AD2AA2226
:102B6800AF82BF02005028BF00028005BF01088065
:102B780004C2A88002C2AAEF75F002A42449FE7418
:102B88000235F0FF8E828F837421F0742BA3F0221C
:102B99001224CA30D502B2D1BF0009BC0003022AEF
:102BA900FC022AEFBC0003022AD9E583B4FF0BE536
:102BB90082B4FF03022AFC022AD9E582B4FF030288
:102BC9002AEFC395835007247F400B022AD924801A
:102BD900145003022AEFF582C3ED9AEE9BEF9C4055
:102BE900111582C3EA33F9EB33FAEC33FBE433FC16
:102BF9008005E4CCCBCAF9C08275F019C3E99DEA16
:102C09009EEB9FEC9400D5F002802D400EE99DF9D2
:102C1900EA9EFAEB9FFBEC9400FCC3B3E833F8E5BA
:102C29008233F582E58333F583C3E933F9EA33FA6D
:102C3900EB33FBEC33FC80C4B3E4F938FAE43582B6
:102C4900FBE43583FCD082500405827C8012267413
:032C5900022AD07C
:102C5C00E4AC82FBFAF97486022FA37F861230F162
:102C6C00F5822220F71430F6148883A88220F50709
:102C7C00E6A88375830022E280F7E49322E022C069
:102C8C0015858115C082C083C0F0C0E0E5812408A1
:102C9C00F581E5152409F92402F8AF150F8F06C04C
:102CAC0000A8068606E51524FAFDFC0C0CA8048683
:102CBC0004D0008EF0ECA4FEABF0A60608A6038FA1
:102CCC00068E0086068D048C0086048EF0ECA4FE25
:102CDC00ABF0A70609A703E51524092403F9870619
:102CEC008F0474032CF886048D038B0086038CF000
:102CFC00EBA42EFEF78F0474022CF886048D03EBE4
:102D0C0004F886038CF0EBA42EF7E51524092402B5
:102D1C00F98704098706198F0374022BF886038D33
:102D2C00028A0086028BF0EAA4ABF02CFCEB3EFE90
:102D3C00A70409A706198F03EB04F886038D02EA92
:102D4C0004F886028BF0EAA4ABF02CFCEB3EFEA759
:102D5C000409A7068F0674032EF98F06EE04F88675
:102D6C00068D0474022CF886048EF0ECA4F78F0602
:102D7C00EE04F98F06EE04F886068D048C008604AA
:102D8C008EF0ECA4FEABF0A70609A7038D06740326
:102D9C002EF98F068E0086068D0474032CF886049B
:102DAC008EF0ECA4F78D06EE04F98F068E008606E5
:102DBC008D04EC04F886048EF0ECA4FEABF0A706B0
:102DCC0009A7038D0177008F017700E5152409F918
:102DDC00E5152405F8E7F609E708F609E708F6090A
:102DEC00E708F6191919A81508860208860308863B
:102DFC0006088607E5152405F8EA26F6EB0836F6EC
:102E0C00EE0836F6EF0836F6E5152405F8E6F70970
:102E1C0008E6F70908E6F70908E6F7191919E709AA
:102E2C00E709E709E7E51524FAF88604088605089A
:102E3C008606088607E5152405F8EC26FCED083611
:102E4C00FDEE0836FEEF08368C828D838EF08515EC
:102E5C0081D01522FCABF0AA83A982749EF582C2A4
:102E6C00D1EC30E716D2D1E9F42401F9EAF43400BC
:102E7C00FAEBF43400FBECF43400FC122674022A56
:012E8C00B88D
:102E8D0090024DE0FF7E000FBF00010E7410C0E0F8
:102E9D00E4C0E08F828E83123116AE8215811581CA
:102EAD0090024EE0FFEEB507012290024DE024D7CF
:102EBD00F582E43401F583E599F090024DEEF022B0
:102ECD0030044A90024FE0FF900250E0FEEFB5064D
:102EDD0005A204C20422900250E024E7F582E434F6
:102EED0001F583E0F599900250E0FF7E000FBF00E1
:102EFD00010E7410C0E0E4C0E08F828E8312311693
:0E2F0D00AE82AF8315811581900250EEF02246
:102F1B00C015858115AE82AF837D007C00E515243D
:102F2B00FCF808E6235401FB702FE51524FCF8E6AA
:102F3B0026F608E633F6E51524FCF8C3EE96EF0803
:102F4B00965011E51524FCF808E618C313C613C6F2
:102F5B0008F680050C8C0580C4E51524FCF8C3EE3F
:102F6B0096EF0896400DE51524FCF8EEC396FEEFA0
:102F7B000896FFE51524FCF808E618C313C613C61C
:102F8B0008F68D041DEC70D18E828F83D01522FC38
:102F9B00ABF0AA83A982749EC2D1F5821226740269
:022FAB002AB842
:102FAD00900251E0FF7E000FBF00010E7410C0E0D3
:102FBD00E4C0E08F828E83123116AE8215811581A9
:102FCD00900252E0FFEEB5070122900251E024F786
:102FDD00F582E43401F583E5C1F0900251EEF02263
:102FED0030054A900253E0FF900254E0FEEFB50623
:102FFD0005A205C20522900254E02407F582E434AF
:10300D0002F583E0F5C1900254E0FF7E000FBF0092
:10301D00010E7410C0E0E4C0E08F828E8312311671
:0E302D00AE82AF8315811581900254EEF02221
:10303B006040F82582500274FFF582E824F8501E98
:10304B00CCCBCAF9E4CC24F85014CBCAF9E4CB248A
:10305B00F8500BCAF9E4CA24F8500379002224086B
:10306B006010F8C3EC13FCEB13FBEA13FAE913F94A
:10307B00D8F1221230DDC3749E958240397900124B
:10308B00303B30D126E9F42401F582EAF43400F523
:10309B0083EBF43400F5F0ECF43400700AE5824570
:1030AB008345F0700122E430E70F22EC20E714890E
:1030BB00828A838BF02230D10AE4F582F583F5F016
:1030CB0074802274FFF582F583F5F0747F2275828C
:1030DB000022AA82AB83A2F73392D1F5826002D28F
:1030EB00F7ACF0227F9E1230DD30D103022AD9C318
:1030FB00EF9582500974FFF5F0F583F58222790084
:10310B0012303B89828A838BF0EC22C015858115A6
:10311B00AE82E583FF33E433FD6009C3E49EFBE439
:10312B009FFC80048E038F04E51524FCF808E63021
:10313B00E70FE51524FCF8C3E496FE08E496FF8040
:10314B000AE51524FCF88606088607C005C006C0EC
:10315B00078B828C83122F1BAE82AF831581158157
:10316B00D005ED600DC3E49EFCE49FFD8C828D8346
:09317B0080048E828F83D015229E
:1031840012011001EF020108091250C501010102E8
:103194000301090246000201008064080B000202D8
:1031A40002010409040000010202010405240010C4
:1031B4000104240202052406000107058103080016
:1031C4004009040100020A0000040705020240004D
:1031D40000070582024000000403090418034100AB
:1031E4006D00620069006E006F002000450044001D
:1031F40047004500160343004400430020005300E9
:1032040065007200690061006C000E0341006D00EE
:08321400620069006E006F000A
:10321C000000010002000300040005000600070086
:10322C000800210061626E646972416461687364B4
:10323C00416D62696E6F2045444745312E302E3802
:05324C0041455232650E
:10325100000000000000000000000000000000016C
:103261000000000000000000000000000000030456
:103271000000020000000000010101010101010143
:103281000000020202020202020200000303030321
:103291000303030300000404040404040404000001
:1032A10001020408102040800000010204081020DF
:1032B100408000000102040810204080000001024B
:1032C1000408102040800000FFFFFFFFFFFFFFFF09
:1032D100FFFFFF00FFFF0102FFFFFFFFFFFFFFFFF7
:1032E100FFFFFFFFFFFFFFFF03FFFFFFFFFFFFFFE9
:0B32F10000E1000000000800000000E9
:1032FC00BB24000000010000000000CC0001FB9486
:10330C000BFFFF0101CC0003C0C60000FE762CA70A
:05331C00FE98BF000057
:023321000000AA
:04332300212B212B0E
:0433270000000000A2
:04332B00000000009E
:00000001FF
