:0600000002006B02163144
:03000B000218DEFA
:030013000216844E
:01001B0032B2
:030023000215992A
:03002B00021B773E
:01003300329A
:03003B000216D7D3
:0300430002155A49
:01004B003282
:030053000215E5AE
:01005B003272
:03006300021B7508
:0300660002172B53
:02006900E4733E
:0D006B0075812D121F22E5826003020066E0
:100078007927E94400601B7A0190216C78ED75A01E
:1000880001E493F2A308B8000205A0D9F4DAF275E6
:02009800A0FFC7
:06009A00E478FFF6D8FD3A
:1000A0007800E84400600A799475A000E4F309D868
:1000B000FC7859E84401600C7902900094E4F0A3C4
:0400C000D8FCD9FA95
:0200C400C20078
:0E00C6007808E4F608F608F608F6780C7600DE
:0200D400C20464
:0200D600C20561
:0300D800020066BD
:1000DC001208D21208FC1208EB75DD0075D30075FE
:1000EC00D500229001F4E4F0C200227F00C3E5DBCE
:1000FC009407920140067D077E008004ADDB7E00F4
:10010C008F037C00C3EB9DEC64808EF063F08095D4
:10011C00F05017EF24EDFDE43401FE8F827583005F
:10012C00E0FC8D828E83F00F80C3227F008F057ED2
:10013C0000C3ED9407EE940050188F057E00EF2459
:10014C00EDF582E43401F583E0FC8D828E83F00FB3
:10015C0080DB90000722900002E0FF9001F6F0E0B7
:10016C0020E0339001EDE0FCA3E0FDA3E0FEA3E072
:10017C00FFBCB022BD041FBE001CBF001975E200FD
:10018C00C2AF75890090C350121A4C90C350121A0A
:10019C004C12380080FE227E007F003000200EBE04
:1001AC0000010F900005C007C006121A4CD006D0F3
:1001BC0007C3EE9450EF94C340E175820022758220
:1001CC0001227516009001F6E06003751601851684
:1001DC0082222000259001F7E0FF601E8FD553D4BA
:1001EC00FCD200BF400F1201A3E582600875D50058
:1001FC0053D4FCD2009001F7E4F022AF829001F6C8
:10020C00E06041C0071201A3E582D0077003F582BC
:10021C00229001F7E0FEBE400050207D0074402E7D
:10022C00FEE43DFDEE2414F582ED3400F583EFF091
:10023C009001F7E02401F075820122C0071201DE63
:10024C00D00780BF75820022AFF0AE83E5829000AC
:10025C0096F0EEA3F0EFA3F09001F6E0700302032A
:10026C000A900094E0FEA3E0FFC3E49E74808FF03C
:10027C0063F08095F0400302030AC007C006120128
:10028C00A3E582D006D0077003F58222900096E099
:10029C00FBA3E0FCA3E0FDC3E49E74808FF063F04D
:1002AC008095F050BC9001F7E0FABA400050498AB2
:1002BC00017A00744029F9E43AFAE92414F9EA3491
:1002CC0000FA8B828C838DF0121C15F8A3AB82ACD8
:1002DC0083900096EBF0ECA3F0EDA3F089828A8377
:1002EC00E8F09001F7E02401F01EBEFF011F900022
:1002FC0094EEF0EFA3F0809F1201DE02026D758286
:10030C0000229001F4E0F582229001F4E07003F5F4
:10031C0082229001F5E02414F582E43400F583E0A8
:10032C00FF9001F5E004F09001F4E014F0E07003AC
:10033C0053D4F38F822275D50074FC55D44402F546
:10034C00D4C2002230DE199001F4E5DBF09001F507
:10035C00E4F09001F4E0600874F355D44408F5D44B
:01036C00226E
:10036E00AFDBBF08028003020741900007E0FE7F6B
:10037E0000900006E0FD7C004FF510EC4EF5117F6D
:10038E0000900001E0F512900000E0FE5460605312
:10039E00900000E0FE5306607D00BE2005BD000209
:1003AE00800BBE4039BD00367FFF0207437420B577
:1003BE0012030207437421B5120280077422B5128C
:1003CE0018800C120137AD82AE838D07020743C031
:1003DE0007120162D0070207437FFF0207437FFF28
:1003EE00020743E51224F4500302073DE512240BE5
:1003FE0083F582E512241083F583E4731F4D3D0DC2
:10040E003D17223D24414343070507060705040710
:10041E0005050707900003E0FEBE0102800ABE023A
:10042E0002800FBE037380147513137514207F1290
:10043E0080697513257514207F46805F900002E059
:10044E00700875136B7514208044900002E0FEBE98
:10045E00010875139D7514208034900002E0FEBED5
:10046E00020875136F7514208024900002E0FEBE02
:10047E0003087513007514008014900002E0FEBE90
:10048E00040875138775142080047FFF800D851373
:10049E0082851483E493FF80027FFFBFFF03020770
:1004AE00438F057E00C3ED9510EE951150048D100F
:1004BE008E11AD10AE11C3ED9408EE940092024071
:1004CE00067B087C008004AB10AC118B077C00C34C
:1004DE00EC9F50198C027B00EC2513F582E4351449
:1004EE00F583E493F98A828B83F00C80E28F037C90
:1004FE0000EDC39BFDEE9CFE8D108E11EF2513F5C6
:10050E0013E43514F514020743900002E0FE8E103A
:10051E00751100020743900099E0900000F0AD10B5
:10052E00AE11C3ED9401EE940050030207437F0118
:10053E00020743900002E0FE900099F002074390FC
:10054E000000E0541F702F900003E0FD7E0090002D
:10055E0002E0FC7B004206EB4205BE0114BD001119
:10056E0090202CE493FE30E5030207437FFF020741
:10057E00437FFF020743900000E0FE53061F7D00FD
:10058E00BE0277BD0074900004E0FEBE0102805FE3
:10059E00BE02028049BE03028033BE0402801DBE2D
:1005AE0081028040BE8202802ABE83028014BE84F5
:1005BE004474BC55DE4402F5DE02074353DE73027B
:1005CE00074374BC55D64402F5D602074353D6737F
:1005DE0002074374BC55D44402F5D402074353D4E6
:1005EE007302074374BC55D24402F5D2020743533B
:1005FE00D2730207437FFF0207437FFF0207439038
:10060E000000E0541F702F900003E0FD7E0090006C
:10061E0002E0FC7B004206EB4205BE0114BD001158
:10062E0090202CE493FE30E5030207437FFF020780
:10063E00437FFF020743900000E0FE53061F7D003C
:10064E00BE0205BD0002800302071B900003E0FD01
:10065E007E00900002E0FC7B004206EB4205EE4D70
:10066E006003020717900005E0FD7E00900004E095
:10067E00FC7B004206EB4205BE0106BD00030207ED
:10068E000BBE0205BD00028060BE0305BD000280E8
:10069E0044BE0405BD00028028BE8105BD00028057
:1006AE0052BE8205BD00028036BE8305BD000280AB
:1006BE001ABE8451BD004E74BF55DE4403F5DE8074
:1006CE0074747F55DE440CF5DE806A74BF55D644D3
:1006DE0003F5D68060747F55D6440CF5D6805674DB
:1006EE00BF55D44403F5D4804C747F55D4440CF5D7
:1006FE00D4804274BF55D24403F5D28038747F55EE
:10070E00D2440CF5D27FFF802C7FFF80287FFF80A4
:10071E0024900000E4F0900001F0AD10AE11C3ED96
:10072E009402EE940040047F02800AAF1080067F90
:10073E00FF80027FFFBFFF077512FF75DCCF22EF30
:10074E0024F740068FDD75DCC02275DD0075DCC038
:10075E00227405B51202805D7406B51266AE10AF36
:10076E0011C3EE9408EF9400920340067C087D00BE
:10077E008004AC10AD117D00C3ED9C50198D027B31
:10078E0000ED2513F582E43514F583E493F98A829E
:10079E008B83F00D80E28C037D00EEC39BFEEF9DFC
:1007AE00FF8E108F11EC2513F513E43514F5148C10
:1007BE00DD63DC4022E5E35480FFE5104FF5E37581
:1007CE00DC022275DD0075DC02227420B5120D30BC
:1007DE00DE101200F775DD0085DCDC2275DD0043CE
:1007EE00DC022275D30074FC55D24402F5D22220CD
:1007FE00D9030208A8E5D9540FFFADD95305307EB1
:10080E0000BD0005BE0002801CBD1005BE000280AA
:10081E0036BD2005BE00028043BD3006BE00030279
:10082E00088E0208A6EF24FB50030208A6EF2F90B5
:10083E00084173800880618009805D805B1207D853
:10084E0080561203508051EF24FB404CEF2F90083E
:10085E006073804480428040803E803CEF24FB40A9
:10086E0037EF2F900875738008800B800E802980DB
:10087E002712075F80221207F1801D120342801893
:10088E00EF24FB4013EF2F900899738008800980A6
:10089E00078005800312036EC2D930D81A75DC02A8
:1008AE0075D21275D41275E300C2DAC2D9C2D890CD
:1008BE000099E4F01200EF10DA0122E5DA20E203EB
:1008CE0075D8FF2275E20053E27F43E22975E300FB
:1008DE0053E2BF53D1FB75D18043D1012243E104D2
:1008EE0043E10243E10143D81FD2EAD2AF227E0098
:1008FE007F008EEC8FED7E0A7F008EEE8FEF7E14E2
:10090E007F008EE48FE575EB0C75D21275D41275DF
:10091E00EA4075DC022275820012154AAF82BF0FC3
:10092E00028015BF0C0280109001FFE09001A3F031
:10093E0075820012151480059001FFEFF07582018B
:10094E0012154AAF82BF0F028013BF0C02800E90A9
:10095E0001FEE09001A3F07582010215149001FED4
:10096E00EFF0229001A47401F075820E12173A90E6
:10097E0001A57401F075820E1218419001A4740144
:10098E00F075820F12173A9001A57401F075820F5F
:10099E00121841900BB8E4F5F012199B9001A5E4E2
:1009AE00F075820E1218419001A5E4F075820F12B7
:1009BE0018419001F4E4F5F012199B9001A4740112
:1009CE00F075821112173A9001A4E4F07582241288
:1009DE00173A9001A4E4F075822512173A75822415
:1009EE001217F17582251217F1E58260079001FD4D
:1009FE00E4F080069001FD7401F09001FDE0FFBF70
:100A0E000003020BE4BF01028001221200DC900100
:100A1E00A57401F07582111218419001A47401F0B1
:100A2E0075821012173A7F00BF500050598F057E05
:100A3E0000C007C005C006900003121AD7AD82AEE3
:100A4E008315811581ED249AFDEE3400FE8D828E84
:100A5E0083E4F08D828E83A37464F08D828E83A3E3
:100A6E00A3E4F07D9A7E007C007B004304F08D822F
:100A7E008E838CF0EB121B79900005E4F5F01219C1
:100A8E009BD0070F80A27F00BF500050588F057E6D
:100A9E0000C007C005C006900003121AD7AD82AE83
:100AAE008315811581ED249AFDEE3400FE8D828E24
:100ABE00837464F08D828E83A3E4F08D828E83A383
:100ACE00A3F07D9A7E007C007B004304F08D828E25
:100ADE00838CF0EB121B79900005E4F5F012199B54
:100AEE00D0070F80A37F00BF500050588F057E00A7
:100AFE00C007C005C006900003121AD7AD82AE83A0
:100B0E0015811581ED249AFDEE3400FE8D828E83C3
:100B1E00E4F08D828E83A3F08D828E83A3A3746402
:100B2E00F07D9A7E007C007B004304F08D828E83E4
:100B3E008CF0EB121B79900005E4F5F012199BD0A6
:100B4E00070F80A37F00BF500050568F057E00C058
:100B5E0007C005C006900003121AD7AD82AE8315EA
:100B6E00811581ED249AFDEE3400FE8D828E83E494
:100B7E00F08D828E83A3F08D828E83A3A3F07D9A57
:100B8E007E007C007B004304F08D828E838CF0EB24
:100B9E00121B79900005E4F5F012199BD0070F8017
:100BAE00A512195EAC82AD83AEF0FF90019AECF007
:100BBE00EDA3F0EEA3F0EFA3F0900196ECF0EDA311
:100BCE00F0EEA3F0EFA3F0900064E4F5F012199BA1
:100BDE001201DE0209247F00BF500050598F057E9E
:100BEE0000C007C005C006900003121AD7AD82AE32
:100BFE008315811581ED249AFDEE3400FE8D828ED3
:100C0E0083E4F08D828E83A37464F08D828E83A331
:100C1E00A3E4F07D9A7E007C007B004304F08D827D
:100C2E008E838CF0EB121B79900005E4F5F012190F
:100C3E009BD0070F80A29001A4E4F07582101217CA
:100C4E003A53C67F9001A47401F075822512173AAB
:100C5E009001A5E4F07582251218419001A5E4F0EB
:100C6E007582111218419001A57401F075820F1250
:100C7E0018419001A5E4F075820E0218419001FD15
:100C8E00E0FFBF0003020D0BBF010280012212190B
:100C9E005EAC82AD83AEF0FF900192ECF0EDA3F06E
:100CAE00EEA3F0EFA3F012030EE582604D120315D2
:100CBE00E582900191F0900192E0FCA3E0FDA3E0AB
:100CCE00FEA3E0FF90019AECF0EDA3F0EEA3F0EF9F
:100CDE00A3F0900196ECF0EDA3F0EEA3F0EFA3F0ED
:100CEE009001FBE0FF600ABF01028008BF021A807C
:100CFE0006020D180212B50210640213A59001A58A
:100D0E007401F075820F0218412290019EE0FFBF20
:100D1E0003004003020EA2EF9020AB93FE900191D0
:100D2E00E0FDB5060FBF02059001FCE4F090019EB8
:100D3E00EF04F022EF9020B193FEEDB50610BF0246
:100D4E00069001FC7401F090019EEF04F022EF90EA
:100D5E0020AE93FEEDB506028003020E76BF0202B0
:100D6E008003020E6E75820F12020775820C12023C
:100D7E000775825D120207758206120207903FFC0C
:100D8E00E493F582120207903FFDE493F58212027E
:100D9E0007903FFEE493F582120207903FFFE49323
:100DAE00F582120207903FFAE493F5821202079041
:100DBE003FFBE493F58212020775820B1202077C49
:100DCE00007E00C3EC940BEE648094805020EC24E3
:100DDE00B7F582EE3420F583E493F582C006C004A5
:100DEE00120207D004D0060CBC00D80E80D5758236
:100DFE00051202077C007E00C3EC9405EE6480941D
:100E0E00805020EC24C2F582EE3420F583E493F575
:100E1E0082C006C004120207D004D0060CBC00D853
:100E2E000E80D57582051202077C007E00C3EC94FD
:100E3E0005EE648094805020EC24C7F582EE3420B9
:100E4E00F583E493F582C006C004120207D004D0E5
:100E5E00060CBC00D80E80D590019EE4F01201DE87
:100E6E0090019EE02401F022EF9020B493FEEDB5A8
:100E7E00061CBF02119001FB7402F090018BE4F08E
:100E8E00A3F090019EF090019EE02401F0229001CB
:100E9E009EE4F022EFFE24F7500122EE240A83F5A1
:100EAE0082EE240D83F583E473636363C9D8E7F69A
:100EBE00050C1010100E0E0E0E0F0F900191E090FB
:100ECE00019FF090019EEF04F022900191E09001BD
:100EDE00A0F090019EEF04F022900191E09001A10C
:100EEE00F090019EEF04F022900191E09001A2F0AB
:100EFE0090019EEF04F02290019EEF04F0229001EB
:100F0E00FCE0FF6007BF0103020FC3229001A0E0C7
:100F1E00FF90019FE06F6455FF9001A1E0FEB507C1
:100F2E00028003020FBD9001A57401F075820E12AE
:100F3E00184190019FE0FF7E007D008D048E058F8D
:100F4E00067F009001A0E0F8E4F9FAFBE82FFFE934
:100F5E003EFEEA3DFDEB3CFCC007C006C005C004EA
:100F6E00900003E4F5F0121C31AC82AD83AEF0FFBD
:100F7E00E58124FCF58190018DECF0EDA3F0EEA35C
:100F8E00F0EFA3F090018BE4F0A3F09001A6F090A7
:100F9E0001A774F0F0E4A3F090009A75F000121817
:100FAE00B69001A2E090018AF09001FB7401F090DE
:100FBE00019EE4F0229001A0E0FF90019FE06F649B
:100FCE0055FF9001A1E0FEB50702800302105E906E
:100FDE0001A57401F075820E12184190019FE0FF79
:100FEE007E007D008D048E058F067F009001A0E0AF
:100FFE00F8E4F9FAFBE82FFFE93EFEEA3DFDEB3C93
:10100E00FCC007C006C005C004900003E4F5F01252
:10101E001C31AC82AD83AEF0FFE58124FCF58190EE
:10102E00018DECF0EDA3F0EEA3F0EFA3F090018BA9
:10103E00E4F0A3F09001A6F09001A774F0F0E4A301
:10104E00F090009A75F0001218B69001FB7401F042
:10105E0090019EE4F02290018BE0FEA3E0FFC374AA
:10106E000C9EE49F50030211F3EE240A83F582EEE8
:10107E00241183F583E4739FC8E4FA10263C5A7852
:10108E0095ADC5DD101010101111111111111111A6
:10109E0011900191E0FFBFFF089001FAE4F00211F8
:1010AE00F39001FA7401F09001FFEFF09001A3EFBD
:1010BE00F07582001215140211F39001FAE0FFBFD1
:1010CE000114900191E0FF9001FEF09001A3EFF06A
:1010DE007582011215149001FAE0FFBF010E900106
:1010EE0091E09001A3F07582021215149001FAE0BE
:1010FE00FFBF010E900191E09001A3F075820312E3
:10110E0015149001FAE0FFBF010E900191E09001DD
:10111E00A3F07582041215149001FAE0FFBF010EC0
:10112E00900191E09001A3F07582051215149001C3
:10113E00FAE0FFBF010280030211F3900191E090EB
:10114E0001A3F07582061215140211F39001FAE054
:10115E00FFBF010280030211F3900191E09001A301
:10116E00F07582071215140211F39001FAE0FFBF19
:10117E00010280030211F3900191E09001A3F0753A
:10118E008208121514805E9001FAE0FFBF0156909E
:10119E000191E09001A3F07582091215148046901A
:1011AE0001FAE0FFBF013E900191E09001A3F075BE
:1011BE00820A121514802E9001FAE0FFBF012690CC
:1011CE000191E09001A3F075820B12151480169018
:1011DE0001FAE0FFBF010E900191E09001A3F075BE
:1011EE00820C12151490018BE0FEA3E0FF8E048F8B
:1011FE0005C3EC940DED9400500B90018B74012EF1
:10120E00F0E43FA3F090018BE0FEA3E0FFBE0D05DE
:10121E00BF000280030212B29001FBE4F075820F50
:10122E0012020775820C12020775825D1202077593
:10123E00820012154A12020775820112154A120215
:10124E000775820212154A12020775820312154A99
:10125E0012020775820412154A12020775820512D0
:10126E00154A12020775820612154A120207758276
:10127E000712154A12020775820812154A12020742
:10128E0075820912154A12020775820A12154A1240
:10129E00020775820B12154A12020775820C12157F
:1012AE004A1202070201DE90018BE0FEA3E0FFC3AB
:1012BE00EE94F3EF94005024900200E0FCA3E0FDC6
:1012CE00EE2CFEEF3DFF900191E0FD8E828F83F0BC
:1012DE0090018BE02401F0A3E03400F090018DE04A
:1012EE0024FFFCA3E034FFFDA3E034FFFEA3E034B3
:1012FE00FFFF90018DECF0EDA3F0EEA3F0EFA3F065
:10130E0090018DE0F5F0A3E042F0A3E042F0A3E0FF
:10131E0045F070519001FBE4F090018AE070387E48
:10132E009A7F0090018BE0FCA3E0FD0CBC00010D48
:10133E007D008D028C037C007D008E008F01E4FE0B
:10134E00FFE84204E94205EE4203EF42028C828D31
:10135E00838BF0EA121B799001A5E4F075820E12D0
:10136E0018410201DE22900204E0F5F0A3E045F000
:10137E0070149002047401F0E4A3F09001A504F03F
:10138E0075820E021841900204E4F0A3F09001A5BC
:10139E00F075820E02184190019AE0FCA3E0FDA3C5
:1013AE00E0FEA3E0FF900192E0F8A3E0F9A3E0FADB
:1013BE00A3E0FBE8C39CFCE99DFDEA9EFEEB9FFFCC
:1013CE00C3EC94E8ED9403EE9400EF9400500122E8
:1013DE009001FCE0FF6005BF012080101201DE903D
:1013EE0001FEE0FFBF0F13121374800E1201DE9088
:1013FE0001FEE0FFBF0F03121374900192E0FCA3F5
:10140E00E0FDA3E0FEA3E0FF90019AECF0EDA3F067
:10141E00EEA3F0EFA3F09001FFE0FBBB0F02800103
:10142E0022900196E0F8A3E0F9A3E0FAA3E0FBEC2A
:10143E00C398FCED99FDEE9AFEEF9BFF900202E041
:10144E00FAA3E0FB8A008B017A007B00C007C0067E
:10145E00C005C004C000C001C002C0039003E8E490
:10146E00F5F0121C31A882A983AAF0FBE58124FCB9
:10147E00F581D004D005D006D007C3EC98ED99EED7
:10148E009AEF9B5001227F00BF500050388F057E8F
:10149E0000C007C005C006900003121AD7AD82AE79
:1014AE008315811581D007ED249AFDEE3400FE8D53
:1014BE00828E83E4F08D828E83A3F08D828E83A341
:1014CE00A3F00F80C37E9A7F007D007C004305F061
:1014DE008E828F838DF0EC121B79900001E4F5F073
:1014EE0012199B9001FBE4F0900192E0FCA3E0FD49
:1014FE00A3E0FEA3E0FF900196ECF0EDA3F0EEA3C7
:05150E00F0EFA3F02244
:10151400AF82BF800040012275A15575A1AA43B1D5
:101524000475A1007585C0EF2FF5849001A3E0F543
:101534008EE58630E60375869A75A15575A1AA5382
:10154400B1FB75A10022AF827585C0EF2FF58475BC
:06155400868E858E8222C6
:10155A00C021C0E0C0F0C082C083C007C006C00579
:10156A00C004C003C002C001C000C0D075D00012C0
:10157A0007FDD0D0D000D001D002D003D004D005CE
:10158A00D006D007D083D082D0F0D0E0D02132C0AC
:10159A0021C0E0C0F0C082C083C007C006C005C039
:1015AA0004C003C002C001C000C0D075D00030988A
:1015BA0005121E06C298309905121E46C299D0D04D
:1015CA00D000D001D002D003D004D005D006D00775
:1015DA00D083D082D0F0D0E0D02132C021C0E0C088
:1015EA00F0C082C083C007C006C005C004C003C0E3
:1015FA0002C001C000C0D075D00030C005121E94D0
:10160A00C2C030C105121ED4C2C1D0D0D000D00190
:10161A00D002D003D004D005D006D007D083D08220
:10162A00D0F0D0E0D02132C021C0E0C0F0C082C0EA
:10163A0083C007C006C005C004C003C002C001C001
:10164A0000C0D075D000900208E0FEA3E0FFC007FA
:10165A00C0068E828F83120069D006D007D0D0D000
:10166A0000D001D002D003D004D005D006D007D0D4
:10167A0083D082D0F0D0E0D02132C021C0E0C0F0C7
:10168A00C082C083C007C006C005C004C003C00230
:10169A00C001C000C0D075D00090020AE0FEA3E0ED
:1016AA00FFC007C0068E828F83120069D006D0075A
:1016BA00D0D0D000D001D002D003D004D005D006BB
:1016CA00D007D083D082D0F0D0E0D02132C021C060
:1016DA00E0C0F0C082C083C007C006C005C004C015
:1016EA0003C002C001C000C0D075D000900206E05D
:1016FA00FEA3E04E600E900206E0F8A3E0F58388B0
:10170A0082120069D0D0D000D001D002D003D00418
:10171A00D005D006D007D083D082D0F0D0E0D02137
:10172A0032121A87120971120C8B80FB7582002201
:10173A00E582FF90211C93FEEF9020F493FF700145
:10174A00229001A4E0FD701BBF0209EEF4FC529244
:10175A00EC529322BF0402800122EEF4FC5296EC72
:10176A00529722BD0214BF0207EE4292EE42932222
:10177A00BF0439EE4296EE429722BD0116BF020817
:10178A00EEF45292EE429322BF0421EEF45296EE08
:10179A00429722BD0316BF0208EE4292EEF452931C
:1017AA0022BF0408EE4296EEF4FE529722AF82BFA1
:1017BA000102800FBF02028013BF03028017BF0419
:1017CA0025801BE5C620E21E539DFB22E5C620E3C9
:1017DA0015539DF722E5C630E20C539DFB22E5C660
:1017EA0030E303539DF722E582FF9020CC93FEEF6E
:1017FA0090211C93FDEF9020F493FF7003F5822251
:10180A00EE600D8E82C007C0051217B7D005D0074B
:10181A007E00BF0202800ABF03028009BF040C8057
:10182A0008AE908006AEA08002AEB0ED5E60047590
:10183A0082012275820022E582FF9020CC93FEEF7E
:10184A0090211C93FDEF9020F493FFEE600D8E82A1
:10185A00C007C0051217B7D005D007A2AFE433FE00
:10186A00C2AFBF0202800ABF03028017BF043680DC
:10187A00249001A5E07007EDF4FF52908027ED4215
:10188A009080229001A5E07007EDF4FF52A0801528
:10189A00ED42A080109001A5E07007EDF4FF52B070
:0B18AA008003ED42B0EE6002D2AF22DE
:1018B600AC82AD839001A7E0FEA3E0FFBE0003600B
:1018C600121F0F9001A6E08C828D83121ABCA3DE34
:0818D600FADFF88C828D8322F9
:1018DE00C0D075D00808B8000D09B900090ABA00C1
:1018EE00050BBB00010CD0D032A2AFC2AFA808A925
:1018FE0009AA0AAB0BAC8A8588F092AF30F5127448
:10190E00012C600D08B8000909B900050ABA0001DA
:10191E000BC3EC9406FCECC313FC75F07DE8A4F845
:10192E00ADF075F07DE9A42DF9E435F0FD75F07D8F
:10193E00EAA42DFAE435F0FD75F07DEBA42DFB7DC8
:10194E0000EC28F582E93DF583EA3DF5F0EB3D220A
:10195E00A2AFC2AFA808A909AA0AAB0BAC0C92AFF2
:10196E0075F020E8A4A8F075F020E9A428F582A867
:10197E00F075F020EAA428F583A8F075F020EBA40A
:10198E0028F9A8F075F020ECA42889F0228582228F
:10199E0085832385F024F5251218F7858226858305
:1019AE002785F028F529E522452345244525700194
:1019BE0022A822A923AA24AB2585262A85272B8592
:1019CE00282C85292DE8494A4B60DBC003C002C094
:1019DE0001C0001218F7AC82AD83AEF0FFD000D07C
:1019EE0001D002D003ECC3952AFCED952BFDEE95AC
:1019FE002CFEEF952DFFC3EC94E8ED9403EE9400CE
:101A0E00EF940040A118B8FF0919B9FF051ABAFFE3
:101A1E00011B882289238A248B2574E8252AF52A1E
:101A2E007403352BF52BE4352CF52CE4352DF52DE3
:101A3E00852A26852B27852C28852D298087AE8201
:101A4E00AF83C374019EE49F40022200C374029EC2
:101A5E00FE74009FFF00BE0005BF000200220000C2
:101A6E000000000000000000000000000000000E5A
:101A7E00BE00EB0FBF00ED002275A15575A1AA7433
:101A8E00F855B94406F5B975A100901388121A4C91
:101A9E00759E5D759D0074F055894402F58953C994
:0D1AAE00EF758C06C28DD2A9D28CD2AF226A
:101ABC0020F71130F6138883A88220F509F6A88345
:101ACC007583002280FEF280F5F022C01585811509
:101ADC00C082C083E5812405F581AF150FE515247F
:101AEC0003F8A607087600087640E51524FCFD7E71
:101AFC00007F40E5152406F9A815088604E5152491
:101B0C00FCF886038CF0EBA4F709A7F0E515240686
:101B1C0004F98704A81508860374012DFAE43EFE27
:101B2C008A828E838FF0121C158BF0A4FBE5152492
:101B3C0003F8740126FDE40836FE0886078D828EB4
:101B4C00838FF0121C15FDE51524FCF886078DF02B
:101B5C00EFA42B2CF7E5152406F987060987078EC9
:0A1B6C00828F83851581D015223287
:011B7700323B
:101B7900ABF0A2AFE433FEC2AFE0A37A0833D2964A
:101B89004002C2967905D9FEC296DAF1DBEBEE6026
:041B990002D2AF22A3
:101B9D0022AF82BF0200503EEF75F002A42408FD73
:101BAD00740235F0FE9001AAE0FBA3E0FC8D828E5D
:101BBD0083EBF0ECA3F0BF00028005BF0118800B92
:101BCD009001ACE024FF9288D2A8229001ACE0FFF6
:101BDD0024FF928AD2AA22AF82BF02005028BF00F2
:101BED00028005BF01088004C2A88002C2AAEF7559
:101BFD00F002A42408FE740235F0FF8E828F8374E8
:071C0D009DF0741BA3F022FF
:101C150020F71430F6148883A88220F507E6A883F8
:101C250075830022E280F7E49322E022C0158581C6
:101C350015C082C083C0F0C0E0E5812408F581E5C8
:101C4500152409F92402F8AF150F8F06C000A80660
:101C55008606E51524FAFDFC0C0CA8048604D000C4
:101C65008EF0ECA4FEABF0A60608A6038F068E0048
:101C750086068D048C0086048EF0ECA4FEABF0A7DE
:101C85000609A703E51524092403F987068F0474BB
:101C9500032CF886048D038B0086038CF0EBA42EB1
:101CA500FEF78F0474022CF886048D03EB04F88686
:101CB500038CF0EBA42EF7E51524092402F987041B
:101CC500098706198F0374022BF886038D028A0093
:101CD50086028BF0EAA4ABF02CFCEB3EFEA70409D0
:101CE500A706198F03EB04F886038D02EA04F8862C
:101CF500028BF0EAA4ABF02CFCEB3EFEA70409A78F
:101D0500068F0674032EF98F06EE04F886068D04F9
:101D150074022CF886048EF0ECA4F78F06EE04F915
:101D25008F06EE04F886068D048C0086048EF0EC92
:101D3500A4FEABF0A70609A7038D0674032EF98F41
:101D4500068E0086068D0474032CF886048EF0EC4E
:101D5500A4F78D06EE04F98F068E0086068D04EC39
:101D650004F886048EF0ECA4FEABF0A70609A703E1
:101D75008D0177008F017700E5152409F9E5152414
:101D850005F8E7F609E708F609E708F609E708F6AA
:101D9500191919A8150886020886030886060886F3
:101DA50007E5152405F8EA26F6EB0836F6EE0836BB
:101DB500F6EF0836F6E5152405F8E6F70908E6F71F
:101DC5000908E6F70908E6F7191919E709E709E720
:101DD50009E7E51524FAF886040886050886060845
:101DE5008607E5152405F8EC26FCED0836FDEE081A
:101DF50036FEEF08368C828D838EF0851581D015E1
:011E050022BA
:101E060090020CE0FF7E000FBF00010E7410C0E0D0
:101E1600E4C0E08F828E83121F26AE821581158163
:101E260090020DE0FFEEB507012290020CE024AD12
:101E3600F582E43401F583E599F090020CEEF02288
:101E460030044A90020EE0FF90020FE0FEEFB50666
:101E560005A204C2042290020FE024BDF582E434F8
:101E660001F583E0F59990020FE0FF7E000FBF00B9
:101E7600010E7410C0E0E4C0E08F828E83121F262C
:0E1E8600AE82AF831581158190020FEEF0221F
:101E9400900210E0FF7E000FBF00010E7410C0E03E
:101EA400E4C0E08F828E83121F26AE8215811581D5
:101EB400900211E0FFEEB5070122900210E024CD5C
:101EC400F582E43401F583E5C1F0900210EEF022CE
:101ED40030054A900212E0FF900213E0FEEFB506CF
:101EE40005A205C20522900213E024DDF582E43444
:101EF40001F583E0F5C1900213E0FF7E000FBF00FF
:101F0400010E7410C0E0E4C0E08F828E83121F269D
:0E1F1400AE82AF8315811581900213EEF0228C
:101F220075820022C015858115AE82E583FF33E4F8
:101F320033FD6009C3E49EFBE49FFC80048E038FA3
:101F420004E51524FCF808E630E70FE51524FCF853
:101F5200C3E496FE08E496FF800AE51524FCF886A1
:101F620006088607C005C006C0078B828C83121F35
:101F720094AE82AF8315811581D005ED600DC3E467
:101F82009EFCE49FFD8C828D8380048E828F83D0A1
:101F92001522C015858115AE82AF837D007C00E5D8
:101FA2001524FCF808E6235401FB702FE51524FCE8
:101FB200F8E626F608E633F6E51524FCF8C3EE96B5
:101FC200EF08965011E51524FCF808E618C313C66D
:101FD20013C608F680050C8C0580C4E51524FCF8B0
:101FE200C3EE96EF0896400DE51524FCF8EEC39675
:101FF200FEEF0896FFE51524FCF808E618C313C6A1
:1020020013C608F68D041DEC70D18E828F83D01515
:0120120022AB
:1020130012011001EF020108091250C5010101026A
:102023000301090246000201008064080B0002025A
:102033000201040904000001020201040524001046
:102043000104240202052406000107058103080098
:102053004009040100020A000004070502024000CF
:10206300000705820240000004030904180341002D
:102073006D00620069006E006F002000450044009F
:10208300470045001603430044004300200053006B
:1020930065007200690061006C000E0341006D0071
:0820A300620069006E006F008D
:1020AB0061626E646972416461687364416D6269F7
:1020BB006E6F2045444745312E302E374145523205
:0120CB0065AF
:1020CC000000000000000000000000000000000103
:1020DC0000000000000000000000000000000304ED
:1020EC0000000200000000000101010101010101DA
:1020FC0000000202020202020202000003030303B8
:10210C000303030300000404040404040404000097
:10211C000102040810204080000001020408102075
:10212C0040800000010204081020408000000102E1
:10213C000408102040800000FFFFFFFFFFFFFFFF9F
:10214C00FFFFFF00FFFF0102FFFFFFFFFFFFFFFF8D
:10215C00FFFFFFFFFFFFFFFF03FFFFFFFFFFFFFF7F
:0B216C0000E10000000008000000007F
:0E2177002B17000000010F0F9A00030000005C
:02218500000058
:042187009D1B9D1BE4
:04218B000000000050
:04218F00000000004C
:00000001FF
