:0600000002006B02256DF9
:03000B0002287B4D
:030013000225C003
:01001B0032B2
:030023000224D5DF
:03002B00022C00A4
:01003300329A
:03003B0002261387
:03004300022496FE
:01004B003282
:0300530002252162
:01005B003272
:03006300022B422B
:0300660002266708
:02006900E4733E
:0D006B00758149123389E582600302006649
:10007800796AE94400601B7A019035AE782275A050
:1000880002E493F2A308B8000205A0D9F4DAF275E5
:02009800A0FFC7
:06009A00E478FFF6D8FD3A
:1000A0007800E84400600A799475A000E4F309D868
:1000B000FC788EE84401600C7902900094E4F0A38F
:0400C000D8FCD9FA95
:0200C400C20078
:0E00C6007808E4F608F608F608F6780C7600DE
:0200D400C20464
:0200D600C20561
:0300D800020066BD
:1000DC001208D21208FC1208EB75DD0075D30075FE
:1000EC00D50022900229E4F0C200227F00C3E5DB98
:1000FC009407920140067D077E008004ADDB7E00F4
:10010C008F037C00C3EB9DEC64808EF063F08095D4
:10011C00F05017EF2422FDE43402FE8F8275830029
:10012C00E0FC8D828E83F00F80C3227F008F057ED2
:10013C0000C3ED9407EE940050188F057E00EF2459
:10014C0022F582E43402F583E0FC8D828E83F00F7D
:10015C0080DB90000722900002E0FF90022BF0E081
:10016C0020E033900222E0FCA3E0FDA3E0FEA3E03C
:10017C00FFBCB022BD041FBE001CBF001975E200FD
:10018C00C2AF75890090C3501229E990C35012294F
:10019C00E912380080FE227E007F003000200EBE67
:1001AC0000010F900005C007C0061229E9D006D047
:1001BC0007C3EE9450EF94C340E175820022758220
:1001CC00012275160090022BE0600375160185164E
:1001DC00822220002590022CE0FF601E8FD553D484
:1001EC00FCD200BF400F1201A3E582600875D50058
:1001FC0053D4FCD20090022CE4F022AF8290022B5C
:10020C00E06041C0071201A3E582D0077003F582BC
:10021C002290022CE0FEBE400050207D0074402E47
:10022C00FEE43DFDEE2414F582ED3400F583EFF091
:10023C0090022CE02401F075820122C0071201DE2D
:10024C00D00780BF75820022AFF0AE83E5829000AC
:10025C0096F0EEA3F0EFA3F090022BE070030203F4
:10026C000A900094E0FEA3E0FFC3E49E74808FF03C
:10027C0063F08095F0400302030AC007C006120128
:10028C00A3E582D006D0077003F58222900096E099
:10029C00FBA3E0FCA3E0FDC3E49E74808FF063F04D
:1002AC008095F050BC90022CE0FABA400050498A7C
:1002BC00017A00744029F9E43AFAE92414F9EA3491
:1002CC0000FA8B828C838DF0122F1FF8A3AB82ACBB
:1002DC0083900096EBF0ECA3F0EDA3F089828A8377
:1002EC00E8F090022CE02401F01EBEFF011F9000EC
:1002FC0094EEF0EFA3F0809F1201DE02026D758286
:10030C000022900229E0F58222900229E07003F588
:10031C00822290022AE02414F582E43400F583E072
:10032C00FF90022AE004F0900229E014F0E0700340
:10033C0053D4F38F822275D50074FC55D44402F546
:10034C00D4C2002230DE19900229E5DBF090022A9B
:10035C00E4F0900229E0600874F355D44408F5D415
:01036C00226E
:10036E00AFDBBF08028003020741900007E0FE7F6B
:10037E0000900006E0FD7C004FF510EC4EF5117F6D
:10038E0000900001E0F512900000E0FE5460605312
:10039E00900000E0FE5306607D00BE2005BD000209
:1003AE00800BBE4039BD00367FFF0207437420B577
:1003BE0012030207437421B5120280077422B5128C
:1003CE0018800C120137AD82AE838D07020743C031
:1003DE0007120162D0070207437FFF0207437FFF28
:1003EE00020743E51224F4500302073DE512240BE5
:1003FE0083F582E512241083F583E4731F4D3D0DC2
:10040E003D17223D24414343070507060705040710
:10041E0005050707900003E0FEBE0102800ABE023A
:10042E0002800FBE037380147513347514347F125B
:10043E0080697513467514347F46805F900002E024
:10044E00700875138C7514348044900002E0FEBE63
:10045E0001087513C27514348034900002E0FEBE9C
:10046E0002087513907514348024900002E0FEBECD
:10047E0003087513007514008014900002E0FEBE90
:10048E0004087513AC75143480047FFF800D85133A
:10049E0082851483E493FF80027FFFBFFF03020770
:1004AE00438F057E00C3ED9510EE951150048D100F
:1004BE008E11AD10AE11C3ED9408EE940092024071
:1004CE00067B087C008004AB10AC118B077C00C34C
:1004DE00EC9F50198C027B00EC2513F582E4351449
:1004EE00F583E493F98A828B83F00C80E28F037C90
:1004FE0000EDC39BFDEE9CFE8D108E11EF2513F5C6
:10050E0013E43514F514020743900002E0FE8E103A
:10051E00751100020743900099E0900000F0AD10B5
:10052E00AE11C3ED9401EE940050030207437F0118
:10053E00020743900002E0FE900099F002074390FC
:10054E000000E0541F702F900003E0FD7E0090002D
:10055E0002E0FC7B004206EB4205BE0114BD001119
:10056E0090344DE493FE30E5030207437FFF02070C
:10057E00437FFF020743900000E0FE53061F7D00FD
:10058E00BE0277BD0074900004E0FEBE0102805FE3
:10059E00BE02028049BE03028033BE0402801DBE2D
:1005AE0081028040BE8202802ABE83028014BE84F5
:1005BE004474BC55DE4402F5DE02074353DE73027B
:1005CE00074374BC55D64402F5D602074353D6737F
:1005DE0002074374BC55D44402F5D402074353D4E6
:1005EE007302074374BC55D24402F5D2020743533B
:1005FE00D2730207437FFF0207437FFF0207439038
:10060E000000E0541F702F900003E0FD7E0090006C
:10061E0002E0FC7B004206EB4205BE0114BD001158
:10062E0090344DE493FE30E5030207437FFF02074B
:10063E00437FFF020743900000E0FE53061F7D003C
:10064E00BE0205BD0002800302071B900003E0FD01
:10065E007E00900002E0FC7B004206EB4205EE4D70
:10066E006003020717900005E0FD7E00900004E095
:10067E00FC7B004206EB4205BE0106BD00030207ED
:10068E000BBE0205BD00028060BE0305BD000280E8
:10069E0044BE0405BD00028028BE8105BD00028057
:1006AE0052BE8205BD00028036BE8305BD000280AB
:1006BE001ABE8451BD004E74BF55DE4403F5DE8074
:1006CE0074747F55DE440CF5DE806A74BF55D644D3
:1006DE0003F5D68060747F55D6440CF5D6805674DB
:1006EE00BF55D44403F5D4804C747F55D4440CF5D7
:1006FE00D4804274BF55D24403F5D28038747F55EE
:10070E00D2440CF5D27FFF802C7FFF80287FFF80A4
:10071E0024900000E4F0900001F0AD10AE11C3ED96
:10072E009402EE940040047F02800AAF1080067F90
:10073E00FF80027FFFBFFF077512FF75DCCF22EF30
:10074E0024F740068FDD75DCC02275DD0075DCC038
:10075E00227405B51202805D7406B51266AE10AF36
:10076E0011C3EE9408EF9400920340067C087D00BE
:10077E008004AC10AD117D00C3ED9C50198D027B31
:10078E0000ED2513F582E43514F583E493F98A829E
:10079E008B83F00D80E28C037D00EEC39BFEEF9DFC
:1007AE00FF8E108F11EC2513F513E43514F5148C10
:1007BE00DD63DC4022E5E35480FFE5104FF5E37581
:1007CE00DC022275DD0075DC02227420B5120D30BC
:1007DE00DE101200F775DD0085DCDC2275DD0043CE
:1007EE00DC022275D30074FC55D24402F5D22220CD
:1007FE00D9030208A8E5D9540FFFADD95305307EB1
:10080E0000BD0005BE0002801CBD1005BE000280AA
:10081E0036BD2005BE00028043BD3006BE00030279
:10082E00088E0208A6EF24FB50030208A6EF2F90B5
:10083E00084173800880618009805D805B1207D853
:10084E0080561203508051EF24FB404CEF2F90083E
:10085E006073804480428040803E803CEF24FB40A9
:10086E0037EF2F900875738008800B800E802980DB
:10087E002712075F80221207F1801D120342801893
:10088E00EF24FB4013EF2F900899738008800980A6
:10089E00078005800312036EC2D930D81A75DC02A8
:1008AE0075D21275D41275E300C2DAC2D9C2D890CD
:1008BE000099E4F01200EF10DA0122E5DA20E203EB
:1008CE0075D8FF2275E20053E27F43E22975E300FB
:1008DE0053E2BF53D1FB75D18043D1012243E104D2
:1008EE0043E10243E10143D81FD2EAD2AF227E0098
:1008FE007F008EEC8FED7E0A7F008EEE8FEF7E14E2
:10090E007F008EE48FE575EB0C75D21275D41275DF
:10091E00EA4075DC02229001D77401F075821F1235
:10092E0026A49001D77401F075821E1226A49001A0
:10093E00D77401F075820E1226A49001D77401F0BF
:10094E0075820F1226A49001D77401F075822112C0
:10095E0026A49001D77401F07582101226A490017E
:10096E00D77401F075820B1226A49001D77401F092
:10097E007582110226A4900BB8E4F5F012293812F4
:10098E0000DC120924759E041228FBAC82AD83AEE6
:10099E00F0FF9001B8ECF0EDA3F0EEA3F0EFA3F0B2
:1009AE009001B4ECF0EDA3F0EEA3F0EFA3F0120182
:1009BE00DE900064E4F5F0122938120BB290027446
:1009CE00E0FEA3E0900272E0FF7D0074FFC39FFF84
:1009DE00E49DFD9001DDEFF0EDA3F08E82122B6908
:1009EE00900276E0FEA3E0900272E09001DDF0E46A
:1009FE00A3F08E82022B691228FBAC82AD83AEF07F
:100A0E00FF9001B0ECF0EDA3F0EEA3F0EFA3F01227
:100A1E00030EE5826058900255E4F0120315E5824C
:100A2E009001AFF09001B0E0FCA3E0FDA3E0FEA3C7
:100A3E00E0FF9001B8ECF0EDA3F0EEA3F0EFA3F021
:100A4E009001B4ECF0EDA3F0EEA3F0EFA3F0900262
:100A5E0053E0FF600ABF0102800ABF0214800A122F
:100A6E000ED4800D12114780081211F48003121556
:100A7E00C3121F31022338E5829001BCF0E075F0FD
:100A8E0003A42432FE740235F0FF7C007D00C3EC1B
:100A9E009403ED648094805035EC242FF582ED3470
:100AAE0002F583E0FBEC2EF582ED3FF583E090013D
:100ABE00D8F08B82C007C006C005C0041227ABD089
:100ACE0004D005D006D0070CBC00C30D80C022E5B3
:100ADE00829001BFF0E0FFBF08005053EF244AF5AB
:100AEE0082E43402F583E0F582120A8590006412E6
:100AFE0029E97D9A7E009001BDE0FBA3E08B0133D6
:100B0E0095E07A007C008A2589248C228C238D0026
:100B1E008E04E4FDFEE5224200E5234204E5244274
:100B2E0005E525420688828C838DF0EE022CC8BF27
:100B3E0008028005BF096C80357E9A7F009001BD4A
:100B4E00E0FCA3E03395E07D008D028C037C007DFC
:100B5E00008E008F01E4FEFFE84204E94205EE42FA
:100B6E0003EF42028C828D838BF0EA022CEC7E9A8C
:100B7E007F009001BDE0FCA3E03395E07D008D0287
:100B8E008C037C007D008E008F01E4FEFFE84204A2
:100B9E00E94205EE4203EF42028C828D838BF0EA2E
:100BAE00022C5B229034F6E493FE7401938E821233
:100BBE0023E3AF82BFFF067E017F0080149034F6E0
:100BCE00E493FC7401938C821223E3AD828D067F35
:100BDE000090019EEEF09034F8E493FE7401938E33
:100BEE00821223E3AF82BFFF067E007F0080149047
:100BFE0034F8E493FC7401938C821223E3AD828D5E
:100C0E00067F0090019FEEF09034FAE493FE74019B
:100C1E00938E821223E3AF82BFFF067E0A7F00808F
:100C2E00149034FAE493FC7401938C821223E3AD96
:100C3E00828D067F009001A0EEF09034FCE493FECE
:100C4E007401938E821223E3AF82BFFF067E017F73
:100C5E000080149034FCE493FC7401938C82122374
:100C6E00E3AD828D067F009001A1EEF09034FEE49C
:100C7E0093FE7401938E821223E3AF82BFFF067E32
:100C8E00067F0080149034FEE493FC7401938C82F2
:100C9E001223E3AD828D067F009001A2EEF0903517
:100CAE0000E493FE7401938E821223E3AF82BFFFA2
:100CBE00067E7F7F008014903500E493FC740193D0
:100CCE008C821223E3AD828D067F009001A3EEF09D
:100CDE00903502E493FE7401938E821223E3AF8269
:100CEE009001A5EFF0903504E493FE7401938E828B
:100CFE001223E3AF829001A6EFF0903506E493FE47
:100D0E007401938E821223E3AF829001A7EFF07EDF
:100D1E00007F00C3EE9408EF648094804003020DC0
:100D2E00C98E05ED75F003A4FDFB3395E0FCEB24B5
:100D3E005AFBEC3402FC74092DFAF582C007C0068A
:100D4E00C005C004C003C0021223E3A982D002D0A2
:100D5E0003D004D0058B828C83E9F0ED04FC33952F
:100D6E00E0FBEC245AFCEB3402FBEA04F582C005EE
:100D7E00C004C003C0021223E3A982D002D003D064
:100D8E0004D0058C828B83E9F00D0DED3395E0FCDC
:100D9E00ED245AFDEC3402FC0A0A8A82C005C00416
:100DAE001223E3AB82D004D005D006D0078D828CFF
:100DBE0083EBF00EBE00010F020D21903508E49377
:100DCE00FE7401938E821223E3AF82BFFF067E7FF5
:100DDE007F008014903508E493FC7401938C82128A
:100DEE0023E3AD828D067F009001A4EEF090350ACC
:100DFE00E493FE7401938E821223E3AF82BFFF064B
:100E0E007E7F7F00801490350AE493FC7401938CEE
:100E1E00821223E3AD828D067F00900272EEF09077
:100E2E00350CE493FE7401938E821223E3AF82BFDE
:100E3E00FF067E1C7F00801490350CE493FC740139
:100E4E00938C821223E3AD828D067F00900273EEA7
:100E5E00F022900274E0FEA3E090018AE0FF7D0094
:100E6E0074FFC39FFFE49DFD9001DDEFF0EDA3F055
:100E7E008E82122B69900276E0FEA3E090018AE04A
:100E8E009001DDF0E4A3F08E82022B69E5829001E1
:100E9E00C0F0E0FF7D007E00C3ED940AEE64809406
:100EAE0080502290018AE0B507028012900254749D
:100EBE0001F0ED248AF582EE3401F583EFF00DBDDD
:100ECE0000D60E80D3229001C1E0FFBF0300400385
:100EDE00021042EF9034D093FE9001AFE0FDB506C4
:100EEE00079001C1EF04F022EF9034D393FEEDB5DD
:100EFE0006028003021016BF0202800302100E7556
:100F0E00820F12020775820C12020775825D1202A1
:100F1E0007758206120207903FFCE493F5821202D7
:100F2E0007903FFDE493F582120207903FFEE49393
:100F3E00F582120207903FFFE493F58212020790AA
:100F4E003FFAE493F582120207903FFBE493F58299
:100F5E0012020775820D1202077C007E00C3EC940C
:100F6E000DEE648094805020EC24DFF582EE343454
:100F7E00F583E493F582C006C004120207D004D0B4
:100F8E00060CBC00D80E80D57582051202077C00B7
:100F9E007E00C3EC9405EE648094805020EC24EC2B
:100FAE00F582EE3434F583E493F582C006C0041264
:100FBE000207D004D0060CBC00D80E80D575820571
:100FCE001202077C007E00C3EC9405EE64809480D0
:100FDE005020EC24F1F582EE3434F583E493F5825F
:100FEE00C006C004120207D004D0060CBC00D80EF6
:100FFE0080D57582011202079001C1E4F01201DE64
:10100E009001C1E02401F022EF9034D993FEEDB5AA
:10101E00061CBF02119002537402F09001A9E4F075
:10102E00A3F09001C1F09001C1E02401F0229001E3
:10103E00C1E4F022EFFE24F7500122EE240A83F5DC
:10104E0082EE240D83F583E47346464669788796CF
:10105E00A5B61111111010101010109001AFE090E4
:10106E0001C2F09001C1EF04F0229001AFE09001B7
:10107E00C3F09001C1EF04F0229001AFE09001C4E3
:10108E00F09001C1EF04F0229001AFE09001C5F0A5
:10109E009001C1EF04F0229001AFE0F582120E9A9A
:1010AE009001C1E02401F0229001C3E0FF9001C243
:1010BE00E0FEEF6E6455FD9001C4E0FCB505747D55
:1010CE00007C008C038D048E057E008F00E4F9FAFF
:1010DE00FFE82EFEE93DFDEA3CFCEF3BFBC006C0FF
:1010EE0005C004C003900003E4F5F0122F3BAC8260
:1010FE00AD83AEF0FFE58124FCF5819001ABECF001
:10110E00EDA3F0EEA3F0EFA3F09001A9E4F0A3F0AD
:10111E009001D9F09001DA04F0E4A3F090009A75F2
:10112E00F0001228539001C5E09001A8F0900253F0
:10113E007401F09001C1E4F0229001A9E0FEA3E059
:10114E00FFC3EE94F0EF9400501EEE249AFEEF349F
:10115E0000FF9001AFE0FD8E828F83F09001A9E039
:10116E002401F0A3E03400F09001ABE024FFFCA3D7
:10117E00E034FFFDA3E034FFFEA3E034FFFF900157
:10118E00ABECF0EDA3F0EEA3F0EFA3F09001ABE02B
:10119E00F5F0A3E042F0A3E042F0A3E045F0704585
:1011AE00900253E4F09001A8E0FF900273E0FE7D00
:1011BE0000C007C006C005900003122AA4AD82AE7F
:1011CE008315811581D0079001BDEDF0EEA3F08F50
:1011DE0082120ADD900254E06008120E60900254F2
:1011EE00E4F00201DE229001A9E0FEA3E0FFC37449
:1011FE00239EE49F500302139FEE240A83F582EE92
:10120E00242883F583E4735D7B93ABC3DBF30C245B
:10121E003737373737373737373737373737373750
:10122E0037373737373737375B6D7F121212121257
:10123E001212131313131313131313131313131372
:10124E0013131313131313131313131313131390E3
:10125E0001AFE0FDBDFF08900252E4F002139F9033
:10126E0002527401F090019EEDF002139F90025213
:10127E00E0FDBD0102800302139F9001AFE09001DB
:10128E009FF002139F900252E0FDBD010280030207
:10129E00139F9001AFE09001A0F002139F900252B5
:1012AE00E0FDBD0102800302139F9001AFE09001AB
:1012BE00A1F002139F900252E0FDBD0102800302D5
:1012CE00139F9001AFE09001A2F002139F90025283
:1012DE00E0FDBD0102800302139F9001AFE090017B
:1012EE00A3F002139F900252E0FDBD0102800302A3
:1012FE00139F9001AFE0FD9001A5F002139F9002A5
:10130E0052E0FDBD0102800302139F9001AFE0FD8C
:10131E009001A6F0807B900252E0FDBD017390011A
:10132E00AFE0FD9001A7F08068900252E0FDBD0194
:10133E0060EE24F7FE3395E0FFEE245AFEEF340202
:10134E00FF9001AFE0FD8E828F83F08044900252B9
:10135E00E0FFBF013C9001AFE09001A4F08032901D
:10136E000252E0FFBF012A9001AFE0900272F080BE
:10137E0020900252E0FFBF01189001AFE0FF24AFB2
:10138E0050067D507E0080048F057E00900273ED26
:10139E00F09001A9E0FEA3E0FF8E048F05C3EC944C
:1013AE002DED9400500B9001A974012EF0E43FA393
:1013BE00F09001A9E0FEA3E0FFBE2D05BF00028064
:1013CE000122900252E0FFBF0102800302157790C6
:1013DE0034F6E493FE74019390019EE09001D6F0F2
:1013EE008E821223AD9034F8E493FE740193900133
:1013FE009FE09001D6F08E821223AD903500E493DB
:10140E00FE7401939001A3E09001D6F08E82122318
:10141E00AD9034FCE493FE7401939001A1E0900131
:10142E00D6F08E821223AD9034FEE493FE740193B7
:10143E009001A2E09001D6F08E821223AD9034FA84
:10144E00E493FE7401939001A0E09001D6F08E8299
:10145E001223AD903502E493FE7401939001A5E042
:10146E009001D6F08E821223AD903504E493FE7473
:10147E0001939001A6E09001D6F08E821223AD90DA
:10148E003506E493FE7401939001A7E09001D6F027
:10149E008E821223AD7E007F00C3EE9408EF64802F
:1014AE00948040030215358E05ED75F003A4FD24DE
:1014BE0009FCEDFA3395E0FBEA245AF582EB34028F
:1014CE00F583E09001D6F08C82C007C006C005C03F
:1014DE00041223ADD004D005EC04FBED04F93395D2
:1014EE00E0FAE9245AF582EA3402F583E09001D657
:1014FE00F08B82C005C0041223ADD004D0050C0CB5
:10150E000D0DED3395E0FBED245AF582EB3402F52B
:10151E0083E09001D6F08C821223ADD006D0070E58
:10152E00BE00010F0214A7903508E493FE740193D8
:10153E009001A4E09001D6F08E821223AD90350A70
:10154E00E493FE740193900272E09001D6F08E82C5
:10155E001223AD90350CE493FE740193900273E068
:10156E009001D6F08E821223AD75820F120207758E
:10157E00820C12020775825D1202077E007F00C385
:10158E00EE942DEF6480948050228E058D82C007DC
:10159E00C0061223E3120207900001E4F5F01229AF
:1015AE0038D006D0070EBE00D60F80D31201DE90C3
:1015BE000253E4F0229001B8E0FCA3E0FDA3E0FEAC
:1015CE00A3E0FF9001B0E0F8A3E0F9A3E0FAA3E0F6
:1015DE00FBE8C39CFCE99DFDEA9EFEEB9FFFC3EC7E
:1015EE0094E8ED9403EE9400EF9400500122120162
:1015FE00DE900278E0F5F0A3E045F0700B900278F3
:10160E007401F0E4A3F08007900278E4F0A3F09068
:10161E0001B0E0FCA3E0FDA3E0FEA3E0FF9001B863
:10162E00ECF0EDA3F0EEA3F0EFA3F09001B4E0F830
:10163E00A3E0F9A3E0FAA3E0FBECC398F526ED993D
:10164E00F527EE9AF528EF9BF5299001A0E0F879A1
:10165E00007A007B00C007C006C005C004C000C0F1
:10166E0001C002C0039003E8E4F5F0122F3BA882FC
:10167E00A983AAF0FBE58124FCF581D004D005D026
:10168E0006D007C3E52698E52799E5289AE5299B14
:10169E00500122900253E4F09001B4ECF0EDA3F06F
:1016AE00EEA3F0EFA3F090019EE0FFBF01079002C2
:1016BE00557401F0227F00900273E0FEC3EF9E503E
:1016CE00388F057E00C007C005C006900003122AA1
:1016DE00A4AD82AE8315811581D007ED249AFDEE5F
:1016EE003400FE8D828E83E4F08D828E83A3F08D86
:1016FE00828E83A3A3F00F80BE7E007F00C3EE9484
:10170E000AEF64809480503B8E05900273E0FC7B60
:10171E0000C007C006C005C004C003900003122A13
:10172E00A4AB82AC8315811581D0059001BDEBF081
:10173E00ECA3F08D82120ADDD006D0070EBE00BDDE
:10174E000F80BA22900198E4F0A3F01228FBAC822D
:10175E00AD83AEF0FF90019AECF0EDA3F0EEA3F0A6
:10176E00EFA3F0221228FBAC82AD83AEF0FF900106
:10177E009AE0F8A3E0F9A3E0FAA3E0FBECC398FC2F
:10178E00ED99FDEE9AFEEF9BFF9001A2E0FB7A0031
:10179E007415C39BFBE49AFAC007C006C005C004CB
:1017AE00900198E0C0E0A3E0C0E08B828A83122A09
:1017BE00A4AA82AB8315811581D004D005D006D0A2
:1017CE00078A008B017A007B00C3EC98ED99EE9AA4
:1017DE00EF9B5004758200227E007F00900273E022
:1017EE00FD7C00C3EE9DEF9C4003021E279001A4DA
:1017FE00E0FD7C00C007C006C005C004900050127A
:10180E002361AC82AD83158115818C828D83122D5F
:10181E005185822A85832B85F02CF52DD006D00795
:10182E008E828F83C007C006122D51A882A983AC69
:10183E00F0FDC02AC02BC02CC02D888289838CF06D
:10184E00ED1223F385822A85832B85F02CF52DE569
:10185E008124FCF581900198E0F8A3E0F988828953
:10186E0083122D51A882A983ACF0FDC02AC02BC0D3
:10187E002CC02D888289838CF0ED122C02AA82ABAB
:10188E0083ACF0FDE58124FCF5818A828B838CF09C
:10189E00ED122D5D85822A85832B7450C0E0E4C045
:1018AE00E0852A82852B831231CBAA82AB831581E8
:1018BE0015818A828B83122D5185822E85832F85E9
:1018CE00F030F531E4C0E0C0E07420C0E07441C0F7
:1018DE00E0852E82852F838530F0E531122E49AAC0
:1018EE0082AB83ACF0FDE58124FCF5818A828B838B
:1018FE008CF0ED122D10AC82AD839001CEECF0ED9C
:10190E00A3F08C828D83C005C004122D44A882A939
:10191E0083AAF0FBE4C0E0C0E07420C0E07441C0D4
:10192E00E0888289838AF0EB1223F38582328583E5
:10193E003385F034F535E58124FCF581C032C033B2
:10194E00C034C035852E82852F838530F0E5311267
:10195E002356A882A983AAF0FBE58124FCF581E435
:10196E00C0E0C0E07420C0E07441C0E0888289838A
:10197E008AF0EB122E49A882A983AAF0FBE58124F6
:10198E00FCF581C000C001C002C00390000075F0DC
:10199E0080743F12235685822E85832F85F030F575
:1019AE0031E58124FCF5819001C6E52EF0E52FA3EB
:1019BE00F0E530A3F0E531A3F0852A82852B831262
:1019CE002D51A882A983AAF0FBC032C033C034C007
:1019DE0035888289838AF0EB122356A882A983AABE
:1019EE00F0FBE58124FCF581888289838AF0EB1275
:1019FE002D10AA82AB837450C0E0E4C0E08A828BC3
:101A0E00831231CBAA82AB83158115818A828B8397
:101A1E00122D51A882A983AAF0FBE4C0E0C0E074A5
:101A2E0020C0E07441C0E0888289838AF0EB122ED8
:101A3E0049A882A983AAF0FBE58124FCF581D00494
:101A4E009001CAE8F0E9A3F0EAA3F0EBA3F0ECF5FD
:101A5E003275F003A4F93395E0FAE9245AF582EAD7
:101A6E003402F583E0F582C004122F0CA882A983FC
:101A7E00AAF0FBC02EC02FC030C031888289838A65
:101A8E00F0EB1223F385822E85832F85F030F5310E
:101A9E00E58124FCF581D004D005D006D0070CBC1E
:101AAE0000010DC374079C74808DF063F08095F077
:101ABE0050067C007D008009E53204FBFC3395E086
:101ACE00FDC006C007EC75F003A4FC3395E0FDECF9
:101ADE00245AF582ED3402F583E0F582C007C00684
:101AEE00122F0CAA82AB83ACF0FD9001CAE0C0E0CD
:101AFE00A3E0C0E0A3E0C0E0A3E0C0E08A828B8355
:101B0E008CF0ED1223F3AA82AB83ACF0FDE58124B9
:101B1E00FCF581C002C003C004C005852E82852F4E
:101B2E00838530F0E531122C02AA82AB83ACF0FD36
:101B3E00E58124FCF5818A828B838CF0ED122F17C0
:101B4E00E582D006D0079001D0F09001CEE0FCA344
:101B5E00E0FD8C03EB75F003A404F93395E0FAE98C
:101B6E00245AF582EA3402F583E0F582C006C005F8
:101B7E00C004C003122F0CA882A983AAF0FFD003C1
:101B8E00D004D005D006C007C006C005C004C003EF
:101B9E009001C6E0C0E0A3E0C0E0A3E0C0E0A3E097
:101BAE00C0E0888289838AF0EF1223F38582328522
:101BBE00833385F034F535E58124FCF581D003D0EF
:101BCE0004D005D006D0070CBC00010DC374079CD1
:101BDE0074808DF063F08095F0D007D00650067CAF
:101BEE00007D0080070BEBFC3395E0FDC006C007BF
:101BFE00EC75F003A404FD3395E0FCED245AF58258
:101C0E00EC3402F583E0F582C007C006122F0CAA51
:101C1E0082AB83ACF0FD9001CAE0C0E0A3E0C0E06F
:101C2E00A3E0C0E0A3E0C0E08A828B838CF0ED12CB
:101C3E0023F3AA82AB83ACF0FDE58124FCF581C0D1
:101C4E0002C003C004C0058532828533838534F01B
:101C5E00E535122C02AA82AB83ACF0FDE58124FCA3
:101C6E00F5818A828B838CF0ED122F17E582D006D8
:101C7E00D0079001D1F09001CEE0FCA3E0FD8C03E3
:101C8E00EB75F003A42402F93395E0FAE9245AF532
:101C9E0082EA3402F583E0F582C006C005C004C0B6
:101CAE0003122F0CA882A983AAF0FFD003D004D070
:101CBE0005D006C007C006C005C004C0039001C60B
:101CCE00E0C0E0A3E0C0E0A3E0C0E0A3E0C0E08895
:101CDE008289838AF0EF1223F385823285833385DE
:101CEE00F034F535E58124FCF581D003D004D00520
:101CFE00D006D0070CBC00010DC374079C74808DF8
:101D0E00F063F08095F0D007D00650067C007D0081
:101D1E0080070BEBFC3395E0FDEC75F003A4240279
:101D2E00FD3395E0FCED245AF582EC3402F583E0A8
:101D3E00F582C007C006122F0CAA82AB83ACF0FD51
:101D4E009001CAE0C0E0A3E0C0E0A3E0C0E0A3E0E1
:101D5E00C0E08A828B838CF0ED1223F3AA82AB83D0
:101D6E00ACF0FDE58124FCF581C002C003C004C0C7
:101D7E00058532828533838534F0E535122C02AA2F
:101D8E0082AB83ACF0FDE58124FCF5818A828B83E6
:101D9E008CF0ED122F17858232D006D0078E038F6E
:101DAE0004C007C006C003C004900003122AA4ABEF
:101DBE0082AC8315811581D006D007EB249AFBECFB
:101DCE003400FC9001A3E0FA9001D1E0F5F0EAA412
:101DDE00AAF08A018B828C83E9F074012BF9E43C22
:101DEE00FA9001A3E0F89001D0E0F5F0E8A4ADF090
:101DFE008D0089828A83E8F074022BFBE43CFC9010
:101E0E0001A3E08532F0A4AAF08A058B828C83EDC3
:101E1E00F00EBE00010F0217EA900198E0FEA3E05B
:101E2E00FFC3EE9450EF94004007121752758203D1
:101E3E002290019874012EF0E43FA3F075820122E6
:101E4E00E5829001D5F09001D4E0FF9001D2E0F54B
:101E5E00F0EFA4AEF09001D5E0F5F0EFA4ADF09068
:101E6E0001D3E0F5F0EFA4ACF08C077B007C009082
:101E7E000273E0F97A00C3EB99EC64808AF063F0A8
:101E8E008095F0504AC007C006C005C004C003C00C
:101E9E0003C004900003122AA4A982AA83158115F7
:101EAE0081D003D004D005D006D007E9249AF9EAF0
:101EBE003400FA89828A83EEF089828A83A3EDF058
:101ECE0089828A83A3A3EFF00BBB00A30C80A07EB4
:101EDE00007F00C3EE940AEF6480948050448E0518
:101EEE00900273E0FC7B00C007C006C005C004C0B2
:101EFE0003900003122AA4AB82AC8315811581D006
:101F0E00059001BDEBF0ECA3F08D82120ADD90007E
:101F1E0001E4F5F0122938D006D0070EBE00B40F3A
:101F2E0080B1221228FB900255E07001229001A18F
:101F3E00E0FF24FC500122EF2F2F901F4C73021F45
:101F4E0058021F80021FD30223379001A5E0FF9095
:101F5E0001A6E0FE9001A7E0FD9001A3E0FC900138
:101F6E00D2EEF09001D3EDF09001D4ECF08F82021E
:101F7E001E4E121772E58230E04A7E007F00C3EEDD
:101F8E00940AEF64809480503B8E05900273E0FCBF
:101F9E007B00C007C006C005C004C003900003123A
:101FAE002AA4AB82AC8315811581D0059001BDEBBF
:101FBE00F0ECA3F08D82120ADDD006D0070EBE0023
:101FCE00BD0F80BA221228FBAC82AD83AEF0FF901B
:101FDE000194E0F8A3E0F9A3E0FAA3E0FBECC398C8
:101FEE00F8ED99F9EE9AFAEF9BFBC3E8940AE9949F
:101FFE0000EA9400EB9400500122900194ECF0ED75
:10200E00A3F0EEA3F0EFA3F09001A2E0FF7E00C0DC
:10201E0007C006900064122AA4AE82AF8315811504
:10202E0081E4C39EFE74089FFF8E828F83122D441F
:10203E0085823A85833B85F03CF53D900256E0F56E
:10204E0036A3E0F537A3E0F538A3E0F539E4C0E0B8
:10205E00C0E07480C0E0743FC0E08536828537836F
:10206E008538F0E539122C02A882A983AAF0FBE587
:10207E008124FCF581900256E8F0E9A3F0EAA3F082
:10208E00EBA3F0C03AC03BC03CC03D8536828537DD
:10209E00838538F0E539122E49A882A983AAF0FB70
:1020AE00E58124FCF581C000C001C002C003900090
:1020BE0000E4F5F074401223F3A882A983AAF0FB82
:1020CE00E58124FCF581E4C0E0C0E07480C0E074DA
:1020DE003FC0E0888289838AF0EB122356A882A93A
:1020EE0083AAF0FBE58124FCF581C000C001C0028B
:1020FE00C003900000E4F5F0122A74AB82E581244F
:10210E00FCF581EB70030221C9900256E0F536A36F
:10211E00E0F537A3E0F538A3E0F539E4C0E0C0E020
:10212E007480C0E0743FC0E0853682853783853881
:10213E00F0E539122C02A882A983AAF0FBE58124CE
:10214E00FCF581900256E8F0E9A3F0EAA3F0EBA3C8
:10215E00F0C03AC03BC03CC03D8536828537838592
:10216E0038F0E539122E49A882A983AAF0FBE58141
:10217E0024FCF581C000C001C002C003900000E441
:10218E00F5F074401223F3A882A983AAF0FBE5812F
:10219E0024FCF581E4C0E0C0E07480C0E0743FC070
:1021AE00E0888289838AF0EB122356A882A983AA3B
:1021BE00F0FBE58124FCF581022282900256E0F5C7
:1021CE0036A3E0F537A3E0F538A3E0F539E4C0E037
:1021DE00C0E07480C0E0743FC0E0853682853783EE
:1021EE008538F0E539122C02AC82AD83AEF0FFE5F6
:1021FE008124FCF581900256ECF0EDA3F0EEA3F0F5
:10220E00EFA3F0C03AC03BC03CC03D853682853757
:10221E00838538F0E539122E49AC82AD83AEF0FFDE
:10222E00E58124FCF581C004C005C006C0079000FE
:10223E0000E4F5F074401223F3AC82AD83AEF0FFF0
:10224E00E58124FCF581E4C0E0C0E07480C0E07458
:10225E003FC0E08C828D838EF0EF122356AC82ADA0
:10226E0083AEF0FFE58124FCF5818C008D018E029A
:10227E00EFB2E7FBC000C001C002C00390000075C2
:10228E00F080743F122356AC82AD83AEF0FFE58131
:10229E0024FCF581C004C005C006C007900000757F
:1022AE00F07F74431223F3AC82AD83AEF0FFE58171
:1022BE0024FCF581C007C006C005C004900256E09C
:1022CE00C0E0A3E0C0E0A3E0C0E0A3E0C0E0853A38
:1022DE0082853B83853CF0E53D122A74AB82E58115
:1022EE0024FCF581D004D005D006D007EB600B900E
:1022FE000256E4F0A3F0A3F0A3F08C828D838EF04F
:10230E00EF122F17AF829001A5E0FE9001A6E0FD1F
:10231E009001A7E0FC9001D2EDF09001D3ECF0908B
:10232E0001D4EFF08E82021E4E22900255E060170D
:10233E0090018AE0FF900272E0FEEFB50601228E58
:08234E0082120E9A020E6022B9
:10235600A8811818C6B2E7C6022C02C015858115D9
:10236600AE82AF837C007D007B10EF235401FAEE32
:102376002EFEEF33FFEC2CFCED33FDEA6003430445
:1023860001E51524FCF8C3EC96ED08964010E5151A
:1023960024FCF8ECC396FCED0896FD430601DBCA67
:1023A6008E828F83D01522AF82BF800040012275B6
:1023B600A15575A1AA43B10475A1007585C0EF2F7B
:1023C600F5849001D6E0F58EE58630E60375869AAB
:1023D60075A15575A1AA53B1FB75A10022AF8275EF
:1023E60085C0EF2FF58475868E858E82221226761D
:1023F600BC0003022D89EF60FA30D502B2D1E58325
:10240600B4FF03022D9FE582B4FF03022D9F2583AF
:1024160040072482400B022D892483145003022D89
:102426009FF582EA8DF0A4A8F0EA8EF0A428F8E4DD
:1024360035F0F9EB8DF0A428E935F0F9E433CA8FCD
:10244600F0A429F9EA35F0FAEBF88EF0A429F9EAB6
:1024560035F0FAE433FBEC8DF0A429F9EA35F0FA0D
:10246600E43BFBE88FF0A42AFAEB35F0FBE433CC2F
:10247600FD8EF0A42AFAEB35F0FBE43CFCED8FF080
:10248600A42BFBEC35F0FC20E703122820022D6874
:10249600C021C0E0C0F0C082C083C007C006C0052E
:1024A600C004C003C002C001C000C0D075D0001275
:1024B60007FDD0D0D000D001D002D003D004D00583
:1024C600D006D007D083D082D0F0D0E0D02132C061
:1024D60021C0E0C0F0C082C083C007C006C005C0EE
:1024E60004C003C002C001C000C0D075D00030983F
:1024F6000512313DC29830990512317DC299D0D06E
:10250600D000D001D002D003D004D005D006D00729
:10251600D083D082D0F0D0E0D02132C021C0E0C03C
:10252600F0C082C083C007C006C005C004C003C097
:1025360002C001C000C0D075D00030C00512325DA7
:10254600C2C030C10512329DC2C1D0D0D000D00168
:10255600D002D003D004D005D006D007D083D082D5
:10256600D0F0D0E0D02132C021C0E0C0F0C082C09F
:1025760083C007C006C005C004C003C002C001C0B6
:1025860000C0D075D000900280E0FEA3E0FFC00737
:10259600C0068E828F83120069D006D007D0D0D0B5
:1025A60000D001D002D003D004D005D006D007D089
:1025B60083D082D0F0D0E0D02132C021C0E0C0F07C
:1025C600C082C083C007C006C005C004C003C002E5
:1025D600C001C000C0D075D000900282E0FEA3E02A
:1025E600FFC007C0068E828F83120069D006D0070F
:1025F600D0D0D000D001D002D003D004D005D00670
:10260600D007D083D082D0F0D0E0D02132C021C014
:10261600E0C0F0C082C083C007C006C005C004C0C9
:1026260003C002C001C000C0D075D00090027EE099
:10263600FEA3E04E600E90027EE0F8A3E0F58388EC
:1026460082120069D0D0D000D001D002D003D004CD
:10265600D005D006D007D083D082D0F0D0E0D021EC
:1026660032122A24120984120A0580FB758200227E
:10267600AA82AB83A2F73392D1F5826002D2F7AC7D
:10268600F0E58124F9F8E6FD08E6FE0886F008E69E
:0E269600A2F73392D5F5836002D2F7AFF0229F
:1026A400E582FF90355E93FEEF90353693FF70011F
:1026B400229001D7E0FD701BBF0209EEF4FC529298
:1026C400EC529322BF0402800122EEF4FC5296ECF9
:1026D400529722BD0214BF0207EE4292EE429322A9
:1026E400BF0439EE4296EE429722BD0116BF02089E
:1026F400EEF45292EE429322BF0421EEF45296EE8F
:10270400429722BD0316BF0208EE4292EEF45293A2
:1027140022BF0408EE4296EEF4FE529722AF82BF27
:102724000102800FBF02028013BF03028017BF049F
:1027340025801BE5C620E21E539DFB22E5C620E34F
:1027440015539DF722E5C630E20C539DFB22E5C6E6
:1027540030E303539DF722E582FF90350E93FEEF9D
:1027640090355E93FDEF90353693FF7003F582222A
:10277400EE600D8E82C007C005122721D005D00758
:102784007E00BF0202800ABF03028009BF040C80DE
:1027940008AE908006AEA08002AEB0ED5E60047517
:1027A40082012275820022E582FF90350E93FEEFAE
:1027B40090355E93FDEF90353693FFEE600D8E827B
:1027C400C007C005122721D005D007A2AFE433FE0D
:1027D400C2AFBF0202800ABF03028017BF04368063
:1027E400249001D8E07007EDF4FF52908027ED4269
:1027F4009080229001D8E07007EDF4FF52A080157C
:10280400ED42A080109001D8E07007EDF4FF52B0C3
:0B2814008003ED42B0EE6002D2AF2264
:102820007804EC7011E58224F8500AF582E4C9CAF4
:10283000CBFCD8EF22EC7820058220E713D582016B
:1028400022C3E933F9EA33FAEB33FBEC33FCD8EA81
:10285000158222AC82AD839001DAE0FEA3E0FFBED8
:10286000000360121F0F9001D9E08C828D83122A21
:0B28700059A3DEFADFF88C828D832272
:10287B00C0D075D00808B8000D09B900090ABA0014
:10288B00050BBB00010CD0D032A2AFC2AFA808A978
:10289B0009AA0AAB0BAC8A8588F092AF30F512749B
:1028AB00012C600D08B8000909B900050ABA00012E
:1028BB000BC3EC9406FCECC313FC75F07DE8A4F899
:1028CB00ADF075F07DE9A42DF9E435F0FD75F07DE3
:1028DB00EAA42DFAE435F0FD75F07DEBA42DFB7D1C
:1028EB0000EC28F582E93DF583EA3DF5F0EB3D225E
:1028FB00A2AFC2AFA808A909AA0AAB0BAC0C92AF46
:10290B0075F020E8A4A8F075F020E9A428F582A8BA
:10291B00F075F020EAA428F583A8F075F020EBA45D
:10292B0028F9A8F075F020ECA42889F02285823EC6
:10293B0085833F85F040F54112289485824285833B
:10294B004385F044F545E53E453F45404541700123
:10295B0022A83EA93FAA40AB418542468543478505
:10296B004448854549E8494A4B60DBC003C002C077
:10297B0001C000122894AC82AD83AEF0FFD000D022
:10298B0001D002D003ECC39546FCED9547FDEE95C7
:10299B0048FEEF9549FFC3EC94E8ED9403EE9400E9
:1029AB00EF940040A118B8FF0919B9FF051ABAFF37
:1029BB00011B883E893F8A408B4174E82546F546CA
:1029CB0074033547F547E43548F548E43549F5498F
:1029DB008546428547438548448549458087AE8275
:1029EB00AF83C374019EE49F40022200C374029E16
:1029FB00FE74009FFF00BE0005BF00020022000016
:102A0B000000000000000000000000000000000EAD
:102A1B00BE00EB0FBF00ED002275A15575A1AA7486
:102A2B00F855B94406F5B975A1009013881229E938
:102A3B00759E5D759D0074F055894402F58953C9E7
:0D2A4B00EF758C06C28DD2A9D28CD2AF22BD
:102A590020F71130F6138883A88220F509F6A88398
:102A69007583002280FEF280F5F022FFA8811818F4
:102A7900122C9DD2D133E6400730E70B7582002234
:102A890020E70675820122C2D1122C7FE97003F575
:102A9900822220D101B3E433F58222C01585811544
:102AA900C082C083E5812405F581AF150FE51524A2
:102AB90003F8A607087600087640E51524FCFD7E94
:102AC900007F40E5152406F9A815088604E51524B4
:102AD900FCF886038CF0EBA4F709A7F0E5152406AA
:102AE90004F98704A81508860374012DFAE43EFE4B
:102AF9008A828E838FF0122F1F8BF0A4FBE5152499
:102B090003F8740126FDE40836FE0886078D828ED7
:102B1900838FF0122F1FFDE51524FCF886078DF031
:102B2900EFA42B2CF7E5152406F987060987078EEC
:0A2B3900828F83851581D0152232AA
:102B4400E58290358693FFBFFF0475820022759A53
:102B54000974FC5580FE74035F4EF580D284208492
:102B6400FD859F8222AF829001D77401F08F82C0CD
:102B7400071226A4D0079001DDE0FDA3E0FE4D700E
:102B84000A9001D8E4F08F820227AB8D038E04747F
:102B9400FF2C500B9001D87401F08F820227ABEF09
:102BA40090350E93FA24FB4034EA2A902BB37380B9
:102BB4002C8006800D8014801B53C6FB439D048D1E
:102BC4009C2253C6F7439D088D9B2243C604439D14
:102BD400048D9C2243C608439D088D9B22C3EB941D
:102BE40080EC9400500A9001D8E4F08F820227AB65
:0B2BF4009001D87401F08F820227AB23
:012C000032A1
:102C02001226767900E583B58202800D5003122DDB
:102C1200B7E583C395821232EBE5D0C465D020E1DB
:102C220017EA2DFAEB3EFBEC3FFC5009740112321D
:102C3200EBEC4480FC022D68C3EA9DFAEB9EFBECB0
:102C42009FFC500FC3E499F9E49AFAE49BFBE49CDD
:102C5200FCB2D1122820022D68ABF0A2AFE433FE01
:102C6200C2AFE0A37A0833D2914002C2917905D96A
:102C7200FEC291DAF1DBEBEE6002D2AF227901AA59
:102C820082E68F82B5821318E6B5F00E18E6B58398
:102C92000918E68A82B58202790022B4800FE5F033
:102CA200700AE5837006E58270027F00EFB6801538
:102CB20018B6001018B6000B18B6000608080876F9
:102CC200002208080822ABF0A2AFE433FEC2AFE054
:102CD200A37A0833D2944002C2947905D9FEC294F1
:102CE200DAF1DBEBEE6002D2AF22ABF0A2AFE4335B
:102CF200FEC2AFE0A37A0833D2B34002C2B3790571
:102D0200D9FEC2B3DAF1DBEBEE6002D2AF221233AC
:102D12002E700AE582458345F0700122E430D1121B
:102D2200F4700BE5F0F47006E58330E70122908041
:102D32000022700AE5F07006E58320E70122907F09
:102D4200FF22AC83AB827A007900748E023119E4DF
:102D5200AC83AB82FAF9748E0232537F8E1233A1A6
:062D6200F58385F08222DA
:102D6800B98003EA13B34010EA2401FAE43BFBE418
:102D78003CFC50047C800582BC000EBB000BBA00F2
:102D880008E4F5F0F583F58222A2D1E582138CF0F0
:102D980092F78B838A8222E4F583F58275F080F4BA
:102DA800A2D11322E4F583F58275F0C0747F22E581
:102DB80082C583F582A2D133A2D592D11392D5ECE4
:102DC800CFFCEBCEFBEACDFA2222AF82BF02005045
:102DD8003EEF75F002A42480FD740235F0FE9001E8
:102DE800DFE0FBA3E0FC8D828E83EBF0ECA3F0BF69
:102DF80000028005BF0118800B9001E1E024FF92DA
:102E080088D2A8229001E1E0FF24FF928AD2AA2268
:102E1800AF82BF02005028BF00028005BF010880B2
:102E280004C2A88002C2AAEF75F002A42480FE742E
:102E38000235F0FF8E828F8374D1F0742DA3F022B7
:102E490012267630D502B2D1BF0009BC0003022D8B
:102E5900AC022D9FBC0003022D89E583B4FF0BE56D
:102E690082B4FF03022DAC022D89E582B4FF03026F
:102E79002D9FC395835007247F400B022D89248001
:102E8900145003022D9FF582C3ED9AEE9BEF9C40EF
:102E9900111582C3EA33F9EB33FAEC33FBE433FC63
:102EA9008005E4CCCBCAF9C08275F019C3E99DEA63
:102EB9009EEB9FEC9400D5F002802D400EE99DF920
:102EC900EA9EFAEB9FFBEC9400FCC3B3E833F8E508
:102ED9008233F582E58333F583C3E933F9EA33FABB
:102EE900EB33FBEC33FC80C4B3E4F938FAE4358204
:102EF900FBE43583FCD082500405827C80122820B3
:032F0900022D8016
:102F0C00E4AC82FBFAF974860232537F861233A149
:102F1C00F5822220F71430F6148883A88220F50756
:102F2C00E6A88375830022E280F7E49322E022C0B6
:102F3C0015858115C082C083C0F0C0E0E5812408EE
:102F4C00F581E5152409F92402F8AF150F8F06C099
:102F5C0000A8068606E51524FAFDFC0C0CA80486D0
:102F6C0004D0008EF0ECA4FEABF0A60608A6038FEE
:102F7C00068E0086068D048C0086048EF0ECA4FE72
:102F8C00ABF0A70609A703E51524092403F9870666
:102F9C008F0474032CF886048D038B0086038CF04D
:102FAC00EBA42EFEF78F0474022CF886048D03EB31
:102FBC0004F886038CF0EBA42EF7E5152409240203
:102FCC00F98704098706198F0374022BF886038D81
:102FDC00028A0086028BF0EAA4ABF02CFCEB3EFEDE
:102FEC00A70409A706198F03EB04F886038D02EAE0
:102FFC0004F886028BF0EAA4ABF02CFCEB3EFEA7A7
:10300C000409A7068F0674032EF98F06EE04F886C2
:10301C00068D0474022CF886048EF0ECA4F78F064F
:10302C00EE04F98F06EE04F886068D048C008604F7
:10303C008EF0ECA4FEABF0A70609A7038D06740373
:10304C002EF98F068E0086068D0474032CF88604E8
:10305C008EF0ECA4F78D06EE04F98F068E00860632
:10306C008D04EC04F886048EF0ECA4FEABF0A706FD
:10307C0009A7038D0177008F017700E5152409F965
:10308C00E5152405F8E7F609E708F609E708F60957
:10309C00E708F6191919A815088602088603088688
:1030AC0006088607E5152405F8EA26F6EB0836F639
:1030BC00EE0836F6EF0836F6E5152405F8E6F709BE
:1030CC0008E6F70908E6F70908E6F7191919E709F8
:1030DC00E709E709E7E51524FAF8860408860508E8
:1030EC008606088607E5152405F8EC26FCED08365F
:1030FC00FDEE0836FEEF08368C828D838EF085153A
:10310C0081D01522FCABF0AA83A982749EF582C2F1
:10311C00D1EC30E716D2D1E9F42401F9EAF4340009
:10312C00FAEBF43400FBECF43400FC122820022DF2
:01313C00682A
:10313D00900284E0FF7E000FBF00010E7410C0E00E
:10314D00E4C0E08F828E831233C6AE821581158165
:10315D00900285E0FFEEB5070122900284E024E2A3
:10316D00F582E43401F583E599F0900284EEF022C6
:10317D0030044A900286E0FF900287E0FEEFB5062C
:10318D0005A204C20422900287E024F2F582E43401
:10319D0001F583E0F599900287E0FF7E000FBF00F7
:1031AD00010E7410C0E0E4C0E08F828E831233C62E
:0E31BD00AE82AF8315811581900287EEF0225D
:1031CB00C015858115AE82AF837D007C00E515248B
:1031DB00FCF808E6235401FB702FE51524FCF8E6F8
:1031EB0026F608E633F6E51524FCF8C3EE96EF0851
:1031FB00965011E51524FCF808E618C313C613C640
:10320B0008F680050C8C0580C4E51524FCF8C3EE8C
:10321B0096EF0896400DE51524FCF8EEC396FEEFED
:10322B000896FFE51524FCF808E618C313C613C669
:10323B0008F68D041DEC70D18E828F83D01522FC85
:10324B00ABF0AA83A982749EC2D1F5821228200208
:02325B002D68DC
:10325D00900288E0FF7E000FBF00010E7410C0E0E9
:10326D00E4C0E08F828E831233C6AE821581158144
:10327D00900289E0FFEEB5070122900288E024025A
:10328D00F582E43402F583E5C1F0900288EEF02278
:10329D0030054A90028AE0FF90028BE0FEEFB50602
:1032AD0005A205C2052290028BE02412F582E434BA
:1032BD0002F583E0F5C190028BE0FF7E000FBF00A9
:1032CD00010E7410C0E0E4C0E08F828E831233C60D
:0E32DD00AE82AF831581158190028BEEF02238
:1032EB006040F82582500274FFF582E824F8501EE6
:1032FB00CCCBCAF9E4CC24F85014CBCAF9E4CB24D8
:10330B00F8500BCAF9E4CA24F850037900222408B8
:10331B006010F8C3EC13FCEB13FBEA13FAE913F997
:10332B00D8F12212338DC3749E95824039790012E5
:10333B0032EB30D126E9F42401F582EAF43400F5BE
:10334B0083EBF43400F5F0ECF43400700AE58245BD
:10335B008345F0700122E430E70F22EC20E714895B
:10336B00828A838BF02230D10AE4F582F583F5F063
:10337B0074802274FFF582F583F5F0747F227582D9
:10338B000022AA82AB83A2F73392D1F5826002D2DC
:10339B00F7ACF0227F9E12338D30D103022D89C3FF
:1033AB00EF9582500974FFF5F0F583F582227900D1
:1033BB001232EB89828A838BF0EC22C01585811542
:1033CB00AE82E583FF33E433FD6009C3E49EFBE487
:1033DB009FFC80048E038F04E51524FCF808E6306F
:1033EB00E70FE51524FCF8C3E496FE08E496FF808E
:1033FB000AE51524FCF88606088607C005C006C03A
:10340B00078B828C831231CBAE82AF8315811581F2
:10341B00D005ED600DC3E49EFCE49FFD8C828D8393
:09342B0080048E828F83D01522EB
:1034340012011001EF020108091250C50101010235
:103444000301090246000201008064080B00020225
:103454000201040904000001020201040524001011
:103464000104240202052406000107058103080063
:103474004009040100020A0000040705020240009A
:103484000007058202400000040309041C034100F4
:103494006D00620069006E006F002000460061004C
:1034A4006E004800750062001603430044004300A8
:1034B4002000530065007200690061006C000E0377
:0C34C40041006D00620069006E006F00A6
:1034D00061626E64697273706468736441646141AF
:1034E0006D62696E6F2046616E487562312E312EB5
:1034F000314146523367000001000200030004001E
:0E35000005000600070008002100220023003D
:10350E0000000000000000000000000000000001AC
:10351E000000000000000000000000000000030496
:10352E000000020000000000010101010101010183
:10353E000000020202020202020200000303030361
:10354E000303030300000404040404040404000041
:10355E00010204081020408000000102040810201F
:10356E00408000000102040810204080000001028B
:10357E000408102040800000FFFFFFFFFFFFFFFF49
:10358E00FFFFFF00FFFF0102FFFFFFFFFFFFFFFF37
:10359E00FFFFFFFFFFFFFFFF03FFFFFFFFFFFFFF29
:0B35AE0000E100000000080000000029
:1035B900672611100F000000000001000100000142
:1035C90001010000010001010100010101050603DB
:1035D90004010207000000010000000000CC000106
:1035E900FB940BFFFF0101CC0003C0C60000FE766F
:1035F9002CA7FE98BF7F1C1E001F000000000000C2
:0136090000C0
:02360A000000BE
:04360C00D12DD12DBE
:0436100000000000B6
:0436140000000000B2
:00000001FF
