:0600000002006B0224B3B4
:03000B000227C108
:03001300022506BD
:01001B0032B2
:0300230002241B99
:03002B00022B465F
:01003300329A
:03003B0002255942
:030043000223DCB9
:01004B003282
:030053000224671D
:01005B003272
:03006300022A88E6
:030066000225ADC3
:02006900E4733E
:0D006B0075814B1232CFE582600302006602
:100078007969E94400601B7A019034F2782675A00A
:1000880002E493F2A308B8000205A0D9F4DAF275E5
:02009800A0FFC7
:06009A00E478FFF6D8FD3A
:1000A0007800E84400600A799475A000E4F309D868
:1000B000FC7892E84401600C7902900094E4F0A38B
:0400C000D8FCD9FA95
:0200C400C20078
:0E00C6007808E4F608F608F608F6780C7600DE
:0200D400C20464
:0200D600C20561
:0300D800020066BD
:1000DC001208D21208FC1208EB75DD0075D30075FE
:1000EC00D5002290022DE4F0C200227F00C3E5DB94
:1000FC009407920140067D077E008004ADDB7E00F4
:10010C008F037C00C3EB9DEC64808EF063F08095D4
:10011C00F05017EF2426FDE43402FE8F8275830025
:10012C00E0FC8D828E83F00F80C3227F008F057ED2
:10013C0000C3ED9407EE940050188F057E00EF2459
:10014C0026F582E43402F583E0FC8D828E83F00F79
:10015C0080DB90000722900002E0FF90022FF0E07D
:10016C0020E033900226E0FCA3E0FDA3E0FEA3E038
:10017C00FFBCB022BD041FBE001CBF001975E200FD
:10018C00C2AF75890090C35012292F90C350122909
:10019C002F12380080FE227E007F003000200EBE21
:1001AC0000010F900005C007C00612292FD006D001
:1001BC0007C3EE9450EF94C340E175820022758220
:1001CC00012275160090022FE0600375160185164A
:1001DC008222200025900230E0FF601E8FD553D480
:1001EC00FCD200BF400F1201A3E582600875D50058
:1001FC0053D4FCD200900230E4F022AF8290022F54
:10020C00E06041C0071201A3E582D0077003F582BC
:10021C0022900230E0FEBE400050207D0074402E43
:10022C00FEE43DFDEE2414F582ED3400F583EFF091
:10023C00900230E02401F075820122C0071201DE29
:10024C00D00780BF75820022AFF0AE83E5829000AC
:10025C0096F0EEA3F0EFA3F090022FE070030203F0
:10026C000A900094E0FEA3E0FFC3E49E74808FF03C
:10027C0063F08095F0400302030AC007C006120128
:10028C00A3E582D006D0077003F58222900096E099
:10029C00FBA3E0FCA3E0FDC3E49E74808FF063F04D
:1002AC008095F050BC900230E0FABA400050498A78
:1002BC00017A00744029F9E43AFAE92414F9EA3491
:1002CC0000FA8B828C838DF0122E65F8A3AB82AC76
:1002DC0083900096EBF0ECA3F0EDA3F089828A8377
:1002EC00E8F0900230E02401F01EBEFF011F9000E8
:1002FC0094EEF0EFA3F0809F1201DE02026D758286
:10030C00002290022DE0F5822290022DE07003F580
:10031C00822290022EE02414F582E43400F583E06E
:10032C00FF90022EE004F090022DE014F0E0700338
:10033C0053D4F38F822275D50074FC55D44402F546
:10034C00D4C2002230DE1990022DE5DBF090022E93
:10035C00E4F090022DE0600874F355D44408F5D411
:01036C00226E
:10036E00AFDBBF08028003020741900007E0FE7F6B
:10037E0000900006E0FD7C004FF510EC4EF5117F6D
:10038E0000900001E0F512900000E0FE5460605312
:10039E00900000E0FE5306607D00BE2005BD000209
:1003AE00800BBE4039BD00367FFF0207437420B577
:1003BE0012030207437421B5120280077422B5128C
:1003CE0018800C120137AD82AE838D07020743C031
:1003DE0007120162D0070207437FFF0207437FFF28
:1003EE00020743E51224F4500302073DE512240BE5
:1003FE0083F582E512241083F583E4731F4D3D0DC2
:10040E003D17223D24414343070507060705040710
:10041E0005050707900003E0FEBE0102800ABE023A
:10042E0002800FBE0373801475137A7514337F1216
:10043E00806975138C7514337F46805F900002E0DF
:10044E0070087513D27514338044900002E0FEBE1E
:10045E0001087513087514348034900002E0FEBE56
:10046E0002087513D67514338024900002E0FEBE88
:10047E0003087513007514008014900002E0FEBE90
:10048E0004087513F275143380047FFF800D8513F5
:10049E0082851483E493FF80027FFFBFFF03020770
:1004AE00438F057E00C3ED9510EE951150048D100F
:1004BE008E11AD10AE11C3ED9408EE940092024071
:1004CE00067B087C008004AB10AC118B077C00C34C
:1004DE00EC9F50198C027B00EC2513F582E4351449
:1004EE00F583E493F98A828B83F00C80E28F037C90
:1004FE0000EDC39BFDEE9CFE8D108E11EF2513F5C6
:10050E0013E43514F514020743900002E0FE8E103A
:10051E00751100020743900099E0900000F0AD10B5
:10052E00AE11C3ED9401EE940050030207437F0118
:10053E00020743900002E0FE900099F002074390FC
:10054E000000E0541F702F900003E0FD7E0090002D
:10055E0002E0FC7B004206EB4205BE0114BD001119
:10056E00903393E493FE30E5030207437FFF0207C7
:10057E00437FFF020743900000E0FE53061F7D00FD
:10058E00BE0277BD0074900004E0FEBE0102805FE3
:10059E00BE02028049BE03028033BE0402801DBE2D
:1005AE0081028040BE8202802ABE83028014BE84F5
:1005BE004474BC55DE4402F5DE02074353DE73027B
:1005CE00074374BC55D64402F5D602074353D6737F
:1005DE0002074374BC55D44402F5D402074353D4E6
:1005EE007302074374BC55D24402F5D2020743533B
:1005FE00D2730207437FFF0207437FFF0207439038
:10060E000000E0541F702F900003E0FD7E0090006C
:10061E0002E0FC7B004206EB4205BE0114BD001158
:10062E00903393E493FE30E5030207437FFF020706
:10063E00437FFF020743900000E0FE53061F7D003C
:10064E00BE0205BD0002800302071B900003E0FD01
:10065E007E00900002E0FC7B004206EB4205EE4D70
:10066E006003020717900005E0FD7E00900004E095
:10067E00FC7B004206EB4205BE0106BD00030207ED
:10068E000BBE0205BD00028060BE0305BD000280E8
:10069E0044BE0405BD00028028BE8105BD00028057
:1006AE0052BE8205BD00028036BE8305BD000280AB
:1006BE001ABE8451BD004E74BF55DE4403F5DE8074
:1006CE0074747F55DE440CF5DE806A74BF55D644D3
:1006DE0003F5D68060747F55D6440CF5D6805674DB
:1006EE00BF55D44403F5D4804C747F55D4440CF5D7
:1006FE00D4804274BF55D24403F5D28038747F55EE
:10070E00D2440CF5D27FFF802C7FFF80287FFF80A4
:10071E0024900000E4F0900001F0AD10AE11C3ED96
:10072E009402EE940040047F02800AAF1080067F90
:10073E00FF80027FFFBFFF077512FF75DCCF22EF30
:10074E0024F740068FDD75DCC02275DD0075DCC038
:10075E00227405B51202805D7406B51266AE10AF36
:10076E0011C3EE9408EF9400920340067C087D00BE
:10077E008004AC10AD117D00C3ED9C50198D027B31
:10078E0000ED2513F582E43514F583E493F98A829E
:10079E008B83F00D80E28C037D00EEC39BFEEF9DFC
:1007AE00FF8E108F11EC2513F513E43514F5148C10
:1007BE00DD63DC4022E5E35480FFE5104FF5E37581
:1007CE00DC022275DD0075DC02227420B5120D30BC
:1007DE00DE101200F775DD0085DCDC2275DD0043CE
:1007EE00DC022275D30074FC55D24402F5D22220CD
:1007FE00D9030208A8E5D9540FFFADD95305307EB1
:10080E0000BD0005BE0002801CBD1005BE000280AA
:10081E0036BD2005BE00028043BD3006BE00030279
:10082E00088E0208A6EF24FB50030208A6EF2F90B5
:10083E00084173800880618009805D805B1207D853
:10084E0080561203508051EF24FB404CEF2F90083E
:10085E006073804480428040803E803CEF24FB40A9
:10086E0037EF2F900875738008800B800E802980DB
:10087E002712075F80221207F1801D120342801893
:10088E00EF24FB4013EF2F900899738008800980A6
:10089E00078005800312036EC2D930D81A75DC02A8
:1008AE0075D21275D41275E300C2DAC2D9C2D890CD
:1008BE000099E4F01200EF10DA0122E5DA20E203EB
:1008CE0075D8FF2275E20053E27F43E22975E300FB
:1008DE0053E2BF53D1FB75D18043D1012243E104D2
:1008EE0043E10243E10143D81FD2EAD2AF227E0098
:1008FE007F008EEC8FED7E0A7F008EEE8FEF7E14E2
:10090E007F008EE48FE575EB0C75D21275D41275DF
:10091E00EA4075DC02229001DB7401F075821F1231
:10092E0025EA9001DB7401F075821E1225EA900112
:10093E00DB7401F075820E1225EA9001DB7401F072
:10094E0075820F1225EA9001DB7401F07582211277
:10095E0025EA9001DB7401F07582101225EA9001F0
:10096E00DB7401F075820B1225EA9001DB7401F045
:10097E007582110225EA900BB8E4F5F012287E126A
:10098E0000DC120924759E04122841AC82AD83AEA0
:10099E00F0FF9001B8ECF0EDA3F0EEA3F0EFA3F0B2
:1009AE009001B4ECF0EDA3F0EEA3F0EFA3F0120182
:1009BE00DE900064E4F5F012287E120BB2900277FE
:1009CE00E0FEA3E0900276E0FF7D0074FFC39FFF80
:1009DE00E49DFD9001E1EFF0EDA3F08E82122AAFBF
:1009EE00900279E0FEA3E0900276E09001E1F0E45F
:1009FE00A3F08E82022AAF122841AC82AD83AEF0F4
:100A0E00FF9001B0ECF0EDA3F0EEA3F0EFA3F01227
:100A1E00030EE5826058900259E4F0120315E58248
:100A2E009001AFF09001B0E0FCA3E0FDA3E0FEA3C7
:100A3E00E0FF9001B8ECF0EDA3F0EEA3F0EFA3F021
:100A4E009001B4ECF0EDA3F0EEA3F0EFA3F0900262
:100A5E0057E0FF600ABF0102800ABF0214800A122B
:100A6E000EA2800D12111680081211B180031215FC
:100A7E003B121E9202227DE5829001BCF0E075F0E1
:100A8E0003A42436FE740235F0FF7C007D00C3EC17
:100A9E009403ED648094805035EC2433F582ED346C
:100AAE0002F583E0FBEC2EF582ED3FF583E090013D
:100ABE00DCF08B82C007C006C005C0041226F1D040
:100ACE0004D005D006D0070CBC00C30D80C022E5B3
:100ADE00829001BFF0E0FFBF08005053EF244EF5A7
:100AEE0082E43402F583E0F582120A8590006412E6
:100AFE00292F7D9A7E009001BDE0FBA3E08B013390
:100B0E0095E07A007C008A2589248C228C238D0026
:100B1E008E04E4FDFEE5224200E5234204E5244274
:100B2E0005E525420688828C838DF0EE022C0EBFE1
:100B3E0008028005BF096C80357E9A7F009001BD4A
:100B4E00E0FCA3E03395E07D008D028C037C007DFC
:100B5E00008E008F01E4FEFFE84204E94205EE42FA
:100B6E0003EF42028C828D838BF0EA022C327E9A46
:100B7E007F009001BDE0FCA3E03395E07D008D0287
:100B8E008C037C007D008E008F01E4FEFFE84204A2
:100B9E00E94205EE4203EF42028C828D838BF0EA2E
:100BAE00022BA12290343CE493FE7401938E8212A8
:100BBE002329AF82BFFF067E017F00801490343C54
:100BCE00E493FC7401938C82122329AD828D067FEF
:100BDE000090019EEEF090343EE493FE7401938EED
:100BEE0082122329AF82BFFF067E007F0080149001
:100BFE00343EE493FC7401938C82122329AD828DD2
:100C0E00067F0090019FEEF0903440E493FE740155
:100C1E00938E82122329AF82BFFF067E0A7F008049
:100C2E0014903440E493FC7401938C82122329AD0A
:100C3E00828D067F009001A0EEF0903442E493FE88
:100C4E007401938E82122329AF82BFFF067E017F2D
:100C5E00008014903442E493FC7401938C8212232E
:100C6E0029AD828D067F009001A1EEF0903444E410
:100C7E0093FE7401938E82122329AF82BFFF067EEC
:100C8E00067F008014903444E493FC7401938C82AC
:100C9E00122329AD828D067F009001A2EEF09034D2
:100CAE0046E493FE7401938E82122329AF82BFFF16
:100CBE00067E7F7F008014903446E493FC7401938B
:100CCE008C82122329AD828D067F009001A3EEF057
:100CDE00903448E493FE7401938E82122329AF82DE
:100CEE009001A5EFF090344AE493FE7401938E8246
:100CFE00122329AF829001A6EFF090344CE493FEBC
:100D0E007401938E82122329AF829001A7EFF07E99
:100D1E00007F00C3EE9408EF648094804003020DC0
:100D2E00C98E05ED75F003A4FDFB3395E0FCEB24B5
:100D3E005EFBEC3402FC74092DFAF582C007C00686
:100D4E00C005C004C003C002122329A982D002D05C
:100D5E0003D004D0058B828C83E9F0ED04FC33952F
:100D6E00E0FBEC245EFCEB3402FBEA04F582C005EA
:100D7E00C004C003C002122329A982D002D003D01E
:100D8E0004D0058C828B83E9F00D0DED3395E0FCDC
:100D9E00ED245EFDEC3402FC0A0A8A82C005C00412
:100DAE00122329AB82D004D005D006D0078D828CB9
:100DBE0083EBF00EBE00010F020D2190344EE49332
:100DCE00FE7401938E82122329AF82BFFF067E7FAF
:100DDE007F00801490344EE493FC7401938C821245
:100DEE002329AD828D067F009001A4EEF090345041
:100DFE00E493FE7401938E82122329AF82BFFF0605
:100E0E007E7F7F008014903450E493FC7401938CA9
:100E1E0082122329AD828D067F00900276EEF0229B
:100E2E00900277E0FEA3E090018AE0FF7D0074FF60
:100E3E00C39FFFE49DFD9001E1EFF0EDA3F08E82E4
:100E4E00122AAF900279E0FEA3E090018AE09001B1
:100E5E00E1F0E4A3F08E82022AAFE5829001C0F0A9
:100E6E00E0FF7D007E00C3ED940AEE648094805016
:100E7E002290018AE0B5070280129002587401F0A8
:100E8E00ED248AF582EE3401F583EFF00DBD00D628
:100E9E000E80D3229001C1E0FFBF03004003021079
:100EAE0010EF90341693FE9001AFE0FDB50607905B
:100EBE0001C1EF04F022EF90341993FEEDB5060256
:100ECE008003020FE4BF02028003020FDC75820F63
:100EDE0012020775820C12020775825D12020775E7
:100EEE008206120207903FFCE493F58212020790ED
:100EFE003FFDE493F582120207903FFEE493F582E4
:100F0E00120207903FFFE493F582120207903FFA18
:100F1E00E493F582120207903FFBE493F5821202EE
:100F2E000775820D1202077C007E00C3EC940DEE55
:100F3E00648094805020EC2425F582EE3434F583C1
:100F4E00E493F582C006C004120207D004D0060C4A
:100F5E00BC00D80E80D57582051202077C007E007B
:100F6E00C3EC9405EE648094805020EC2432F5821C
:100F7E00EE3434F583E493F582C006C00412020702
:100F8E00D004D0060CBC00D80E80D5758205120296
:100F9E00077C007E00C3EC9405EE648094805020A4
:100FAE00EC2437F582EE3434F583E493F582C006F3
:100FBE00C004120207D004D0060CBC00D80E80D597
:100FCE007582011202079001C1E4F01201DE900158
:100FDE00C1E02401F022EF90341F93FEEDB5061C04
:100FEE00BF02119002577402F09001A9E4F0A3F031
:100FFE009001C1F09001C1E02401F0229001C1E402
:10100E00F022EFFE24F7500122EE240A83F582EE41
:10101E00240D83F583E473151515374655647384D3
:10102E001111111010101010109001AFE09001C2AC
:10103E00F09001C1EF04F0229001AFE09001C3F0F7
:10104E009001C1EF04F0229001AFE09001C4F09046
:10105E0001C1EF04F0229001AFE09001C5F09001C4
:10106E00C1EF04F0229001AFE0F582120E689001FC
:10107E00C1E02401F0229001C3E0FF9001C2E0FE26
:10108E00EF6E6455FD9001C4E0FCB505757D007CE6
:10109E00008C038D048E057E008F00E4F9FAFFE8C4
:1010AE002EFEE93DFDEA3CFCEF3BFBC006C005C051
:1010BE0004C003900003E4F5F0122E81AC82AD83E0
:1010CE00AEF0FFE58124FCF5819001ABECF0EDA3D1
:1010DE00F0EEA3F0EFA3F09001A9E4F0A3F09001DD
:1010EE00DDF09001DE74F0F0E4A3F090009A75F05C
:1010FE00001227999001C5E09001A8F09002577454
:10110E0001F09001C1E4F0229001A9E0FEA3E0FFFE
:10111E00C3EE94F0EF9400501EEE249AFEEF3400CE
:10112E00FF9001AFE0FD8E828F83F09001A9E02445
:10113E0001F0A3E03400F09001ABE024FFFCA3E04B
:10114E0034FFFDA3E034FFFEA3E034FFFF9001ABBC
:10115E00ECF0EDA3F0EEA3F0EFA3F09001ABE0F511
:10116E00F0A3E042F0A3E042F0A3E045F07033902C
:10117E000257E4F09001A8E0FF9001A9E0FDA3E082
:10118E00FE9001BD74012DF0E43EA3F08F82120A91
:10119E00DD900258E06008120E2E900258E4F00224
:1011AE0001DE229001A9E0FEA3E0FFC374229EE4BB
:1011BE009F500302132DEE240A83F582EE2427831B
:1011CE00F583E47318364E667E96AEC1D4E7E7E734
:1011DE00E7E7E7E7E7E7E7E7E7E7E7E7E7E7E7E791
:1011EE00E7E7E7E7E70B1D121212121212121212A4
:1011FE0012121212121212121212121212121212C1
:10120E00121212121212121213139001AFE0FDBD40
:10121E00FF08900256E4F002132D9002567401F06E
:10122E0090019EEDF002132D900256E0FDBD0102DD
:10123E00800302132D9001AFE090019FF002132D59
:10124E00900256E0FDBD0102800302132D9001AF06
:10125E00E09001A0F002132D900256E0FDBD0102B8
:10126E00800302132D9001AFE09001A1F002132D27
:10127E00900256E0FDBD0102800302132D9001AFD6
:10128E00E09001A2F002132D900256E0FDBD010286
:10129E00800302132D9001AFE09001A3F002132DF5
:1012AE00900256E0FDBD01779001AFE0FD9001A5E3
:1012BE00F0806C900256E0FDBD01649001AFE0FD40
:1012CE009001A6F08059900256E0FDBD01519001AB
:1012DE00AFE0FD9001A7F08046900256E0FDBD0103
:1012EE003EEE24F7FE3395E0FFEE245EFEEF340271
:1012FE00FF9001AFE0FD8E828F83F0802290025628
:10130E00E0FFBF011A9001AFE09001A4F0801090B1
:10131E000256E0FFBF01089001AFE0900276F09018
:10132E0001A9E0FEA3E0FF8E048F05C3EC942DED22
:10133E009400500B9001A974012EF0E43FA3F0909D
:10134E0001A9E0FEA3E0FFBE2D05BF000280012231
:10135E00900256E0FFBF010280030214EF90343C6E
:10136E00E493FE74019390019EE09001DAF08E8278
:10137E001222F390343EE493FE74019390019FE0A9
:10138E009001DAF08E821222F3903446E493FE74CA
:10139E0001939001A3E09001DAF08E821222F39075
:1013AE003442E493FE7401939001A1E09001DAF0CF
:1013BE008E821222F3903444E493FE7401939001D2
:1013CE00A2E09001DAF08E821222F3903440E49380
:1013DE00FE7401939001A0E09001DAF08E82122249
:1013EE00F3903448E493FE7401939001A5E09001CC
:1013FE00DAF08E821222F390344AE493FE74019353
:10140E009001A6E09001DAF08E821222F390344C15
:10141E00E493FE7401939001A7E09001DAF08E82BE
:10142E001222F37E007F00C3EE9408EF6480948056
:10143E0040030214C38E05ED75F003A4FD2409FCD0
:10144E00EDFA3395E0FBEA245EF582EB3402F58388
:10145E00E09001DAF08C82C007C006C005C004120D
:10146E0022F3D004D005EC04FBED04F93395E0FA39
:10147E00E9245EF582EA3402F583E09001DAF08B1E
:10148E0082C005C0041222F3D004D0050C0C0D0D41
:10149E00ED3395E0FBED245EF582EB3402F583E04F
:1014AE009001DAF08C821222F3D006D0070EBE0025
:1014BE00010F02143590344EE493FE7401939001A3
:1014CE00A4E09001DAF08E821222F3903450E4936D
:1014DE00FE740193900276E09001DAF08E82122271
:1014EE00F375820F12020775820C12020775825D68
:1014FE001202077E007F00C3EE942DEF648094806D
:10150E0050228E058D82C007C006122329120207B3
:10151E00900001E4F5F012287ED006D0070EBE0032
:10152E00D60F80D31201DE900257E4F0229001B85C
:10153E00E0FCA3E0FDA3E0FEA3E0FF9001B0E0F825
:10154E00A3E0F9A3E0FAA3E0FBE8C39CFCE99DFD50
:10155E00EA9EFEEB9FFFC3EC94E8ED9403EE94003D
:10156E00EF94005001221201DE90027BE0F5F0A311
:10157E00E045F0700B90027B7401F0E4A3F080075D
:10158E0090027BE4F0A3F09001B0E0FCA3E0FDA399
:10159E00E0FEA3E0FF9001B8ECF0EDA3F0EEA3F0B7
:1015AE00EFA3F09001B4E0F8A3E0F9A3E0FAA3E012
:1015BE00FBECC398F526ED99F527EE9AF528EF9BEF
:1015CE00F5299001A0E0F879007A007B00C007C0F1
:1015DE0006C005C004C000C001C002C0039003E8ED
:1015EE00E4F5F0122E81A882A983AAF0FBE58124EE
:1015FE00FCF581D004D005D006D007C3E52698E5CA
:10160E002799E5289AE5299B500122900257E4F08C
:10161E009001B4ECF0EDA3F0EEA3F0EFA3F0900187
:10162E009EE0FFBF01079002597401F0227F00BFB8
:10163E00500050388F057E00C007C005C0069000D0
:10164E00031229EAAD82AE8315811581D007ED24F0
:10165E009AFDEE3400FE8D828E83E4F08D828E83B1
:10166E00A3F08D828E83A3A3F00F80C37E007F0034
:10167E00C3EE940AEF64809480501F8E059001BDD6
:10168E0074F0F0E4A3F08D82C007C006120ADDD01C
:10169E0006D0070EBE00D90F80D622900198E4F036
:1016AE00A3F0122841AC82AD83AEF0FF90019AEC0C
:1016BE00F0EDA3F0EEA3F0EFA3F022122841AC82DE
:1016CE00AD83AEF0FF90019AE0F8A3E0F9A3E0FA43
:1016DE00A3E0FBECC398FCED99FDEE9AFEEF9BFFA9
:1016EE009001A2E0FB7A007415C39BFBE49AFAC04A
:1016FE0007C006C005C004900198E0C0E0A3E0C09A
:10170E00E08B828A831229EAAA82AB831581158126
:10171E00D004D005D006D0078A008B017A007B005A
:10172E00C3EC98ED99EE9AEF9B5004758200227EE1
:10173E00007F008E2E8F2FC3E52E941CE52F940074
:10174E004003021D6A9001A4E0FB7A00C007C006A8
:10175E00C003C0029000501222A7AA82AB8315814B
:10176E0015818A828B83122C9785822A85832B85FD
:10177E00F02CF52DD006D0078E828F83C007C006C1
:10178E00122C97A882A983AAF0FBC02AC02BC02CCA
:10179E00C02D888289838AF0EB12233985822A85AF
:1017AE00832B85F02CF52DE58124FCF581D006D018
:1017BE0007C006C007900198E0FEA3E0FF8E828F5F
:1017CE0083122C97AA82AB83AEF0FFC02AC02BC027
:1017DE002CC02D8A828B838EF0EF122B48AA82ABFF
:1017EE0083AEF0FFE58124FCF5818A828B838EF037
:1017FE00EFC007C006122CA385822A85832B745056
:10180E00C0E0E4C0E0852A82852B83123111AA82C2
:10181E00AB83158115818A828B83122C978582303A
:10182E0085833185F032F533D006D007E4C0E0C0B1
:10183E00E07420C0E07441C0E0853082853183853C
:10184E0032F0E533122D8FAC82AD83AEF0FFE58121
:10185E0024FCF5818C828D838EF0EF122C56AE8295
:10186E00AF839001CEEEF0EFA3F08E828F83C00790
:10187E00C006122C8AAA82AB83ACF0FDE4C0E0C095
:10188E00E07420C0E07441C0E08A828B838CF0ED5E
:10189E0012233985823485833585F036F537E58117
:1018AE0024FCF581C034C035C036C0378530828502
:1018BE0031838532F0E53312229CA882A983ACF0E5
:1018CE00FDE58124FCF581E4C0E0C0E07420C0E0B9
:1018DE007441C0E0888289838CF0ED122D8FAA822C
:1018EE00AB83ACF0FDE58124FCF581C002C003C0E2
:1018FE0004C00590000075F080743F12229C858212
:10190E003085833185F032F533E58124FCF5819005
:10191E0001C6E530F0E531A3F0E532A3F0E533A3DF
:10192E00F0852A82852B83122C97A882A983ACF08E
:10193E00FDC034C035C036C037888289838CF0ED47
:10194E0012229CAA82AB83ACF0FDE58124FCF581CA
:10195E008A828B838CF0ED122C56AC82AD83745040
:10196E00C0E0E4C0E08C828D83123111AC82AD8375
:10197E00158115818C828D83122C97AA82AB83AC34
:10198E00F0FDE4C0E0C0E07420C0E07441C0E08A25
:10199E00828B838CF0ED122D8FAA82AB83ACF0FD7F
:1019AE00E58124FCF5819001CAEAF0EBA3F0ECA3EB
:1019BE00F0EDA3F0C02EC02F9000031229EAAC82E6
:1019CE00AD8315811581D006EC249AFCED3400FD13
:1019DE009001D0ECF0EDA3F08C348D35EEF52E7534
:1019EE00F003A404FD3395E0FCED245EF582EC34A7
:1019FE0002F583E0F582C006122E52AA82AB83ACAA
:101A0E00F0FDC030C031C032C0338A828B838CF07F
:101A1E00ED12233985823085833185F032F533E539
:101A2E008124FCF581D006D0070EBE00010FC374D1
:101A3E00079E74808FF063F08095F0D007D006502B
:101A4E00067C007D008009E52E04FBFC3395E0FD4D
:101A5E00C006C007EC75F003A404FD3395E0FCED61
:101A6E00245EF582EC3402F583E0F582C007C006F1
:101A7E00122E52AA82AB83ACF0FD9001CAE0C0E0F8
:101A8E00A3E0C0E0A3E0C0E0A3E0C0E08A828B83C5
:101A9E008CF0ED122339AA82AB83ACF0FDE58124E4
:101AAE00FCF581C002C003C004C0058530828531BB
:101ABE00838532F0E533122B48AA82AB83ACF0FD5E
:101ACE00E58124FCF5818A828B838CF0ED122E5DEC
:101ADE00AD82D006D007853482853583EDF0900136
:101AEE00D0E0FCA3E0FD74012CF534E43DF5359017
:101AFE0001CEE0FAA3E0FB8A01E975F003A4F83306
:101B0E0095E0FFE8245EF582EF3402F583E0F5827E
:101B1E00C003C002C001122E52A882AD83AEF0FFE8
:101B2E00D001D002D003C007C006C003C002C0015E
:101B3E009001C6E0C0E0A3E0C0E0A3E0C0E0A3E0F7
:101B4E00C0E088828D838EF0EF1223398582308536
:101B5E00833185F032F533E58124FCF581D001D057
:101B6E0002D003D006D0070ABA00010BC374079A3D
:101B7E0074808BF063F08095F0D007D00650067C11
:101B8E00007D00800709E9FC3395E0FDC006C00723
:101B9E00EC75F003A4FC3395E0FDEC245EF582EDCC
:101BAE003402F583E0F582C007C006122E52AA82D7
:101BBE00AB83ACF0FD9001CAE0C0E0A3E0C0E0A3AF
:101BCE00E0C0E0A3E0C0E08A828B838CF0ED1223AC
:101BDE0039AA82AB83ACF0FDE58124FCF581C0020D
:101BEE00C003C004C0058530828531838532F0E59F
:101BFE0033122B48AA82AB83ACF0FDE58124FCF5B1
:101C0E00818A828B838CF0ED122E5DAD82D006D050
:101C1E0007853482853583EDF09001D0E0FCA3E09A
:101C2E00FD74022CF534E43DF5359001CEE0FAA3B7
:101C3E00E0FB8A01E975F003A42402F83395E0FF76
:101C4E00E8245EF582EF3402F583E0F582C003C02E
:101C5E0002C001122E52A882AD83AEF0FFD001D089
:101C6E0002D003C007C006C003C002C0019001C667
:101C7E00E0C0E0A3E0C0E0A3E0C0E0A3E0C0E088E5
:101C8E00828D838EF0EF12233985823085833185E4
:101C9E00F032F533E58124FCF581D001D002D0037A
:101CAE00D006D0070ABA00010BC374079A74808B52
:101CBE00F063F08095F0D007D00650067C007D00D2
:101CCE00800709E9FC3395E0FDEC75F003A42402CE
:101CDE00FD3395E0FCED245EF582EC3402F583E0F5
:101CEE00F582C007C006122E52AA82AB83ACF0FD5D
:101CFE009001CAE0C0E0A3E0C0E0A3E0C0E0A3E032
:101D0E00C0E08A828B838CF0ED122339AA82AB83DA
:101D1E00ACF0FDE58124FCF581C002C003C004C017
:101D2E00058530828531838532F0E533122B48AA42
:101D3E0082AB83ACF0FDE58124FCF5818A828B8336
:101D4E008CF0ED122E5DAD82D006D00785348285E3
:101D5E003583EDF00EBE00010F021741900198E0A1
:101D6E00FEA3E0FFC3EE9450EF940040071216A9B5
:101D7E007582032290019874012EF0E43FA3F07552
:101D8E00820122E5829001D5F09001D4E0FF90010E
:101D9E00D5E0F5F0EFA4E5F0F09001D2E0F5F0EF2C
:101DAE00A4E5F0F09001D3E0F5F0EFA4E5F0F090AB
:101DBE0001D2E0FE7F009001D3E0FDE4FCED42078E
:101DCE00EC42068F828E8322E5829001D9F090013B
:101DDE00D8E0FF9001D6E0F5F0EFA4AEF09001D977
:101DEE00E0F5F0EFA4ADF09001D7E0F5F0EFA4AC84
:101DFE00F08C077B007C00C3EB9450EC64809480E5
:101E0E00504AC007C006C005C004C003C003C004CA
:101E1E009000031229EAA982AA8315811581D003A5
:101E2E00D004D005D006D007E9249AF9EA3400FA96
:101E3E0089828A83EEF089828A83A3EDF089828A71
:101E4E0083A3A3EFF00BBB00AE0C80AB7E007F0034
:101E5E00C3EE940AEF6480948050288E059001BDE5
:101E6E0074F0F0E4A3F08D82C007C006120ADD9074
:101E7E000001E4F5F012287ED006D0070EBE00D089
:101E8E000F80CD22122841900259E070012290015C
:101E9E00A1E0FF24FC500122EF2F2F901EAD730204
:101EAE001EB9021EE1021F1802227C9001A5E0FF5E
:101EBE009001A6E0FE9001A7E0FD9001A3E0FC904A
:101ECE0001D6EEF09001D7EDF09001D8ECF08F82B4
:101EDE00021DD61216C9E58230E02E7E007F00C3A9
:101EEE00EE940AEF64809480501F8E059001BD74AD
:101EFE0054F0E4A3F08D82C007C006120ADDD006AE
:101F0E00D0070EBE00D90F80D622122841AC82AD6A
:101F1E0083AEF0FF900194E0F8A3E0F9A3E0FAA3FA
:101F2E00E0FBECC398F8ED99F9EE9AFAEF9BFBC340
:101F3E00E8940AE99400EA9400EB94005001229090
:101F4E000194ECF0EDA3F0EEA3F0EFA3F09001A25C
:101F5E00E0FF7E00C007C0069000641229EAAE8240
:101F6E00AF8315811581E4C39EFE74089FFF8E8298
:101F7E008F83122C8A85823C85833D85F03EF53F0A
:101F8E0090025AE0F538A3E0F539A3E0F53AA3E064
:101F9E00F53BE4C0E0C0E07480C0E0743FC0E08573
:101FAE003882853983853AF0E53B122B48A882A901
:101FBE0083AAF0FBE58124FCF58190025AE8F0E952
:101FCE00A3F0EAA3F0EBA3F0C03CC03DC03EC03F7F
:101FDE00853882853983853AF0E53B122D8FA882AC
:101FEE00A983AAF0FBE58124FCF581C000C001C0E5
:101FFE0002C003900000E4F5F07440122339A88269
:10200E00A983AAF0FBE58124FCF581E4C0E0C0E0E1
:10201E007480C0E0743FC0E0888289838AF0EB123E
:10202E00229CA882A983AAF0FBE58124FCF581C03D
:10203E0000C001C002C003900000E4F5F01229BAFE
:10204E00AB82E58124FCF581EB700302210E900238
:10205E005AE0F538A3E0F539A3E0F53AA3E0F53BF5
:10206E00E4C0E0C0E07480C0E0743FC0E085388218
:10207E00853983853AF0E53B122B48A882A983AABD
:10208E00F0FBE58124FCF58190025AE8F0E9A3F01B
:10209E00EAA3F0EBA3F0C03CC03DC03EC03F853884
:1020AE0082853983853AF0E53B122D8FA882A9836C
:1020BE00AAF0FBE58124FCF581C000C001C002C07E
:1020CE0003900000E4F5F07440122339A882A9832E
:1020DE00AAF0FBE58124FCF581E4C0E0C0E0748049
:1020EE00C0E0743FC0E0888289838AF0EB12229CA4
:1020FE00A882A983AAF0FBE58124FCF5810221C701
:10210E0090025AE0F538A3E0F539A3E0F53AA3E0E2
:10211E00F53BE4C0E0C0E07480C0E0743FC0E085F1
:10212E003882853983853AF0E53B122B48AC82AD77
:10213E0083AEF0FFE58124FCF58190025AECF0EDC0
:10214E00A3F0EEA3F0EFA3F0C03CC03DC03EC03FF5
:10215E00853882853983853AF0E53B122D8FAC8226
:10216E00AD83AEF0FFE58124FCF581C004C005C04F
:10217E0006C007900000E4F5F07440122339AC82DB
:10218E00AD83AEF0FFE58124FCF581E4C0E0C0E054
:10219E007480C0E0743FC0E08C828D838EF0EF12AD
:1021AE00229CAC82AD83AEF0FFE58124FCF5818CE0
:1021BE00008D018E02EFB2E7FBC000C001C002C06D
:1021CE000390000075F080743F12229CAC82AD83A8
:1021DE00AEF0FFE58124FCF581C004C005C006C049
:1021EE000790000075F07F7443122339AC82AD83E3
:1021FE00AEF0FFE58124FCF581C007C006C005C026
:10220E000490025AE0C0E0A3E0C0E0A3E0C0E0A367
:10221E00E0C0E0853C82853D83853EF0E53F122996
:10222E00BAAB82E58124FCF581D004D005D006D06E
:10223E0007EB600B90025AE4F0A3F0A3F0A3F08C2E
:10224E00828D838EF0EF122E5DAF829001A5E0FE9F
:10225E009001A6E0FD9001A7E0FC9001D6EDF09074
:10226E0001D7ECF09001D8EFF08E82021DD62290AD
:10227E000259E0601790018AE0FF900276E0FEEFCF
:0D228E00B50601228E82120E68020E2E226D
:10229C00A8811818C6B2E7C6022B48C0158581154F
:1022AC00AE82AF837C007D007B10EF235401FAEEED
:1022BC002EFEEF33FFEC2CFCED33FDEA6003430400
:1022CC0001E51524FCF8C3EC96ED08964010E515D5
:1022DC0024FCF8ECC396FCED0896FD430601DBCA22
:1022EC008E828F83D01522AF82BF80004001227571
:1022FC00A15575A1AA43B10475A1007585C0EF2F36
:10230C00F5849001DAE0F58EE58630E60375869A61
:10231C0075A15575A1AA53B1FB75A10022AF8275A9
:10232C0085C0EF2FF58475868E858E82221225BC92
:10233C00BC0003022CCFEF60FA30D502B2D1E5839A
:10234C00B4FF03022CE5E582B4FF03022CE52583E0
:10235C0040072482400B022CCF2483145003022C00
:10236C00E5F582EA8DF0A4A8F0EA8EF0A428F8E452
:10237C0035F0F9EB8DF0A428E935F0F9E433CA8F88
:10238C00F0A429F9EA35F0FAEBF88EF0A429F9EA71
:10239C0035F0FAE433FBEC8DF0A429F9EA35F0FAC8
:1023AC00E43BFBE88FF0A42AFAEB35F0FBE433CCEA
:1023BC00FD8EF0A42AFAEB35F0FBE43CFCED8FF03B
:1023CC00A42BFBEC35F0FC20E703122766022CAEA5
:1023DC00C021C0E0C0F0C082C083C007C006C005E9
:1023EC00C004C003C002C001C000C0D075D0001230
:1023FC0007FDD0D0D000D001D002D003D004D0053E
:10240C00D006D007D083D082D0F0D0E0D02132C01B
:10241C0021C0E0C0F0C082C083C007C006C005C0A8
:10242C0004C003C002C001C000C0D075D0003098F9
:10243C0005123083C2983099051230C3C299D0D09E
:10244C00D000D001D002D003D004D005D006D007E4
:10245C00D083D082D0F0D0E0D02132C021C0E0C0F7
:10246C00F0C082C083C007C006C005C004C003C052
:10247C0002C001C000C0D075D00030C0051231A31D
:10248C00C2C030C1051231E3C2C1D0D0D000D001DE
:10249C00D002D003D004D005D006D007D083D08290
:1024AC00D0F0D0E0D02132C021C0E0C0F0C082C05A
:1024BC0083C007C006C005C004C003C002C001C071
:1024CC0000C0D075D000900283E0FEA3E0FFC007EF
:1024DC00C0068E828F83120069D006D007D0D0D070
:1024EC0000D001D002D003D004D005D006D007D044
:1024FC0083D082D0F0D0E0D02132C021C0E0C0F037
:10250C00C082C083C007C006C005C004C003C0029F
:10251C00C001C000C0D075D000900285E0FEA3E0E1
:10252C00FFC007C0068E828F83120069D006D007C9
:10253C00D0D0D000D001D002D003D004D005D0062A
:10254C00D007D083D082D0F0D0E0D02132C021C0CF
:10255C00E0C0F0C082C083C007C006C005C004C084
:10256C0003C002C001C000C0D075D000900281E051
:10257C00FEA3E04E600E900281E0F8A3E0F58388A4
:10258C0082120069D0D0D000D001D002D003D00488
:10259C00D005D006D007D083D082D0F0D0E0D021A7
:1025AC003212296A120984120A0580FB75820022F4
:1025BC00AA82AB83A2F73392D1F5826002D2F7AC38
:1025CC00F0E58124F9F8E6FD08E6FE0886F008E659
:0E25DC00A2F73392D5F5836002D2F7AFF0225A
:1025EA00E582FF9034A293FEEF90347A93FF700154
:1025FA00229001DBE0FD701BBF0209EEF4FC52924F
:10260A00EC529322BF0402800122EEF4FC5296ECB3
:10261A00529722BD0214BF0207EE4292EE42932263
:10262A00BF0439EE4296EE429722BD0116BF020858
:10263A00EEF45292EE429322BF0421EEF45296EE49
:10264A00429722BD0316BF0208EE4292EEF452935D
:10265A0022BF0408EE4296EEF4FE529722AF82BFE2
:10266A000102800FBF02028013BF03028017BF045A
:10267A0025801BE5C620E21E539DFB22E5C620E30A
:10268A0015539DF722E5C630E20C539DFB22E5C6A1
:10269A0030E303539DF722E582FF90345293FEEF15
:1026AA009034A293FDEF90347A93FF7003F582225F
:1026BA00EE600D8E82C007C005122667D005D007CE
:1026CA007E00BF0202800ABF03028009BF040C8099
:1026DA0008AE908006AEA08002AEB0ED5E600475D2
:1026EA0082012275820022E582FF90345293FEEF26
:1026FA009034A293FDEF90347A93FFEE600D8E82B0
:10270A00C007C005122667D005D007A2AFE433FE82
:10271A00C2AFBF0202800ABF03028017BF0436801D
:10272A00249001DCE07007EDF4FF52908027ED421F
:10273A009080229001DCE07007EDF4FF52A0801532
:10274A00ED42A080109001DCE07007EDF4FF52B07A
:0B275A008003ED42B0EE6002D2AF221F
:102766007804EC7011E58224F8500AF582E4C9CAAF
:10277600CBFCD8EF22EC7820058220E713D5820126
:1027860022C3E933F9EA33FAEB33FBEC33FCD8EA3C
:10279600158222AC82AD839001DEE0FEA3E0FFBE8F
:1027A600000360121F0F9001DDE08C828D831229D9
:0B27B6009FA3DEFADFF88C828D8322E7
:1027C100C0D075D00808B8000D09B900090ABA00CF
:1027D100050BBB00010CD0D032A2AFC2AFA808A933
:1027E10009AA0AAB0BAC8A8588F092AF30F5127456
:1027F100012C600D08B8000909B900050ABA0001E9
:102801000BC3EC9406FCECC313FC75F07DE8A4F853
:10281100ADF075F07DE9A42DF9E435F0FD75F07D9D
:10282100EAA42DFAE435F0FD75F07DEBA42DFB7DD6
:1028310000EC28F582E93DF583EA3DF5F0EB3D2218
:10284100A2AFC2AFA808A909AA0AAB0BAC0C92AF00
:1028510075F020E8A4A8F075F020E9A428F582A875
:10286100F075F020EAA428F583A8F075F020EBA418
:1028710028F9A8F075F020ECA42889F0228582407F
:1028810085834185F042F5431227DA8582448583A9
:102891004585F046F547E5404541454245437001D0
:1028A10022A840A941AA42AB4385444885454985B0
:1028B100464A85474BE8494A4B60DBC003C002C02A
:1028C10001C0001227DAAC82AD83AEF0FFD000D098
:1028D10001D002D003ECC39548FCED9549FDEE957E
:1028E1004AFEEF954BFFC3EC94E8ED9403EE9400A0
:1028F100EF940040A118B8FF0919B9FF051ABAFFF2
:10290100011B884089418A428B4374E82548F54878
:1029110074033549F549E4354AF54AE4354BF54B3D
:10292100854844854945854A46854B478087AE821F
:10293100AF83C374019EE49F40022200C374029ED0
:10294100FE74009FFF00BE0005BF000200220000D0
:102951000000000000000000000000000000000E68
:10296100BE00EB0FBF00ED002275A15575A1AA7441
:10297100F855B94406F5B975A10090138812292FAD
:10298100759E5D759D0074F055894402F58953C9A2
:0D299100EF758C06C28DD2A9D28CD2AF2278
:10299F0020F71130F6138883A88220F509F6A88353
:1029AF007583002280FEF280F5F022FFA8811818AF
:1029BF00122BE3D2D133E6400730E70B75820022AA
:1029CF0020E70675820122C2D1122BC5E97003F5EB
:1029DF00822220D101B3E433F58222C015858115FF
:1029EF00C082C083E5812405F581AF150FE515245D
:1029FF0003F8A607087600087640E51524FCFD7E4F
:102A0F00007F40E5152406F9A815088604E515246E
:102A1F00FCF886038CF0EBA4F709A7F0E515240664
:102A2F0004F98704A81508860374012DFAE43EFE05
:102A3F008A828E838FF0122E658BF0A4FBE515240E
:102A4F0003F8740126FDE40836FE0886078D828E92
:102A5F00838FF0122E65FDE51524FCF886078DF0A7
:102A6F00EFA42B2CF7E5152406F987060987078EA7
:0A2A7F00828F83851581D015223265
:102A8A00E5829034CA93FFBFFF0475820022759ACB
:102A9A000974FC5580FE74035F4EF580D28420844D
:102AAA00FD859F8222AF829001DB7401F08F82C084
:102ABA00071225EAD0079001E1E0FDA3E0FE4D7080
:102ACA000A9001DCE4F08F820226F18D038E0474F1
:102ADA00FF2C500B9001DC7401F08F820226F1EF7B
:102AEA0090345293FA24FB4034EA2A902AF97380EC
:102AFA002C8006800D8014801B53C6FB439D048DD9
:102B0A009C2253C6F7439D088D9B2243C604439DCE
:102B1A00048D9C2243C608439D088D9B22C3EB94D7
:102B2A0080EC9400500A9001DCE4F08F820226F1D6
:0B2B3A009001DC7401F08F820226F194
:012B4600325C
:102B48001225BC7900E583B58202800D5003122C52
:102B5800FDE583C39582123231E5D0C465D020E10A
:102B680017EA2DFAEB3EFBEC3FFC500974011232D8
:102B780031EC4480FC022CAEC3EA9DFAEB9EFBECE0
:102B88009FFC500FC3E499F9E49AFAE49BFBE49C98
:102B9800FCB2D1122766022CAEABF0A2AFE433FE32
:102BA800C2AFE0A37A0833D2914002C2917905D925
:102BB800FEC291DAF1DBEBEE6002D2AF227901AA14
:102BC80082E68F82B5821318E6B5F00E18E6B58353
:102BD8000918E68A82B58202790022B4800FE5F0EE
:102BE800700AE5837006E58270027F00EFB68015F3
:102BF80018B6001018B6000B18B6000608080876B4
:102C0800002208080822ABF0A2AFE433FEC2AFE00E
:102C1800A37A0833D2944002C2947905D9FEC294AB
:102C2800DAF1DBEBEE6002D2AF22ABF0A2AFE43315
:102C3800FEC2AFE0A37A0833D2B34002C2B379052B
:102C4800D9FEC2B3DAF1DBEBEE6002D2AF22123268
:102C580074700AE582458345F0700122E430D11290
:102C6800F4700BE5F0F47006E58330E701229080FC
:102C78000022700AE5F07006E58320E70122907FC4
:102C8800FF22AC83AB827A007900748E02305FE455
:102C9800AC83AB82FAF9748E0231997F8E1232E7D7
:062CA800F58385F0822295
:102CAE00B98003EA13B34010EA2401FAE43BFBE4D3
:102CBE003CFC50047C800582BC000EBB000BBA00AD
:102CCE0008E4F5F0F583F58222A2D1E582138CF0AB
:102CDE0092F78B838A8222E4F583F58275F080F475
:102CEE00A2D11322E4F583F58275F0C0747F22E53C
:102CFE0082C583F582A2D133A2D592D11392D5EC9F
:102D0E00CFFCEBCEFBEACDFA2222AF82BF020050FF
:102D1E003EEF75F002A42483FD740235F0FE90019F
:102D2E00E3E0FBA3E0FC8D828E83EBF0ECA3F0BF1F
:102D3E0000028005BF0118800B9001E5E024FF9290
:102D4E0088D2A8229001E5E0FF24FF928AD2AA221F
:102D5E00AF82BF02005028BF00028005BF0108806D
:102D6E0004C2A88002C2AAEF75F002A42483FE74E6
:102D7E000235F0FF8E828F837417F0742DA3F0222C
:102D8F001225BC30D502B2D1BF0009BC0003022C02
:102D9F00F2022CE5BC0003022CCFE583B4FF0BE558
:102DAF0082B4FF03022CF2022CCFE582B4FF0302A0
:102DBF002CE5C395835007247F400B022CCF248032
:102DCF00145003022CE5F582C3ED9AEE9BEF9C4065
:102DDF00111582C3EA33F9EB33FAEC33FBE433FC1E
:102DEF008005E4CCCBCAF9C08275F019C3E99DEA1E
:102DFF009EEB9FEC9400D5F002802D400EE99DF9DB
:102E0F00EA9EFAEB9FFBEC9400FCC3B3E833F8E5C2
:102E1F008233F582E58333F583C3E933F9EA33FA75
:102E2F00EB33FBEC33FC80C4B3E4F938FAE43582BE
:102E3F00FBE43583FCD082500405827C8012276628
:032E4F00022CC68C
:102E5200E4AC82FBFAF974860231997F861232E77A
:102E6200F5822220F71430F6148883A88220F50711
:102E7200E6A88375830022E280F7E49322E022C071
:102E820015858115C082C083C0F0C0E0E5812408A9
:102E9200F581E5152409F92402F8AF150F8F06C054
:102EA20000A8068606E51524FAFDFC0C0CA804868B
:102EB20004D0008EF0ECA4FEABF0A60608A6038FA9
:102EC200068E0086068D048C0086048EF0ECA4FE2D
:102ED200ABF0A70609A703E51524092403F9870621
:102EE2008F0474032CF886048D038B0086038CF008
:102EF200EBA42EFEF78F0474022CF886048D03EBEC
:102F020004F886038CF0EBA42EF7E51524092402BD
:102F1200F98704098706198F0374022BF886038D3B
:102F2200028A0086028BF0EAA4ABF02CFCEB3EFE98
:102F3200A70409A706198F03EB04F886038D02EA9A
:102F420004F886028BF0EAA4ABF02CFCEB3EFEA761
:102F52000409A7068F0674032EF98F06EE04F8867D
:102F6200068D0474022CF886048EF0ECA4F78F060A
:102F7200EE04F98F06EE04F886068D048C008604B2
:102F82008EF0ECA4FEABF0A70609A7038D0674032E
:102F92002EF98F068E0086068D0474032CF88604A3
:102FA2008EF0ECA4F78D06EE04F98F068E008606ED
:102FB2008D04EC04F886048EF0ECA4FEABF0A706B8
:102FC20009A7038D0177008F017700E5152409F920
:102FD200E5152405F8E7F609E708F609E708F60912
:102FE200E708F6191919A815088602088603088643
:102FF20006088607E5152405F8EA26F6EB0836F6F4
:10300200EE0836F6EF0836F6E5152405F8E6F70978
:1030120008E6F70908E6F70908E6F7191919E709B2
:10302200E709E709E7E51524FAF8860408860508A2
:103032008606088607E5152405F8EC26FCED083619
:10304200FDEE0836FEEF08368C828D838EF08515F4
:1030520081D01522FCABF0AA83A982749EF582C2AC
:10306200D1EC30E716D2D1E9F42401F9EAF43400C4
:10307200FAEBF43400FBECF43400FC122766022C69
:01308200AE9F
:10308300900287E0FF7E000FBF00010E7410C0E0C6
:10309300E4C0E08F828E8312330CAE8215811581DA
:1030A300900288E0FFEEB5070122900287E024E654
:1030B300F582E43401F583E599F0900287EEF0227E
:1030C30030044A900289E0FF90028AE0FEEFB506E1
:1030D30005A204C2042290028AE024F6F582E434B5
:1030E30001F583E0F59990028AE0FF7E000FBF00AF
:1030F300010E7410C0E0E4C0E08F828E8312330CA3
:0E310300AE82AF831581158190028AEEF02214
:10311100C015858115AE82AF837D007C00E5152445
:10312100FCF808E6235401FB702FE51524FCF8E6B2
:1031310026F608E633F6E51524FCF8C3EE96EF080B
:10314100965011E51524FCF808E618C313C613C6FA
:1031510008F680050C8C0580C4E51524FCF8C3EE47
:1031610096EF0896400DE51524FCF8EEC396FEEFA8
:103171000896FFE51524FCF808E618C313C613C624
:1031810008F68D041DEC70D18E828F83D01522FC40
:10319100ABF0AA83A982749EC2D1F582122766027E
:0231A1002CAE52
:1031A30090028BE0FF7E000FBF00010E7410C0E0A1
:1031B300E4C0E08F828E8312330CAE8215811581B9
:1031C30090028CE0FFEEB507012290028BE024060B
:1031D300F582E43402F583E5C1F090028BEEF02230
:1031E30030054A90028DE0FF90028EE0FEEFB506B7
:1031F30005A205C2052290028EE02416F582E4346E
:1032030002F583E0F5C190028EE0FF7E000FBF0060
:10321300010E7410C0E0E4C0E08F828E8312330C81
:0E322300AE82AF831581158190028EEEF022EF
:103231006040F82582500274FFF582E824F8501EA0
:10324100CCCBCAF9E4CC24F85014CBCAF9E4CB2492
:10325100F8500BCAF9E4CA24F85003790022240873
:103261006010F8C3EC13FCEB13FBEA13FAE913F952
:10327100D8F1221232D3C3749E958240397900125B
:10328100323130D126E9F42401F582EAF43400F533
:1032910083EBF43400F5F0ECF43400700AE5824578
:1032A1008345F0700122E430E70F22EC20E7148916
:1032B100828A838BF02230D10AE4F582F583F5F01E
:1032C10074802274FFF582F583F5F0747F22758294
:1032D1000022AA82AB83A2F73392D1F5826002D297
:1032E100F7ACF0227F9E1232D330D103022CCFC330
:1032F100EF9582500974FFF5F0F583F5822279008C
:1033010012323189828A838BF0EC22C015858115B6
:10331100AE82E583FF33E433FD6009C3E49EFBE441
:103321009FFC80048E038F04E51524FCF808E63029
:10333100E70FE51524FCF8C3E496FE08E496FF8048
:103341000AE51524FCF88606088607C005C006C0F4
:10335100078B828C83123111AE82AF831581158167
:10336100D005ED600DC3E49EFCE49FFD8C828D834E
:0933710080048E828F83D01522A6
:10337A0012011001EF020108091250C501010102F0
:10338A000301090246000201008064080B000202E0
:10339A0002010409040000010202010405240010CC
:1033AA00010424020205240600010705810308001E
:1033BA004009040100020A00000407050202400055
:1033CA000007058202400000040309041C034100AF
:1033DA006D00620069006E006F0020004600610007
:1033EA006E00480075006200160343004400430063
:1033FA002000530065007200690061006C000E0332
:0C340A0041006D00620069006E006F0060
:1034160061626E6469727370646873644164614169
:103426006D62696E6F2046616E487562312E312E6F
:1034360030414652336700000100020003000400D9
:0C3446000500060007000800210022001D
:103452000000000000000000000000000000000169
:103462000000000000000000000000000000030453
:103472000000020000000000010101010101010140
:10348200000002020202020202020000030303031E
:1034920003030303000004040404040404040000FE
:1034A20001020408102040800000010204081020DC
:1034B2004080000001020408102040800000010248
:1034C2000408102040800000FFFFFFFFFFFFFFFF06
:1034D200FFFFFF00FFFF0102FFFFFFFFFFFFFFFFF4
:1034E200FFFFFFFFFFFFFFFF03FFFFFFFFFFFFFFE6
:0B34F20000E1000000000800000000E6
:1034FD00AD2511100F0000000000010001000001BA
:10350D000101000001000101010001010105060397
:10351D0004010207000000010000000000CC0001C2
:10352D00FB940BFFFF0101CC0003C0C60000FE762B
:10353D002CA7FE98BF7F1E001F000000000000009A
:02354D0000007C
:04354F00172D172DF0
:043553000000000074
:043557000000000070
:00000001FF
