:0600000002006B02187DF6
:03000B00021B2AAB
:030013000218D000
:01001B0032B2
:030023000217E5DC
:03002B00021DE1D2
:01003300329A
:03003B0002192384
:030043000217A6FB
:01004B003282
:030053000218315F
:01005B003272
:03006300021D2358
:0300660002197705
:02006900E4733E
:0D006B0075812D1221D4E58260030200662C
:100078007937E94400601B7A0190242B78FA75A03F
:1000880001E493F2A308B8000205A0D9F4DAF275E6
:02009800A0FFC7
:06009A00E478FFF6D8FD3A
:1000A0007800E84400600A799475A000E4F309D868
:1000B000FC7866E84401600C7902900094E4F0A3B7
:0400C000D8FCD9FA95
:0200C400C20078
:0E00C6007808E4F608F608F608F6780C7600DE
:0200D400C20464
:0200D600C20561
:0300D800020066BD
:1000DC001208D21208FC1208EB75DD0075D30075FE
:1000EC00D50022900201E4F0C200227F00C3E5DBC0
:1000FC009407920140067D077E008004ADDB7E00F4
:10010C008F037C00C3EB9DEC64808EF063F08095D4
:10011C00F05017EF24FAFDE43401FE8F8275830052
:10012C00E0FC8D828E83F00F80C3227F008F057ED2
:10013C0000C3ED9407EE940050188F057E00EF2459
:10014C00FAF582E43401F583E0FC8D828E83F00FA6
:10015C0080DB90000722900002E0FF900203F0E0A9
:10016C0020E0339001FAE0FCA3E0FDA3E0FEA3E065
:10017C00FFBCB022BD041FBE001CBF001975E200FD
:10018C00C2AF75890090C350121C9890C350121CBA
:10019C009812380080FE227E007F003000200EBEB8
:1001AC0000010F900005C007C006121C98D006D0A5
:1001BC0007C3EE9450EF94C340E175820022758220
:1001CC000122751800900203E06003751801851870
:1001DC008222200025900204E0FF601E8FD553D4AC
:1001EC00FCD200BF400F1201A3E582600875D50058
:1001FC0053D4FCD200900204E4F022AF82900203AC
:10020C00E06041C0071201A3E582D0077003F582BC
:10021C0022900204E0FEBE400050207D0074402E6F
:10022C00FEE43DFDEE2414F582ED3400F583EFF091
:10023C00900204E02401F075820122C0071201DE55
:10024C00D00780BF75820022AFF0AE83E5829000AC
:10025C0096F0EEA3F0EFA3F0900203E0700302031C
:10026C000A900094E0FEA3E0FFC3E49E74808FF03C
:10027C0063F08095F0400302030AC007C006120128
:10028C00A3E582D006D0077003F58222900096E099
:10029C00FBA3E0FCA3E0FDC3E49E74808FF063F04D
:1002AC008095F050BC900204E0FABA400050498AA4
:1002BC00017A00744029F9E43AFAE92414F9EA3491
:1002CC0000FA8B828C838DF0121EC7F8A3AB82AC24
:1002DC0083900096EBF0ECA3F0EDA3F089828A8377
:1002EC00E8F0900204E02401F01EBEFF011F900014
:1002FC0094EEF0EFA3F0809F1201DE02026D758286
:10030C000022900201E0F58222900201E07003F5D8
:10031C008222900202E02414F582E43400F583E09A
:10032C00FF900202E004F0900201E014F0E0700390
:10033C0053D4F38F822275D50074FC55D44402F546
:10034C00D4C2002230DE19900201E5DBF0900202EB
:10035C00E4F0900201E0600874F355D44408F5D43D
:01036C00226E
:10036E00AFDBBF08028003020741900007E0FE7F6B
:10037E0000900006E0FD7C004FF510EC4EF5117F6D
:10038E0000900001E0F512900000E0FE5460605312
:10039E00900000E0FE5306607D00BE2005BD000209
:1003AE00800BBE4039BD00367FFF0207437420B577
:1003BE0012030207437421B5120280077422B5128C
:1003CE0018800C120137AD82AE838D07020743C031
:1003DE0007120162D0070207437FFF0207437FFF28
:1003EE00020743E51224F4500302073DE512240BE5
:1003FE0083F582E512241083F583E4731F4D3D0DC2
:10040E003D17223D24414343070507060705040710
:10041E0005050707900003E0FEBE0102800ABE023A
:10042E0002800FBE037380147513C57514227F12DC
:10043E0080697513D77514227F46805F900002E0A5
:10044E00700875131D7514238044900002E0FEBEE3
:10045E0001087513537514238034900002E0FEBE1C
:10046E0002087513217514238024900002E0FEBE4D
:10047E0003087513007514008014900002E0FEBE90
:10048E00040875133D75142380047FFF800D8513BA
:10049E0082851483E493FF80027FFFBFFF03020770
:1004AE00438F057E00C3ED9510EE951150048D100F
:1004BE008E11AD10AE11C3ED9408EE940092024071
:1004CE00067B087C008004AB10AC118B077C00C34C
:1004DE00EC9F50198C027B00EC2513F582E4351449
:1004EE00F583E493F98A828B83F00C80E28F037C90
:1004FE0000EDC39BFDEE9CFE8D108E11EF2513F5C6
:10050E0013E43514F514020743900002E0FE8E103A
:10051E00751100020743900099E0900000F0AD10B5
:10052E00AE11C3ED9401EE940050030207437F0118
:10053E00020743900002E0FE900099F002074390FC
:10054E000000E0541F702F900003E0FD7E0090002D
:10055E0002E0FC7B004206EB4205BE0114BD001119
:10056E009022DEE493FE30E5030207437FFF02078D
:10057E00437FFF020743900000E0FE53061F7D00FD
:10058E00BE0277BD0074900004E0FEBE0102805FE3
:10059E00BE02028049BE03028033BE0402801DBE2D
:1005AE0081028040BE8202802ABE83028014BE84F5
:1005BE004474BC55DE4402F5DE02074353DE73027B
:1005CE00074374BC55D64402F5D602074353D6737F
:1005DE0002074374BC55D44402F5D402074353D4E6
:1005EE007302074374BC55D24402F5D2020743533B
:1005FE00D2730207437FFF0207437FFF0207439038
:10060E000000E0541F702F900003E0FD7E0090006C
:10061E0002E0FC7B004206EB4205BE0114BD001158
:10062E009022DEE493FE30E5030207437FFF0207CC
:10063E00437FFF020743900000E0FE53061F7D003C
:10064E00BE0205BD0002800302071B900003E0FD01
:10065E007E00900002E0FC7B004206EB4205EE4D70
:10066E006003020717900005E0FD7E00900004E095
:10067E00FC7B004206EB4205BE0106BD00030207ED
:10068E000BBE0205BD00028060BE0305BD000280E8
:10069E0044BE0405BD00028028BE8105BD00028057
:1006AE0052BE8205BD00028036BE8305BD000280AB
:1006BE001ABE8451BD004E74BF55DE4403F5DE8074
:1006CE0074747F55DE440CF5DE806A74BF55D644D3
:1006DE0003F5D68060747F55D6440CF5D6805674DB
:1006EE00BF55D44403F5D4804C747F55D4440CF5D7
:1006FE00D4804274BF55D24403F5D28038747F55EE
:10070E00D2440CF5D27FFF802C7FFF80287FFF80A4
:10071E0024900000E4F0900001F0AD10AE11C3ED96
:10072E009402EE940040047F02800AAF1080067F90
:10073E00FF80027FFFBFFF077512FF75DCCF22EF30
:10074E0024F740068FDD75DCC02275DD0075DCC038
:10075E00227405B51202805D7406B51266AE10AF36
:10076E0011C3EE9408EF9400920340067C087D00BE
:10077E008004AC10AD117D00C3ED9C50198D027B31
:10078E0000ED2513F582E43514F583E493F98A829E
:10079E008B83F00D80E28C037D00EEC39BFEEF9DFC
:1007AE00FF8E108F11EC2513F513E43514F5148C10
:1007BE00DD63DC4022E5E35480FFE5104FF5E37581
:1007CE00DC022275DD0075DC02227420B5120D30BC
:1007DE00DE101200F775DD0085DCDC2275DD0043CE
:1007EE00DC022275D30074FC55D24402F5D22220CD
:1007FE00D9030208A8E5D9540FFFADD95305307EB1
:10080E0000BD0005BE0002801CBD1005BE000280AA
:10081E0036BD2005BE00028043BD3006BE00030279
:10082E00088E0208A6EF24FB50030208A6EF2F90B5
:10083E00084173800880618009805D805B1207D853
:10084E0080561203508051EF24FB404CEF2F90083E
:10085E006073804480428040803E803CEF24FB40A9
:10086E0037EF2F900875738008800B800E802980DB
:10087E002712075F80221207F1801D120342801893
:10088E00EF24FB4013EF2F900899738008800980A6
:10089E00078005800312036EC2D930D81A75DC02A8
:1008AE0075D21275D41275E300C2DAC2D9C2D890CD
:1008BE000099E4F01200EF10DA0122E5DA20E203EB
:1008CE0075D8FF2275E20053E27F43E22975E300FB
:1008DE0053E2BF53D1FB75D18043D1012243E104D2
:1008EE0043E10243E10143D81FD2EAD2AF227E0098
:1008FE007F008EEC8FED7E0A7F008EEE8FEF7E14E2
:10090E007F008EE48FE575EB0C75D21275D41275DF
:10091E00EA4075DC0222758200121796AF82BF0F75
:10092E00028015BF0C02801090020CE09001AEF018
:10093E00758200121760800590020CEFF07582012F
:10094E00121796AF82BF0F028015BF0C0280109057
:10095E00020BE09001AEF0758201121760800590D7
:10096E00020BEFF0758206121796AF82BF1400507D
:10097E000E90020DE09001AEF075820602176090A7
:10098E00020DEFF0229001AFE4F075822412198669
:10099E009001AFE4F0758225121986900BB8E4F53C
:1009AE00F0121BE71200DC759E049001AF7401F08B
:1009BE0075821F1219869001AF7401F075821E1296
:1009CE0019869001AF7401F075820E12198690018E
:1009DE00AF7401F075820F1219869001AF7401F099
:1009EE007582211219869001AF7401F07582101272
:1009FE0019869001AF7401F075820B121986900161
:100A0E00AF7401F0758211121986121BAAAC82AD59
:100A1E0083AEF0FF9001A4ECF0EDA3F0EEA3F0EFA7
:100A2E00A3F09001A0ECF0EDA3F0EEA3F0EFA3F095
:100A3E001201DE900064E4F5F0121BE71209249017
:100A4E000212E0FEA3E09001B57480F0E4A3F08EF4
:100A5E0082121D4A900214E0FEA3E0900216E0906E
:100A6E0001B5F0E4A3F08E82021D4A121BAAAC82DD
:100A7E00AD83AEF0FF90019CECF0EDA3F0EEA3F091
:100A8E00EFA3F012030EE582604D120315E582907E
:100A9E00019BF090019CE0FCA3E0FDA3E0FEA3E02F
:100AAE00FF9001A4ECF0EDA3F0EEA3F0EFA3F09015
:100ABE0001A0ECF0EDA3F0EEA3F0EFA3F09002088E
:100ACE00E0FF600ABF01028008BF020E8006020C22
:100ADE00F202129F0210480215FA22E5829001A836
:100AEE00F0E0FF24F8500122EF240A83F582EF2470
:100AFE000C83F583E47314477BAFE4184D820B0B24
:100B0E000B0B0B0C0C0C900217E0FEA3E09001B047
:100B1E00E4F08E82121A8D900219E0FEA3E090018D
:100B2E00B0E4F08E82121A8D90021BE0FEA3E090CC
:100B3E0001B0E4F08E82021A8D900217E0FEA3E05F
:100B4E009001B07401F08E82121A8D900219E0FE9F
:100B5E00A3E09001B0E4F08E82121A8D90021BE099
:100B6E00FEA3E09001B0E4F08E82021A8D9002177F
:100B7E00E0FEA3E09001B0E4F08E82121A8D900296
:100B8E0019E0FEA3E09001B07401F08E82121A8D6E
:100B9E0090021BE0FEA3E09001B0E4F08E82021AF8
:100BAE008D900217E0FEA3E09001B07401F08E82EA
:100BBE00121A8D900219E0FEA3E09001B07401F0BC
:100BCE008E82121A8D90021BE0FEA3E09001B0E41B
:100BDE00F08E82021A8D900217E0FEA3E09001B013
:100BEE00E4F08E82121A8D900219E0FEA3E09001BD
:100BFE00B0E4F08E82121A8D90021BE0FEA3E090FC
:100C0E0001B07401F08E82021A8D900217E0FEA3DD
:100C1E00E09001B07401F08E82121A8D900219E0EC
:100C2E00FEA3E09001B0E4F08E82121A8D90021BAA
:100C3E00E0FEA3E09001B07401F08E82021A8D9056
:100C4E000217E0FEA3E09001B0E4F08E82121A8D3E
:100C5E00900219E0FEA3E09001B07401F08E8212B2
:100C6E001A8D90021BE0FEA3E09001B07401F08E8D
:100C7E0082021A8D900217E0FEA3E09001B074017B
:100C8E00F08E82121A8D900219E0FEA3E09001B050
:100C9E007401F08E82121A8D90021BE0FEA3E0907A
:100CAE0001B07401F08E82021A8D900212E0FEA342
:100CBE00E090018AE0FF7D0074FFC39FFFE49DFD7D
:100CCE009001B5EFF0EDA3F08E82121D4A90021442
:100CDE00E0FEA3E090018AE09001B5F0E4A3F08E6F
:100CEE0082021D4A9001A9E0FFBF03004003020EDD
:100CFE007CEF90236193FE90019BE0FDB5060FBF44
:100D0E000205900209E4F09001A9EF04F022EF90A1
:100D1E00236D93FEEDB50610BF0206900209740115
:100D2E00F09001A9EF04F022EF90236493FEEDB54D
:100D3E0006028003020E50BF02028003020E4875A7
:100D4E00820F12020775820C12020775825D120263
:100D5E0007758206120207903FFCE493F582120299
:100D6E0007903FFDE493F582120207903FFEE49355
:100D7E00F582120207903FFFE493F582120207906C
:100D8E003FFAE493F582120207903FFBE493F5825B
:100D9E0012020775820D1202077C007E00C3EC94CE
:100DAE000DEE648094805020EC2470F582EE342396
:100DBE00F583E493F582C006C004120207D004D076
:100DCE00060CBC00D80E80D57582051202077C0079
:100DDE007E00C3EC9405EE648094805020EC247D5C
:100DEE00F582EE3423F583E493F582C006C0041237
:100DFE000207D004D0060CBC00D80E80D575820533
:100E0E001202077C007E00C3EC9405EE6480948091
:100E1E005020EC2482F582EE3423F583E493F582A0
:100E2E00C006C004120207D004D0060CBC00D80EB7
:100E3E0080D59001A9E4F01201DE9001A9E0240111
:100E4E00F022EF90236A93FEEDB5061CBF021190BF
:100E5E0002087402F0900195E4F0A3F09001A9F05D
:100E6E009001A9E02401F0229001A9E4F022EFFE06
:100E7E0024F7500122EE240A83F582EE240D83F529
:100E8E0083E473474747A3B2C1D0DF1F1010100E83
:100E9E000E0E0E0E0F90019BE09001AAF09001A98C
:100EAE00EF04F02290019BE09001ABF09001A9EFCE
:100EBE0004F02290019BE09001ACF09001A9EF04A8
:100ECE00F02290019BE09001ADF09001A9EF04F0AB
:100EDE00227E007F00C3EE940AEF64809480502936
:100EEE0090018AE0FD90019BE0FCEDB504028012BA
:100EFE0090020A7401F0EE248AF582EF3401F58334
:100F0E00ECF00EBE00CF0F80CC9001A9E02401F0D2
:100F1E0022900209E0FF6007BF0103020FBE22907C
:100F2E0001ABE0FF9001AAE0FEEF6E6455FD90016B
:100F3E00ACE0B505757D007C008C038D048E057EBE
:100F4E00008F00E4F9FAFFE82EFEE93DFDEA3CFCD5
:100F5E00EF3BFBC006C005C004C003900003E4F5E0
:100F6E00F0121EE3AC82AD83AEF0FFE58124FCF5FA
:100F7E0081900197ECF0EDA3F0EEA3F0EFA3F090CB
:100F8E000195E4F0A3F09001B1F09001B274F0F08D
:100F9E00E4A3F090009A75F000121B029001ADE0F0
:100FAE00900194F09002087401F09001A9E4F022EF
:100FBE009001ABE0FF9001AAE0FEEF6E6455FD904C
:100FCE0001ACE0FCB5056D7D007C008C038D048EBC
:100FDE00057E008F00E4F9FAFFE82EFEE93DFDEAFA
:100FEE003CFCEF3BFBC006C005C004C003900003F1
:100FFE00E4F5F0121EE3AC82AD83AEF0FFE5812482
:10100E00FCF581900197ECF0EDA3F0EEA3F0EFA3C9
:10101E00F0900195E4F0A3F09001B1F09001B2745C
:10102E00F0F0E4A3F090009A75F000121B0290020B
:10103E00087401F09001A9E4F022900195E0FEA35E
:10104E00E0FFC3740C9EE49F50030211DDEE240AF0
:10105E0083F582EE241183F583E47383ACC8DEF44A
:10106E000A2044627F97AFC7101010101011111193
:10107E00111111111190019BE0FFBFFF08900207A3
:10108E00E4F00211DD9002077401F090020CEFF013
:10109E009001AEEFF07582001217600211DD900222
:1010AE0007E0FFBF011490019BE0FF90020BF09050
:1010BE0001AEEFF0758201121760900207E0FFBFDC
:1010CE00010E90019BE09001AEF075820212176046
:1010DE00900207E0FFBF010E90019BE09001AEF081
:1010EE00758203121760900207E0FFBF010E900198
:1010FE009BE09001AEF0758204121760900207E03B
:10110E00FFBF010E90019BE09001AEF075820512BB
:10111E001760900207E0FFBF010280030211DD900D
:10112E00019BE0FF90020DF09001AEEFF07582068C
:10113E001217600211DD900207E0FFBF010280036B
:10114E000211DD90019BE09001AEF075820712173F
:10115E00600211DD900207E0FFBF01028003021161
:10116E00DD90019BE09001AEF07582081217608051
:10117E005E900207E0FFBF015690019BE09001AE2A
:10118E00F07582091217608046900207E0FFBF01DA
:10119E003E90019BE09001AEF075820A12176080BE
:1011AE002E900207E0FFBF012690019BE09001AE5A
:1011BE00F075820B1217608016900207E0FFBF01D8
:1011CE000E90019BE09001AEF075820C12176090AC
:1011DE000195E0FEA3E0FF8E048F05C3EC940DEDA8
:1011EE009400500B90019574012EF0E43FA3F09003
:1011FE000195E0FEA3E0FFBE0D05BF0002800302D5
:10120E00129C900208E4F075820F12020775820C90
:10121E0012020775825D120207758200121796126E
:10122E0002077582011217961202077582021217B3
:10123E009612020775820312179612020775820420
:10124E00121796120207758205121796120207756B
:10125E00820612179612020775820712179612024D
:10126E0007758208121796120207758209121796D1
:10127E0012020775820A12179612020775820B1256
:10128E00179612020775820C1217961202070201A8
:10129E00DE900195E0FEA3E0FFC3EE94F0EF940024
:1012AE00502490020EE0FCA3E0FDEE2CFEEF3DFF7D
:1012BE0090019BE0FD8E828F83F0900195E02401DA
:1012CE00F0A3E03400F0900197E024FFFCA3E0349B
:1012DE00FFFDA3E034FFFEA3E034FFFF900197EC87
:1012EE00F0EDA3F0EEA3F0EFA3F0900197E0F5F090
:1012FE00A3E042F0A3E042F0A3E045F060012290AB
:10130E000208E4F0900194E0FF24F650030215E980
:10131E00EF240A83F582EF240E83F583E47340876E
:10132E00CE155CA3EA3177B11313131414141415EC
:10133E001515758205120AE9900064121C987E9AA2
:10134E007F00900195E0FCA3E0FD0CBC00010D7D3B
:10135E00008D028C037C007D008E008F01E4FEFF69
:10136E00E84204E94205EE4203EF42028C828D838D
:10137E008BF0EA121E070215E9758206120AE99031
:10138E000064121C987E9A7F00900195E0FCA3E009
:10139E00FD0CBC00010D7D008D028C037C007D00D8
:1013AE008E008F01E4FEFFE84204E94205EE42039F
:1013BE00EF42028C828D838BF0EA121E070215E932
:1013CE00758203120AE9900064121C987E9A7F00BF
:1013DE00900195E0FCA3E0FD0CBC00010D7D008D9D
:1013EE00028C037C007D008E008F01E4FEFFE8423C
:1013FE0004E94205EE4203EF42028C828D838BF0AC
:10140E00EA121E070215E9758204120AE9900064B9
:10141E00121C987E9A7F00900195E0FCA3E0FD0CD3
:10142E00BC00010D7D008D028C037C007D008E00C2
:10143E008F01E4FEFFE84204E94205EE4203EF426B
:10144E00028C828D838BF0EA121E070215E97582DB
:10145E0001120AE9900064121C987E9A7F00900196
:10146E0095E0FCA3E0FD0CBC00010D7D008D028C0F
:10147E00037C007D008E008F01E4FEFFE84204E94C
:10148E004205EE4203EF42028C828D838BF0EA120C
:10149E001E070215E9758202120AE9900064121CF9
:1014AE00987E9A7F00900195E0FCA3E0FD0CBC00B5
:1014BE00010D7D008D028C037C007D008E008F015E
:1014CE00E4FEFFE84204E94205EE4203EF42028CDD
:1014DE00828D838BF0EA121E070215E975820712C0
:1014EE000AE9900064121C987E9A7F00900195E0A4
:1014FE00FCA3E0FD0CBC00010D7D008D028C037C75
:10150E00007D008E008F01E4FEFFE84204E94205F3
:10151E00EE4203EF42028C828D838BF0EA121E079D
:10152E000215E9758200120AE9900064121C987E79
:10153E009A7F00900195E0FCA3E0FD0CBC00010D2C
:10154E007D008D028C037C007D008E008F01E4FEF9
:10155E00FFE84204E94205EE4203EF42028C828D1F
:10156E00838BF0EA121E0780727E9A7F009001959F
:10157E00E0FCA3E0FD0CBC00010D7D008D028C0390
:10158E007C007D008E008F01E4FEFFE84204E942FC
:10159E0005EE4203EF42028C828D838BF0EA121E1F
:1015AE002B80387E9A7F00900195E0FCA3E0FD0C25
:1015BE00BC00010D7D008D028C037C007D008E0031
:1015CE008F01E4FEFFE84204E94205EE4203EF42DA
:1015DE00028C828D838BF0EA121DE390020AE0608A
:1015EE0008120CB890020AE4F00201DE9001A4E0A9
:1015FE00FCA3E0FDA3E0FEA3E0FF90019CE0F8A3B6
:10160E00E0F9A3E0FAA3E0FBE8C39CFCE99DFDEA48
:10161E009EFEEB9FFFC3EC94E8ED9403EE9400EF77
:10162E009400500122900209E0FF6005BF01708016
:10163E004D1201DE90021DE0F5F0A3E045F070358D
:10164E0090021D7401F0E4A3F07E007F00C3EE94BF
:10165E000AEF648094805018EE248AFCEF3401FD6A
:10166E0090020DE08C828D83F00EBE00E00F80DDC7
:10167E00120CB8802A90021DE4F0A3F08021120112
:10168E00DE90021DE0F5F0A3E045F0700B90021D18
:10169E007401F0E4A3F0800790021DE4F0A3F09033
:1016AE00019CE0FCA3E0FDA3E0FEA3E0FF9001A4FB
:1016BE00ECF0EDA3F0EEA3F0EFA3F0900210E0F546
:1016CE0015A3E0F516900210E0F5F0A3E045F070DA
:1016DE0001229001A0E0F8A3E0F9A3E0FAA3E0FB59
:1016EE00ECC398F8ED99F9EE9AFAEF9BFBC004C0A3
:1016FE0005C006C007AC15AD167E007F00C003C046
:10170E0002C001C000C004C005C006C0079003E8B7
:10171E00E4F5F0121EE3AC82AD83AEF0FFE581245A
:10172E00FCF581D000D001D002D003C3E89CE99D26
:10173E00EA9EEB9FD007D006D005D004401390024E
:10174E0008E4F09001A0ECF0EDA3F0EEA3F0EFA30F
:02175E00F02277
:10176000AF82BF800040012275A15575A1AA43B187
:101770000475A1007585C0EF2FF5849001AEE0F5EA
:101780008EE58630E60375869A75A15575A1AA5334
:10179000B1FB75A10022AF827585C0EF2FF584756E
:0617A000868E858E822278
:1017A600C021C0E0C0F0C082C083C007C006C0052B
:1017B600C004C003C002C001C000C0D075D0001272
:1017C60007FDD0D0D000D001D002D003D004D00580
:1017D600D006D007D083D082D0F0D0E0D02132C05E
:1017E60021C0E0C0F0C082C083C007C006C005C0EB
:1017F60004C003C002C001C000C0D075D00030983C
:10180600051220B8C2983099051220F8C299D0D096
:10181600D000D001D002D003D004D005D006D00726
:10182600D083D082D0F0D0E0D02132C021C0E0C039
:10183600F0C082C083C007C006C005C004C003C094
:1018460002C001C000C0D075D00030C005122146CC
:10185600C2C030C105122186C2C1D0D0D000D0018D
:10186600D002D003D004D005D006D007D083D082D2
:10187600D0F0D0E0D02132C021C0E0C0F0C082C09C
:1018860083C007C006C005C004C003C002C001C0B3
:1018960000C0D075D000900225E0FEA3E0FFC0078F
:1018A600C0068E828F83120069D006D007D0D0D0B2
:1018B60000D001D002D003D004D005D006D007D086
:1018C60083D082D0F0D0E0D02132C021C0E0C0F079
:1018D600C082C083C007C006C005C004C003C002E2
:1018E600C001C000C0D075D000900227E0FEA3E082
:1018F600FFC007C0068E828F83120069D006D0070C
:10190600D0D0D000D001D002D003D004D005D0066C
:10191600D007D083D082D0F0D0E0D02132C021C011
:10192600E0C0F0C082C083C007C006C005C004C0C6
:1019360003C002C001C000C0D075D000900223E0F1
:10194600FEA3E04E600E900223E0F8A3E0F5838844
:1019560082120069D0D0D000D001D002D003D004CA
:10196600D005D006D007D083D082D0F0D0E0D021E9
:1019760032121CD3120993120A7980FB7582002257
:10198600E582FF9023DB93FEEF9023B393FF700174
:10199600229001AFE0FD701BBF0209EEF4FC5292EB
:1019A600EC529322BF0402800122EEF4FC5296EC24
:1019B600529722BD0214BF0207EE4292EE429322D4
:1019C600BF0439EE4296EE429722BD0116BF0208C9
:1019D600EEF45292EE429322BF0421EEF45296EEBA
:1019E600429722BD0316BF0208EE4292EEF45293CE
:1019F60022BF0408EE4296EEF4FE529722AF82BF53
:101A06000102800FBF02028013BF03028017BF04CA
:101A160025801BE5C620E21E539DFB22E5C620E37A
:101A260015539DF722E5C630E20C539DFB22E5C611
:101A360030E303539DF722E582FF90238B93FEEF5D
:101A46009023DB93FDEF9023B393FF7003F582227F
:101A5600EE600D8E82C007C005121A03D005D007AE
:101A66007E00BF0202800ABF03028009BF040C8009
:101A760008AE908006AEA08002AEB0ED5E60047542
:101A860082012275820022E582FF90238B93FEEF6E
:101A96009023DB93FDEF9023B393FFEE600D8E82D0
:101AA600C007C005121A03D005D007A2AFE433FE63
:101AB600C2AFBF0202800ABF03028017BF0436808E
:101AC600249001B0E07007EDF4FF52908027ED42BC
:101AD6009080229001B0E07007EDF4FF52A08015CF
:101AE600ED42A080109001B0E07007EDF4FF52B017
:0B1AF6008003ED42B0EE6002D2AF2290
:101B0200AC82AD839001B2E0FEA3E0FFBE000360B1
:101B1200121F0F9001B1E08C828D83121D08A3DE8B
:081B2200FADFF88C828D8322AA
:101B2A00C0D075D00808B8000D09B900090ABA0072
:101B3A00050BBB00010CD0D032A2AFC2AFA808A9D6
:101B4A0009AA0AAB0BAC8A8588F092AF30F51274F9
:101B5A00012C600D08B8000909B900050ABA00018C
:101B6A000BC3EC9406FCECC313FC75F07DE8A4F8F7
:101B7A00ADF075F07DE9A42DF9E435F0FD75F07D41
:101B8A00EAA42DFAE435F0FD75F07DEBA42DFB7D7A
:101B9A0000EC28F582E93DF583EA3DF5F0EB3D22BC
:101BAA00A2AFC2AFA808A909AA0AAB0BAC0C92AFA4
:101BBA0075F020E8A4A8F075F020E9A428F582A819
:101BCA00F075F020EAA428F583A8F075F020EBA4BC
:101BDA0028F9A8F075F020ECA42889F02285822241
:101BEA0085832385F024F525121B43858226858368
:101BFA002785F028F529E522452345244525700146
:101C0A0022A822A923AA24AB2585262A85272B8543
:101C1A00282C85292DE8494A4B60DBC003C002C045
:101C2A0001C000121B43AC82AD83AEF0FFD000D0DE
:101C3A0001D002D003ECC3952AFCED952BFDEE955D
:101C4A002CFEEF952DFFC3EC94E8ED9403EE94007F
:101C5A00EF940040A118B8FF0919B9FF051ABAFF95
:101C6A00011B882289238A248B2574E8252AF52AD0
:101C7A007403352BF52BE4352CF52CE4352DF52D95
:101C8A00852A26852B27852C28852D298087AE82B3
:101C9A00AF83C374019EE49F40022200C374029E74
:101CAA00FE74009FFF00BE0005BF00020022000074
:101CBA000000000000000000000000000000000E0C
:101CCA00BE00EB0FBF00ED002275A15575A1AA74E5
:101CDA00F855B94406F5B975A100901388121C98F5
:101CEA00759E5D759D0074F055894402F58953C946
:0D1CFA00EF758C06C28DD2A9D28CD2AF221C
:101D080020F71130F6138883A88220F509F6A883F6
:0C1D18007583002280FEF280F5F022327C
:101D2500E58290240393FFBFFF0475820022759A14
:101D35000974FC5580FE74035F4EF580D2842084BF
:101D4500FD859F8222AF829001AF7401F08F82C022
:101D550007121986D0079001B5E0FDA3E0FE4D708E
:101D65000A9001B0E4F08F82021A8D8D038E0474FF
:101D7500FF2C500B9001B07401F08F82021A8DEF89
:101D850090238B93FA24FB4034EA2A901D947380A8
:101D95002C8006800D8014801B53C6FB439D048D4B
:101DA5009C2253C6F7439D088D9B2243C604439D41
:101DB500048D9C2243C608439D088D9B22C3EB944A
:101DC50080EC9400500A9001B0E4F08F82021A8DE5
:0B1DD5009001B07401F08F82021A8DA3
:011DE10032CF
:101DE300ABF0A2AFE433FEC2AFE0A37A0833D291E3
:101DF3004002C2917905D9FEC291DAF1DBEBEE60C4
:101E030002D2AF22ABF0A2AFE433FEC2AFE0A37ABB
:101E13000833D2944002C2947905D9FEC294DAF110
:101E2300DBEBEE6002D2AF22ABF0A2AFE433FEC233
:101E3300AFE0A37A0833D2B34002C2B37905D9FE27
:0C1E4300C2B3DAF1DBEBEE6002D2AF229A
:101E4F0022AF82BF0200503EEF75F002A42425FDA1
:101E5F00740235F0FE9001B7E0FBA3E0FC8D828E9B
:101E6F0083EBF0ECA3F0BF00028005BF0118800BDD
:101E7F009001B9E024FF9288D2A8229001B9E0FF27
:101E8F0024FF928AD2AA22AF82BF02005028BF003D
:101E9F00028005BF01088004C2A88002C2AAEF75A4
:101EAF00F002A42425FE740235F0FF8E828F837416
:071EBF004FF0741EA3F02296
:101EC70020F71430F6148883A88220F507E6A88344
:101ED70075830022E280F7E49322E022C017858110
:101EE70017C082C083C0F0C0E0E5812408F581E512
:101EF700172409F92402F8AF170F8F06C000A806A8
:101F07008606E51724FAFDFC0C0CA8048604D0000D
:101F17008EF0ECA4FEABF0A60608A6038F068E0093
:101F270086068D048C0086048EF0ECA4FEABF0A729
:101F37000609A703E51724092403F987068F047404
:101F4700032CF886048D038B0086038CF0EBA42EFC
:101F5700FEF78F0474022CF886048D03EB04F886D1
:101F6700038CF0EBA42EF7E51724092402F9870464
:101F7700098706198F0374022BF886038D028A00DE
:101F870086028BF0EAA4ABF02CFCEB3EFEA704091B
:101F9700A706198F03EB04F886038D02EA04F88677
:101FA700028BF0EAA4ABF02CFCEB3EFEA70409A7DA
:101FB700068F0674032EF98F06EE04F886068D0445
:101FC70074022CF886048EF0ECA4F78F06EE04F961
:101FD7008F06EE04F886068D048C0086048EF0ECDE
:101FE700A4FEABF0A70609A7038D0674032EF98F8D
:101FF700068E0086068D0474032CF886048EF0EC9A
:10200700A4F78D06EE04F98F068E0086068D04EC84
:1020170004F886048EF0ECA4FEABF0A70609A7032C
:102027008D0177008F017700E5172409F9E517245B
:1020370005F8E7F609E708F609E708F609E708F6F5
:10204700191919A81708860208860308860608863C
:1020570007E5172405F8EA26F6EB0836F6EE083604
:10206700F6EF0836F6E5172405F8E6F70908E6F768
:102077000908E6F70908E6F7191919E709E709E76B
:1020870009E7E51724FAF88604088605088606088E
:102097008607E5172405F8EC26FCED0836FDEE0863
:1020A70036FEEF08368C828D838EF0851781D01728
:0120B7002206
:1020B800900229E0FF7E000FBF00010E7410C0E0FF
:1020C800E4C0E08F828E831221D8AE8215811581FB
:1020D80090022AE0FFEEB5070122900229E024BA17
:1020E800F582E43401F583E599F0900229EEF022B7
:1020F80030044A90022BE0FF90022CE0FEEFB50678
:1021080005A204C2042290022CE024CAF582E43419
:1021180001F583E0F59990022CE0FF7E000FBF00E7
:10212800010E7410C0E0E4C0E08F828E831221D8C3
:0E213800AE82AF831581158190022CEEF0224D
:1021460090022DE0FF7E000FBF00010E7410C0E06C
:10215600E4C0E08F828E831221D8AE82158115816C
:1021660090022EE0FFEEB507012290022DE024DA60
:10217600F582E43401F583E5C1F090022DEEF022FC
:1021860030054A90022FE0FF900230E0FEEFB506E0
:1021960005A205C20522900230E024EAF582E43465
:1021A60001F583E0F5C1900230E0FF7E000FBF002D
:1021B600010E7410C0E0E4C0E08F828E831221D835
:0E21C600AE82AF8315811581900230EEF022BB
:1021D40075820022C017858117AE82E583FF33E440
:1021E40033FD6009C3E49EFBE49FFC80048E038FEF
:1021F40004E51724FCF808E630E70FE51724FCF89B
:10220400C3E496FE08E496FF800AE51724FCF886EA
:1022140006088607C005C006C0078B828C8312227D
:1022240046AE82AF8315811581D005ED600DC3E400
:102234009EFCE49FFD8C828D8380048E828F83D0EC
:102244001722C017858117AE82AF837D007C00E51D
:102254001724FCF808E6235401FB702FE51724FC2F
:10226400F8E626F608E633F6E51724FCF8C3EE96FE
:10227400EF08965011E51724FCF808E618C313C6B6
:1022840013C608F680050C8C0580C4E51724FCF8F9
:10229400C3EE96EF0896400DE51724FCF8EEC396BE
:1022A400FEEF0896FFE51724FCF808E618C313C6EA
:1022B40013C608F68D041DEC70D18E828F83D0175F
:0122C40022F7
:1022C50012011001EF020108091250C501010102B6
:1022D5000301090246000201008064080B000202A6
:1022E5000201040904000001020201040524001092
:1022F50001042402020524060001070581030800E4
:102305004009040100020A0000040705020240001A
:102315000007058202400000040309041C03410074
:102325006D00620069006E006F00200046006100CC
:102335006E00480075006200160343004400430028
:102345002000530065007200690061006C000E03F7
:0C23550041006D00620069006E006F0026
:1023610061626E646972737064687364416461412F
:102371006D62696E6F2046616E487562312E302E36
:0A238100394146523367E8030000BB
:10238B000000000000000000000000000000000141
:10239B00000000000000000000000000000003042B
:1023AB000000020000000000010101010101010118
:1023BB0000000202020202020202000003030303F6
:1023CB0003030303000004040404040404040000D6
:1023DB0001020408102040800000010204081020B4
:1023EB004080000001020408102040800000010220
:1023FB000408102040800000FFFFFFFFFFFFFFFFDE
:10240B00FFFFFF00FFFF0102FFFFFFFFFFFFFFFFCB
:10241B00FFFFFFFFFFFFFFFF03FFFFFFFFFFFFFFBD
:0B242B0000E1000000000800000000BD
:102436007719000000010F0F7F9A0003001E001F8E
:0E24460000C8110010000F0000000000000090
:02245400000086
:042456004F1E4F1EA8
:04245A00000000007E
:04245E00000000007A
:00000001FF
