:0600000002006B021AC1B0
:03000B000220A030
:03001300021B14B9
:01001B0032B2
:03002300021A2995
:03002B0002235756
:01003300329A
:03003B00021B673E
:030043000219EAB5
:01004B003282
:03005300021A7519
:01005B003272
:03006300022299DD
:03006600021BBBBF
:02006900E4733E
:0D006B00758133122896E58260030200665D
:100078007901E94401601B7A02902A56785075A0EC
:1000880002E493F2A308B8000205A0D9F4DAF275E5
:02009800A0FFC7
:06009A00E478FFF6D8FD3A
:1000A0007800E84400600A799475A000E4F309D868
:1000B000FC78BCE84401600C7902900094E4F0A361
:0400C000D8FCD9FA95
:0E00C4007808E4F608F608F608F6780C7600E0
:0200D200C20367
:0200D400C20464
:0300D600020066BF
:1000DA007582001219DAAF82BF0F028015BF0C02B7
:1000EA008010900256E09001CAF07582001219A49D
:1000FA008005900256EFF07582011219DAAF82BFBD
:10010A000F028015BF0C028010900255E09001CAC0
:10011A00F07582011219A48005900255EFF07582DC
:10012A00061219DAAF82BF1400500E900257E090FF
:10013A0001CAF07582060219A4900257EFF02290C4
:10014A0001CBE4F0758224121BCA9001CBE4F0754E
:10015A008225121BCA900BB8E4F5F012215D120D2C
:10016A00B4759E049001CB7401F075821F121BCAEC
:10017A009001CB7401F075821E121BCA9001CB74D8
:10018A0001F075820E121BCA9001CB7401F07582C0
:10019A000F121BCA9001CB7401F0758221121BCA7F
:1001AA009001CB7401F0758210121BCA9001CB74B6
:1001BA0001F075820B121BCA9001CB7401F0758293
:1001CA0011121BCA122120AC82AD83AEF0FF90013E
:1001DA009EECF0EDA3F0EEA3F0EFA3F090019AEC01
:1001EA00F0EDA3F0EEA3F0EFA3F09001D174B1F01B
:1001FA007429A3F07480A3F0900ED1121DA4120EDC
:10020A00B2900064E4F5F012215D120EB21200DA27
:10021A0090025CE0FEA3E090020B7480F0E4A3F08D
:10022A008E821222C090025EE0FEA3E0900260E09D
:10023A0090020BF0E4A3F08E820222C0122120ACBD
:10024A0082AD83AEF0FF900196ECF0EDA3F0EEA341
:10025A00F0EFA3F0121019E582604D121020E5822A
:10026A00900195F0900196E0FCA3E0FDA3E0FEA3C7
:10027A00E0FF90019EECF0EDA3F0EEA3F0EFA3F007
:10028A0090019AECF0EDA3F0EEA3F0EFA3F0900248
:10029A0052E0FF600ABF01028008BF020E80060218
:1002AA0004BF0208F302080D020C4E22E5829001F7
:1002BA00A2F0E0FF24F8500122EF240A83F582EF2E
:1002CA00240C83F583E473E114487CB1E51A4F02E8
:1002DA0003030303030404900261E0FEA3E0900118
:1002EA00CCE4F08E82121CD1900263E0FEA3E0906F
:1002FA0001CCE4F08E82121CD1900265E0FEA3E0EC
:10030A009001CCE4F08E82021CD1900261E0FEA33F
:10031A00E09001CC7401F08E82121CD1900263E04D
:10032A00FEA3E09001CCE4F08E82121CD19002650B
:10033A00E0FEA3E09001CCE4F08E82021CD1900290
:10034A0061E0FEA3E09001CCE4F08E82121CD19011
:10035A000263E0FEA3E09001CC7401F08E82121CCD
:10036A00D1900265E0FEA3E09001CCE4F08E820217
:10037A001CD1900261E0FEA3E09001CC7401F08EE2
:10038A0082121CD1900263E0FEA3E09001CC7401BA
:10039A00F08E82121CD1900265E0FEA3E09001CC9F
:1003AA00E4F08E82021CD1900261E0FEA3E090018B
:1003BA00CCE4F08E82121CD1900263E0FEA3E0909E
:1003CA0001CCE4F08E82121CD1900265E0FEA3E01B
:1003DA009001CC7401F08E82021CD1900261E0FE81
:1003EA00A3E09001CC7401F08E82121CD1900263BA
:1003FA00E0FEA3E09001CCE4F08E82121CD19002C0
:10040A0065E0FEA3E09001CC7401F08E82021CD15B
:10041A00900261E0FEA3E09001CCE4F08E82121C0F
:10042A00D1900263E0FEA3E09001CC7401F08E82C9
:10043A00121CD1900265E0FEA3E09001CC7401F099
:10044A008E82021CD1900261E0FEA3E09001CC747E
:10045A0001F08E82121CD1900263E0FEA3E09001AB
:10046A00CC7401F08E82121CD1900265E0FEA3E0EA
:10047A009001CC7401F08E82021CD190025CE0FEE5
:10048A00A3E0900184E0FF7D0074FFC39FFFE49D19
:10049A00FD90020BEFF0EDA3F08E821222C09002C3
:1004AA005EE0FEA3E0900184E090020BF0E4A3F08A
:1004BA008E820222C09001A3E0FFBF030040030224
:1004CA000641EF90298793FE900195E0FDB5060F4E
:1004DA00BF0205900253E4F09001A3EF04F022EF6B
:1004EA0090299393FEEDB50610BF0206900253744D
:1004FA0001F09001A3EF04F022EF90298A93FEED18
:10050A00B50602800302061ABF020280030206121F
:10051A0075820F120ED175820C120ED175825D1280
:10052A000ED1758206120ED1903FFCE493F5821229
:10053A000ED1903FFDE493F582120ED1903FFEE476
:10054A0093F582120ED1903FFFE493F582120ED1F9
:10055A00903FFAE493F582120ED1903FFBE493F5B3
:10056A0082120ED175820D120ED17C007E00C3EC70
:10057A00940DEE648094805020EC2496F582EE343B
:10058A0029F583E493F582C006C004120ED1D00483
:10059A00D0060CBC00D80E80D5758205120ED17C0F
:1005AA00007E00C3EC9405EE648094805020EC2415
:1005BA00A3F582EE3429F583E493F582C006C004DC
:1005CA00120ED1D004D0060CBC00D80E80D575828C
:1005DA0005120ED17C007E00C3EC9405EE64809473
:1005EA00805020EC24A8F582EE3429F583E493F5B3
:1005FA0082C006C004120ED1D004D0060CBC00D8AA
:10060A000E80D59001A3E4F09001A3E02401F0222A
:10061A00EF90299093FEEDB50617BF020D90025296
:10062A007402F090018FE4F0A3F09001A3EF04F0BC
:10063A00229001A3E4F022EFFE24F7500122EE24D7
:10064A000A83F582EE240D83F583E4730C0C0C689F
:10065A00778695A4E40808080606060606069001A9
:10066A0095E09001A4F09001A3EF04F02290019587
:10067A00E09001A5F09001A3EF04F022900195E02B
:10068A009001A6F09001A3EF04F022900195E0906A
:10069A0001A7F09001A3EF04F0227E007F00C3EED1
:1006AA00940AEF648094805029900184E0FD9001BF
:1006BA0095E0FCEDB5040280129002547401F0EE4C
:1006CA002484F582EF3401F583ECF00EBE00CF0FDF
:1006DA0080CC9001A3E02401F022900253E0FF6055
:1006EA0007BF0103020783229001A5E0FF9001A43E
:1006FA00E0FEEF6E6455FD9001A6E0B505757D003C
:10070A007C008C038D048E057E008F00E4F9FAFFCD
:10071A00E82EFEE93DFDEA3CFCEF3BFBC006C005C6
:10072A00C004C003900003E4F5F01225A5AC82AD25
:10073A0083AEF0FFE58124FCF581900191ECF0EDA8
:10074A00A3F0EEA3F0EFA3F090018FE4F0A3F090F2
:10075A000207F090020874F0F0E4A3F09000947598
:10076A00F0001220789001A7E090018EF0900252DA
:10077A007401F09001A3E4F0229001A5E0FF90013A
:10078A00A4E0FEEF6E6455FD9001A6E0FCB5056D90
:10079A007D007C008C038D048E057E008F00E4F9B9
:1007AA00FAFFE82EFEE93DFDEA3CFCEF3BFBC00602
:1007BA00C005C004C003900003E4F5F01225A5ACFF
:1007CA0082AD83AEF0FFE58124FCF581900191ECC6
:1007DA00F0EDA3F0EEA3F0EFA3F090018FE4F0A305
:1007EA00F0900207F090020874F0F0E4A3F0900091
:1007FA009475F0001220789002527401F09001A3CF
:10080A00E4F02290018FE0FEA3E0FFBE0005BF00E6
:10081A00028010BE0105BF00028027BE065DBF0030
:10082A005A803E900195E0FFBF0F028003BF0C4B38
:10083A00900256EFF09001CAEFF07582001219A4E7
:10084A008039900195E0FFBF0F028003BF0C2C9006
:10085A000255EFF09001CAEFF07582011219A480D7
:10086A001A900195E0FFBF14004010900257EFF074
:10087A009001CAEFF07582061219A490018FE0FE6A
:10088A00A3E0FF8E048F05C3EC940DED9400500B8A
:10089A0090018F74012EF0E43FA3F090018FE0FEE7
:1008AA00A3E0FFBE0D42BF003F900252E4F0758202
:1008BA000F120ED175820C120ED175825D120ED1F5
:1008CA007E007F00C3EE940CEF6480948050198EF2
:1008DA00058D82C007C0061219DA120ED1D006D0D1
:1008EA00070EBE00DF0F80DC2290018FE0FEA3E03E
:1008FA00FFC3EE94F0EF94005024900258E0FCA35A
:10090A00E0FDEE2CFEEF3DFF900195E0FD8E828F1B
:10091A0083F090018FE02401F0A3E03400F090010D
:10092A0091E024FFFCA3E034FFFDA3E034FFFEA323
:10093A00E034FFFF900191ECF0EDA3F0EEA3F0EFAD
:10094A00A3F0900191E0F5F0A3E042F0A3E042F0B9
:10095A00A3E045F0600122900252E4F090018EE09B
:10096A00FF24F65003020C3DEF240A83F582EF249C
:10097A000E83F583E47394DB2269B0F73E85CB05D9
:10098A0009090A0A0A0A0B0B0B0C7582051202B630
:10099A0090006412220E7E947F0090018FE0FCA3E7
:1009AA00E0FD0CBC00010D7D008D028C037C007DF6
:1009BA00008E008F01E4FEFFE84204E94205EE42A0
:1009CA0003EF42028C828D838BF0EA12243F020CE1
:1009DA003D7582061202B690006412220E7E947F42
:1009EA000090018FE0FCA3E0FD0CBC00010D7D002E
:1009FA008D028C037C007D008E008F01E4FEFFE8EF
:100A0A004204E94205EE4203EF42028C828D838B57
:100A1A00F0EA12243F020C3D7582031202B69000DE
:100A2A006412220E7E947F0090018FE0FCA3E0FD09
:100A3A000CBC00010D7D008D028C037C007D008EB4
:100A4A00008F01E4FEFFE84204E94205EE4203EFAB
:100A5A0042028C828D838BF0EA12243F020C3D7590
:100A6A0082041202B690006412220E7E947F0090D5
:100A7A00018FE0FCA3E0FD0CBC00010D7D008D029E
:100A8A008C037C007D008E008F01E4FEFFE84204A7
:100A9A00E94205EE4203EF42028C828D838BF0EA33
:100AAA0012243F020C3D7582011202B690006412B4
:100ABA00220E7E947F0090018FE0FCA3E0FD0CBC27
:100ACA0000010D7D008D028C037C007D008E008F5D
:100ADA0001E4FEFFE84204E94205EE4203EF420266
:100AEA008C828D838BF0EA12243F020C3D758202C0
:100AFA001202B690006412220E7E947F0090018F3B
:100B0A00E0FCA3E0FD0CBC00010D7D008D028C030E
:100B1A007C007D008E008F01E4FEFFE84204E9427A
:100B2A0005EE4203EF42028C828D838BF0EA122497
:100B3A003F020C3D7582071202B690006412220E23
:100B4A007E947F0090018FE0FCA3E0FD0CBC0001C5
:100B5A000D7D008D028C037C007D008E008F01E4E8
:100B6A00FEFFE84204E94205EE4203EF42028C82AC
:100B7A008D838BF0EA12243F020C3D75820012022B
:100B8A00B690006412220E7E947F0090018FE0FCE2
:100B9A00A3E0FD0CBC00010D7D008D028C037C00DE
:100BAA007D008E008F01E4FEFFE84204E94205EE73
:100BBA004203EF42028C828D838BF0EA12243F803B
:100BCA00727E947F0090018FE0FCA3E0FD0CBC00D4
:100BDA00010D7D008D028C037C007D008E008F014B
:100BEA00E4FEFFE84204E94205EE4203EF42028CCA
:100BFA00828D838BF0EA1224ED80387E947F0090F8
:100C0A00018FE0FCA3E0FD0CBC00010D7D008D020C
:100C1A008C037C007D008E008F01E4FEFFE8420415
:100C2A00E94205EE4203EF42028C828D838BF0EAA1
:100C3A00122359900254E06008120485900254E489
:100C4A00F0020EB290019EE0FCA3E0FDA3E0FEA339
:100C5A00E0FF900196E0F8A3E0F9A3E0FAA3E0FB35
:100C6A00E8C39CFCE99DFDEA9EFEEB9FFFC3EC9462
:100C7A00E8ED9403EE9400EF9400500122900253A1
:100C8A00E0FF6005BF0170804D120EB2900267E06E
:100C9A00F5F0A3E045F070359002677401F0E4A323
:100CAA00F07E007F00C3EE940AEF648094805018AF
:100CBA00EE2484FCEF3401FD900257E08C828D8390
:100CCA00F00EBE00E00F80DD120485802A900267D4
:100CDA00E4F0A3F08021120EB2900267E0F5F0A3CF
:100CEA00E045F0700B9002677401F0E4A3F080070E
:100CFA00900267E4F0A3F0900196E0FCA3E0FDA364
:100D0A00E0FEA3E0FF90019EECF0EDA3F0EEA3F06D
:100D1A00EFA3F090025AE0F510A3E0F51190025A01
:100D2A00E0F5F0A3E045F070012290019AE0F8A303
:100D3A00E0F9A3E0FAA3E0FBECC398F8ED99F9EE29
:100D4A009AFAEF9BFBC004C005C006C007AC10AD01
:100D5A00117E007F00C003C002C001C000C004C0F1
:100D6A0005C006C0079003E8E4F5F01225A5AC8299
:100D7A00AD83AEF0FFE58124FCF581D000D001D02F
:100D8A0002D003C3E89CE99DEA9EEB9FD007D006F8
:100D9A00D005D0044013900252E4F090019AECF08E
:0A0DAA00EDA3F0EEA3F0EFA3F0229A
:100DB40012195112197B12196A75DD0075D3007569
:100DC400D50022900274E4F0900276F0227F00C3F2
:100DD400E5DB9407920040067D077E008004ADDBCE
:100DE4007E008F037C00C3EB9DEC64808EF063F087
:100DF4008095F05017EF246DFDE43402FE8F827568
:100E04008300E0FC8D828E83F00F80C3227F008FED
:100E1400057E00C3ED9407EE940050188F057E0004
:100E2400EF246DF582E43402F583E0FC8D828E8339
:100E3400F00F80DB90000722900002E0FF90027721
:100E4400F0E020E05090026DE0FCA3E0FDA3E0FEA2
:100E5400A3E0FFBCB03FBD043CBE0039BF00367503
:100E6400E200C2AF7589009001A8E4F07438A3F0E1
:100E740090C35012220E90C35012220E9001A8E08B
:100E8400FEA3E0FFC007C0068E828F83120069D0E4
:100E940006D00780FE229001AAE4F0900277E06079
:100EA400069001AA7401F09001AAE0F58222900252
:100EB40076E07018900278E0FFE060108FD553D48C
:100EC400FC9002767401F0900278E4F022E58290BE
:100ED40001ABF0900277E0605E7E007F00900276C6
:100EE400E060200EBE00010F900005C007C006128E
:100EF400220ED006D007C3EE9450EF94C340DE75A3
:100F0400820022900278E0FFBF400050257E0074EA
:100F1400402FFFE43EFEEF2414FFEE3400FE900168
:100F2400ABE08F828E83F0900278E02401F075822A
:100F34000122120EB280A275820022AFF0AE83E5C8
:100F4400829001AEF0EEA3F0EFA3F0900277E07090
:100F5400030210159001ACE0FEA3E0FFC3E49E740D
:100F6400808FF063F08095F040030210157E007FBF
:100F740000900276E060200EBE00010F900005C0D4
:100F840007C00612220ED006D007C3EE9450EF9489
:100F9400C340DE758200229001AEE0FDA3E0FEA313
:100FA400E0FF9001ACE0FBA3E0FCC3E49B74808C05
:100FB400F063F08095F0509C900278E0FABA40001B
:100FC40050498A017A00744029F9E43AFAE9241470
:100FD400F9EA3400FA8D828E838FF0122589F8A302
:100FE400AD82AE839001AEEDF0EEA3F0EFA3F089F5
:100FF400828A83E8F0900278E02401F01BBBFF01B1
:101004001C9001ACEBF0ECA3F0809F120EB2020F27
:101014005875820022900274E0F58222900274E0F6
:101024007003F58222900275E02414F582E4340002
:10103400F583E0FF900275E004F0900274E014F090
:10104400E0700353D4F38F822275D50074FC55D419
:101054004402F5D4900276E4F02230DE1990027452
:10106400E5DBF0900275E4F0900274E0600874F33C
:0710740055D44408F5D42215
:10107C009001B8E5DBF0E0FFBF08028003021774B3
:10108C00900007E0FE7F00900006E0FD7C009001E0
:10109C00B1ED4FF0EC4EA3F09001B8E4F0900001EC
:1010AC00E0FF9001B3F0900342E4F0900000E054B4
:1010BC00606058900000E0FE5306607D00BE200585
:1010CC00BD0002800FBE403ABD00379001B874FFDE
:1010DC00F002177ABF200302177ABF21028005BFE6
:1010EC002217800F120E11AD82AE839001B8EDF075
:1010FC0002177A120E3C02177A9001B874FFF002B4
:10110C00177A9001B874FFF002177AEFFE24F450AE
:10111C000302176CEE240A83F582EE241083F58308
:10112C00E4733F446C176C04466C13387A7A1715C9
:10113C0017161715111715151717900003E0FFBF99
:10114C000102800DBF02028025BF0302803D021404
:10115C004E9001B57479F07402A3F0E4A3F0900200
:10116C008BE0FEA3E0FF9001B8EEF0021454900166
:10117C00B5748DF07402A3F0E4A3F09002D8E0FEF5
:10118C00A3E0FF9001B8EEF0021454900002E0705E
:10119C001D9001B574DAF07402A3F0E4A3F0900290
:1011AC00DEE0FEA3E0FF9001B8EEF00214549000D4
:1011BC0002E0FFBF011D9001B57416F07403A3F09B
:1011CC00E4A3F0900324E0FEA3E0FF9001B8EEF05E
:1011DC00021454900002E0FFBF021D9001B574E0B0
:1011EC00F07402A3F0E4A3F09002FCE0FEA3E0FF95
:1011FC009001B8EEF0021454900002E0FFBF03021D
:10120C00800302140E9001B97430F09001BA04F00E
:10121C009001BB04F09001BC04F09001BD04F0906F
:10122C0001BE04F09001BF04F09001C004F09001E5
:10123C00C104F09001C204F09001C37441F090011C
:10124C00C404F09001C504F09001C604F09001C7ED
:10125C0004F09001C804F09001C9E4F090032674E6
:10126C001AF09003277403F0903FFCE493C4540FDE
:10127C00FF53070F7E00EF24B9F582EE3401F5839E
:10128C00E0900328F0900329E4F0903FFC93FF5387
:10129C00070F7E00EF24B9F582EE3401F583E09060
:1012AC00032AF090032BE4F0903FFD93C4540FFFFE
:1012BC0053070F7E00EF24B9F582EE3401F583E07D
:1012CC0090032CF090032DE4F0903FFD93FF530717
:1012DC000F7E00EF24B9F582EE3401F583E0900324
:1012EC002EF090032FE4F0903FFE93C4540FFF5365
:1012FC00070F7E00EF24B9F582EE3401F583E09000
:10130C000330F0900331E4F0903FFE93FF53070F4E
:10131C007E00EF24B9F582EE3401F583E0900332C0
:10132C00F0900333E4F0903FFF93C4540FFF530746
:10133C000F7E00EF24B9F582EE3401F583E09003C3
:10134C0034F0900335E4F0903FFF93FF53070F7E8A
:10135C0000EF24B9F582EE3401F583E0900336F00A
:10136C00900337E4F0903FFA93C4540FFF53070FE8
:10137C007E00EF24B9F582EE3401F583E09003385A
:10138C00F0900339E4F0903FFA93FF53070F7E007F
:10139C00EF24B9F582EE3401F583E090033AF09036
:1013AC00033BE4F0903FFB93C4540FFF53070F7EB5
:1013BC0000EF24B9F582EE3401F583E090033CF0A4
:1013CC0090033DE4F0903FFB93FF53070F7E00EF3B
:1013DC0024B9F582EE3401F583E0FF90033EF090E2
:1013EC00033FE4F0900340741AF0E4A3F09001B5CD
:1013FC007426F07403A3F0E4A3F09001B8741AF00F
:10140C008046900002E0FFBF041C9001B574FEF012
:10141C007402A3F0E4A3F0900314E0FEA3E0FF90A9
:10142C0001B8EEF080229001B57426F07403A3F09D
:10143C00E4A3F0900340E0FEA3E0FF9001B8EEF0CF
:10144C0080069001B874FFF09001B8E0FFBFFF0375
:10145C0002177A9001B1E0FDA3E0FE8F047F00C378
:10146C00EC9DEF9E50089001B1ECF0EFA3F09001D1
:10147C00B1E0FEA3E0FF8E048F05C3EC9408ED945D
:10148C0000920140067C087D0080048E048F05903C
:10149C0001B8ECF07F00C3EF9C50278F057E0090C5
:1014AC0001B5E0F9A3E0FAA3E0FBEF29F9E43AFA7D
:1014BC0089828A838BF0122589F98D828E83F00FB5
:1014CC0080D48C067F009001B1E0FBA3E0FDEBC360
:1014DC009EFBED9FFD9001B1EBF0EDA3F09001B5FB
:1014EC00E0FDA3E0FEA3E0FF9001B5EC2DF0E43E9F
:1014FC00A3F0EFA3F002177A900002E0FF9001B185
:10150C00F0E4A3F002177A9001B4E0900000F090A0
:10151C0001B1E0FEA3E0FFC3EE9401EF9400500391
:10152C0002177A9001B87401F002177A900002E069
:10153C00FF9001B4F002177A900000E0541F70364F
:10154C00900003E0FE7F00900002E0FD7C0042076B
:10155C00EC4206BF0117BE0014900294E0FF30E588
:10156C000302177A9001B874FFF002177A9001B851
:10157C0074FFF002177A900000E0FF53071F7E0003
:10158C00BF0205BE000280028078900004E0FFBF1D
:10159C000102805FBF02028049BF03028033BF0497
:1015AC0002801DBF81028040BF8202802ABF83025D
:1015BC008014BF844474BC55DE4402F5DE02177AF5
:1015CC0053DE7302177A74BC55D64402F5D6021753
:1015DC007A53D67302177A74BC55D44402F5D402EC
:1015EC00177A53D47302177A74BC55D24402F5D2CD
:1015FC0002177A53D27302177A9001B874FFF00273
:10160C00177A9001B874FFF002177A900000E0543A
:10161C001F7036900003E0FE7F00900002E0FD7C1E
:10162C00004207EC4206BF0117BE0014900294E082
:10163C00FF30E50302177A9001B874FFF002177AB5
:10164C009001B874FFF002177A900000E0FF530786
:10165C001F7E00BF0205BE000280030217379000F8
:10166C0003E0FE7F00900002E0FD7C004207EC42AC
:10167C0006EF4E600302172F900005E0FE7F0090EE
:10168C000004E0FD7C004207EC4206BF0106BE00F0
:10169C000302171FBF0205BE00028063BF0305BE15
:1016AC0000028047BF0405BE00028029BF8105BE31
:1016BC0000028055BF8205BE00028039BF8305BE83
:1016CC000002801CBF8454BE005174BF55DE44031D
:1016DC00F5DE02177A747F55DE440CF5DE02177ABC
:1016EC0074BF55D64403F5D602177A747F55D64489
:1016FC000CF5D6807974BF55D44403F5D4806F743F
:10170C007F55D4440CF5D4806574BF55D24403F591
:10171C00D2805B747F55D2440CF5D29001B874FF23
:10172C00F0804B9001B874FFF080439001B874FFC7
:10173C00F0803B900000E4F0900001F09001B1E0EB
:10174C00FEA3E0FF8E048F05C3EC9402ED940040E1
:10175C00089001B87402F080159001B8EEF0800E7C
:10176C009001B874FFF080069001B874FFF09001FE
:10177C00B8E0FFBFFF0A9001B374FFF075DCCF2215
:10178C00EF24F740068FDD75DCC02275DD0075DCBB
:10179C00C0229001B3E0FFBF0503021839BF060257
:1017AC00800302184D9001B1E0FEA3E0FF8E048F80
:1017BC0005C3EC9408ED9400920240067C087D0071
:1017CC0080048E048F057F00C3EF9C50278F057E0D
:1017DC00009001B5E0F9A3E0FAA3E0FBEF29F9E4EE
:1017EC003AFA89828A838BF0122589F98D828E834D
:1017FC00F00F80D48C067F009001B1E0FBA3E0FDDC
:10180C00EBC39EFBED9FFD9001B1EBF0EDA3F090CF
:10181C0001B5E0FDA3E0FEA3E0FF9001B5EC2DF0D7
:10182C00E43EA3F0EFA3F08CDD63DC4022E5E3544F
:10183C0080FF9001B1E0FDA3E0ED4FF5E375DC0214
:10184C002275DD0075DC02229001B3E0FFBF200D94
:10185C0030DE10120DD175DD0085DCDC2275DD006B
:10186C0043DC022275D30074FC55D24402F5D2221B
:10187C0020D90302192CE5D9540FFFADD9530530EB
:10188C007E00BD0005BE0002801CBD1005BE00021E
:10189C008038BD2005BE00028046BD3006BE000368
:1018AC0002191102192AEFFE24FB500302192AEE29
:1018BC002E9018C17380088065800A8061805F1249
:1018CC00185402192A12105E8054EFFE24FB404E6D
:1018DC00EE2E9018E2738046804480428040803E19
:1018EC00EFFE24FB4038EE2E9018F8738008800B26
:1018FC00800E802A802812179E8023121870801E5A
:10190C0012104D8019EFFE24FB4013EE2E90191D82
:10191C00738008800980078005800312107CC2D96F
:10192C0030D81575DC0275D21275D41275E300C26D
:10193C00DAC2D9C2D8120DC710DA0122E5DA20E2D8
:10194C000375D8FF2275E20053E27F43E22975E369
:10195C000053E2BF53D1FB75D18043D1012243E147
:10196C000443E10243E10143D81FD2EAD2AF227E05
:10197C000A7F008EEE8FEF7E147F008EE48FE5756C
:10198C00EB0C75D21275D4127E007F008EEC8FEDAD
:07199C0075EA4075DC022230
:1019A400AF82BF800040012275A15575A1AA43B141
:1019B4000475A1007585C0EF2FF5849001CAE0F588
:1019C4008EE58630E60375869A75A15575A1AA53EE
:1019D400B1FB75A10022AF827585C0EF2FF5847528
:0619E400868E858E822232
:1019EA00C021C0E0C0F0C082C083C007C006C005E5
:1019FA00C004C003C002C001C000C0D075D000122C
:101A0A00187CD0D0D000D001D002D003D004D005A9
:101A1A00D006D007D083D082D0F0D0E0D02132C017
:101A2A0021C0E0C0F0C082C083C007C006C005C0A4
:101A3A0004C003C002C001C000C0D075D0003098F5
:101A4A000512277AC2983099051227BAC299D0D0BE
:101A5A00D000D001D002D003D004D005D006D007E0
:101A6A00D083D082D0F0D0E0D02132C021C0E0C0F3
:101A7A00F0C082C083C007C006C005C004C003C04E
:101A8A0002C001C000C0D075D00030C005122808BD
:101A9A00C2C030C105122848C2C1D0D0D000D0017E
:101AAA00D002D003D004D005D006D007D083D0828C
:101ABA00D0F0D0E0D02132C021C0E0C0F0C082C056
:101ACA0083C007C006C005C004C003C002C001C06D
:101ADA0000C0D075D000900345E0FEA3E0FFC00728
:101AEA00C0068E828F83120069D006D007D0D0D06C
:101AFA0000D001D002D003D004D005D006D007D040
:101B0A0083D082D0F0D0E0D02132C021C0E0C0F032
:101B1A00C082C083C007C006C005C004C003C0029B
:101B2A00C001C000C0D075D000900347E0FEA3E01A
:101B3A00FFC007C0068E828F83120069D006D007C5
:101B4A00D0D0D000D001D002D003D004D005D00626
:101B5A00D007D083D082D0F0D0E0D02132C021C0CB
:101B6A00E0C0F0C082C083C007C006C005C004C080
:101B7A0003C002C001C000C0D075D000900343E08A
:101B8A00FEA3E04E600E900343E0F8A3E0F58388DD
:101B9A0082120069D0D0D000D001D002D003D00484
:101BAA00D005D006D007D083D082D0F0D0E0D021A3
:101BBA003212224912014912024680FB7582002222
:101BCA00E582FF902A0693FEEF9029DE93FF7001CB
:101BDA00229001CBE0FD701BBF0209EEF4FC529289
:101BEA00EC529322BF0402800122EEF4FC5296ECDE
:101BFA00529722BD0214BF0207EE4292EE4293228E
:101C0A00BF0439EE4296EE429722BD0116BF020882
:101C1A00EEF45292EE429322BF0421EEF45296EE73
:101C2A00429722BD0316BF0208EE4292EEF4529387
:101C3A0022BF0408EE4296EEF4FE529722AF82BF0C
:101C4A000102800FBF02028013BF03028017BF0484
:101C5A0025801BE5C620E21E539DFB22E5C620E334
:101C6A0015539DF722E5C630E20C539DFB22E5C6CB
:101C7A0030E303539DF722E582FF9029B693FEEFE6
:101C8A00902A0693FDEF9029DE93FF7003F58222D6
:101C9A00EE600D8E82C007C005121C47D005D00722
:101CAA007E00BF0202800ABF03028009BF040C80C3
:101CBA0008AE908006AEA08002AEB0ED5E600475FC
:101CCA0082012275820022E582FF9029B693FEEFF7
:101CDA00902A0693FDEF9029DE93FFEE600D8E8227
:101CEA00C007C005121C47D005D007A2AFE433FED7
:101CFA00C2AFBF0202800ABF03028017BF04368048
:101D0A00249001CCE07007EDF4FF52908027ED4259
:101D1A009080229001CCE07007EDF4FF52A080156C
:101D2A00ED42A080109001CCE07007EDF4FF52B0B4
:0B1D3A008003ED42B0EE6002D2AF2249
:101D4600AE82AF839001CDE0FBA3E0FCA3E0FD7A79
:101D5600009001D0E0F9890019E8603F8B828C83FE
:101D66008DF0122589F8A3AB82AC83C007C006C0EC
:101D760005C004C003C002C001121D848007C0064E
:101D8600C007888222A882D001D002D003D004D016
:101D960005D006D007E860030A80BB8A8222AE829D
:101DA600AF839001D1E0FBA3E0FCA3E0FD9001D15D
:101DB600E0F5F0A3E045F07003F582227A008B820D
:101DC6008C838DF0122589F9A3AB82AC83E9F86088
:101DD6002CC007C006C005C004C003C002121DE81F
:101DE6008007C006C007888222A982D002D003D00D
:101DF60004D005D006D007E960030A80C18A822292
:101E0600AE82AF839001D4E0FAA3E0FBA3E0FCA38B
:101E1600E0FD9001DCEAF0EBA3F0ECA3F0EDA3F01B
:101E26009001E0740AF08E828F83021E97AE82AF15
:101E3600839001D8E0FAA3E0FBA3E0FCA3E0FD90C9
:101E46000202EAF0EBA3F0ECA3F0EDA3F090020699
:101E5600740AF08E828F83021F80AE82AF83C00722
:101E6600C006121E6D8008C006C00775820D22AD21
:101E760082D006D007C007C005121E848008C0069F
:101E8600C00775820A22AE82D005D007EE2DF582F4
:101E960022858222858323900201E4F09001E0E00E
:101EA600FDBD020050069001E0740AF09001E0E0EA
:101EB600F5247B017C029001DCE0F525A3E0F52604
:101EC600A3E0F527A3E0F528852429752A00752BBC
:101ED60000752C00C004C003C029C02AC02BC02C2A
:101EE6008525828526838527F0E52812237DA8820D
:101EF600E58124FCF581C000C029C02AC02BC02C76
:101F06008525828526838527F0E528122463AA8203
:101F1600AD83AEF0FFE58124FCF581D000D003D07F
:101F2600049001DCEAF0EDA3F0EEA3F0EFA3F01BC2
:101F3600BBFF011C8B068C07B80A00500888057485
:101F4600302DFD8004743728FD8E828F83EDF0904E
:101F560001DCE0F5F0A3E042F0A3E042F0A3E045A7
:101F6600F06003021EBC9001D1EBF0ECA3F0E4A3F9
:101F7600F0852282852383021DA485822D85832EEA
:101F8600900206E0FD701B900202E0F9A3E0FAA3BE
:101F9600E0FBA3E0FC121FA08007C02DC02E8982A3
:101FA6002222BD0A02800302204D900202E0F9A31C
:101FB600E0FAA3E0FBA3E0FC30E76FC004C003C077
:101FC60002C001121FCE8008C02DC02E75822D22A0
:101FD600A882D001D002D003D004882F900202C379
:101FE600E499F0E49AA3F0E49BA3F0E49CA3F090B8
:101FF6000202E0F530A3E0F531A3E0F532A3E0F507
:10200600339001DCE530F0E531A3F0E532A3F0E5ED
:1020160033A3F09001E0740AF0852D82852E831299
:102026001E97AF82E52F2FF582229001DCE9F0EAB8
:10203600A3F0EBA3F0ECA3F09001E0740AF0852D79
:1020460082852E83021E97900202E0FBA3E0FCA38A
:10205600E0FEA3E0FF9001DCEBF0ECA3F0EEA3F0D2
:10206600EFA3F09001E0EDF0852D82852E83021E10
:0120760097D2
:10207800AC82AD83900208E0FEA3E0FFBE000360DF
:10208800121F0F900207E08C828D8312227EA3DE3E
:08209800FADFF88C828D83222F
:1020A000C0D075D00808B8000D09B900090ABA00F7
:1020B000050BBB00010CD0D032A2AFC2AFA808A95B
:1020C00009AA0AAB0BAC8A8588F092AF30F512747E
:1020D000012C600D08B8000909B900050ABA000111
:1020E0000BC3EC9406FCECC313FC75F07DE8A4F87C
:1020F000ADF075F07DE9A42DF9E435F0FD75F07DC6
:10210000EAA42DFAE435F0FD75F07DEBA42DFB7DFE
:1021100000EC28F582E93DF583EA3DF5F0EB3D2240
:10212000A2AFC2AFA808A909AA0AAB0BAC0C92AF28
:1021300075F020E8A4A8F075F020E9A428F582A89D
:10214000F075F020EAA428F583A8F075F020EBA440
:1021500028F9A8F075F020ECA42889F022858212D5
:1021600085831385F014F5151220B98582168583B1
:102170001785F018F519E51245134514451570013A
:1021800022A812A913AA14AB1585161A85171B8548
:10219000181C85191DE8494A4B60DBC003C002C00A
:1021A00001C0001220B9AC82AD83AEF0FFD000D0E8
:1021B00001D002D003ECC3951AFCED951BFDEE9502
:1021C0001CFEEF951DFFC3EC94E8ED9403EE940024
:1021D000EF940040A118B8FF0919B9FF051ABAFF1A
:1021E000011B881289138A148B1574E8251AF51AB5
:1021F0007403351BF51BE4351CF51CE4351DF51D7A
:10220000851A16851B17851C18851D198087AE82B7
:10221000AF83C374019EE49F40022200C374029EF8
:10222000FE74009FFF00BE0005BF000200220000F8
:102230000000000000000000000000000000000E90
:10224000BE00EB0FBF00ED002275A15575A1AA7469
:10225000F855B94406F5B975A10090138812220EFD
:10226000759E5D759D0074F055894402F58953C9CA
:0D227000EF758C06C28DD2A9D28CD2AF22A0
:10227E0020F71130F6138883A88220F509F6A8837B
:0C228E007583002280FEF280F5F0223201
:10229B00E582902A2E93FFBFFF0475820022759A68
:1022AB000974FC5580FE74035F4EF580D284208444
:1022BB00FD859F8222AF829001CB7401F08F82C08B
:1022CB0007121BCAD00790020BE0FDA3E0FE4D7076
:1022DB000A9001CCE4F08F82021CD18D038E047422
:1022EB00FF2C500B9001CC7401F08F82021CD1EFAC
:1022FB009029B693FA24FB4034EA2A90230A738080
:10230B002C8006800D8014801B53C6FB439D048DCF
:10231B009C2253C6F7439D088D9B2243C604439DC5
:10232B00048D9C2243C608439D088D9B22C3EB94CE
:10233B0080EC9400500A9001CCE4F08F82021CD107
:0B234B009001CC7401F08F82021CD1C5
:012357003253
:10235900ABF0A2AFE433FEC2AFE0A37A0833D29167
:102369004002C2917905D9FEC291DAF1DBEBEE6048
:1023790002D2AF22C01E85811EAC82AD83AEF0FFB2
:1023890005817B00A81E087600E51E24FAF80808D6
:1023990008E6235401FA704CE51E24FAF8E626F6FD
:1023A90008E633F608E633F608E633F6E51E24FABE
:1023B900F8C3EC96ED0896EE0896EF0896501AE5E4
:1023C9001E24FAF8080808E6C313F618E613F618E7
:1023D900E613F618E613F6800BA81E0806A81E08D1
:1023E900860380A5E51E24FAF8C3EC96ED0896EE5F
:1023F9000896EF08964015E51E24FAF8ECC396FCFA
:10240900ED0896FDEE0896FEEF0896FFE51E24FA04
:10241900F8080808E6C313F618E613F618E613F6E3
:1024290018E613F68B021BEA70BA8C828D838EF044
:10243900EF1581D01E22ABF0A2AFE433FEC2AFE0AC
:10244900A37A0833D2944002C2947905D9FEC29482
:10245900DAF1DBEBEE6002D2AF22C01E85811EC02D
:1024690082C083C0F0C0E07A007B007E007F007DDF
:1024790020A81E08080808E6235401FCA81E08E63F
:1024890026F608E633F608E633F608E633F6EA2ACE
:10249900FAEB33FBEE33FEEF33FFEC60034302014B
:1024A900E51E24FAF8C3EA96EB0896EE0896EF08BB
:1024B90096401CE51E24FAF8EAC396FAEB0896FB47
:1024C900EE0896FEEF0896FFA81E08E64401F6DD21
:1024D900A0A81E0886820886830886F008E6851E5D
:1024E90081D01E22ABF0A2AFE433FEC2AFE0A37AE3
:1024F9000833D2B34002C2B37905D9FEC2B3DAF1C7
:08250900DBEBEE6002D2AF2211
:1025110022AF82BF0200503EEF75F002A42445FDB8
:10252100740335F0FE90020DE0FBA3E0FC8D828E7A
:1025310083EBF0ECA3F0BF00028005BF0118800B14
:1025410090020FE024FF9288D2A82290020FE0FFB0
:1025510024FF928AD2AA22AF82BF02005028BF0074
:10256100028005BF01088004C2A88002C2AAEF75DB
:10257100F002A42445FE740335F0FF8E828F83742C
:0725810011F07425A3F02204
:1025890020F71430F6148883A88220F507E6A8837B
:1025990075830022E280F7E49322E022C01E858140
:1025A9001EC082C083C0F0C0E0E5812408F581E542
:1025B9001E2409F92402F8AF1E0F8F06C000A806D1
:1025C9008606E51E24FAFDFC0C0CA8048604D0003E
:1025D9008EF0ECA4FEABF0A60608A6038F068E00CB
:1025E90086068D048C0086048EF0ECA4FEABF0A761
:1025F9000609A703E51E24092403F987068F047435
:10260900032CF886048D038B0086038CF0EBA42E33
:10261900FEF78F0474022CF886048D03EB04F88608
:10262900038CF0EBA42EF7E51E24092402F9870494
:10263900098706198F0374022BF886038D028A0015
:1026490086028BF0EAA4ABF02CFCEB3EFEA7040952
:10265900A706198F03EB04F886038D02EA04F886AE
:10266900028BF0EAA4ABF02CFCEB3EFEA70409A711
:10267900068F0674032EF98F06EE04F886068D047C
:1026890074022CF886048EF0ECA4F78F06EE04F998
:102699008F06EE04F886068D048C0086048EF0EC15
:1026A900A4FEABF0A70609A7038D0674032EF98FC4
:1026B900068E0086068D0474032CF886048EF0ECD1
:1026C900A4F78D06EE04F98F068E0086068D04ECBC
:1026D90004F886048EF0ECA4FEABF0A70609A70364
:1026E9008D0177008F017700E51E2409F9E51E2485
:1026F90005F8E7F609E708F609E708F609E708F62D
:10270900191919A81E08860208860308860608866C
:1027190007E51E2405F8EA26F6EB0836F6EE083634
:10272900F6EF0836F6E51E2405F8E6F70908E6F798
:102739000908E6F70908E6F7191919E709E709E7A2
:1027490009E7E51E24FAF8860408860508860608BE
:102759008607E51E2405F8EC26FCED0836FDEE0893
:1027690036FEEF08368C828D838EF0851E81D01E51
:01277900223D
:10277A00900349E0FF7E000FBF00010E7410C0E015
:10278A00E4C0E08F828E8312289AAE821581158169
:10279A0090034AE0FFEEB5070122900349E02410B6
:1027AA00F582E43402F583E599F0900349EEF022CC
:1027BA0030034A90034BE0FF90034CE0FEEFB5066E
:1027CA0005A203C2032290034CE02420F582E434DC
:1027DA0002F583E0F59990034CE0FF7E000FBF00FD
:1027EA00010E7410C0E0E4C0E08F828E8312289A32
:0E27FA00AE82AF831581158190034CEEF02264
:1028080090034DE0FF7E000FBF00010E7410C0E082
:10281800E4C0E08F828E8312289AAE8215811581DA
:1028280090034EE0FFEEB507012290034DE02430FF
:10283800F582E43402F583E5C1F090034DEEF02211
:1028480030044A90034FE0FF900350E0FEEFB506D6
:1028580005A204C20422900350E02440F582E43427
:1028680002F583E0F5C1900350E0FF7E000FBF0042
:10287800010E7410C0E0E4C0E08F828E8312289AA3
:0E288800AE82AF8315811581900350EEF022D1
:1028960075820022C01E85811EAE82E583FF33E469
:1028A60033FD6009C3E49EFBE49FFC80048E038F26
:1028B60004E51E24FCF808E630E70FE51E24FCF8C4
:1028C600C3E496FE08E496FF800AE51E24FCF8861B
:1028D60006088607C005C006C0078B828C831229AE
:1028E60008AE82AF8315811581D005ED600DC3E476
:1028F6009EFCE49FFD8C828D8380048E828F83D024
:102906001E22C01E85811EAE82AF837D007C00E53F
:102916001E24FCF808E6235401FB702FE51E24FC58
:10292600F8E626F608E633F6E51E24FCF8C3EE962E
:10293600EF08965011E51E24FCF808E618C313C6E6
:1029460013C608F680050C8C0580C4E51E24FCF829
:10295600C3EE96EF0896400DE51E24FCF8EEC396EE
:10296600FEEF0896FFE51E24FCF808E618C313C61A
:1029760013C608F68D041DEC70D18E828F83D01E8F
:01298600222E
:1029870061626E6469727370646873644164614103
:102997006D62696E6F2046616E487562312E302E0A
:0F29A700384146523367E803000041626E0A0070
:1029B6000000000000000000000000000000000110
:1029C60000000000000000000000000000000304FA
:1029D60000000200000000000101010101010101E7
:1029E60000000202020202020202000003030303C5
:1029F60003030303000004040404040404040000A5
:102A06000102040810204080000001020408102082
:102A160040800000010204081020408000000102EE
:102A26000408102040800000FFFFFFFFFFFFFFFFAC
:102A3600FFFFFF00FFFF0102FFFFFFFFFFFFFFFF9A
:102A4600FFFFFFFFFFFFFFFF03FFFFFFFFFFFFFF8C
:102A5600BB1B0000010F0F7F940003001E001F0028
:0D2A6600C8110010000F000000000000006B
:102A730000E1000000000800000000001201100146
:102A8300EF020108091250C50101010203011200FE
:102A930009024B000201008064080B0002020201DC
:102AA30004090400000102020104052400100105C9
:102AB3002401000004240202052406000107058105
:102AC3000308004009040100020A0000040705028C
:102AD30002400000070582024000004B0004030986
:102AE3000404001C0341006D00620069006E006F66
:102AF300002000460061006E004800750062001C63
:102B03000016034300440043002000530065007295
:102B130000690061006C0016000E0341006D006245
:092B23000069006E006F000E0055
:102B2C000C03300031003200330034003500360025
:0D2B3C00370038003900410042001A000047
:022B490000008A
:042B4B00112511251A
:042B4F000000000082
:042B5300000000007E
:00000001FF
