:0600000002006B021499DE
:03000B0002174693
:030013000214ECE8
:01001B0032B2
:03002300021401C3
:03002B0002194176
:01003300329A
:03003B0002153F6C
:030043000213C2E3
:01004B003282
:0300530002144D47
:01005B003272
:0300630002193F40
:03006600021593ED
:02006900E4733E
:0D006B00758121121D7CE582600302006694
:1000780079EEE94400601B7A01901F2C789575A0F1
:1000880002E493F2A308B8000205A0D9F4DAF275E5
:02009800A0FFC7
:06009A00E478FFF6D8FD3A
:1000A0007800E84400600A799475A000E4F309D868
:1000B000FC7801E84402600C7903900094E4F0A31A
:0400C000D8FCD9FA95
:0E00C4007808E4F608F608F608F6780C7600E0
:0200D200C20367
:0200D400C20464
:0300D600020066BF
:1000DA001207A690024F7401F07582201215CA9079
:1000EA00024F7401F075820E1215CA90024F740104
:1000FA00F075820F1215CA90024F7401F0758210C2
:10010A001215CA90024F7401F075820B1215CA902B
:10011A00024F7401F07582211215CA1217C6AC82F9
:10012A00AD83AEF0FF900221ECF0EDA3F0EEA3F068
:10013A00EFA3F090021DECF0EDA3F0EEA3F0EFA315
:10014A00F00208A41217C6AC82AD83AEF0FF90028B
:10015A0019ECF0EDA3F0EEA3F0EFA3F0120A0BE511
:10016A00826045120A12E582900218F0900219E0A4
:10017A00FCA3E0FDA3E0FEA3E0FF900221ECF0ED7A
:10018A00A3F0EEA3F0EFA3F090021DECF0EDA3F0C4
:10019A00EEA3F0EFA3F0900297E0FF6005BF010B1A
:1001AA0080030201B60204AC02066A22900225E02C
:1001BA00FFBF03004003020317EF901E6D93FE90EA
:1001CA000218E0FDB5060FBF0205900298E4F09010
:1001DA000225EF04F022EF901E7393FEEDB5061090
:1001EA00BF02069002987401F0900225EF04F022F3
:1001FA00EF901E7093FEEDB506028003020311BF55
:10020A000202800302030975820F1208C375820C69
:10021A001208C375825D1208C37582061208C3905C
:10022A003FFCE493F5821208C3903FFDE493F58204
:10023A001208C3903FFEE493F5821208C3903FFF71
:10024A00E493F5821208C3903FFAE493F582120808
:10025A00C3903FFBE493F5821208C375820C12081F
:10026A00C37D007E00C3ED940CEE64809480502020
:10027A00ED2476F582EE341EF583E493F582C0060A
:10028A00C0051208C3D005D0060DBD00D80E80D512
:10029A007582051208C37D007E00C3ED9405EE64E5
:1002AA008094805020ED2482F582EE341EF583E49A
:1002BA0093F582C006C0051208C3D005D0060DBD4D
:1002CA0000D80E80D57582051208C37D007E00C352
:1002DA00ED9405EE648094805020ED2487F582EE3B
:1002EA00341EF583E493F582C006C0051208C3D014
:1002FA0005D0060DBD00D80E80D5900225E4F090F9
:10030A000225E02401F022900225E4F022EFFE24E7
:10031A00F7500122EE240A83F582EE240D83F58339
:10032A00E473ABABAB3E4D5C6B7A8104040403030C
:10033A0003030303900218E0900226F0900225EFCF
:10034A0004F022900218E0900227F0900225EF04B0
:10035A00F022900218E0900228F0900225EF04F0B3
:10036A0022900218E0900229F0900225EF04F02270
:10037A00900225EF04F022900298E0FF6007BF0187
:10038A000302042122900227E0FF900226E0FEEFFA
:10039A006E6455FD900228E0B505767D007C008CE0
:1003AA00038D048E057E008F00E4F9FAFFE82EFE25
:1003BA00E93DFDEA3CFCEF3BFBC006C005C004C0BA
:1003CA0003900003E4F5F0121A8BAC82AD83AEF011
:1003DA00FFE58124FCF581900214ECF0EDA3F0EE28
:1003EA00A3F0EFA3F0900212E4F0A3F090024CF015
:1003FA0090024D747DF07401A3F090009475F000A2
:10040A001215A2900229E0900211F090029774014D
:10041A00F0900225E4F022900227E0FF900226E005
:10042A00FEEF6E6455FD900228E0FCB5056E7D0076
:10043A007C008C038D048E057E008F00E4F9FAFFA0
:10044A00E82EFEE93DFDEA3CFCEF3BFBC006C00599
:10045A00C004C003900003E4F5F0121A8BAC82AD1D
:10046A0083AEF0FFE58124FCF581900214ECF0EDF7
:10047A00A3F0EEA3F0EFA3F0900212E4F0A3F09041
:10048A00024CF090024D747DF07401A3F090009438
:10049A0075F0001215A29002977401F0900225E4FB
:1004AA00F022900212E0FEA3E0FF8E048F05C3EC57
:1004BA009480ED94015024900299E0FCA3E0FDEEB3
:1004CA002CFEEF3DFF900218E0FD8E828F83F090A4
:1004DA000212E02401F0A3E03400F0900214E024B8
:1004EA00FFFCA3E034FFFDA3E034FFFEA3E034FFEA
:1004FA00FF900214ECF0EDA3F0EEA3F0EFA3F0905E
:10050A000214E0F5F0A3E042F0A3E042F0A3E045D4
:10051A00F0600122900297E4F0900211E0FF24FBC0
:10052A0050030208A4EF2F2F9005367302054502E7
:10053A0005800205BB0205F502062F7E947F009016
:10054A000212E0FCA3E0FD0CBC00010D7D008D024F
:10055A008C037C007D008E008F01E4FEFFE84204DC
:10056A00E94205EE4203EF42028C828D838BF0EA68
:10057A001219430208A47E947F00900212E0FCA3A1
:10058A00E0FD0CBC00010D7D008D028C037C007D1A
:10059A00008E008F01E4FEFFE84204E94205EE42C4
:1005AA0003EF42028C828D838BF0EA1219670208EC
:1005BA00A47E947F00900212E0FCA3E0FD0CBC0034
:1005CA00010D7D008D028C037C007D008E008F0161
:1005DA00E4FEFFE84204E94205EE4203EF42028CE0
:1005EA00828D838BF0EA1219AF80727E947F00901D
:1005FA000212E0FCA3E0FD0CBC00010D7D008D029F
:10060A008C037C007D008E008F01E4FEFFE842042B
:10061A00E94205EE4203EF42028C828D838BF0EAB7
:10062A001219D380387E947F00900212E0FCA3E076
:10063A00FD0CBC00010D7D008D028C037C007D0049
:10064A008E008F01E4FEFFE84204E94205EE420310
:10065A00EF42028C828D838BF0EA12198B0208A476
:10066A00900221E0FCA3E0FDA3E0FEA3E0FF9002DC
:10067A0019E0F8A3E0F9A3E0FAA3E0FBE8C39CFCC5
:10068A00E99DFDEA9EFEEB9FFFC3EC94E8ED94031F
:10069A00EE9400EF9400500122900298E0FF60056A
:1006AA00BF014680231208A490029DE0F5F0A3E062
:1006BA0045F0700B90029D7401F0E4A3F0802A903B
:1006CA00029DE4F0A3F080211208A490029DE0F5B7
:1006DA00F0A3E045F0700B90029D7401F0E4A3F0E2
:1006EA00800790029DE4F0A3F0900219E0FCA3E0D9
:1006FA00FDA3E0FEA3E0FF900221ECF0EDA3F0EEF3
:10070A00A3F0EFA3F090029BE0F510A3E0F511909F
:10071A00029BE0F5F0A3E045F070012290021DE093
:10072A00F8A3E0F9A3E0FAA3E0FBECC398F8ED998B
:10073A00F9EE9AFAEF9BFBC004C005C006C007ACED
:10074A0010AD117E007F00C003C002C001C000C00E
:10075A0004C005C006C0079003E8E4F5F0121A8B3E
:10076A00AC82AD83AEF0FFE58124FCF581D000D0E8
:10077A0001D002D003C3E89CE99DEA9EEB9FD00713
:10078A00D006D005D0044013900297E4F090021DE1
:0C079A00ECF0EDA3F0EEA3F0EFA3F022D2
:1007A60012136F12139912138875DD0075D3007535
:1007B600D500229002A6E4F09002A8F0227F00C3A2
:1007C600E5DB9407920040067D077E008004ADDBE2
:1007D6007E008F037C00C3EB9DEC64808EF063F09B
:1007E6008095F05017EF249FFDE43402FE8F82754A
:1007F6008300E0FC8D828E83F00F80C3227F008F02
:10080600057E00C3ED9407EE940050188F057E0018
:10081600EF249FF582E43402F583E0FC8D828E831B
:10082600F00F80DB90000722900002E0FF9002A903
:10083600F0E020E05090029FE0FCA3E0FDA3E0FE84
:10084600A3E0FFBCB03FBD043CBE0039BF00367517
:10085600E200C2AF75890090022AE4F07438A3F072
:1008660090C3501218B490C3501218B490022AE0E4
:10087600FEA3E0FFC007C0068E828F83120069D0F8
:1008860006D00780FE2290022CE4F09002A9E060D8
:100896000690022C7401F090022CE0F58222900260
:1008A600A8E070189002AAE0FFE060108FD553D43C
:1008B600FC9002A87401F09002AAE4F022E582906E
:1008C600022DF09002A9E0605E7E007F009002A8F3
:1008D600E060200EBE00010F900005C007C00612A2
:1008E60018B4D006D007C3EE9450EF94C340DE751B
:1008F6008200229002AAE0FFBF400050257E0074CD
:10090600402FFFE43EFEEF2414FFEE3400FE90027B
:100916002DE08F828E83F09002AAE02401F075828A
:1009260001221208A480A275820022AFF0AE83E5F0
:1009360082900230F0EEA3F0EFA3F09002A9E070EF
:1009460003020A0790022EE0FEA3E0FFC3E49E74B2
:10095600808FF063F08095F04003020A077E007FE7
:10096600009002A8E060200EBE00010F900005C0B6
:1009760007C0061218B4D006D007C3EE9450EF9401
:10098600C340DE75820022900230E0FDA3E0FEA3A4
:10099600E0FF90022EE0FBA3E0FCC3E49B74808C96
:1009A600F063F08095F0509C9002AAE0FABA4000FD
:1009B60050498A017A00744029F9E43AFAE9241484
:1009C600F9EA3400FA8D828E838FF0121A6FF8A33B
:1009D600AD82AE83900230EDF0EEA3F0EFA3F08986
:1009E600828A83E8F09002AAE02401F01BBBFF0193
:1009F6001C90022EEBF0ECA3F0809F1208A40209D3
:100A06004A758200229002A6E0F582229002A6E0B4
:100A16007003F582229002A7E02414F582E43400E4
:100A2600F583E0FF9002A7E004F09002A6E014F040
:100A3600E0700353D4F38F82229002A6E07003F590
:100A460082229002A7E02414F582E43400F583E0C4
:100A5600FF9002A7E004F09002A6E014F0E0700315
:100A660053D4F38F822275D50074FC55D44402F515
:100A7600D49002A8E4F02230DE199002A6E5DBF05D
:100A86009002A7E4F09002A6E0600874F355D444FF
:040A960008F5D42269
:100A9A0090023AE5DBF0E0FFBF0802800302119200
:100AAA00900007E0FE7F00900006E0FD7C009002C7
:100ABA0033ED4FF0EC4EA3F090023AE4F0900001CF
:100ACA00E0FF900235F0900374E4F0900000E054E7
:100ADA00606058900000E0FE5306607D00BE20056D
:100AEA00BD0002800FBE403ABD003790023A74FF43
:100AFA00F0021198BF2003021198BF21028005BF9E
:100B0A002217800F120803AD82AE8390023AEDF0ED
:100B1A0002119812082E02119890023A74FFF002FC
:100B2A00119890023A74FFF0021198EFFE24F450E3
:100B3A000302118AEE240A83F582EE241083F583D8
:100B4A00E4735D628A358A22648A31569898110F55
:100B5A001110110F0B110F0F1111900003E0FFBFBD
:100B6A000102800DBF02028025BF0302803D020EF2
:100B7A006C90023774ABF07402A3F0E4A3F0900215
:100B8A00BDE0FEA3E0FF90023AEEF0020E72900280
:100B9A003774BFF07402A3F0E4A3F090030AE0FEF6
:100BAA00A3E0FF90023AEEF0020E72900002E070AB
:100BBA001D900237740CF07403A3F0E4A3F09003C1
:100BCA0010E0FEA3E0FF90023AEEF0020E729000EF
:100BDA0002E0FFBF011D9002377448F07403A3F0CE
:100BEA00E4A3F0900356E0FEA3E0FF90023AEEF091
:100BFA00020E72900002E0FFBF021D9002377412CB
:100C0A00F07403A3F0E4A3F090032EE0FEA3E0FF48
:100C1A0090023AEEF0020E72900002E0FFBF030269
:100C2A008003020E2C90023B7430F090023C04F0D8
:100C3A0090023D04F090023E04F090023F04F090CE
:100C4A00024004F090024104F090024204F0900243
:100C5A004304F090024404F09002457441F090027B
:100C6A004604F090024704F090024804F0900249CA
:100C7A0004F090024A04F090024BE4F09003587496
:100C8A001AF09003597403F0903FFCE493C4540F94
:100C9A00FF53070F7E00EF243BF582EE3402F58303
:100CAA00E090035AF090035BE4F0903FFC93FF530B
:100CBA00070F7E00EF243BF582EE3402F583E090C5
:100CCA00035CF090035DE4F0903FFD93C4540FFF82
:100CDA0053070F7E00EF243BF582EE3402F583E0E2
:100CEA0090035EF090035FE4F0903FFD93FF53079B
:100CFA000F7E00EF243BF582EE3402F583E0900389
:100D0A0060F0900361E4F0903FFE93C4540FFF53E8
:100D1A00070F7E00EF243BF582EE3402F583E09064
:100D2A000362F0900363E4F0903FFE93FF53070FD2
:100D3A007E00EF243BF582EE3402F583E0900364F3
:100D4A00F0900365E4F0903FFF93C4540FFF5307FC
:100D5A000F7E00EF243BF582EE3402F583E0900328
:100D6A0066F0900367E4F0903FFF93FF53070F7E0E
:100D7A0000EF243BF582EE3402F583E0900368F03D
:100D8A00900369E4F0903FFA93C4540FFF53070F9E
:100D9A007E00EF243BF582EE3402F583E090036A8D
:100DAA00F090036BE4F0903FFA93FF53070F7E0035
:100DBA00EF243BF582EE3402F583E090036CF09069
:100DCA00036DE4F0903FFB93C4540FFF53070F7E6B
:100DDA0000EF243BF582EE3402F583E090036EF0D7
:100DEA0090036FE4F0903FFB93FF53070F7E00EFF1
:100DFA00243BF582EE3402F583E0FF900370F09015
:100E0A000371E4F0900372741AF0E4A3F0900237CD
:100E1A007458F07403A3F0E4A3F090023A741AF041
:100E2A008046900002E0FFBF041C9002377430F045
:100E3A007403A3F0E4A3F0900346E0FEA3E0FF905E
:100E4A00023AEEF080229002377458F07403A3F04D
:100E5A00E4A3F0900372E0FEA3E0FF90023AEEF002
:100E6A00800690023A74FFF090023AE0FFBFFF0357
:100E7A00021198900233E0FDA3E0FE8F047F00C3C5
:100E8A00EC9DEF9E5008900233ECF0EFA3F0900235
:100E9A0033E0FEA3E0FF8E048F05C3EC9408ED94C3
:100EAA0000920140067C087D0080048E048F059024
:100EBA00023AECF07F00C3EF9C50278F057E00902A
:100ECA000237E0F9A3E0FAA3E0FBEF29F9E43AFAE2
:100EDA0089828A838BF0121A6FF98D828E83F00FC2
:100EEA0080D48C067F00900233E0FBA3E0FDEBC3C5
:100EFA009EFBED9FFD900233EBF0EDA3F0900237DD
:100F0A00E0FDA3E0FEA3E0FF900237EC2DF0E43E03
:100F1A00A3F0EFA3F0021198900002E0FF900233D1
:100F2A00F0E4A3F0021198900236E0900000F090ED
:100F3A000233E0FEA3E0FFC3EE9401EF94005003F6
:100F4A0002119890023A7401F0021198900002E09E
:100F5A00FF900236F0021198900000E0541F70369C
:100F6A00900003E0FE7F00900002E0FD7C00420753
:100F7A00EC4206BF0117BE00149002C6E0FF30E53E
:100F8A000302119890023A74FFF002119890023A03
:100F9A0074FFF0021198900000E0FF53071F7E00D3
:100FAA00BF0205BE000280028078900004E0FFBF05
:100FBA000102805FBF02028049BF03028033BF047F
:100FCA0002801DBF81028040BF8202802ABF830245
:100FDA008014BF844474BC55DE4402F5DE021198C5
:100FEA0053DE7302119874BC55D64402F5D6021129
:100FFA009853D67302119874BC55D44402F5D4029E
:10100A00119853D47302119874BC55D24402F5D284
:10101A0002119853D27302119890023A74FFF002A7
:10102A00119890023A74FFF0021198900000E0546F
:10103A001F7036900003E0FE7F00900002E0FD7C06
:10104A00004207EC4206BF0117BE00149002C6E038
:10105A00FF30E50302119890023A74FFF0021198EA
:10106A0090023A74FFF0021198900000E0FF5307D3
:10107A001F7E00BF0205BE000280030211559000C8
:10108A0003E0FE7F00900002E0FD7C004207EC4294
:10109A0006EF4E600302114D900005E0FE7F0090BE
:1010AA000004E0FD7C004207EC4206BF0106BE00D8
:1010BA000302113DBF0205BE00028063BF0305BEE5
:1010CA0000028047BF0405BE00028029BF8105BE19
:1010DA0000028055BF8205BE00028039BF8305BE6B
:1010EA000002801CBF8454BE005174BF55DE440305
:1010FA00F5DE021198747F55DE440CF5DE02119874
:10110A0074BF55D64403F5D6021198747F55D64458
:10111A000CF5D6807974BF55D44403F5D4806F7426
:10112A007F55D4440CF5D4806574BF55D24403F579
:10113A00D2805B747F55D2440CF5D290023A74FF88
:10114A00F0804B90023A74FFF0804390023A74FFA9
:10115A00F0803B900000E4F0900001F0900233E050
:10116A00FEA3E0FF8E048F05C3EC9402ED940040C9
:10117A000890023A7402F0801590023AEEF0800E5E
:10118A0090023A74FFF0800690023A74FFF09002DF
:10119A003AE0FFBFFF0A90023574FFF075DCCF22F8
:1011AA00EF24F740068FDD75DCC02275DD0075DCA3
:1011BA00C022900235E0FFBF0503021257BF0602A4
:1011CA00800302126B900233E0FEA3E0FF8E048FCD
:1011DA0005C3EC9408ED9400920240067C087D0059
:1011EA0080048E048F057F00C3EF9C50278F057EF5
:1011FA0000900237E0F9A3E0FAA3E0FBEF29F9E453
:10120A003AFA89828A838BF0121A6FF98D828E8359
:10121A00F00F80D48C067F00900233E0FBA3E0FD40
:10122A00EBC39EFBED9FFD900233EBF0EDA3F09034
:10123A000237E0FDA3E0FEA3E0FF900237EC2DF0B9
:10124A00E43EA3F0EFA3F08CDD63DC4022E5E35437
:10125A0080FF900233E0FDA3E0ED4FF5E375DC0279
:10126A002275DD0075DC0222900235E0FFBF200DF9
:10127A0030DE101207C375DD0085DCDC2275DD0067
:10128A0043DC022275D30074FC55D24402F5D22203
:10129A0020D90302134AE5D9540FFFADD9530530BB
:1012AA007E00BD0005BE0002801CBD1005BE000206
:1012BA008038BD2005BE00028046BD3006BE000350
:1012CA0002132F021348EFFE24FB5003021348EEC9
:1012DA002E9012DF7380088065800A8061805F1219
:1012EA001272021348120A7D8054EFFE24FB404E0C
:1012FA00EE2E901300738046804480428040803EE8
:10130A00EFFE24FB4038EE2E901316738008800BF4
:10131A00800E802A80281211BC802312128E801E11
:10132A00120A6C8019EFFE24FB4013EE2E90133B39
:10133A007380088009800780058003120A9AC2D93F
:10134A0030D81575DC0275D21275D41275E300C255
:10135A00DAC2D9C2D81207B910DA0122E5DA20E2D4
:10136A000375D8FF2275E20053E27F43E22975E351
:10137A000053E2BF53D1FB75D18043D1012243E12F
:10138A000443E10243E10143D81FD2EAD2AF227EED
:10139A000A7F008EEE8FEF7E147F008EE48FE57554
:1013AA00EB0C75D21275D4127E007F008EEC8FED95
:0713BA0075EA4075DC022218
:1013C200C021C0E0C0F0C082C083C007C006C00513
:1013D200C004C003C002C001C000C0D075D000125A
:1013E200129AD0D0D000D001D002D003D004D005C0
:1013F200D006D007D083D082D0F0D0E0D02132C046
:1014020021C0E0C0F0C082C083C007C006C005C0D2
:1014120004C003C002C001C000C0D075D000309823
:1014220005121C60C298309905121CA0C299D0D036
:10143200D000D001D002D003D004D005D006D0070E
:10144200D083D082D0F0D0E0D02132C021C0E0C021
:10145200F0C082C083C007C006C005C004C003C07C
:1014620002C001C000C0D075D00030C005121CEE11
:10147200C2C030C105121D2EC2C1D0D0D000D001D1
:10148200D002D003D004D005D006D007D083D082BA
:10149200D0F0D0E0D02132C021C0E0C0F0C082C084
:1014A20083C007C006C005C004C003C002C001C09B
:1014B20000C0D075D000900377E0FEA3E0FFC00724
:1014C200C0068E828F83120069D006D007D0D0D09A
:1014D20000D001D002D003D004D005D006D007D06E
:1014E20083D082D0F0D0E0D02132C021C0E0C0F061
:1014F200C082C083C007C006C005C004C003C002CA
:10150200C001C000C0D075D000900379E0FEA3E016
:10151200FFC007C0068E828F83120069D006D007F3
:10152200D0D0D000D001D002D003D004D005D00654
:10153200D007D083D082D0F0D0E0D02132C021C0F9
:10154200E0C0F0C082C083C007C006C005C004C0AE
:1015520003C002C001C000C0D075D000900375E086
:10156200FEA3E04E600E900375E0F8A3E0F58388D9
:1015720082120069D0D0D000D001D002D003D004B2
:10158200D005D006D007D083D082D0F0D0E0D021D1
:10159200321218EF1200DA12014E80FB758200221D
:1015A200AC82AD8390024DE0FEA3E0FFBE0003607B
:1015B200121F0F90024CE08C828D83121924A3DE3D
:1015C200FADFF88C828D8322E582FF901EDC93FE87
:1015D200EF901EB493FF70012290024FE0FD701B4A
:1015E200BF0209EEF4FC5292EC529322BF04028035
:1015F2000122EEF4FC5296EC529722BD0214BF0275
:1016020007EE4292EE429322BF0439EE4296EE4238
:101612009722BD0116BF0208EEF45292EE429322C7
:10162200BF0421EEF45296EE429722BD0316BF028A
:1016320008EE4292EEF4529322BF0408EE4296EE76
:10164200F4FE529722AF82BF0102800FBF020280D6
:1016520013BF03028017BF0425801BE5C620E21ECC
:10166200539DFB22E5C620E315539DF722E5C630C4
:10167200E20C539DFB22E5C630E303539DF722E5BE
:1016820082FF901E8C93FEEF901EDC93FDEF901E66
:10169200B493FF7003F58222EE600D8E82C007C004
:1016A20005121647D005D0077E00BF0202800ABF8E
:1016B20003028009BF040C8008AE908006AEA080B1
:1016C20002AEB0ED5E60047582012275820022E5F1
:1016D20082FF901E8C93FEEF901EDC93FDEF901E16
:1016E200B493FFEE600D8E82C007C005121647D07C
:1016F20005D007A2AFE433FEC2AFBF0202800ABF29
:1017020003028017BF04368024900250E07007ED78
:10171200F4FF52908027ED42908022900250E070B8
:1017220007EDF4FF52A08015ED42A0801090025008
:10173200E07007EDF4FF52B08003ED42B0EE6002BC
:03174200D2AF2201
:10174600C0D075D00808B8000D09B900090ABA005A
:10175600050BBB00010CD0D032A2AFC2AFA808A9BE
:1017660009AA0AAB0BAC8A8588F092AF30F51274E1
:10177600012C600D08B8000909B900050ABA000174
:101786000BC3EC9406FCECC313FC75F07DE8A4F8DF
:10179600ADF075F07DE9A42DF9E435F0FD75F07D29
:1017A600EAA42DFAE435F0FD75F07DEBA42DFB7D62
:1017B60000EC28F582E93DF583EA3DF5F0EB3D22A4
:1017C600A2AFC2AFA808A909AA0AAB0BAC0C92AF8C
:1017D60075F020E8A4A8F075F020E9A428F582A801
:1017E600F075F020EAA428F583A8F075F020EBA4A4
:1017F60028F9A8F075F020ECA42889F02285821239
:1018060085831385F014F51512175F858216858377
:101816001785F018F519E51245134514451570019D
:1018260022A812A913AA14AB1585161A85171B85AB
:10183600181C85191DE8494A4B60DBC003C002C06D
:1018460001C00012175FAC82AD83AEF0FFD000D0AE
:1018560001D002D003ECC3951AFCED951BFDEE9565
:101866001CFEEF951DFFC3EC94E8ED9403EE940087
:10187600EF940040A118B8FF0919B9FF051ABAFF7D
:10188600011B881289138A148B1574E8251AF51A18
:101896007403351BF51BE4351CF51CE4351DF51DDD
:1018A600851A16851B17851C18851D198087AE821B
:1018B600AF83C374019EE49F40022200C374029E5C
:1018C600FE74009FFF00BE0005BF0002002200005C
:1018D6000000000000000000000000000000000EF4
:1018E600BE00EB0FBF00ED002275A15575A1AA74CD
:1018F600F855B94406F5B975A1009013881218B4C5
:10190600759E5D759D0074F055894402F58953C92D
:0D191600EF758C06C28DD2A9D28CD2AF2203
:1019240020F71130F6138883A88220F509F6A883DE
:0C1934007583002280FEF280F5F0223264
:011941003273
:10194300ABF0A2AFE433FEC2AFE0A37A0833D2B266
:101953004002C2B27905D9FEC2B2DAF1DBEBEE6026
:1019630002D2AF22ABF0A2AFE433FEC2AFE0A37A60
:101973000833D2944002C2947905D9FEC294DAF1B5
:10198300DBEBEE6002D2AF22ABF0A2AFE433FEC2D8
:10199300AFE0A37A0833D2B34002C2B37905D9FECC
:1019A300C2B3DAF1DBEBEE6002D2AF22ABF0A2AF4F
:1019B300E433FEC2AFE0A37A0833D2954002C29566
:1019C3007905D9FEC295DAF1DBEBEE6002D2AF22E4
:1019D300ABF0A2AFE433FEC2AFE0A37A0833D296F2
:1019E3004002C2967905D9FEC296DAF1DBEBEE60CE
:0419F30002D2AF224B
:1019F70022AF82BF0200503EEF75F002A42477FDAC
:101A0700740335F0FE900252E0FBA3E0FC8D828E5A
:101A170083EBF0ECA3F0BF00028005BF0118800B39
:101A2700900254E024FF9288D2A822900254E0FF4B
:101A370024FF928AD2AA22AF82BF02005028BF0099
:101A4700028005BF01088004C2A88002C2AAEF7500
:101A5700F002A42477FE740335F0FF8E828F83741F
:071A6700F7F07419A3F0224F
:101A6F0020F71430F6148883A88220F507E6A883A0
:101A7F0075830022E280F7E49322E022C01E858165
:101A8F001EC082C083C0F0C0E0E5812408F581E567
:101A9F001E2409F92402F8AF1E0F8F06C000A806F6
:101AAF008606E51E24FAFDFC0C0CA8048604D00063
:101ABF008EF0ECA4FEABF0A60608A6038F068E00F0
:101ACF0086068D048C0086048EF0ECA4FEABF0A786
:101ADF000609A703E51E24092403F987068F04745A
:101AEF00032CF886048D038B0086038CF0EBA42E59
:101AFF00FEF78F0474022CF886048D03EB04F8862E
:101B0F00038CF0EBA42EF7E51E24092402F98704B9
:101B1F00098706198F0374022BF886038D028A003A
:101B2F0086028BF0EAA4ABF02CFCEB3EFEA7040977
:101B3F00A706198F03EB04F886038D02EA04F886D3
:101B4F00028BF0EAA4ABF02CFCEB3EFEA70409A736
:101B5F00068F0674032EF98F06EE04F886068D04A1
:101B6F0074022CF886048EF0ECA4F78F06EE04F9BD
:101B7F008F06EE04F886068D048C0086048EF0EC3A
:101B8F00A4FEABF0A70609A7038D0674032EF98FE9
:101B9F00068E0086068D0474032CF886048EF0ECF6
:101BAF00A4F78D06EE04F98F068E0086068D04ECE1
:101BBF0004F886048EF0ECA4FEABF0A70609A70389
:101BCF008D0177008F017700E51E2409F9E51E24AA
:101BDF0005F8E7F609E708F609E708F609E708F652
:101BEF00191919A81E088602088603088606088692
:101BFF0007E51E2405F8EA26F6EB0836F6EE08365A
:101C0F00F6EF0836F6E51E2405F8E6F70908E6F7BD
:101C1F000908E6F70908E6F7191919E709E709E7C7
:101C2F0009E7E51E24FAF8860408860508860608E3
:101C3F008607E51E2405F8EC26FCED0836FDEE08B8
:101C4F0036FEEF08368C828D838EF0851E81D01E76
:011C5F002262
:101C600090037BE0FF7E000FBF00010E7410C0E008
:101C7000E4C0E08F828E83121D80AE8215811581B3
:101C800090037CE0FFEEB507012290037BE0245532
:101C9000F582E43402F583E599F090037BEEF022BF
:101CA00030034A90037DE0FF90037EE0FEEFB5062F
:101CB00005A203C2032290037EE02465F582E4348A
:101CC00002F583E0F59990037EE0FF7E000FBF00F0
:101CD000010E7410C0E0E4C0E08F828E83121D807C
:0E1CE000AE82AF831581158190037EEEF02257
:101CEE0090037FE0FF7E000FBF00010E7410C0E076
:101CFE00E4C0E08F828E83121D80AE821581158125
:101D0E00900380E0FFEEB507012290037FE024757B
:101D1E00F582E43402F583E5C1F090037FEEF02204
:101D2E0030044A900381E0FF900382E0FEEFB50697
:101D3E0005A204C20422900382E02485F582E434D5
:101D4E0002F583E0F5C1900382E0FF7E000FBF0035
:101D5E00010E7410C0E0E4C0E08F828E83121D80ED
:0E1D6E00AE82AF8315811581900382EEF022C4
:101D7C0075820022C01E85811EAE82E583FF33E48E
:101D8C0033FD6009C3E49EFBE49FFC80048E038F4B
:101D9C0004E51E24FCF808E630E70FE51E24FCF8E9
:101DAC00C3E496FE08E496FF800AE51E24FCF88640
:101DBC0006088607C005C006C0078B828C83121DDF
:101DCC00EEAE82AF8315811581D005ED600DC3E4B5
:101DDC009EFCE49FFD8C828D8380048E828F83D049
:101DEC001E22C01E85811EAE82AF837D007C00E565
:101DFC001E24FCF808E6235401FB702FE51E24FC7E
:101E0C00F8E626F608E633F6E51E24FCF8C3EE9653
:101E1C00EF08965011E51E24FCF808E618C313C60B
:101E2C0013C608F680050C8C0580C4E51E24FCF84E
:101E3C00C3EE96EF0896400DE51E24FCF8EEC39613
:101E4C00FEEF0896FFE51E24FCF808E618C313C63F
:101E5C0013C608F68D041DEC70D18E828F83D01EB4
:011E6C002253
:101E6D0061626E646972416461416D62696E6F2079
:0F1E7D004875625633312E302E3241485232674B
:101E8C000000000000000000000000000000000145
:101E9C00000000000000000000000000000003042F
:101EAC00000002000000000001010101010101011C
:101EBC0000000202020202020202000003030303FA
:101ECC0003030303000004040404040404040000DA
:101EDC0001020408102040800000010204081020B8
:101EEC004080000001020408102040800000010224
:101EFC000408102040800000FFFFFFFFFFFFFFFFE2
:101F0C00FFFFFF00FFFF0102FFFFFFFFFFFFFFFFCF
:101F1C00FFFFFFFFFFFFFFFF03FFFFFFFFFFFFFFC1
:0A1F2C00931500009400000000006F
:101F360000E100000000080000000000120110018E
:101F4600EF020108091250C5010101020301120046
:101F560009024B000201008064080B000202020124
:101F66000409040000010202010405240010010511
:101F7600240100000424020205240600010705814D
:101F86000308004009040100020A000004070502D4
:101F960002400000070582024000004B00040309CE
:101FA6000404001C0341006D00620069006E006FAE
:101FB6000020004800750062005600330047001CF0
:101FC60000160343004400430020005300650072DE
:101FD60000690061006C0016000E0341006D00628E
:091FE6000069006E006F000E009E
:101FEF000C0330003100320033003400350036006E
:0D1FFF00370038003900410042001A000090
:02200C000000D2
:04200E00F719F719AE
:0420120000000000CA
:0420160000000000C6
:00000001FF
