:0600000002006B0213C1B7
:03000B0002166E6C
:03001300021414C0
:01001B0032B2
:030023000213299C
:03002B00021907B0
:01003300329A
:03003B0002146745
:030043000212EABC
:01004B003282
:0300530002137520
:01005B003272
:030063000219057A
:030066000214BBC6
:02006900E4733E
:0D006B00758121121D42E5826003020066CE
:1000780079ECE94400601B7A01901EF2789B75A028
:1000880002E493F2A308B8000205A0D9F4DAF275E5
:02009800A0FFC7
:06009A00E478FFF6D8FD3A
:1000A0007800E84400600A799475A000E4F309D868
:1000B000FC7807E84402600C7903900094E4F0A314
:0400C000D8FCD9FA95
:0E00C4007808E4F608F608F608F6780C7600E0
:0200D200C20367
:0200D400C20464
:0300D600020066BF
:1000DA001206CE9002557401F07582201214F29025
:1000EA0002557401F075820E1214F29002557401D1
:1000FA00F075820F1214F29002557401F075821095
:10010A001214F29002557401F075820B1214F290D7
:10011A0002557401F07582211214F21216EEAC82A5
:10012A00AD83AEF0FF900225ECF0EDA3F0EEA3F064
:10013A00EFA3F0900221ECF0EDA3F0EEA3F0EFA311
:10014A00F00207CC1216EEAC82AD83AEF0FF90023D
:10015A001DECF0EDA3F0EEA3F0EFA3F0120933E5E6
:10016A0082604512093AE58290021CF090021DE075
:10017A00FCA3E0FDA3E0FEA3E0FF900225ECF0ED76
:10018A00A3F0EEA3F0EFA3F0900221ECF0EDA3F0C0
:10019A00EEA3F0EFA3F090029DE0FF6005BF010B14
:1001AA0080030201B602041402059122900229E09A
:1001BA00FFBF03004003020317EF901E3393FE9024
:1001CA00021CE0FDB5060FBF020590029EE4F09006
:1001DA000229EF04F022EF901E3993FEEDB50610C6
:1001EA00BF020690029E7401F0900229EF04F022E9
:1001FA00EF901E3693FEEDB506028003020311BF8F
:10020A000202800302030975820F1207EB75820C42
:10021A001207EB75825D1207EB7582061207EB90E7
:10022A003FFCE493F5821207EB903FFDE493F582DD
:10023A001207EB903FFEE493F5821207EB903FFF23
:10024A00E493F5821207EB903FFAE493F5821207E2
:10025A00EB903FFBE493F5821207EB75820C1207D1
:10026A00EB7D007E00C3ED940CEE648094805020F8
:10027A00ED243CF582EE341EF583E493F582C00644
:10028A00C0051207EBD005D0060DBD00D80E80D5EB
:10029A007582051207EB7D007E00C3ED9405EE64BE
:1002AA008094805020ED2448F582EE341EF583E4D4
:1002BA0093F582C006C0051207EBD005D0060DBD26
:1002CA0000D80E80D57582051207EB7D007E00C32B
:1002DA00ED9405EE648094805020ED244DF582EE75
:1002EA00341EF583E493F582C006C0051207EBD0ED
:1002FA0005D0060DBD00D80E80D5900229E4F090F5
:10030A000229E02401F022900229E4F022EFFE24DF
:10031A00F7500122EE240A83F582EE240D83F58339
:10032A00E4731313133E4D5C6B7A810404040303D4
:10033A000303030390021CE090022AF0900229EFC3
:10034A0004F02290021CE090022BF0900229EF04A4
:10035A00F02290021CE090022CF0900229EF04F0A7
:10036A002290021CE090022DF0900229EF04F02264
:10037A00900229EF04F02290022BE0FF90022AE07B
:10038A00FEEF6E6455FD90022CE0FCB505767D000B
:10039A007C008C038D048E057E008F00E4F9FAFF41
:1003AA00E82EFEE93DFDEA3CFCEF3BFBC006C0053A
:1003BA00C004C003900003E4F5F0121A51AC82ADF8
:1003CA0083AEF0FFE58124FCF581900218ECF0ED94
:1003DA00A3F0EEA3F0EFA3F0900215E4F0A3F090DF
:1003EA000252F0900253747DF07401A3F0900094CD
:1003FA0075F0001214CA90022DE0900214F09002D7
:10040A009D7401F0900229E4F022900215E0FEA307
:10041A00E0FF8E048F05C3EC9403ED9400501EEEAA
:10042A002411FEEF3402FF90021CE0FD8E828F83BE
:10043A00F0900215E02401F0A3E03400F0900215D8
:10044A00E0FEA3E0FFBE036DBF006A900215E4F070
:10045A00A3F0900217E0FF7E00C007C006900003D9
:10046A00121867AE82AF8315811581EE2494FEEFD0
:10047A003400FF90022EEEF0EFA3F0900212E08E0D
:10048A00828F83F090022EE0FEA3E0FF74012EFC1F
:10049A00E43FFD900211E0FB8C828D83F074022E02
:1004AA00FEE43FFF900213E0FD8E828F83F09002FC
:1004BA0017E02401F0900218E024FFFCA3E034FFC7
:1004CA00FDA3E034FFFEA3E034FFFF900218ECF036
:1004DA00EDA3F0EEA3F0EFA3F0900218E0F5F0A37D
:1004EA00E042F0A3E042F0A3E045F060012290026E
:1004FA0017E4F090029DF0900214E0FF24FB5003F1
:10050A0002058EEF2F900513738008801D803280BC
:10051A0047805C7E947F007D007C0043057D8E824F
:10052A008F838DF0EC121909805A7E947F007D002A
:10053A007C0043057D8E828F838DF0EC12192D800D
:10054A00437E947F007D007C0043057D8E828F83ED
:10055A008DF0EC121975802C7E947F007D007C0052
:10056A0043057D8E828F838DF0EC12199980157E5A
:10057A00947F007D007C0043057D8E828F838DF001
:10058A00EC1219510207CC900225E0FCA3E0FDA36E
:10059A00E0FEA3E0FF90021DE0F8A3E0F9A3E0FA71
:1005AA00A3E0FBE8C39CFCE99DFDEA9EFEEB9FFFEE
:1005BA00C3EC94E8ED9403EE9400EF94005001220A
:1005CA0090029EE0FF6005BF014680231207CC908F
:1005DA0002A1E0F5F0A3E045F0700B9002A17401CE
:1005EA00F0E4A3F0802A9002A1E4F0A3F0802112A3
:1005FA0007CC9002A1E0F5F0A3E045F0700B900261
:10060A00A17401F0E4A3F080079002A1E4F0A3F042
:10061A0090021DE0FCA3E0FDA3E0FEA3E0FF900230
:10062A0025ECF0EDA3F0EEA3F0EFA3F090029FE02B
:10063A00F510A3E0F51190029FE0F5F0A3E045F074
:10064A00700122900221E0F8A3E0F9A3E0FAA3E006
:10065A00FBECC398F8ED99F9EE9AFAEF9BFBC0040C
:10066A00C005C006C007AC10AD117E007F00C003F4
:10067A00C002C001C000C004C005C006C007900384
:10068A00E8E4F5F0121A51AC82AD83AEF0FFE581D1
:10069A0024FCF581D000D001D002D003C3E89CE944
:1006AA009DEA9EEB9FD007D006D005D00440139058
:1006BA00029DE4F0900221ECF0EDA3F0EEA3F0EF3E
:0306CA00A3F02278
:1006CE001212971212C11212B075DD0075D3007599
:1006DE00D500229002AAE4F09002ACF0227F00C373
:1006EE00E5DB9407920040067D077E008004ADDBBB
:1006FE007E008F037C00C3EB9DEC64808EF063F074
:10070E008095F05017EF24A3FDE43402FE8F82751E
:10071E008300E0FC8D828E83F00F80C3227F008FDA
:10072E00057E00C3ED9407EE940050188F057E00F1
:10073E00EF24A3F582E43402F583E0FC8D828E83F0
:10074E00F00F80DB90000722900002E0FF9002ADD8
:10075E00F0E020E0509002A3E0FCA3E0FDA3E0FE59
:10076E00A3E0FFBCB03FBD043CBE0039BF003675F0
:10077E00E200C2AF758900900230E4F07438A3F045
:10078E0090C3501217DC90C3501217DC900230E069
:10079E00FEA3E0FFC007C0068E828F83120069D0D1
:1007AE0006D00780FE22900232E4F09002ADE060A7
:1007BE00069002327401F0900232E0F5822290022D
:1007CE00ACE070189002AEE0FFE060108FD553D40D
:1007DE00FC9002AC7401F09002AEE4F022E582903F
:1007EE000233F09002ADE0605E7E007F009002ACBE
:1007FE00E060200EBE00010F900005C007C006127B
:10080E0017DCD006D007C3EE9450EF94C340DE75CC
:10081E008200229002AEE0FFBF400050257E0074A1
:10082E00402FFFE43EFEEF2414FFEE3400FE900254
:10083E0033E08F828E83F09002AEE02401F0758259
:10084E0001221207CC80A275820022AFF0AE83E5A2
:10085E0082900236F0EEA3F0EFA3F09002ADE070BE
:10086E000302092F900234E0FEA3E0FFC3E49E745E
:10087E00808FF063F08095F0400302092F7E007F99
:10088E00009002ACE060200EBE00010F900005C08B
:10089E0007C0061217DCD006D007C3EE9450EF94B3
:1008AE00C340DE75820022900236E0FDA3E0FEA377
:1008BE00E0FF900234E0FBA3E0FCC3E49B74808C69
:1008CE00F063F08095F0509C9002AEE0FABA4000D2
:1008DE0050498A017A00744029F9E43AFAE924145D
:1008EE00F9EA3400FA8D828E838FF0121A35F8A34E
:1008FE00AD82AE83900236EDF0EEA3F0EFA3F08959
:10090E00828A83E8F09002AEE02401F01BBBFF0167
:10091E001C900234EBF0ECA3F0809F1207CC02087F
:10092E0072758200229002AAE0F582229002AAE05D
:10093E007003F582229002ABE02414F582E43400B9
:10094E00F583E0FF9002ABE004F09002AAE014F011
:10095E00E0700353D4F38F82229002AAE07003F565
:10096E0082229002ABE02414F582E43400F583E099
:10097E00FF9002ABE004F09002AAE014F0E07003E6
:10098E0053D4F38F822275D50074FC55D44402F5EE
:10099E00D49002ACE4F02230DE199002AAE5DBF02E
:1009AE009002ABE4F09002AAE0600874F355D444D0
:0409BE0008F5D42242
:1009C200900240E5DBF0E0FFBF080280030210BAAC
:1009D200900007E0FE7F00900006E0FD7C009002A0
:1009E20039ED4FF0EC4EA3F0900240E4F09000019C
:1009F200E0FF90023BF0900378E4F0900000E054B6
:100A0200606058900000E0FE5306607D00BE200545
:100A1200BD0002800FBE403ABD003790024074FF15
:100A2200F00210C0BF20030210C0BF21028005BF28
:100A32002217800F12072BAD82AE83900240EDF099
:100A42000210C01207560210C090024074FFF0025A
:100A520010C090024074FFF00210C0EFFE24F45068
:100A6200030210B2EE240A83F582EE241083F5838A
:100A7200E473858AB25DB24A8CB2597EC0C0100E50
:100A8200100F100E0A100E0E1010900003E0FFBFA0
:100A92000102800DBF02028025BF0302803D020DCC
:100AA2009490023D74AFF07402A3F0E4A3F09002BC
:100AB200C1E0FEA3E0FF900240EEF0020D9A900228
:100AC2003D74C3F07402A3F0E4A3F090030EE0FEC1
:100AD200A3E0FF900240EEF0020D9A900002E07057
:100AE2001D90023D7410F07403A3F0E4A3F0900390
:100AF20014E0FEA3E0FF900240EEF0020D9A900097
:100B020002E0FFBF011D90023D744CF07403A3F09C
:100B1200E4A3F090035AE0FEA3E0FF900240EEF05F
:100B2200020D9A900002E0FFBF021D90023D741672
:100B3200F07403A3F0E4A3F0900332E0FEA3E0FF1D
:100B4200900240EEF0020D9A900002E0FFBF030215
:100B52008003020D549002417430F090024204F07E
:100B620090024304F090024404F090024504F09095
:100B7200024604F090024704F090024804F090020A
:100B82004904F090024A04F090024B7441F0900242
:100B92004C04F090024D04F090024E04F090024F8B
:100BA20004F090025004F0900251E4F090035C745F
:100BB2001AF090035D7403F0903FFCE493C4540F69
:100BC200FF53070F7E00EF2441F582EE3402F583D6
:100BD200E090035EF090035FE4F0903FFC93FF53DC
:100BE200070F7E00EF2441F582EE3402F583E09098
:100BF2000360F0900361E4F0903FFD93C4540FFF53
:100C020053070F7E00EF2441F582EE3402F583E0B4
:100C1200900362F0900363E4F0903FFD93FF53076B
:100C22000F7E00EF2441F582EE3402F583E090035B
:100C320064F0900365E4F0903FFE93C4540FFF53B9
:100C4200070F7E00EF2441F582EE3402F583E09037
:100C52000366F0900367E4F0903FFE93FF53070FA3
:100C62007E00EF2441F582EE3402F583E0900368C2
:100C7200F0900369E4F0903FFF93C4540FFF5307D1
:100C82000F7E00EF2441F582EE3402F583E09003FB
:100C92006AF090036BE4F0903FFF93FF53070F7EDF
:100CA20000EF2441F582EE3402F583E090036CF00C
:100CB20090036DE4F0903FFA93C4540FFF53070F73
:100CC2007E00EF2441F582EE3402F583E090036E5C
:100CD200F090036FE4F0903FFA93FF53070F7E000A
:100CE200EF2441F582EE3402F583E0900370F09038
:100CF2000371E4F0903FFB93C4540FFF53070F7E40
:100D020000EF2441F582EE3402F583E0900372F0A5
:100D1200900373E4F0903FFB93FF53070F7E00EFC5
:100D22002441F582EE3402F583E0FF900374F090E3
:100D32000375E4F0900376741AF0E4A3F090023D98
:100D4200745CF07403A3F0E4A3F0900240741AF010
:100D52008046900002E0FFBF041C90023D7434F014
:100D62007403A3F0E4A3F090034AE0FEA3E0FF9033
:100D72000240EEF0802290023D745CF07403A3F016
:100D8200E4A3F0900376E0FEA3E0FF900240EEF0D1
:100D9200800690024074FFF0900240E0FFBFFF0324
:100DA2000210C0900239E0FDA3E0FE8F047F00C371
:100DB200EC9DEF9E5008900239ECF0EFA3F0900208
:100DC20039E0FEA3E0FF8E048F05C3EC9408ED9496
:100DD20000920140067C087D0080048E048F0590FD
:100DE2000240ECF07F00C3EF9C50278F057E0090FD
:100DF200023DE0F9A3E0FAA3E0FBEF29F9E43AFAB5
:100E020089828A838BF0121A35F98D828E83F00FD4
:100E120080D48C067F00900239E0FBA3E0FDEBC397
:100E22009EFBED9FFD900239EBF0EDA3F090023DA9
:100E3200E0FDA3E0FEA3E0FF90023DEC2DF0E43ED6
:100E4200A3F0EFA3F00210C0900002E0FF9002397D
:100E5200F0E4A3F00210C090023CE0900000F09099
:100E62000239E0FEA3E0FFC3EE9401EF94005003C9
:100E72000210C09002407401F00210C0900002E023
:100E8200FF90023CF00210C0900000E0541F703648
:100E9200900003E0FE7F00900002E0FD7C0042072C
:100EA200EC4206BF0117BE00149002CAE0FF30E513
:100EB200030210C090024074FFF00210C090024082
:100EC20074FFF00210C0900000E0FF53071F7E0085
:100ED200BF0205BE000280028078900004E0FFBFDE
:100EE2000102805FBF02028049BF03028033BF0458
:100EF20002801DBF81028040BF8202802ABF83021E
:100F02008014BF844474BC55DE4402F5DE0210C076
:100F120053DE730210C074BC55D64402F5D60210DB
:100F2200C053D6730210C074BC55D44402F5D40227
:100F320010C053D4730210C074BC55D24402F5D20F
:100F42000210C053D2730210C090024074FFF0022C
:100F520010C090024074FFF00210C0900000E054F4
:100F62001F7036900003E0FE7F00900002E0FD7CDF
:100F7200004207EC4206BF0117BE00149002CAE00D
:100F8200FF30E5030210C090024074FFF00210C06F
:100F920090024074FFF00210C0900000E0FF53077F
:100FA2001F7E00BF0205BE0002800302107D90007A
:100FB20003E0FE7F00900002E0FD7C004207EC426D
:100FC20006EF4E6003021075900005E0FE7F009070
:100FD2000004E0FD7C004207EC4206BF0106BE00B1
:100FE20003021065BF0205BE00028063BF0305BE97
:100FF20000028047BF0405BE00028029BF8105BEF2
:1010020000028055BF8205BE00028039BF8305BE43
:101012000002801CBF8454BE005174BF55DE4403DD
:10102200F5DE0210C0747F55DE440CF5DE0210C0FE
:1010320074BF55D64403F5D60210C0747F55D6440A
:101042000CF5D6807974BF55D44403F5D4806F74FF
:101052007F55D4440CF5D4806574BF55D24403F552
:10106200D2805B747F55D2440CF5D290024074FF5B
:10107200F0804B90024074FFF0804390024074FF76
:10108200F0803B900000E4F0900001F0900239E023
:10109200FEA3E0FF8E048F05C3EC9402ED940040A2
:1010A200089002407402F08015900240EEF0800E2B
:1010B20090024074FFF0800690024074FFF09002AC
:1010C20040E0FFBFFF0A90023B74FFF075DCCF22C5
:1010D200EF24F740068FDD75DCC02275DD0075DC7C
:1010E200C02290023BE0FFBF050302117FBF060250
:1010F2008003021193900239E0FEA3E0FF8E048F79
:1011020005C3EC9408ED9400920240067C087D0031
:1011120080048E048F057F00C3EF9C50278F057ECD
:101122000090023DE0F9A3E0FAA3E0FBEF29F9E425
:101132003AFA89828A838BF0121A35F98D828E836C
:10114200F00F80D48C067F00900239E0FBA3E0FD13
:10115200EBC39EFBED9FFD900239EBF0EDA3F09007
:10116200023DE0FDA3E0FEA3E0FF90023DEC2DF086
:10117200E43EA3F0EFA3F08CDD63DC4022E5E35410
:1011820080FF900239E0FDA3E0ED4FF5E375DC024C
:101192002275DD0075DC022290023BE0FFBF200DCC
:1011A20030DE101206EB75DD0085DCDC2275DD0019
:1011B20043DC022275D30074FC55D24402F5D222DC
:1011C20020D903021272E5D9540FFFADD95305306D
:1011D2007E00BD0005BE0002801CBD1005BE0002DF
:1011E2008038BD2005BE00028046BD3006BE000329
:1011F200021257021270EFFE24FB5003021270EE2D
:101202002E9012077380088065800A8061805F12C9
:10121200119A0212701209A58054EFFE24FB404E6F
:10122200EE2E901228738046804480428040803E99
:10123200EFFE24FB4038EE2E90123E738008800BA6
:10124200800E802A80281210E480231211B6801E9C
:101252001209948019EFFE24FB4013EE2E901263C4
:1012620073800880098007800580031209C2C2D9F1
:1012720030D81575DC0275D21275D41275E300C22E
:10128200DAC2D9C2D81206E110DA0122E5DA20E286
:101292000375D8FF2275E20053E27F43E22975E32A
:1012A2000053E2BF53D1FB75D18043D1012243E108
:1012B2000443E10243E10143D81FD2EAD2AF227EC6
:1012C2000A7F008EEE8FEF7E147F008EE48FE5752D
:1012D200EB0C75D21275D4127E007F008EEC8FED6E
:0712E20075EA4075DC0222F1
:1012EA00C021C0E0C0F0C082C083C007C006C005EC
:1012FA00C004C003C002C001C000C0D075D0001233
:10130A0011C2D0D0D000D001D002D003D004D00571
:10131A00D006D007D083D082D0F0D0E0D02132C01E
:10132A0021C0E0C0F0C082C083C007C006C005C0AB
:10133A0004C003C002C001C000C0D075D0003098FC
:10134A0005121C26C298309905121C66C299D0D083
:10135A00D000D001D002D003D004D005D006D007E7
:10136A00D083D082D0F0D0E0D02132C021C0E0C0FA
:10137A00F0C082C083C007C006C005C004C003C055
:10138A0002C001C000C0D075D00030C005121CB424
:10139A00C2C030C105121CF4C2C1D0D0D000D001E5
:1013AA00D002D003D004D005D006D007D083D08293
:1013BA00D0F0D0E0D02132C021C0E0C0F0C082C05D
:1013CA0083C007C006C005C004C003C002C001C074
:1013DA0000C0D075D00090037BE0FEA3E0FFC007F9
:1013EA00C0068E828F83120069D006D007D0D0D073
:1013FA0000D001D002D003D004D005D006D007D047
:10140A0083D082D0F0D0E0D02132C021C0E0C0F039
:10141A00C082C083C007C006C005C004C003C002A2
:10142A00C001C000C0D075D00090037DE0FEA3E0EB
:10143A00FFC007C0068E828F83120069D006D007CC
:10144A00D0D0D000D001D002D003D004D005D0062D
:10145A00D007D083D082D0F0D0E0D02132C021C0D2
:10146A00E0C0F0C082C083C007C006C005C004C087
:10147A0003C002C001C000C0D075D000900379E05B
:10148A00FEA3E04E600E900379E0F8A3E0F58388AE
:10149A0082120069D0D0D000D001D002D003D0048B
:1014AA00D005D006D007D083D082D0F0D0E0D021AA
:1014BA00321218171200DA12014E80FB75820022CE
:1014CA00AC82AD83900253E0FEA3E0FFBE0003604E
:1014DA00121F0F900252E08C828D8312184CA3DEE9
:1014EA00FADFF88C828D8322E582FF901EA293FE9A
:1014FA00EF901E7A93FF700122900255E0FD701B57
:10150A00BF0209EEF4FC5292EC529322BF0402800D
:10151A000122EEF4FC5296EC529722BD0214BF024D
:10152A0007EE4292EE429322BF0439EE4296EE4211
:10153A009722BD0116BF0208EEF45292EE429322A0
:10154A00BF0421EEF45296EE429722BD0316BF0263
:10155A0008EE4292EEF4529322BF0408EE4296EE4F
:10156A00F4FE529722AF82BF0102800FBF020280AF
:10157A0013BF03028017BF0425801BE5C620E21EA5
:10158A00539DFB22E5C620E315539DF722E5C6309D
:10159A00E20C539DFB22E5C630E303539DF722E597
:1015AA0082FF901E5293FEEF901EA293FDEF901EB3
:1015BA007A93FF7003F58222EE600D8E82C007C017
:1015CA000512156FD005D0077E00BF0202800ABF40
:1015DA0003028009BF040C8008AE908006AEA0808A
:1015EA0002AEB0ED5E60047582012275820022E5CA
:1015FA0082FF901E5293FEEF901EA293FDEF901E63
:10160A007A93FFEE600D8E82C007C00512156FD067
:10161A0005D007A2AFE433FEC2AFBF0202800ABF01
:10162A0003028017BF04368024900256E07007ED4B
:10163A00F4FF52908027ED42908022900256E0708B
:10164A0007EDF4FF52A08015ED42A08010900256DB
:10165A00E07007EDF4FF52B08003ED42B0EE600295
:03166A00D2AF22DA
:10166E00C0D075D00808B8000D09B900090ABA0033
:10167E00050BBB00010CD0D032A2AFC2AFA808A997
:10168E0009AA0AAB0BAC8A8588F092AF30F51274BA
:10169E00012C600D08B8000909B900050ABA00014D
:1016AE000BC3EC9406FCECC313FC75F07DE8A4F8B8
:1016BE00ADF075F07DE9A42DF9E435F0FD75F07D02
:1016CE00EAA42DFAE435F0FD75F07DEBA42DFB7D3B
:1016DE0000EC28F582E93DF583EA3DF5F0EB3D227D
:1016EE00A2AFC2AFA808A909AA0AAB0BAC0C92AF65
:1016FE0075F020E8A4A8F075F020E9A428F582A8DA
:10170E00F075F020EAA428F583A8F075F020EBA47C
:10171E0028F9A8F075F020ECA42889F02285821211
:10172E0085831385F014F515121687858216858329
:10173E001785F018F519E512451345144515700176
:10174E0022A812A913AA14AB1585161A85171B8584
:10175E00181C85191DE8494A4B60DBC003C002C046
:10176E0001C000121687AC82AD83AEF0FFD000D060
:10177E0001D002D003ECC3951AFCED951BFDEE953E
:10178E001CFEEF951DFFC3EC94E8ED9403EE940060
:10179E00EF940040A118B8FF0919B9FF051ABAFF56
:1017AE00011B881289138A148B1574E8251AF51AF1
:1017BE007403351BF51BE4351CF51CE4351DF51DB6
:1017CE00851A16851B17851C18851D198087AE82F4
:1017DE00AF83C374019EE49F40022200C374029E35
:1017EE00FE74009FFF00BE0005BF00020022000035
:1017FE000000000000000000000000000000000ECD
:10180E00BE00EB0FBF00ED002275A15575A1AA74A5
:10181E00F855B94406F5B975A1009013881217DC76
:10182E00759E5D759D0074F055894402F58953C906
:0D183E00EF758C06C28DD2A9D28CD2AF22DC
:10184C0020F71130F6138883A88220F509F6A883B7
:10185C007583002280FEF280F5F022C01E85811E69
:10186C00C082C083E5812405F581AF1E0FE51E24DF
:10187C0003F8A607087600087640E51E24FCFD7EDA
:10188C00007F40E51E2406F9A81E088604E51E24E8
:10189C00FCF886038CF0EBA4F709A7F0E51E2406F0
:1018AC0004F98704A81E08860374012DFAE43EFE91
:1018BC008A828E838FF0121A358BF0A4FBE51E24DE
:1018CC0003F8740126FDE40836FE0886078D828E27
:1018DC00838FF0121A35FDE51E24FCF886078DF077
:1018EC00EFA42B2CF7E51E2406F987060987078E33
:0A18FC00828F83851E81D01E2232E8
:0119070032AD
:10190900ABF0A2AFE433FEC2AFE0A37A0833D2B2A0
:101919004002C2B27905D9FEC2B2DAF1DBEBEE6060
:1019290002D2AF22ABF0A2AFE433FEC2AFE0A37A9A
:101939000833D2944002C2947905D9FEC294DAF1EF
:10194900DBEBEE6002D2AF22ABF0A2AFE433FEC212
:10195900AFE0A37A0833D2B34002C2B37905D9FE06
:10196900C2B3DAF1DBEBEE6002D2AF22ABF0A2AF89
:10197900E433FEC2AFE0A37A0833D2954002C295A0
:101989007905D9FEC295DAF1DBEBEE6002D2AF221E
:10199900ABF0A2AFE433FEC2AFE0A37A0833D2962C
:1019A9004002C2967905D9FEC296DAF1DBEBEE6008
:0419B90002D2AF2285
:1019BD0022AF82BF0200503EEF75F002A4247BFDE2
:1019CD00740335F0FE900258E0FBA3E0FC8D828E8F
:1019DD0083EBF0ECA3F0BF00028005BF0118800B74
:1019ED0090025AE024FF9288D2A82290025AE0FF7A
:1019FD0024FF928AD2AA22AF82BF02005028BF00D4
:101A0D00028005BF01088004C2A88002C2AAEF753A
:101A1D00F002A4247BFE740335F0FF8E828F837455
:071A2D00BDF07419A3F022C3
:101A350020F71430F6148883A88220F507E6A883DA
:101A450075830022E280F7E49322E022C01E85819F
:101A55001EC082C083C0F0C0E0E5812408F581E5A1
:101A65001E2409F92402F8AF1E0F8F06C000A80630
:101A75008606E51E24FAFDFC0C0CA8048604D0009D
:101A85008EF0ECA4FEABF0A60608A6038F068E002A
:101A950086068D048C0086048EF0ECA4FEABF0A7C0
:101AA5000609A703E51E24092403F987068F047494
:101AB500032CF886048D038B0086038CF0EBA42E93
:101AC500FEF78F0474022CF886048D03EB04F88668
:101AD500038CF0EBA42EF7E51E24092402F98704F4
:101AE500098706198F0374022BF886038D028A0075
:101AF50086028BF0EAA4ABF02CFCEB3EFEA70409B2
:101B0500A706198F03EB04F886038D02EA04F8860D
:101B1500028BF0EAA4ABF02CFCEB3EFEA70409A770
:101B2500068F0674032EF98F06EE04F886068D04DB
:101B350074022CF886048EF0ECA4F78F06EE04F9F7
:101B45008F06EE04F886068D048C0086048EF0EC74
:101B5500A4FEABF0A70609A7038D0674032EF98F23
:101B6500068E0086068D0474032CF886048EF0EC30
:101B7500A4F78D06EE04F98F068E0086068D04EC1B
:101B850004F886048EF0ECA4FEABF0A70609A703C3
:101B95008D0177008F017700E51E2409F9E51E24E4
:101BA50005F8E7F609E708F609E708F609E708F68C
:101BB500191919A81E0886020886030886060886CC
:101BC50007E51E2405F8EA26F6EB0836F6EE083694
:101BD500F6EF0836F6E51E2405F8E6F70908E6F7F8
:101BE5000908E6F70908E6F7191919E709E709E702
:101BF50009E7E51E24FAF88604088605088606081E
:101C05008607E51E2405F8EC26FCED0836FDEE08F2
:101C150036FEEF08368C828D838EF0851E81D01EB0
:011C2500229C
:101C260090037FE0FF7E000FBF00010E7410C0E03E
:101C3600E4C0E08F828E83121D46AE821581158127
:101C4600900380E0FFEEB507012290037FE0245B5E
:101C5600F582E43402F583E599F090037FEEF022F5
:101C660030034A900381E0FF900382E0FEEFB50661
:101C760005A203C20322900382E0246BF582E434BA
:101C860002F583E0F599900382E0FF7E000FBF0026
:101C9600010E7410C0E0E4C0E08F828E83121D46F0
:0E1CA600AE82AF8315811581900382EEF0228D
:101CB400900383E0FF7E000FBF00010E7410C0E0AC
:101CC400E4C0E08F828E83121D46AE821581158199
:101CD400900384E0FFEEB5070122900383E0247BA8
:101CE400F582E43402F583E5C1F0900383EEF0223B
:101CF40030044A900385E0FF900386E0FEEFB506CA
:101D040005A204C20422900386E0248BF582E43405
:101D140002F583E0F5C1900386E0FF7E000FBF006B
:101D2400010E7410C0E0E4C0E08F828E83121D4661
:0E1D3400AE82AF8315811581900386EEF022FA
:101D420075820022C01E85811EAE82E583FF33E4C8
:101D520033FD6009C3E49EFBE49FFC80048E038F85
:101D620004E51E24FCF808E630E70FE51E24FCF823
:101D7200C3E496FE08E496FF800AE51E24FCF8867A
:101D820006088607C005C006C0078B828C83121D19
:101D9200B4AE82AF8315811581D005ED600DC3E429
:101DA2009EFCE49FFD8C828D8380048E828F83D083
:101DB2001E22C01E85811EAE82AF837D007C00E59F
:101DC2001E24FCF808E6235401FB702FE51E24FCB8
:101DD200F8E626F608E633F6E51E24FCF8C3EE968E
:101DE200EF08965011E51E24FCF808E618C313C646
:101DF20013C608F680050C8C0580C4E51E24FCF889
:101E0200C3EE96EF0896400DE51E24FCF8EEC3964D
:101E1200FEEF0896FFE51E24FCF808E618C313C679
:101E220013C608F68D041DEC70D18E828F83D01EEE
:011E3200228D
:101E330061626E646972416461416D62696E6F20B3
:0F1E43004875625633312E302E33414852326784
:101E5200000000000000000000000000000000017F
:101E62000000000000000000000000000000030469
:101E72000000020000000000010101010101010156
:101E82000000020202020202020200000303030334
:101E92000303030300000404040404040404000014
:101EA20001020408102040800000010204081020F2
:101EB200408000000102040810204080000001025E
:101EC2000408102040800000FFFFFFFFFFFFFFFF1C
:101ED200FFFFFF00FFFF0102FFFFFFFFFFFFFFFF0A
:101EE200FFFFFFFFFFFFFFFF03FFFFFFFFFFFFFFFC
:081EF200BB1400000000000019
:101EFA0000E10000000008000000000012011001CB
:101F0A00EF020108091250C5010101020301120082
:101F1A0009024B000201008064080B000202020160
:101F2A00040904000001020201040524001001054D
:101F3A002401000004240202052406000107058189
:101F4A000308004009040100020A00000407050210
:101F5A0002400000070582024000004B000403090A
:101F6A000404001C0341006D00620069006E006FEA
:101F7A000020004800750062005600330047001C2C
:101F8A00001603430044004300200053006500721A
:101F9A0000690061006C0016000E0341006D0062CA
:091FAA000069006E006F000E00DA
:101FB3000C033000310032003300340035003600AA
:0D1FC300370038003900410042001A0000CC
:021FD00000000F
:041FD200BD19BD195F
:041FD6000000000007
:041FDA000000000003
:00000001FF
