:0600000002006B0224392E
:03000B0002274782
:0300130002248C38
:01001B0032B2
:030023000223A114
:03002B00022A1096
:01003300329A
:03003B000224DFBD
:0300430002236233
:01004B003282
:030053000223ED98
:01005B003272
:03006300022A0E60
:030066000225333D
:02006900E4733E
:0D006B007581451231E5E5826003020066F3
:100078007945E94400601B7A01903402781975A02B
:1000880003E493F2A308B8000205A0D9F4DAF275E4
:02009800A0FFC7
:06009A00E478FFF6D8FD3A
:1000A0007800E84400600A799475A000E4F309D868
:1000B000FC7885E84402600C7903900094E4F0A396
:0400C000D8FCD9FA95
:0200C400C20078
:0E00C6007808E4F608F608F608F6780C7600DE
:0200D400C20464
:0200D600C20561
:0300D800020066BD
:1000DC009002D37401F07582201225CB9002D37458
:1000EC0001F075820E1225CB9002D37401F075824B
:1000FC000F1225CB9002D37401F07582101225CB10
:10010C009002D37401F075820B1225CB9002D3743C
:10011C0001F07582210225CB900BB8E4F5F0122882
:10012C00041219DA1200DC1227C7AC82AD83AEF0D0
:10013C00FF9002ABECF0EDA3F0EEA3F0EFA3F09088
:10014C0002A7ECF0EDA3F0EEA3F0EFA3F0121ADC93
:10015C00900064E4F5F01228040203111227C7ACD6
:10016C0082AD83AEF0FF9002A3ECF0EDA3F0EEA312
:10017C00F0EFA3F0121C0CE582605890031DE4F024
:10018C00121C13E5829002A2F09002A3E0FCA3E003
:10019C00FDA3E0FEA3E0FF9002ABECF0EDA3F0EECC
:1001AC00A3F0EFA3F09002A7ECF0EDA3F0EEA3F018
:1001BC00EFA3F090031CE0FF600ABF0102800ABFAE
:1001CC000214800A12058D800D1207F680081208A1
:1001DC00F78003120C980215ECE5829002B1F0E066
:1001EC00FF24FB500122EF2F2F9001F9730202081C
:1001FC0002023D0202720202A70202DC7E947F0020
:10020C009002AFE0FCA3E03395E07D008D028C03FF
:10021C007C007D008E008F01E4FEFFE84204E94281
:10022C0005EE4203EF42028C828D838BF0EA022AA8
:10023C00B47E947F009002AFE0FCA3E03395E07DA8
:10024C00008D028C037C007D008E008F01E4FEFF8C
:10025C00E84204E94205EE4203EF42028C828D83B0
:10026C008BF0EA022ADC7E947F009002AFE0FCA3C4
:10027C00E03395E07D008D028C037C007D008E00C8
:10028C008F01E4FEFFE84204E94205EE4203EF422F
:10029C00028C828D838BF0EA022B247E947F00905B
:1002AC0002AFE0FCA3E03395E07D008D028C037C73
:1002BC00007D008E008F01E4FEFFE84204E9420558
:1002CC00EE4203EF42028C828D838BF0EA022B8983
:1002DC007E947F009002AFE0FCA3E03395E07D00BC
:1002EC008D028C037C007D008E008F01E4FEFFE804
:1002FC004204E94205EE4203EF42028C828D838B6D
:10030C00F0EA022B009032B2E493FE7401938E82D9
:10031C001222AFAF82BFFF067E017F0080149032A5
:10032C00B2E493FC7401938C821222AFAD828D06E1
:10033C007F00900290EEF09032B4E493FE7401933F
:10034C008E821222AFAF82BFFF067E007F00801428
:10035C009032B4E493FC7401938C821222AFAD8280
:10036C008D067F00900291EEF09032B6E493FE740D
:10037C0001938E821222AFAF82BFFF067E0A7F00EE
:10038C0080149032B6E493FC7401938C821222AFE9
:10039C00AD828D067F00900292EEF09032B8E4931D
:1003AC00FE7401938E821222AFAF82BFFF067E01D4
:1003BC007F0080149032B8E493FC7401938C821209
:1003CC0022AFAD828D067F00900293EEF09032BA90
:1003DC00E493FE7401938E821222AFAF82BFFF06AC
:1003EC007E067F0080149032BAE493FC7401938CE7
:1003FC00821222AFAD828D067F00900294EEF090B7
:10040C0032BCE493FE7401938E821222AFAF82BF92
:10041C00FF067E7F7F0080149032BCE493FC740155
:10042C00938C821222AFAD828D067F00900295EEE6
:10043C00F09032BEE493FE7401938E821222AFAF21
:10044C0082900297EFF09032C0E493FE7401938E89
:10045C00821222AFAF82900298EFF09032C2E493F6
:10046C00FE7401938E821222AFAF82900299EFF04C
:10047C007E007F00C3EE9408EF64809480400302FA
:10048C0005288E05ED75F003A4FDFB3395E0FCEB20
:10049C002422FBEC3403FC74092DFAF582C007C04E
:1004AC0006C005C004C003C0021222AFA982D0024C
:1004BC00D003D004D0058B828C83E9F0ED04FC339F
:1004CC0095E0FBEC2422FCEB3403FBEA04F582C040
:1004DC0005C004C003C0021222AFA982D002D0030F
:1004EC00D004D0058C828B83E9F00D0DED3395E0B3
:1004FC00FCED2422FDEC3403FC0A0A8A82C005C000
:10050C00041222AFAB82D004D005D006D0078D8266
:10051C008C83EBF00EBE00010F0204809032C4E419
:10052C0093FE7401938E821222AFAF82BFFF067EC0
:10053C007F7F0080149032C4E493FC7401938C820E
:10054C001222AFAD828D067F00900296EEF09032B3
:10055C00C6E493FE7401938E821222AFAF82BFFF6A
:10056C00067E1C7F0080149032C6E493FC740193C9
:10057C008C821222AFAD828D067F0090033AEEF092
:10058C00229002B2E0FFBF030040030206FBEF9093
:10059C00329093FE9002A2E0FDB506079002B2EFF6
:1005AC0004F022EF90329393FEEDB5060280030225
:1005BC0006CFBF020280030206C775820F121B050D
:1005CC0075820C121B0575825D121B057582061255
:1005DC001B05903FFCE493F582121B05903FFDE454
:1005EC0093F582121B05903FFEE493F582121B05D6
:1005FC00903FFFE493F582121B05903FFAE493F5CC
:10060C0082121B05903FFBE493F582121B05758249
:10061C000C121B057C007E00C3EC940CEE648094E1
:10062C00805020EC249CF582EE3432F583E493F573
:10063C0082C006C004121B05D004D0060CBC00D826
:10064C000E80D5758205121B057C007E00C3EC94D0
:10065C0005EE648094805020EC24A8F582EE3432B0
:10066C00F583E493F582C006C004121B05D004D0B8
:10067C00060CBC00D80E80D5758205121B057C00BB
:10068C007E00C3EC9405EE648094805020EC24AD85
:10069C00F582EE3432F583E493F582C006C0041281
:1006AC001B05D004D0060CBC00D80E80D575820179
:1006BC00121B059002B2E4F0121ADC9002B2E02494
:1006CC0001F022EF90329693FEEDB5061CBF02119D
:1006DC0090031C7402F090029BE4F0A3F09002B221
:1006EC00F09002B2E02401F0229002B2E4F022EF8A
:1006FC00FE24F7500122EE240A83F582EE240D83AA
:10070C00F583E473F5F5F52231404F5E6507070775
:10071C000707070707079002A2E09002B3F09002C8
:10072C00B2EF04F0229002A2E09002B4F09002B278
:10073C00EF04F0229002A2E09002B5F09002B2EF2A
:10074C0004F0229002A2E09002B6F09002B2EF0404
:10075C00F0229002B2EF04F0229002B4E0FF90027B
:10076C00B3E0FEEF6E6455FD9002B5E0FCB5057488
:10077C007D007C008C038D048E057E008F00E4F9D7
:10078C00FAFFE82EFEE93DFDEA3CFCEF3BFBC00620
:10079C00C005C004C003900003E4F5F0122D97AC23
:1007AC0082AD83AEF0FFE58124FCF58190029EECD6
:1007BC00F0EDA3F0EEA3F0EFA3F090029BE4F0A316
:1007CC00F09002D0F09002D104F0E4A3F0900094E9
:1007DC0075F0001225A39002B6E090029AF09003F7
:1007EC001C7401F09002B2E4F02290029BE0FEA394
:1007FC00E0FF8E048F05C3EC9403ED9400501EEEC5
:10080C002483FEEF3402FF9002A2E0FD8E828F83E0
:10081C00F090029BE02401F0A3E03400F090029BE6
:10082C00E0FEA3E0FFBE036DBF006A90029BE4F004
:10083C00A3F090029DE0FF7E00C007C0069000036D
:10084C00122970AE82AF8315811581EE2494FEEFD0
:10085C003400FF9002B7EEF0EFA3F0900284E08E2C
:10086C00828F83F09002B7E0FEA3E0FF74012EFCB0
:10087C00E43FFD900283E0FB8C828D83F074022EAA
:10088C00FEE43FFF900285E0FD8E828F83F09002A4
:10089C009DE02401F090029EE024FFFCA3E034FFD5
:1008AC00FDA3E034FFFEA3E034FFFF90029EECF0CA
:1008BC00EDA3F0EEA3F0EFA3F090029EE0F5F0A311
:1008CC00E042F0A3E042F0A3E045F0701D90029DE1
:1008DC00E4F090031CF090029AE0FF9002AFE4F079
:1008EC00A3F08F821201E5021ADC2290029BE0FE3B
:1008FC00A3E0FFC374239EE49F5003020A8AEE24F4
:10090C000A83F582EE242883F583E473607E96AE29
:10091C00C6DEF60E213434343434343434343434C6
:10092C0034343434343434343434343434588A6ACB
:10093C00090909090909090A0A0A0A0A0A0A0A0A12
:10094C000A0A0A0A0A0A0A0A0A0A0A0A0A0A0A0AFB
:10095C000A0A0A0A9002A2E0FDBDFF0890031BE4FC
:10096C00F0020A8A90031B7401F0900290EDF002E1
:10097C000A8A90031BE0FDBD01028003020A8A90E3
:10098C0002A2E0900291F0020A8A90031BE0FDBDE6
:10099C0001028003020A8A9002A2E0900292F00205
:1009AC000A8A90031BE0FDBD01028003020A8A90B3
:1009BC0002A2E0900293F0020A8A90031BE0FDBDB4
:1009CC0001028003020A8A9002A2E0900294F002D3
:1009DC000A8A90031BE0FDBD01028003020A8A9083
:1009EC0002A2E0900295F0020A8A90031BE0FDBD82
:1009FC0001028003020A8A9002A2E0FD900297F0A5
:100A0C00807C90031BE0FDBD01749002A2E0FD9080
:100A1C000298F0806990031BE0FDBD01619002A279
:100A2C00E0FD900299F0805690031BE0FDBD014E55
:100A3C00EE24F7FE3395E0FFEE2422FEEF3403FFA5
:100A4C009002A2E0FD8E828F83F0803290031BE037
:100A5C00FFBF012A9002A2E0900296F08020900342
:100A6C001BE0FFBF01189002A2E0FF24AF50067DEF
:100A7C00507E0080048F057E0090033AEDF09002CA
:100A8C009BE0FEA3E0FF8E048F05C3EC942DED9448
:100A9C0000500B90029B74012EF0E43FA3F09002E7
:100AAC009BE0FEA3E0FFBE2D05BF0002800122905B
:100ABC00031BE0FFBF01028003020C4C9032B2E436
:100ACC0093FE740193900290E09002CFF08E82120C
:100ADC0022799032B4E493FE740193900291E090E9
:100AEC0002CFF08E821222799032BCE493FE740114
:100AFC0093900295E09002CFF08E82122279903280
:100B0C00B8E493FE740193900293E09002CFF08EC0
:100B1C00821222799032BAE493FE7401939002947B
:100B2C00E09002CFF08E821222799032B6E493FEDE
:100B3C00740193900292E09002CFF08E821222798F
:100B4C009032BEE493FE740193900297E09002CF32
:100B5C00F08E821222799032C0E493FE740193904D
:100B6C000298E09002CFF08E821222799032C2E489
:100B7C0093FE740193900299E09002CFF08E821252
:100B8C0022797E007F00C3EE9408EF64809480404D
:100B9C0003020C208E05ED75F003A4FD2409FCED79
:100BAC00FA3395E0FBEA2422F582EB3403F583E07B
:100BBC009002CFF08C82C007C006C005C004122280
:100BCC0079D004D005EC04FBED04F93395E0FAE997
:100BDC002422F582EA3403F583E09002CFF08B8275
:100BEC00C005C004122279D004D0050C0C0D0DEDFB
:100BFC003395E0FBED2422F582EB3403F583E09092
:100C0C0002CFF08C82122279D006D0070EBE0001E2
:100C1C000F020B929032C4E493FE740193900296EF
:100C2C00E09002CFF08E821222799032C6E493FECD
:100C3C0074019390033AE09002CFF08E82122279E5
:100C4C0075820F121B0575820C121B0575825D12C5
:100C5C001B057E007F00C3EE942DEF6480948050C2
:100C6C00228E058D82C007C0061222AF121B059082
:100C7C000001E4F5F0122804D006D0070EBE00D611
:100C8C000F80D3121ADC90031CE4F0229002ABE02C
:100C9C00FCA3E0FDA3E0FEA3E0FF9002A3E0F8A319
:100CAC00E0F9A3E0FAA3E0FBE8C39CFCE99DFDEAB4
:100CBC009EFEEB9FFFC3EC94E8ED9403EE9400EFE3
:100CCC009400500122121ADC90033FE0F5F0A3E0EF
:100CDC0045F0700B90033F7401F0E4A3F080079093
:100CEC00033FE4F0A3F09002A3E0FCA3E0FDA3E03B
:100CFC00FEA3E0FF9002ABECF0EDA3F0EEA3F0EF5F
:100D0C00A3F09002A7E0F8A3E0F9A3E0FAA3E0FBBC
:100D1C00ECC398F522ED99F523EE9AF524EF9BF5AB
:100D2C0025900292E0F879007A007B00C007C0069B
:100D3C00C005C004C000C001C002C0039003E8E4B9
:100D4C00F5F0122D97A882A983AAF0FBE58124FC6B
:100D5C00F581D004D005D006D007C3E52298E52351
:100D6C0099E5249AE5259B50012290031CE4F09010
:100D7C0002A7ECF0EDA3F0EEA3F0EFA3F09002903D
:100D8C00E0FFBF010790031D7401F0227F00900368
:100D9C003AE0FEC3EF9E50388F057E00C007C005B9
:100DAC00C006900003122970AD82AE8315811581A7
:100DBC00D007ED2494FDEE3400FE8D828E83E4F09A
:100DCC008D828E83A3F08D828E83A3A3F00F80BEC1
:100DDC007E007F00C3EE9405EF64809480503B8EC0
:100DEC000590033AE0FC7B00C007C006C005C004B8
:100DFC00C003900003122970AB82AC83158115815E
:100E0C00D0059002AFEBF0ECA3F08D821201E5D08F
:100E1C0006D0070EBE00BD0F80BA2290028AE4F005
:100E2C00A3F01227C7AC82AD83AEF0FF90028CEC1E
:100E3C00F0EDA3F0EEA3F0EFA3F0221227C7AC82E3
:100E4C00AD83AEF0FF90028CE0F8A3E0F9A3E0FADA
:100E5C00A3E0FBECC398FCED99FDEE9AFEEF9BFF33
:100E6C00900294E0FB7A007415C39BFBE49AFAC0E1
:100E7C0007C006C005C00490028AE0C0E0A3E0C031
:100E8C00E08B828A83122970AA82AB83158115812B
:100E9C00D004D005D006D0078A008B017A007B00E5
:100EAC00C3EC98ED99EE9AEF9B5004758200227E6C
:100EBC00007F0090033AE0FD7C00C3EE9DEF9C4068
:100ECC00030214FC900296E0FD7C00C007C006C033
:100EDC0005C00490005012222DAC82AD83158115F3
:100EEC00818C828D83122BAD85822685832785F09C
:100EFC0028F529D006D0078E828F83C007C0061232
:100F0C002BADA882A983ACF0FDC026C027C028C099
:100F1C0029888289838CF0ED1222BF8582268583F5
:100F2C002785F028F529E58124FCF58190028AE0DB
:100F3C00F8A3E0F988828983122BADA882A983AC2F
:100F4C00F0FDC026C027C028C029888289838CF078
:100F5C00ED122A12AA82AB83ACF0FDE58124FCF5DC
:100F6C00818A828B838CF0ED122BB9858226858346
:100F7C00277450C0E0E4C0E08526828527831230B8
:100F8C0027AA82AB83158115818A828B83122BADA4
:100F9C0085822A85832B85F02CF52DE4C0E0C0E0FA
:100FAC007420C0E07441C0E0852A82852B83852C97
:100FBC00F0E52D122CA5AA82AB83ACF0FDE58124C3
:100FCC00FCF5818A828B838CF0ED122B48AC82ADC0
:100FDC00839002C1ECF0EDA3F08C828D83C005C030
:100FEC0004122B7CA882A983AAF0FBE4C0E0C0E029
:100FFC007420C0E07441C0E0888289838AF0EB12CF
:10100C0022BF85822E85832F85F030F531E5812432
:10101C00FCF581C02EC02FC030C031852A82852BB3
:10102C0083852CF0E52D122222A882A983AAF0FB3D
:10103C00E58124FCF581E4C0E0C0E07420C0E074DC
:10104C0041C0E0888289838AF0EB122CA5A882A982
:10105C0083AAF0FBE58124FCF581C000C001C0022D
:10106C00C00390000075F080743F12222285822A02
:10107C0085832B85F02CF52DE58124FCF5819002E0
:10108C00B9E52AF0E52BA3F0E52CA3F0E52DA3F0B0
:10109C00852682852783122BADA882A983AAF0FB13
:1010AC00C02EC02FC030C031888289838AF0EB12E9
:1010BC002222A882A983AAF0FBE58124FCF5818871
:1010CC008289838AF0EB122B48AA82AB837450C0BE
:1010DC00E0E4C0E08A828B83123027AA82AB8315AE
:1010EC008115818A828B83122BADA882A983AAF0E9
:1010FC00FBE4C0E0C0E07420C0E07441C0E0888232
:10110C0089838AF0EB122CA5A882A983AAF0FBE5AF
:10111C008124FCF581D0049002BDE8F0E9A3F0EA4B
:10112C00A3F0EBA3F0ECF52E75F003A4F93395E0E6
:10113C00FAE92422F582EA3403F583E0F582C0044F
:10114C00122D84A882A983AAF0FBC02AC02BC02C24
:10115C00C02D888289838AF0EB1222BF85822A8572
:10116C00832B85F02CF52DE58124FCF581D004D062
:10117C0005D006D0070CBC00010DC374079C74800D
:10118C008DF063F08095F050067C007D008009E5C1
:10119C002E04FBFC3395E0FDC006C007EC75F00394
:1011AC00A4FC3395E0FDEC2422F582ED3403F583A9
:1011BC00E0F582C007C006122D84AA82AB83ACF086
:1011CC00FD9002BDE0C0E0A3E0C0E0A3E0C0E0A35E
:1011DC00E0C0E08A828B838CF0ED1222BFAA82AB36
:1011EC0083ACF0FDE58124FCF581C002C003C00492
:1011FC00C005852A82852B83852CF0E52D122A12B9
:10120C00AA82AB83ACF0FDE58124FCF5818A828B4C
:10121C00838CF0ED122D8FE582D006D0079002C39F
:10122C00F09002C1E0FCA3E0FD8C03EB75F003A48D
:10123C0004F93395E0FAE92422F582EA3403F583C4
:10124C00E0F582C006C005C004C003122D84A8823C
:10125C00A983AAF0FFD003D004D005D006C007C0E4
:10126C0006C005C004C0039002B9E0C0E0A3E0C012
:10127C00E0A3E0C0E0A3E0C0E0888289838AF0EFBD
:10128C001222BF85822E85832F85F030F531E581C2
:10129C0024FCF581D003D004D005D006D0070CBCBB
:1012AC0000010DC374079C74808DF063F08095F081
:1012BC00D007D00650067C007D0080070BEBFC337A
:1012CC0095E0FDC006C007EC75F003A404FD339552
:1012DC00E0FCED2422F582EC3403F583E0F582C0CA
:1012EC0007C006122D84AA82AB83ACF0FD9002BD20
:1012FC00E0C0E0A3E0C0E0A3E0C0E0A3E0C0E08A6F
:10130C00828B838CF0ED1222BFAA82AB83ACF0FDF2
:10131C00E58124FCF581C002C003C004C005852E04
:10132C0082852F838530F0E531122A12AA82AB8395
:10133C00ACF0FDE58124FCF5818A828B838CF0ED89
:10134C00122D8FE582D006D0079002C4F09002C116
:10135C00E0FCA3E0FD8C03EB75F003A42402F9334D
:10136C0095E0FAE92422F582EA3403F583E0F5826C
:10137C00C006C005C004C003122D84A882A983AA8C
:10138C00F0FFD003D004D005D006C007C006C005BE
:10139C00C004C0039002B9E0C0E0A3E0C0E0A3E049
:1013AC00C0E0A3E0C0E0888289838AF0EF1222BFFC
:1013BC0085822E85832F85F030F531E58124FCF56F
:1013CC0081D003D004D005D006D0070CBC00010D91
:1013DC00C374079C74808DF063F08095F0D007D0B7
:1013EC000650067C007D0080070BEBFC3395E0FD7E
:1013FC00EC75F003A42402FD3395E0FCED2422F5FA
:10140C0082EC3403F583E0F582C007C006122D840C
:10141C00AA82AB83ACF0FD9002BDE0C0E0A3E0C0BB
:10142C00E0A3E0C0E0A3E0C0E08A828B838CF0ED07
:10143C001222BFAA82AB83ACF0FDE58124FCF581BE
:10144C00C002C003C004C005852E82852F83853061
:10145C00F0E531122A12AA82AB83ACF0FDE58124AF
:10146C00FCF5818A828B838CF0ED122D8F85822E78
:10147C00D006D0078E038F04C007C006C003C0047B
:10148C00900003122970AB82AC8315811581D006B4
:10149C00D007EB2494FBEC3400FC900295E0FA901E
:1014AC0002C4E0F5F0EAA4AAF08A018B828C83E9ED
:1014BC00F074012BF9E43CFA900295E0F89002C329
:1014CC00E0F5F0E8A4ADF08D0089828A83E8F07431
:1014DC00022BFBE43CFC900295E0852EF0A4AAF0D4
:1014EC008A058B828C83EDF00EBE00010F020EBFBD
:1014FC0090028AE0FEA3E0FFC3EE9450EF9400400C
:10150C0007120E277582032290028A74012EF0E4D2
:10151C003FA3F075820122E5829002C8F09002C7C9
:10152C00E0FF9002C5E0F5F0EFA4AEF09002C8E049
:10153C00F5F0EFA4ADF09002C6E0F5F0EFA4ACF03E
:10154C008C077B007C0090033AE0F97A00C3EB999E
:10155C00EC64808AF063F08095F0504AC007C006B6
:10156C00C005C004C003C003C0049000031229705E
:10157C00A982AA8315811581D003D004D005D00689
:10158C00D007E92494F9EA3400FA89828A83EEF0D0
:10159C0089828A83A3EDF089828A83A3A3EFF00B5F
:1015AC00BB00A30C80A07E007F00C3EE9405EF640B
:1015BC00809480502A8E0590033AE09002AFF0E4BC
:1015CC00A3F08D82C007C0061201E5900001E4F57E
:1015DC00F0122804D006D0070EBE00CE0F80CB220E
:1015EC001227C790031DE0700122900293E0FF24A4
:1015FC00FC500122EF2F2F901607730216130216C0
:10160C003B0216740219D8900297E0FF900298E002
:10161C00FE900299E0FD900295E0FC9002C5EEF080
:10162C009002C6EDF09002C7ECF08F8202152312E7
:10163C000E47E58230E0307E007F00C3EE9405EF6C
:10164C006480948050218E0590033AE09002AFF0B4
:10165C00E4A3F08D82C007C0061201E5D006D007C6
:10166C000EBE00D70F80D4221227C7AC82AD83AE3A
:10167C00F0FF900286E0F8A3E0F9A3E0FAA3E0FB08
:10168C00ECC398F8ED99F9EE9AFAEF9BFBC3E8944A
:10169C000AE99400EA9400EB94005001229002862F
:1016AC00ECF0EDA3F0EEA3F0EFA3F0900294E0FFCA
:1016BC007E00C007C006900064122970AE82AF8312
:1016CC0015811581E4C39EFE74089FFF8E828F8363
:1016DC00122B7C85823685833785F038F53990035B
:1016EC001EE0F532A3E0F533A3E0F534A3E0F535C5
:1016FC00E4C0E0C0E07480C0E0743FC0E08532829A
:10170C008533838534F0E535122A12A882A983AA81
:10171C00F0FBE58124FCF58190031EE8F0E9A3F0D1
:10172C00EAA3F0EBA3F0C036C037C038C03985321D
:10173C00828533838534F0E535122CA5A882A983E4
:10174C00AAF0FBE58124FCF581C000C001C002C0F9
:10175C0003900000E4F5F074401222BFA882A98324
:10176C00AAF0FBE58124FCF581E4C0E0C0E07480C4
:10177C00C0E0743FC0E0888289838AF0EB12222299
:10178C00A882A983AAF0FBE58124FCF581C000C0E6
:10179C0001C002C003900000E4F5F0122940AB82B6
:1017AC00E58124FCF581EB700302186A90031EE0BE
:1017BC00F532A3E0F533A3E0F534A3E0F535E4C04E
:1017CC00E0C0E07480C0E0743FC0E08532828533B5
:1017DC00838534F0E535122A12A882A983AAF0FB7E
:1017EC00E58124FCF58190031EE8F0E9A3F0EAA35F
:1017FC00F0EBA3F0C036C037C038C03985328285D3
:10180C0033838534F0E535122CA5A882A983AAF080
:10181C00FBE58124FCF581C000C001C002C003902F
:10182C000000E4F5F074401222BFA882A983AAF04C
:10183C00FBE58124FCF581E4C0E0C0E07480C0E0ED
:10184C00743FC0E0888289838AF0EB122222A8823E
:10185C00A983AAF0FBE58124FCF5810219239003EE
:10186C001EE0F532A3E0F533A3E0F534A3E0F53543
:10187C00E4C0E0C0E07480C0E0743FC0E085328218
:10188C008533838534F0E535122A12AC82AD83AEF4
:10189C00F0FFE58124FCF58190031EECF0EDA3F044
:1018AC00EEA3F0EFA3F0C036C037C038C039853294
:1018BC00828533838534F0E535122CA5AC82AD835B
:1018CC00AEF0FFE58124FCF581C004C005C006C064
:1018DC0007900000E4F5F074401222BFAC82AD8397
:1018EC00AEF0FFE58124FCF581E4C0E0C0E074803B
:1018FC00C0E0743FC0E08C828D838EF0EF12222208
:10190C00AC82AD83AEF0FFE58124FCF5818C008DBB
:10191C00018E02EFB2E7FBC000C001C002C0039011
:10192C00000075F080743F122222AC82AD83AEF0C1
:10193C00FFE58124FCF581C004C005C006C00790FA
:10194C00000075F07F74431222BFAC82AD83AEF001
:10195C00FFE58124FCF581C007C006C005C00490DA
:10196C00031EE0C0E0A3E0C0E0A3E0C0E0A3E0C041
:10197C00E08536828537838538F0E539122940AB0E
:10198C0082E58124FCF581D004D005D006D007EB8C
:10199C00600B90031EE4F0A3F0A3F0A3F08C828DF7
:1019AC00838EF0EF122D8FAF82900297E0FE9002A3
:1019BC0098E0FD900299E0FC9002C5EDF09002C613
:0D19CC00ECF09002C7EFF08E82021523228E
:1019DA001221D01221FA1221E975DD0075D30075A2
:1019EA00D5002290034CE4F0C200227F00C3E5DB5D
:1019FA009407920140067D077E008004ADDB7E00DD
:101A0A008F037C00C3EB9DEC64808EF063F08095BD
:101A1A00F05017EF2445FDE43403FE8F82758300EE
:101A2A00E0FC8D828E83F00F80C3227F008F057EBB
:101A3A0000C3ED9407EE940050188F057E00EF2442
:101A4A0045F582E43403F583E0FC8D828E83F00F42
:101A5A0080DB90000722900002E0FF90034EF0E046
:101A6A0020E033900345E0FCA3E0FDA3E0FEA3E001
:101A7A00FFBCB022BD041FBE001CBF001975E200E6
:101A8A00C2AF75890090C3501228B590C35012286E
:101A9A00B512380080FE227E007F003000200EBE84
:101AAA0000010F900005C007C0061228B5D006D065
:101ABA0007C3EE9450EF94C340E175820022758209
:101ACA00012275160090034EE06003751601851613
:101ADA00822220002590034FE0FF601E8FD553D449
:101AEA00FCD200BF400F121AA1E582600875D5002A
:101AFA0053D4FCD20090034FE4F022AF8290034EFD
:101B0A00E06041C007121AA1E582D0077003F5828E
:101B1A002290034FE0FEBE400050207D0074402E0C
:101B2A00FEE43DFDEE2414F582ED3400F583EFF07A
:101B3A0090034FE02401F075820122C007121ADCDB
:101B4A00D00780BF75820022AFF0AE83E582900293
:101B5A00CBF0EEA3F0EFA3F090034EE07003021C6B
:101B6A00089002C9E0FEA3E0FFC3E49E74808FF0F0
:101B7A0063F08095F04003021C08C007C006121AE1
:101B8A00A1E582D006D0077003F582229002CBE04D
:101B9A00FBA3E0FCA3E0FDC3E49E74808FF063F036
:101BAA008095F050BC90034FE0FABA400050498A41
:101BBA00017A00744029F9E43AFAE92414F9EA347A
:101BCA0000FA8B828C838DF0122D68F8A3AB82AC5D
:101BDA00839002CBEBF0ECA3F0EDA3F089828A8329
:101BEA00E8F090034FE02401F01EBEFF011F9002AF
:101BFA00C9EEF0EFA3F0809F121ADC021B6B75820C
:101C0A00002290034CE0F5822290034CE07003F529
:101C1A00822290034DE02414F582E43400F583E037
:101C2A00FF90034DE004F090034CE014F0E07003E1
:101C3A0053D4F38F822275D50074FC55D44402F52F
:101C4A00D4C2002230DE1990034CE5DBF090034D3C
:101C5A00E4F090034CE0600874F355D44408F5D4DA
:011C6A002257
:101C6C00AFDBBF0802800302203F900007E0FE7F3D
:101C7C0000900006E0FD7C004FF510EC4EF5117F56
:101C8C0000900001E0F512900000E0FE54606053FB
:101C9C00900000E0FE5306607D00BE2005BD0002F2
:101CAC00800BBE4039BD00367FFF0220417420B549
:101CBC0012030220417421B5120280077422B5125E
:101CCC0018800C121A35AD82AE838D07022041C0EC
:101CDC0007121A60D0070220417FFF0220417FFFCC
:101CEC00022041E51224F4500302203BE512240BA0
:101CFC0083F582E512241083F583E4731D4B3B0BB3
:101D0C003B15203B223F4141201E201F201E1D2041
:101D1C001E1E2020900003E0FEBE0102800ABE02BF
:101D2C0002800FBE037380147513C87514327F12B2
:101D3C0080697513DA7514327F46805F900002E07B
:101D4C0070087513207514338044900002E0FEBEB9
:101D5C0001087513547514338034900002E0FEBEF4
:101D6C0002087513247514338024900002E0FEBE23
:101D7C0003087513007514008014900002E0FEBE79
:101D8C00040875133E75143380047FFF800D851392
:101D9C0082851483E493FF80027FFFBFFF03022040
:101DAC00418F057E00C3ED9510EE951150048D10FA
:101DBC008E11AD10AE11C3ED9408EE94009202405A
:101DCC00067B087C008004AB10AC118B077C00C335
:101DDC00EC9F50198C027B00EC2513F582E4351432
:101DEC00F583E493F98A828B83F00C80E28F037C79
:101DFC0000EDC39BFDEE9CFE8D108E11EF2513F5AF
:101E0C0013E43514F514022041900002E0FE8E100C
:101E1C007511000220419002CEE0900000F0AD1050
:101E2C00AE11C3ED9401EE940050030220417F01EA
:101E3C00022041900002E0FE9002CEF00220419080
:101E4C000000E0541F702F900003E0FD7E00900016
:101E5C0002E0FC7B004206EB4205BE0114BD001102
:101E6C009032E1E493FE30E5030220417FFF022033
:101E7C00417FFF022041900000E0FE53061F7D00D1
:101E8C00BE0277BD0074900004E0FEBE0102805FCC
:101E9C00BE02028049BE03028033BE0402801DBE16
:101EAC0081028040BE8202802ABE83028014BE84DE
:101EBC004474BC55DE4402F5DE02204153DE73024D
:101ECC00204174BC55D64402F5D602204153D6733A
:101EDC0002204174BC55D44402F5D402204153D4A1
:101EEC007302204174BC55D24402F5D202204153F6
:101EFC00D2730220417FFF0220417FFF02204190DC
:101F0C000000E0541F702F900003E0FD7E00900055
:101F1C0002E0FC7B004206EB4205BE0114BD001141
:101F2C009032E1E493FE30E5030220417FFF022072
:101F3C00417FFF022041900000E0FE53061F7D0010
:101F4C00BE0205BD00028003022019900003E0FDD3
:101F5C007E00900002E0FC7B004206EB4205EE4D59
:101F6C006003022015900005E0FD7E00900004E067
:101F7C00FC7B004206EB4205BE0106BD00030220BD
:101F8C0009BE0205BD00028060BE0305BD000280D3
:101F9C0044BE0405BD00028028BE8105BD00028040
:101FAC0052BE8205BD00028036BE8305BD00028094
:101FBC001ABE8451BD004E74BF55DE4403F5DE805D
:101FCC0074747F55DE440CF5DE806A74BF55D644BC
:101FDC0003F5D68060747F55D6440CF5D6805674C4
:101FEC00BF55D44403F5D4804C747F55D4440CF5C0
:101FFC00D4804274BF55D24403F5D28038747F55D7
:10200C00D2440CF5D27FFF802C7FFF80287FFF808D
:10201C0024900000E4F0900001F0AD10AE11C3ED7F
:10202C009402EE940040047F02800AAF1080067F79
:10203C00FF80027FFFBFFF077512FF75DCCF22EF19
:10204C0024F740068FDD75DCC02275DD0075DCC021
:10205C00227405B51202805D7406B51266AE10AF1F
:10206C0011C3EE9408EF9400920340067C087D00A7
:10207C008004AC10AD117D00C3ED9C50198D027B1A
:10208C0000ED2513F582E43514F583E493F98A8287
:10209C008B83F00D80E28C037D00EEC39BFEEF9DE5
:1020AC00FF8E108F11EC2513F513E43514F5148CF9
:1020BC00DD63DC4022E5E35480FFE5104FF5E3756A
:1020CC00DC022275DD0075DC02227420B5120D30A5
:1020DC00DE101219F575DD0085DCDC2275DD0043A0
:1020EC00DC022275D30074FC55D24402F5D22220B6
:1020FC00D9030221A6E5D9540FFFADD95305307E83
:10210C0000BD0005BE0002801CBD1005BE00028093
:10211C0036BD2005BE00028043BD3006BE00030262
:10212C00218C0221A4EF24FB50030221A4EF2F9059
:10213C00213F73800880618009805D805B1220D60E
:10214C008056121C4E8051EF24FB404CEF2F9021F7
:10215C005E73804480428040803E803CEF24FB4094
:10216C0037EF2F902173738008800B800E802980AD
:10217C002712205D80221220EF801D121C40801837
:10218C00EF24FB4013EF2F90219773800880098078
:10219C000780058003121C6CC2D930D81A75DC027A
:1021AC0075D21275D41275E300C2DAC2D9C2D890B6
:1021BC0002CEE4F01219ED10DA0122E5DA20E20386
:1021CC0075D8FF2275E20053E27F43E22975E300E4
:1021DC0053E2BF53D1FB75D18043D1012243E104BB
:1021EC0043E10243E10143D81FD2EAD2AF227E0081
:1021FC007F008EEC8FED7E0A7F008EEE8FEF7E14CB
:10220C007F008EE48FE575EB0C75D21275D41275C8
:10221C00EA4075DC0222A8811818C6B2E7C6022A69
:10222C0012C015858115AE82AF837C007D007B10BA
:10223C00EF235401FAEE2EFEEF33FFEC2CFCED33C2
:10224C00FDEA6003430401E51524FCF8C3EC96EDAC
:10225C0008964010E51524FCF8ECC396FCED0896A6
:10226C00FD430601DBCA8E828F83D01522AF82BF5D
:10227C00800040012275A15575A1AA43B10475A136
:10228C00007585C0EF2FF5849002CFE0F58EE586C2
:10229C0030E60375869A75A15575A1AA53B1FB75E5
:1022AC00A10022AF827585C0EF2FF58475868E85CF
:1022BC008E8222122542BC0003022BE5EF60FA301D
:1022CC00D502B2D1E583B4FF03022BFBE582B4FF48
:1022DC0003022BFB258340072482400B022BE524B1
:1022EC0083145003022BFBF582EA8DF0A4A8F0EACC
:1022FC008EF0A428F8E435F0F9EB8DF0A428E9353C
:10230C00F0F9E433CA8FF0A429F9EA35F0FAEBF8C6
:10231C008EF0A429F9EA35F0FAE433FBEC8DF0A445
:10232C0029F9EA35F0FAE43BFBE88FF0A42AFAEB42
:10233C0035F0FBE433CCFD8EF0A42AFAEB35F0FB40
:10234C00E43CFCED8FF0A42BFBEC35F0FC20E70318
:06235C00122570022BC4E3
:10236200C021C0E0C0F0C082C083C007C006C00563
:10237200C004C003C002C001C000C0D075D00012AA
:1023820020FBD0D0D000D001D002D003D004D005A1
:10239200D006D007D083D082D0F0D0E0D02132C096
:1023A20021C0E0C0F0C082C083C007C006C005C023
:1023B20004C003C002C001C000C0D075D000309874
:1023C20005122F99C298309905122FD9C299D0D0EF
:1023D200D000D001D002D003D004D005D006D0075F
:1023E200D083D082D0F0D0E0D02132C021C0E0C072
:1023F200F0C082C083C007C006C005C004C003C0CD
:1024020002C001C000C0D075D00030C0051230B982
:10241200C2C030C1051230F9C2C1D0D0D000D00143
:10242200D002D003D004D005D006D007D083D0820A
:10243200D0F0D0E0D02132C021C0E0C0F0C082C0D4
:1024420083C007C006C005C004C003C002C001C0EB
:1024520000C0D075D000900352E0FEA3E0FFC00799
:10246200C0068E828F83120069D006D007D0D0D0EA
:1024720000D001D002D003D004D005D006D007D0BE
:1024820083D082D0F0D0E0D02132C021C0E0C0F0B1
:10249200C082C083C007C006C005C004C003C0021A
:1024A200C001C000C0D075D000900354E0FEA3E08C
:1024B200FFC007C0068E828F83120069D006D00744
:1024C200D0D0D000D001D002D003D004D005D006A5
:1024D200D007D083D082D0F0D0E0D02132C021C04A
:1024E200E0C0F0C082C083C007C006C005C004C0FF
:1024F20003C002C001C000C0D075D000900350E0FC
:10250200FEA3E04E600E900350E0F8A3E0F583884E
:1025120082120069D0D0D000D001D002D003D00402
:10252200D005D006D007D083D082D0F0D0E0D02121
:10253200321228F012012412016880FB75820022F7
:10254200AA82AB83A2F73392D1F5826002D2F7ACB2
:10255200F0E58124F9F8E6FD08E6FE0886F008E6D3
:0E256200A2F73392D5F5836002D2F7AFF022D4
:102570007804EC7011E58224F8500AF582E4C9CAA7
:10258000CBFCD8EF22EC7820058220E713D582011E
:1025900022C3E933F9EA33FAEB33FBEC33FCD8EA34
:1025A000158222AC82AD839002D1E0FEA3E0FFBE93
:1025B000000360121F0F9002D0E08C828D831229DD
:1025C00025A3DEFADFF88C828D8322E582FF90332B
:1025D000B293FEEF90338A93FF7001229002D3E012
:1025E000FD701BBF0209EEF4FC5292EC529322BF25
:1025F0000402800122EEF4FC5296EC529722BD02B6
:1026000014BF0207EE4292EE429322BF0439EE421B
:1026100096EE429722BD0116BF0208EEF45292EEEA
:10262000429322BF0421EEF45296EE429722BD035C
:1026300016BF0208EE4292EEF4529322BF0408EE57
:102640004296EEF4FE529722AF82BF0102800FBF86
:1026500002028013BF03028017BF0425801BE5C65A
:1026600020E21E539DFB22E5C620E315539DF72271
:10267000E5C630E20C539DFB22E5C630E303539DD3
:10268000F722E582FF90336293FEEF9033B293FD21
:10269000EF90338A93FF7003F58222EE600D8E82F5
:1026A000C007C005122648D005D0077E00BF020231
:1026B000800ABF03028009BF040C8008AE90800628
:1026C000AEA08002AEB0ED5E60047582012275821C
:1026D0000022E582FF90336293FEEF9033B293FDC8
:1026E000EF90338A93FFEE600D8E82C007C0051213
:1026F0002648D005D007A2AFE433FEC2AFBF020226
:10270000800ABF03028017BF043680249002D4E001
:102710007007EDF4FF52908027ED429080229002E6
:10272000D4E07007EDF4FF52A08015ED42A08010B8
:102730009002D4E07007EDF4FF52B08003ED42B098
:06274000EE6002D2AF22A0
:10274700C0D075D00808B8000D09B900090ABA0049
:10275700050BBB00010CD0D032A2AFC2AFA808A9AD
:1027670009AA0AAB0BAC8A8588F092AF30F51274D0
:10277700012C600D08B8000909B900050ABA000163
:102787000BC3EC9406FCECC313FC75F07DE8A4F8CE
:10279700ADF075F07DE9A42DF9E435F0FD75F07D18
:1027A700EAA42DFAE435F0FD75F07DEBA42DFB7D51
:1027B70000EC28F582E93DF583EA3DF5F0EB3D2293
:1027C700A2AFC2AFA808A909AA0AAB0BAC0C92AF7B
:1027D70075F020E8A4A8F075F020E9A428F582A8F0
:1027E700F075F020EAA428F583A8F075F020EBA493
:1027F70028F9A8F075F020ECA42889F02285823A00
:1028070085833B85F03CF53D12276085823E8583B5
:102817003F85F040F541E53A453B453C453D700174
:1028270022A83AA93BAA3CAB3D853E42853F43855A
:102837004044854145E8494A4B60DBC003C002C0BC
:1028470001C000122760AC82AD83AEF0FFD000D08C
:1028570001D002D003ECC39542FCED9543FDEE9504
:1028670044FEEF9545FFC3EC94E8ED9403EE940026
:10287700EF940040A118B8FF0919B9FF051ABAFF6C
:10288700011B883A893B8A3C8B3D74E82542F54217
:1028970074033543F543E43544F544E43545F545DC
:1028A70085423E85433F8544408545418087AE82CA
:1028B700AF83C374019EE49F40022200C374029E4B
:1028C700FE74009FFF00BE0005BF0002002200004B
:1028D7000000000000000000000000000000000EE3
:1028E700BE00EB0FBF00ED002275A15575A1AA74BC
:1028F700F855B94406F5B975A1009013881228B5A3
:10290700759E5D759D0074F055894402F58953C91C
:0D291700EF758C06C28DD2A9D28CD2AF22F2
:1029250020F71130F6138883A88220F509F6A883CD
:102935007583002280FEF280F5F022FFA881181829
:10294500122A89D2D133E6400730E70B758200227F
:1029550020E70675820122C2D1122A6BE97003F5C0
:10296500822220D101B3E433F58222C01585811579
:10297500C082C083E5812405F581AF150FE51524D7
:1029850003F8A607087600087640E51524FCFD7EC9
:10299500007F40E5152406F9A815088604E51524E9
:1029A500FCF886038CF0EBA4F709A7F0E5152406DF
:1029B50004F98704A81508860374012DFAE43EFE80
:1029C5008A828E838FF0122D688BF0A4FBE5152487
:1029D50003F8740126FDE40836FE0886078D828E0D
:1029E500838FF0122D68FDE51524FCF886078DF020
:1029F500EFA42B2CF7E5152406F987060987078E22
:0A2A0500828F83851581D0152232DF
:012A10003293
:102A12001225427900E583B58202800D5003122C03
:102A220013E583C39582123147E5D0C465D020E116
:102A320017EA2DFAEB3EFBEC3FFC50097401123110
:102A420047EC4480FC022BC4C3EA9DFAEB9EFBECEC
:102A52009FFC500FC3E499F9E49AFAE49BFBE49CCF
:102A6200FCB2D1122570022BC47901AA82E68F82B0
:102A7200B5821318E6B5F00E18E6B5830918E68A92
:102A820082B58202790022B4800FE5F0700AE583F4
:102A92007006E58270027F00EFB6801518B600104E
:102AA20018B6000B18B600060808087600220808B7
:102AB2000822ACF0A2AFE433FEC2AF7B03E0A37AFC
:102AC2000833D2B24002C2B27905D9FEC2B2DAF1FB
:102AD200DBEBDCE7EE6002D2AF22ABF0A2AFE43375
:102AE200FEC2AFE0A37A0833D2944002C2947905C1
:102AF200D9FEC294DAF1DBEBEE6002D2AF22ABF088
:102B0200A2AFE433FEC2AFE0A37A0833D2B34002ED
:102B1200C2B37905D9FEC2B3DAF1DBEBEE6002D2C1
:102B2200AF22ABF0A2AFE433FEC2AFE0A37A083328
:102B3200D2954002C2957905D9FEC295DAF1DBEB56
:102B4200EE6002D2AF2212318A700AE582458345D5
:102B5200F0700122E430D112F4700BE5F0F470064B
:102B6200E58330E7012290800022700AE5F07006CA
:102B7200E58320E70122907FFF22AC83AB827A00BB
:102B82007900748E022F75ABF0A2AFE433FEC2AFB0
:102B9200E0A37A0833D2964002C2967905D9FEC2E2
:102BA20096DAF1DBEBEE6002D2AF22E4AC83AB82C9
:102BB200FAF9748E0230AF7F8E1231FDF58385F003
:022BC20082226D
:102BC400B98003EA13B34010EA2401FAE43BFBE4BE
:102BD4003CFC50047C800582BC000EBB000BBA0098
:102BE40008E4F5F0F583F58222A2D1E582138CF096
:102BF40092F78B838A8222E4F583F58275F080F460
:102C0400A2D11322E4F583F58275F0C0747F22E526
:102C140082C583F582A2D133A2D592D11392D5EC89
:102C2400CFFCEBCEFBEACDFA2222AF82BF020050EA
:102C34003EEF75F002A42452FD740335F0FE9002B9
:102C4400D6E0FBA3E0FC8D828E83EBF0ECA3F0BF17
:102C540000028005BF0118800B9002D8E024FF9287
:102C640088D2A8229002D8E0FF24FF928AD2AA2216
:102C7400AF82BF02005028BF00028005BF01088058
:102C840004C2A88002C2AAEF75F002A42452FE7402
:102C94000335F0FF8E828F83742DF0742CA3F02201
:102CA50012254230D502B2D1BF0009BC0003022C67
:102CB50008022BFBBC0003022BE5E583B4FF0BE503
:102CC50082B4FF03022C08022BE5E582B4FF030260
:102CD5002BFBC395835007247F400B022BE52480F3
:102CE500145003022BFBF582C3ED9AEE9BEF9C403B
:102CF500111582C3EA33F9EB33FAEC33FBE433FC09
:102D05008005E4CCCBCAF9C08275F019C3E99DEA08
:102D15009EEB9FEC9400D5F002802D400EE99DF9C5
:102D2500EA9EFAEB9FFBEC9400FCC3B3E833F8E5AD
:102D35008233F582E58333F583C3E933F9EA33FA60
:102D4500EB33FBEC33FC80C4B3E4F938FAE43582A9
:102D5500FBE43583FCD082500405827C801225700B
:032D6500022BDC62
:102D680020F71430F6148883A88220F507E6A88394
:102D780075830022E280F7E49322E022E4AC82FB30
:102D8800FAF974860230AF7F861231FDF58222C0CF
:102D980015858115C082C083C0F0C0E0E581240894
:102DA800F581E5152409F92402F8AF150F8F06C03F
:102DB80000A8068606E51524FAFDFC0C0CA8048676
:102DC80004D0008EF0ECA4FEABF0A60608A6038F94
:102DD800068E0086068D048C0086048EF0ECA4FE18
:102DE800ABF0A70609A703E51524092403F987060C
:102DF8008F0474032CF886048D038B0086038CF0F3
:102E0800EBA42EFEF78F0474022CF886048D03EBD6
:102E180004F886038CF0EBA42EF7E51524092402A8
:102E2800F98704098706198F0374022BF886038D26
:102E3800028A0086028BF0EAA4ABF02CFCEB3EFE83
:102E4800A70409A706198F03EB04F886038D02EA85
:102E580004F886028BF0EAA4ABF02CFCEB3EFEA74C
:102E68000409A7068F0674032EF98F06EE04F88668
:102E7800068D0474022CF886048EF0ECA4F78F06F5
:102E8800EE04F98F06EE04F886068D048C0086049D
:102E98008EF0ECA4FEABF0A70609A7038D06740319
:102EA8002EF98F068E0086068D0474032CF886048E
:102EB8008EF0ECA4F78D06EE04F98F068E008606D8
:102EC8008D04EC04F886048EF0ECA4FEABF0A706A3
:102ED80009A7038D0177008F017700E5152409F90B
:102EE800E5152405F8E7F609E708F609E708F609FD
:102EF800E708F6191919A81508860208860308862E
:102F080006088607E5152405F8EA26F6EB0836F6DE
:102F1800EE0836F6EF0836F6E5152405F8E6F70963
:102F280008E6F70908E6F70908E6F7191919E7099D
:102F3800E709E709E7E51524FAF88604088605088D
:102F48008606088607E5152405F8EC26FCED083604
:102F5800FDEE0836FEEF08368C828D838EF08515DF
:102F680081D01522FCABF0AA83A982749EF582C297
:102F7800D1EC30E716D2D1E9F42401F9EAF43400AF
:102F8800FAEBF43400FBECF43400FC122570022B4D
:012F9800C474
:102F9900900356E0FF7E000FBF00010E7410C0E0E1
:102FA900E4C0E08F828E83123222AE8215811581B0
:102FB900900357E0FFEEB5070122900356E024D9AC
:102FC900F582E43402F583E599F0900356EEF02298
:102FD90030044A900358E0FF900359E0FEEFB5062C
:102FE90005A204C20422900359E024E9F582E434DD
:102FF90002F583E0F599900359E0FF7E000FBF00C9
:10300900010E7410C0E0E4C0E08F828E8312322278
:0E301900AE82AF8315811581900359EEF0222F
:10302700C015858115AE82AF837D007C00E5152430
:10303700FCF808E6235401FB702FE51524FCF8E69D
:1030470026F608E633F6E51524FCF8C3EE96EF08F6
:10305700965011E51524FCF808E618C313C613C6E5
:1030670008F680050C8C0580C4E51524FCF8C3EE32
:1030770096EF0896400DE51524FCF8EEC396FEEF93
:103087000896FFE51524FCF808E618C313C613C60F
:1030970008F68D041DEC70D18E828F83D01522FC2B
:1030A700ABF0AA83A982749EC2D1F5821225700261
:0230B7002BC428
:1030B90090035AE0FF7E000FBF00010E7410C0E0BC
:1030C900E4C0E08F828E83123222AE82158115818F
:1030D90090035BE0FFEEB507012290035AE024F963
:1030E900F582E43402F583E5C1F090035AEEF0224B
:1030F90030054A90035CE0FF90035DE0FEEFB50602
:1031090005A205C2052290035DE02409F582E43495
:1031190003F583E0F5C190035DE0FF7E000FBF007A
:10312900010E7410C0E0E4C0E08F828E8312322257
:0E313900AE82AF831581158190035DEEF0220A
:103147006040F82582500274FFF582E824F8501E8B
:10315700CCCBCAF9E4CC24F85014CBCAF9E4CB247D
:10316700F8500BCAF9E4CA24F8500379002224085E
:103177006010F8C3EC13FCEB13FBEA13FAE913F93D
:10318700D8F1221231E9C3749E9582403979001231
:10319700314730D126E9F42401F582EAF43400F509
:1031A70083EBF43400F5F0ECF43400700AE5824563
:1031B7008345F0700122E430E70F22EC20E7148901
:1031C700828A838BF02230D10AE4F582F583F5F009
:1031D70074802274FFF582F583F5F0747F2275827F
:1031E7000022AA82AB83A2F73392D1F5826002D282
:1031F700F7ACF0227F9E1231E930D103022BE5C3F1
:10320700EF9582500974FFF5F0F583F58222790076
:1032170012314789828A838BF0EC22C0158581158C
:10322700AE82E583FF33E433FD6009C3E49EFBE42C
:103237009FFC80048E038F04E51524FCF808E63014
:10324700E70FE51524FCF8C3E496FE08E496FF8033
:103257000AE51524FCF88606088607C005C006C0DF
:10326700078B828C83123027AE82AF83158115813D
:10327700D005ED600DC3E49EFCE49FFD8C828D8339
:0932870080048E828F83D0152291
:1032900061626E646972687364416461416D626900
:1032A0006E6F204875625633312E302E35414852AC
:1032B0003267000001000200030004000500060060
:0832C0000700080021002300B3
:1032C80012011001EF020108091250C501010102A3
:1032D8000301090246000201008064080B00020293
:1032E800020104090400000102020104052400107F
:1032F80001042402020524060001070581030800D1
:103308004009040100020A00000407050202400007
:103318000007058202400000040309041A03410063
:103328006D00620069006E006F00200048007500A3
:103338006200560033001603430044004300200097
:10334800530065007200690061006C000E034100C3
:0A3358006D00620069006E006F0056
:10336200000000000000000000000000000000015A
:103372000000000000000000000000000000030444
:103382000000020000000000010101010101010131
:10339200000002020202020202020000030303030F
:1033A20003030303000004040404040404040000EF
:1033B20001020408102040800000010204081020CD
:1033C2004080000001020408102040800000010239
:1033D2000408102040800000FFFFFFFFFFFFFFFFF7
:1033E200FFFFFF00FFFF0102FFFFFFFFFFFFFFFFE5
:1033F200FFFFFFFFFFFFFFFF03FFFFFFFFFFFFFFD7
:10340200332500000000000000CC0001FB940BFFFC
:10341200FF0101CC0003C0C60000FE762CA7FE9877
:0C342200BF401E001F0000000000000062
:0B342E0000E1000000000800000000AA
:02343900000091
:04343B002D2C2D2CDB
:04343F000000000089
:043443000000000085
:00000001FF
