:0600000002004B02121782
:03000B000217F5E4
:0300130002126A6C
:01001B0032B2
:030023000211CBFC
:01002B0032A2
:01003300329A
:03003B000212BDF1
:0300430002118C1B
:0300460002131191
:02004900E4735E
:0D004B0075816612131CE5826003020046F9
:1000580079DFE94400601B7A01901ECA784375A0D5
:1000680001E493F2A308B8000205A0D9F4DAF27506
:02007800A0FFE7
:06007A00E478FFF6D8FD5A
:100080007800E84400600A799475A000E4F309D888
:10009000FC78AFE84400600C7901900094E4F0A390
:0400A000D8FCD9FAB5
:1000A4007522117523137524007525007527947521
:0B00B4002800E4F53CF53DF53EF53F6B
:0900BF0075191A751A00751B0071
:0E00C8007808E4F608F608F608F6780C7600DC
:0200D600C20066
:0300D800020046DD
:1000DB001206999001207401F075820B12166A902A
:1000EB0001207401F075822112166A9001207401AF
:1000FB00F075821E12166A9001207401F075820E43
:10010B0012166A9001207401F075822012166A9003
:10011B0001207401F075821012166A121875AC82E8
:10012B00AD83AEF0FF8C388D398E3A8F3B8C348D8E
:10013B00358E368F379000EA7425F0741EA3F07459
:10014B0080A3F090079E12137E12077F900064E449
:10015B00F5F01218B202077F12187585823085836D
:10016B003185F032F5331208E5E58260311208EC87
:10017B0085822FAC30AD31AE32AF338C388D398EAA
:10018B003A8F3B8C348D358E368F37E4B524028015
:10019B00077401B5240B80030201AD02041D020597
:1001AB00CD2274FD254050030202F4E540901E045D
:1001BB0093B52F0B7402B54003752500054022E55E
:1001CB0040901E0A93B52F0B7402B54003752501A1
:1001DB00054022E540901E0793FFB52F02800302D6
:1001EB0002F07402B5400280030202ED75820F1219
:1001FB00079E75820C12079E75825D12079E758293
:10020B000612079E903FFCE493F58212079E903FE7
:10021B00FDE493F58212079E903FFEE493F5821264
:10022B00079E903FFFE493F58212079E903FFAE4FE
:10023B0093F58212079E903FFBE493F58212079E83
:10024B0075820E12079E7E007F00C3EE940EEF6444
:10025B008094805020EE240DF582EF341EF583E45C
:10026B0093F582C007C00612079ED006D0070EBEBC
:10027B0000D80F80D575820512079E7E007F00C3C4
:10028B00EE9405EF648094805020EE241BF582EFF2
:10029B00341EF583E493F582C007C00612079ED087
:1002AB0006D0070EBE00D80F80D575820512079EAB
:1002BB007E007F00C3EE9405EF648094805020EEA7
:1002CB002420F582EF341EF583E493F582C007C03A
:1002DB000612079ED006D0070EBE00D80F80D5752C
:1002EB00400005402275400022E54024F7500122D2
:1002FB00E540240B83F582E540240D83F583E473FD
:10030B001C1C1C1D23292F35380404040303030371
:10031B000303852F41054022852F42054022852F5F
:10032B0043054022852F44054022054022E4B52594
:10033B000280087401B52502806E22E5426541FFFB
:10034B007E00630755AC437D00ECB50757EDB50652
:10035B0053AC417D007E008E078D068C057C00A87A
:10036B0042E4F9FAFBE82CF563E93DF564EA3EF566
:10037B0065EB3FF566900003E4F5F01219CA858230
:10038B002B85832C85F02DF52EE4F529F52AF563C5
:10039B0075643CF56590009475F00012164B85441E
:1003AB002675240175400022E5426541FF7E0063FE
:1003BB000755AC437D00ECB50754EDB50650AC4189
:1003CB007D007E008E078D068C057C00A842E4F92B
:1003DB00FAFBE82CF563E93DF564EA3EF565EB3F86
:1003EB00F566900003E4F5F01219CA85822B85831C
:1003FB002C85F02DF52EE4F529F52AF56375643C73
:10040B00F56590009475F00012164B75240175403C
:10041B000022C3E529943FE52A94005017E52925CE
:10042B0027F582E52A3528F583E52FF00529E4B574
:10043B002902052A152B74FFB52B0C152CB52C078F
:10044B00152DB52D02152EE52B452C452D452E6072
:10045B000122752400E52624FA500302077FE526C6
:10046B0075F003A4900473730204850204BC0204A8
:10047B00F302052A0205600205967E947F00AC29E3
:10048B00AD2A0CBC00010D7D008D028C037C007D20
:10049B00008E008F01E4FEFFE84204E94205EE42C4
:1004AB0003EF42028C828D838BF0EA121A3802071B
:1004BB007F7E947F00AC29AD2A0CBC00010D7D0022
:1004CB008D028C037C007D008E008F01E4FEFFE823
:1004DB004204E94205EE4203EF42028C828D838B8C
:1004EB00F0EA121C0802077F7E947F00AC29AD2A2C
:1004FB000CBC00010D7D008D028C037C007D008EF9
:10050B00008F01E4FEFFE84204E94205EE4203EFEF
:10051B0042028C828D838BF0EA121AF502077F7EE2
:10052B00947F00AC29AD2A0CBC00010D7D008D021F
:10053B008C037C007D008E008F01E4FEFFE84204FB
:10054B00E94205EE4203EF42028C828D838BF0EA87
:10055B00121B69806A7E947F00AC29AD2A0CBC000B
:10056B00010D7D008D028C037C007D008E008F01C0
:10057B00E4FEFFE84204E94205EE4203EF42028C3F
:10058B00828D838BF0EA121B2F80347E947F00AC1C
:10059B0029AD2A0CBC00010D7D008D028C037C0063
:1005AB007D008E008F01E4FEFFE84204E94205EE78
:1005BB004203EF42028C828D838BF0EA121C4202C3
:1005CB00077FE530C39538FCE5319539FDE532956C
:1005DB003AFEE533953BFFC3EC94E8ED9403EE94C0
:1005EB0000EF9400500122E4B5250280077401B599
:1005FB00252E801712077FE53E453F7007753E019C
:10060B00F53F801CE4F53EF53F801512077FE53E74
:10061B00453F7007753E01F53F8005E4F53EF53F1C
:10062B0085303885313985323A85333BE53C453D5C
:10063B00605BE530C39534FCE5319535FDE53295CE
:10064B0036FEE5339537FF853C63853D6475650064
:10065B007566009003E8E4F5F0C007C006C005C05E
:10066B00041219CAA882A983AAF0FBD004D005D022
:10067B0006D007C3EC98ED99EE9AEF9B400F7524CB
:0E068B0000853034853135853236853337228F
:1006990012113A12116412115375DD0075D30075E8
:1006A900D5002290014AE4F090014CF0227F0074B9
:1006B900F925DB50067D077E008004ADDB7E008FC7
:1006C900037C00C3EB9DEC64808EF063F08095F0B1
:1006D9005017EF2443FDE43401FE8F82758300E057
:1006E900FC8D828E83F00F80C6227F008F057E00ED
:1006F900C3ED9407EE940050188F057E00EF244354
:10070900F582E43401F583E0FC8D828E83F00F805D
:10071900DB90000722900002E0FF90014DF0E020FD
:10072900E046900143E0FCA3E0FDA3E0FEA3E0FF67
:10073900BCB035BD0432BE002FBF002C75E200C22B
:10074900AF75100075113890C35012196390C350DA
:10075900121963AE10AF11C007C0068E828F8312C3
:100769000049D006D00780FE227F0090014DE0604D
:10077900027F018F822290014CE0701890014EE0B7
:10078900FFE060108FD553D4FC90014C7401F090B8
:10079900014EE4F022AF8290014DE060617D007E60
:1007A9000090014CE060240DBD00010E900005C0D1
:1007B90007C006C005121963D005D006D007C3EDDE
:1007C9009450EE94C340DA7582002290014EE0FE07
:1007D900BE400050207D0074402EFEE43DFDEE2415
:1007E90014F582ED3400F583EFF090014EE0240119
:1007F900F075820122C00712077FD007809F75829A
:100809000022AFF0AE83E5829000D2F0EEA3F0EFC4
:10081900A3F090014DE070030208E19000D0E0FEE2
:10082900A3E0FFC3E49E74808FF063F08095F040ED
:10083900030208E17E007F0090014CE060200EBEBB
:1008490000010F900005C007C006121963D006D039
:1008590007C3EE9450EF94C340DE758200229000E6
:10086900D2E0FDA3E0FEA3E0FF9000D0E0FBA3E00F
:10087900FCC3E49B74808CF063F08095F0509C90ED
:10088900014EE0FABA400050498A017A00744029C1
:10089900F9E43AFAE92414F9EA3400FA8D828E83EC
:1008A9008FF0121CEBF8A3AD82AE839000D2EDF06D
:1008B900EEA3F0EFA3F089828A83E8F090014EE07D
:1008C9002401F01BBBFF011C9000D0EBF0ECA3F05E
:1008D900809F12077F0208247582002290014AE056
:1008E900F5822290014AE07003F5822290014BE0E3
:1008F9002414F582E43400F583E0FF90014BE00411
:10090900F090014AE014F0E0700353D4F38F82228F
:1009190090014AE07003F5822290014BE02414F51E
:1009290082E43400F583E0FF90014BE004F090018C
:100939004AE014F0E0700353D4F38F822275D50096
:1009490074FC55D44402F5D490014CE4F02230DE15
:100959001990014AE5DBF090014BE4F090014AE07F
:0B096900600874F355D44408F5D42254
:10097400AFDBBF08028003020F96900007E0FE7F02
:1009840000900006E0FD7C004FF512EC4EF5138F4D
:100994001C900001E0F5148F1B900000E0FE5460F1
:1009A4006052900000E0FE5306607D00BE2005BD4D
:1009B4000002800CBE4037BD0034751CFF020F9945
:1009C4007420B51403020F997421B51402800774BE
:1009D40022B51414800C1206F3AD82AE838D1C0272
:1009E4000F9912071E020F99751CFF020F99751CAF
:1009F400FF020F99E51424F45003020F91E5142427
:100A04000B83F582E514241083F583E473719891C4
:100A14005B91662991738F99990F0D0F0E0F0D0A33
:100A24000F0D0D0F0F900003E0FEBE0102800DBEFE
:100A34000202801EBE0302802F020CEC75164F7555
:100A44001701751800900161E0FDA3E0FE8D1C0202
:100A54000CEF7516637517017518009001AEE0FD73
:100A6400A3E0FE8D1C020CEF900002E070157516D9
:100A7400B0751701F5189001B4E0FDA3E0FE8D1CDC
:100A8400020CEF900002E0FEBE01167516EE75171B
:100A9400017518009001FCE0FDA3E0FE8D1C020C22
:100AA400EF900002E0FEBE02167516B675170175CA
:100AB40018009001D4E0FDA3E0FE8D1C020CEF9021
:100AC4000002E0FEBE03028003020CC19000D57454
:100AD40030F09000D604F09000D704F09000D804D1
:100AE400F09000D904F09000DA04F09000DB04F0F8
:100AF4009000DC04F09000DD04F09000DE04F0903F
:100B040000DF7441F09000E004F09000E104F09004
:100B140000E204F09000E304F09000E404F090009C
:100B2400E5E4F09001FE741AF09001FF7403F09074
:100B34003FFCE493C4540FFE53060F7D00EE24D50E
:100B4400F582ED3400F583E0900200F0900201E4B8
:100B5400F0903FFC93FE53060F7D00EE24D5F58202
:100B6400ED3400F583E0900202F0900203E4F0908B
:100B74003FFD93C4540FFE53060F7D00EE24D5F5BC
:100B840082ED3400F583E0900204F0900205E4F075
:100B9400903FFD93FE53060F7D00EE24D5F582EDC4
:100BA4003400F583E0900206F0900207E4F0903FF1
:100BB400FE93C4540FFE53060F7D00EE24D5F58238
:100BC400ED3400F583E0900208F0900209E4F0901F
:100BD4003FFE93FE53060F7D00EE24D5F582ED34DF
:100BE40000F583E090020AF090020BE4F0903FFFDE
:100BF40093C4540FFE53060F7D00EE24D5F582ED09
:100C04003400F583E090020CF090020DE4F0903F84
:100C1400FF93FE53060F7D00EE24D5F582ED3400DC
:100C2400F583E090020EF090020FE4F0903FFA9307
:100C3400C4540FFE53060F7D00EE24D5F582ED3427
:100C440000F583E0900210F0900211E4F0903FFA76
:100C540093FE53060F7D00EE24D5F582ED3400F5A6
:100C640083E0900212F0900213E4F0903FFB93C4EF
:100C7400540FFE53060F7D00EE24D5F582ED3400AB
:100C8400F583E0900214F0900215E4F0903FFB939A
:100C9400FE53060F7D00EE24D5F582ED3400F58376
:100CA400E0FE900216F0900217E4F075191AF51A96
:100CB4007516FE751701F518751C1A802E90000222
:100CC400E0FEBE04157516D675170175180090015F
:100CD400ECE0FDA3E0FE8D1C80117516FE75170176
:100CE40075180085191C8003751CFF74FFB51C035F
:100CF400020F99AD1C7E00C3ED9512EE95135004BE
:100D04008D128E13AD12AE13C3ED9408EE94004011
:100D1400067B087C008004AB12AC138B1C7C00C3E4
:100D2400EC951C50208C027B00EC2516F8E435175A
:100D3400F9AF18888289838FF0121CEBF88A828BB2
:100D440083F00C80DAAC1C7F00EDC39CFDEE9FFEAB
:100D54008D128E13E51C2516F516E43517F51702CA
:100D64000F99900002E0FF8F12751300020F999003
:100D74000000E515F0AE12AF13C3EE9401EF94003A
:100D84005003020F99751C01020F99900002E0F5BF
:100D940015020F99900000E0541F7030900003E09A
:100DA400FE7F00900002E0FD7C004207EC4206BF9B
:100DB4000114BE001190016AE0FF30E503020F99AF
:100DC400751CFF020F99751CFF020F99900000E03B
:100DD400FF53071F7E00BF0278BE0075900004E039
:100DE400FFBF0102805FBF02028049BF030280335C
:100DF400BF0402801DBF81028040BF8202802ABFDF
:100E040083028014BF844474BC55DE4402F5DE02C0
:100E14000F9953DE73020F9974BC55D64402F5D66C
:100E2400020F9953D673020F9974BC55D44402F53A
:100E3400D4020F9953D473020F9974BC55D244024F
:100E4400F5D2020F9953D273020F99751CFF020F4A
:100E540099751CFF020F99900000E0541F703090A8
:100E64000003E0FE7F00900002E0FD7C004207ECFE
:100E74004206BF0114BE001190016AE0FF30E50391
:100E8400020F99751CFF020F99751CFF020F9990B0
:100E94000000E0FF53071F7E00BF0205BE00028072
:100EA40003020F6C900003E0FE7F00900002E0FD5F
:100EB4007C004207EC4206EF4E6003020F6790008D
:100EC40005E0FE7F00900004E0FD7C004207EC4258
:100ED40006BF0106BE0003020F5ABF0205BE000290
:100EE4008060BF0305BE00028044BF0405BE00024B
:100EF4008028BF8105BE00028052BF8205BE000269
:100F04008036BF8305BE0002801ABF8451BE004EE6
:100F140074BF55DE4403F5DE807B747F55DE440CDC
:100F2400F5DE807174BF55D64403F5D68067747FAF
:100F340055D6440CF5D6805D74BF55D44403F5D41E
:100F44008053747F55D4440CF5D4804974BF55D272
:100F54004403F5D2803F747F55D2440CF5D2751CFE
:100F6400FF8032751CFF802D751CFF8028900000C7
:100F7400E4F0900001F0AE12AF13C3EE9402EF94CC
:100F8400004005751C02800D85121C8008751CFF2D
:100F94008003751CFF74FFB51C077514FF75DCCF47
:100FA40022E51C24F74007851CDD75DCC02275DDB5
:100FB4000075DCC0227405B5140280707406B51483
:100FC40002800302103EAE12AF13C3EE9408EF94F6
:100FD4000040067C087D008004AC12AD138C637D58
:100FE40000C3ED956350208D027B00ED2516F8E4D7
:100FF4003517F9AC18888289838CF0121CEBF88AB7
:10100400828B83F00D80DAAC637D00EEC39CFEEF2F
:101014009DFF8E128F13E5632516F516E43517F53B
:10102400178563DDAEDC6306408EDC22E5E3548085
:10103400FFE5124FF5E375DC022275DD0075DC0275
:10104400227420B5140D30DE101206B675DD00854D
:10105400DCDC2275DD0043DC022275D30074FC5510
:10106400D24402F5D22220D903021115E5D9540F36
:10107400FFADD95305307E00BD0005BE0002801CC3
:10108400BD1005BE00028036BD2005BE00028043AF
:10109400BD3006BE00030210FB021113EF24FB5007
:1010A40003021113EF2F9010AE7380088061800942
:1010B400805D805B12104580561209578051EF24E1
:1010C400FB404CEF2F9010CD7380448042804080D1
:1010D4003E803CEF24FB4037EF2F9010E2738008F2
:1010E400800B800E80298027120FB9802212105E97
:1010F400801D1209468018EF24FB4013EF2F901136
:10110400067380088009800780058003120974C271
:10111400D930D81575DC0275D21275D41275E30076
:10112400C2DAC2D9C2D81206AC10DA0122E5DA203A
:10113400E20375D8FF2275E20053E27F43E229758A
:10114400E30053E2BF53D1FB75D18043D101224365
:10115400E10443E10243E10143D81FD2EAD2AF22C2
:101164007E0A7F008EEE8FEF7E147F008EE48FE583
:1011740075EB0C75D21275D4127E007F008EEC8F45
:08118400ED75EA4075DC022262
:10118C00C021C0E0C0F0C082C083C007C006C0054B
:10119C00C004C003C002C001C000C0D075D0001292
:1011AC00106AD0D0D000D001D002D003D004D0052A
:1011BC00D006D007D083D082D0F0D0E0D02132C07E
:1011CC0021C0E0C0F0C082C083C007C006C005C00B
:1011DC0004C003C002C001C000C0D075D00030985C
:1011EC0005121D07C298309905121D3DC299D0D029
:1011FC00D000D001D002D003D004D005D006D00747
:10120C00D083D082D0F0D0E0D02132C021C0E0C059
:10121C00F0C082C083C007C006C005C004C003C0B4
:10122C0002C001C000C0D075D00090021AE0FEA32D
:10123C00E0FFC007C0068E828F83120049D006D013
:10124C0007D0D0D000D001D002D003D004D005D02C
:10125C0006D007D083D082D0F0D0E0D02132C0218C
:10126C00C0E0C0F0C082C083C007C006C005C00487
:10127C00C003C002C001C000C0D075D00090021CD9
:10128C00E0FEA3E0FFC007C0068E828F83120049E8
:10129C00D006D007D0D0D000D001D002D003D004DB
:1012AC00D005D006D007D083D082D0F0D0E0D021AA
:1012BC0032C021C0E0C0F0C082C083C007C006C0ED
:1012CC0005C004C003C002C001C000C0D075D0006E
:1012DC00900218E0FEA3E04E600E900218E0F8A316
:1012EC00E0F5838882120049D0D0D000D001D00222
:1012FC00D003D004D005D006D007D083D082D0F054
:10130C00D0E0D0213212197B1200DB12016380FB7A
:04131C0075820022B4
:10132000AE82AF839000E6E0FBA3E0FCA3E0FD7A91
:10133000009000E9E0F9890019E8603F8B828C8316
:101340008DF0121CEBF8A3AB82AC83C007C006C0C3
:1013500005C004C003C002C00112135E8007C006AE
:10136000C007888222A882D001D002D003D004D046
:1013700005D006D007E860030A80BB8A8222AE82CD
:10138000AF839000EAE0FBA3E0FCA3E0FD9000EA5D
:10139000E0F5F0A3E045F07003F582227A008B823D
:1013A0008C838DF0121CEBF9A3AB82AC83E9F8605F
:1013B0002CC007C006C005C004C003C0021213C27F
:1013C0008007C006C007888222A982D002D003D03D
:1013D00004D005D006D007E960030A80C18A8222C2
:1013E000AE82AF839000EDE0FAA3E0FBA3E0FCA3A4
:1013F000E0FD9000F5EAF0EBA3F0ECA3F0EDA3F034
:101400009000F9740AF08E828F83021471AE82AF5D
:10141000839000F1E0FAA3E0FBA3E0FCA3E0FD90E1
:10142000011BEAF0EBA3F0ECA3F0EDA3F090011F99
:10143000740AF08E828F83021556AE82AF83C00786
:10144000C0061214478008C006C00775820D22AD81
:1014500082D006D007C007C00512145E8008C006FF
:10146000C00775820A22AE82D005D007EE2DF58224
:101470002285824585834690011AE4F09000F9E0C8
:10148000FDBD020050069000F9740AF09000F9E0EA
:10149000F5477B1A7C019000F5E0F548A3E0F5499B
:1014A000A3E0F54AA3E0F54B85474C754D00754E1A
:1014B00000754F00854C63854D64854E65854F668C
:1014C000854882854983854AF0E54BC004C00312F4
:1014D0001A72A882854C63854D64854E65854F667A
:1014E000854882854983854AF0E54BC000121BA3DD
:1014F000AA82AD83AEF0FFD000D003D0049000F5F7
:10150000EAF0EDA3F0EEA3F0EFA3F01BBBFF011C8C
:101510008B068C07B80A005008880574302DFD80B2
:1015200004743728FD8E828F83EDF09000F5E0F58E
:10153000F0A3E042F0A3E042F0A3E045F060030234
:1015400014969000EAEBF0ECA3F0E4A3F08545825A
:1015500085468302137E85825085835190011FE06A
:10156000FD701990011BE0F9A3E0FAA3E0FBA3E0F2
:10157000FC021574C050C05189822222BD0A02802B
:101580000302162190011BE0F9A3E0FAA3E0FBA3FC
:10159000E0FC30E76FC004C003C002C0011215A216
:1015A0008008C050C05175822D22A882D001D0027F
:1015B000D003D004885290011BC3E499F0E49AA3AD
:1015C000F0E49BA3F0E49CA3F090011BE0F553A38F
:1015D000E0F554A3E0F555A3E0F5569000F5E5538A
:1015E000F0E554A3F0E555A3F0E556A3F09000F91B
:1015F000740AF0855082855183121471AF82E552CE
:101600002FF582229000F5E9F0EAA3F0EBA3F0ECCD
:10161000A3F09000F9740AF085508285518302147A
:101620007190011BE0FBA3E0FCA3E0FEA3E0FF90B0
:1016300000F5EBF0ECA3F0EEA3F0EFA3F09000F9CF
:10164000EDF0855082855183021471AC82AD83AE7A
:1016500064AF65BE0004EF600C1F0FE5631219AFA5
:10166000A3DEFADFF88C828D8322E582FF901E7A5A
:1016700093FEEF901E5293FF700122900120E0FD37
:10168000701BBF0209EEF4FC5292EC529322BF048D
:1016900002800122EEF4FC5296EC529722BD021415
:1016A000BF0207EE4292EE429322BF0439EE429609
:1016B000EE429722BD0116BF0208EEF45292EE42AE
:1016C0009322BF0421EEF45296EE429722BD0316F8
:1016D000BF0208EE4292EEF4529322BF0408EE429B
:1016E00096EEF4FE529722AF82BF0102800FBF0236
:1016F000028013BF03028017BF04358023E5C62094
:10170000E22E539DFB22E5C620E325539DF722AE32
:10171000C65306047F00BE0117BF0014539DFB2271
:10172000AEC65306087F00BE0106BF0003539DF7F7
:1017300022E582FF901E2A93FEEF901E7A93FDEF22
:10174000901E5293FF7003F58222EE600D8E82C0D0
:1017500007C0051216E7D005D0077E00BF02028041
:101760000ABF03028009BF040C8008AE908006AE59
:10177000A08002AEB0ED5E60047582012275820029
:1017800022E582FF901E2A93FEEF901E7A93FDEFD2
:10179000901E5293FFEE600D8E82C007C005121698
:1017A000E7D005D007A2AFE433FEC2AFBF0202808C
:1017B0000ABF03028017BF04368024900121E07025
:1017C00007EDF4FF52908027ED4290802290012196
:1017D000E07007EDF4FF52A08015ED42A08010905C
:1017E0000121E07007EDF4FF52B08003ED42B0EE4E
:0517F0006002D2AF22EF
:1017F500C0D075D00808B8000D09B900090ABA00AB
:10180500050BBB00010CD0D032A2AFC2AFA808A90E
:1018150009AA0AAB0BAC8A8588F092AF30F5127431
:10182500012C600D08B8000909B900050ABA0001C4
:101835000BC3EC9406FCECC313FC75F07DE8A4F82F
:10184500ADF075F07DE9A42DF9E435F0FD75F07D79
:10185500EAA42DFAE435F0FD75F07DEBA42DFB7DB2
:1018650000EC28F582E93DF583EA3DF5F0EB3D22F4
:10187500A2AFC2AFA808A909AA0AAB0BAC0C92AFDC
:1018850075F020E8A4A8F075F020E9A428F582A851
:10189500F075F020EAA428F583A8F075F020EBA4F4
:1018A50028F9A8F075F020ECA42889F02285825744
:1018B50085835885F059F55A12180E85825B858304
:1018C5005C85F05DF55EE55745584559455A70010B
:1018D50022A857A958AA59AB5A855B5F855C6085D4
:1018E5005D61855E62E8494A4B60DBC003C002C0AA
:1018F50001C00012180EAC82AD83AEF0FFD000D04F
:1019050001D002D003ECC3955FFCED9560FDEE952B
:1019150061FEEF9562FFC3EC94E8ED9403EE94004D
:10192500EF940040A118B8FF0919B9FF051ABAFFCD
:10193500011B885789588A598B5A74E8255FF55FCA
:1019450074033560F560E43561F561E43562F5628F
:10195500855F5B85605C85615D85625E8087AE8243
:10196500AF83EE4F600F05A105A105A105A11EBE20
:10197500FF011F80ED2275A15575A1AA74F855B90F
:101985004406F5B975A100901388121963759E5D1B
:10199500759D0074F055894402F58953C9EF758C1E
:1019A50006C28DD2A9D28CD2AF2220F71130F61300
:1019B5008883A88220F509F6A8837583002280FE16
:1019C500F280F5F022AAF0FBE5828563F0A4FCAD78
:1019D500F0E5838563F0A42DFDE435F0FEE5828511
:1019E50064F0A42DFDE5F03EFEE433FFEA8563F0E7
:1019F500A42EFEE5F03FFFE5838564F0A42EFEE509
:101A0500F03FFFE5828565F0A42EFEE5F03FFFEB94
:101A15008563F0A42FFFEA8564F0A42FFFE5838595
:101A250065F0A42FFFE5828566F0A42F8EF08D83E7
:031A35008C82227E
:091A3800ABF0A2AFE433FEC2AF33
:101A4200E0A3D2913300500A000000000000000021
:101A52000000C291400A00000000000000000000E7
:101A6200530207DADDDBD900C291EE6002D2AF2267
:101A7200F9E56345644565456660777800C308E526
:101A82006620E73BE56325E0F563E56433F564E54D
:101A92006533F565E56633F566E5829563E583951D
:101AA20064E5F09565E9956650D4C3E56613F5667D
:101AB200E56513F565E56413F564E56313F563E520
:101AC200829563FCE5839564FDE5F09565FEE995F5
:101AD200664007F98EF08D838C82C3E56613F56646
:101AE200E56513F565E56413F564E56313F563D8FD
:0C1AF200CEE922ABF0A2AFE433FEC2AF9D
:101AFF00E0A3D2B03300500A000000000000000045
:101B0F000000C2B0400A000000000000000000000A
:101B1F00530207DADDDBD900C2B0EE6002D2AF228A
:091B2F00ABF0A2AFE433FEC2AF3B
:101B3900E0A3D2B23300500A000000000000000008
:101B49000000C2B2400A00000000000000000000CE
:101B5900530207DADDDBD900C2B2EE6002D2AF224E
:091B6900ABF0A2AFE433FEC2AF01
:101B7300E0A3D2943300500A0000000000000000EC
:101B83000000C294400A00000000000000000000B2
:101B9300530207DADDDBD900C294EE6002D2AF2232
:101BA300FB7A20E4FCFDFEFFE5822582F582E583D6
:101BB30033F583E5F033F5F0EB33FB4017DAE980D7
:101BC30042E5822582F582E58333F583E5F033F53B
:101BD300F0EB33FBEC33FCED33FDEE33FEEF33FF81
:101BE300EC9563ED9564EE9565EF95664013EC9582
:101BF30063FCED9564FDEE9565FEEF9566FF43820C
:0E1C030001DABEEB22ABF0A2AFE433FEC2AFBB
:101C1200E0A3D2B33300500A00000000000000002D
:101C22000000C2B3400A00000000000000000000F3
:101C3200530207DADDDBD900C2B3EE6002D2AF2273
:091C4200ABF0A2AFE433FEC2AF27
:101C4C00E0A3D2963300500A000000000000000010
:101C5C000000C296400A00000000000000000000D6
:101C6C00530207DADDDBD900C296EE6002D2AF2256
:101C7C0022AF82BF02005036EF75F002A4241AF591
:101C8C0082740235F0F583E563F0E564A3F0BF00E0
:101C9C00028005BF0118800B900122E024FF92887E
:101CAC00D2A822900122E0FF24FF928AD2AA22AF6E
:101CBC0082BF02005028BF00028005BF01088004CB
:101CCC00C2A88002C2AAEF75F002A4241AFE740204
:0F1CDC0035F0FF8E828F83747CF0741CA3F0228E
:101CEB0020F71430F6148883A88220F507E6A88322
:0C1CFB0075830022E280F7E49322E022CF
:101D070090021EE0FF7E008F828E83A37563108E84
:101D170064121DCEAE8290021FE0FFEEB5070122CE
:101D270090021EE02423F582E43401F583E599F05F
:101D370090021EEEF022300040900220E0FF900259
:101D470021E0FEEFB50605A200C20022900221E0C5
:101D57002433F582E43401F583E0F599900221E01C
:101D6700FF7E008F828E83A37563108E64121DCE53
:0A1D7700AE82AF83900221EEF0224D
:101D8100E563456460467A01E56325E0F563E56452
:101D9100334012F564E5829563E583956440030A57
:101DA10080E6C3E56413F564E56313F563C3E58277
:101DB1009563F5F0E58395644005F58385F082C36D
:101DC100E56413F564E56313F563DAE122C2D5E551
:101DD1008330E70DD2D5E4C39582F582E49583F58E
:101DE10083E56430E70BE4C39563F563E49564F53B
:101DF10064121D8130D50BE4C39582F582E495838D
:031E0100F5832244
:101E040061626E646972416461416D62696E6F20E2
:101E14005261696E506F77312E302E3141525231FA
:061E24007041626E0A002D
:101E2A0000000000000000000000000000000001A7
:101E3A000000000000000000000000000000030491
:101E4A00000002000000000001010101010101017E
:101E5A00000002020202020202020000030303035C
:101E6A00030303030000040404040404040400003C
:101E7A00010204081020408000000102040810201A
:101E8A004080000001020408102040800000010286
:101E9A000408102040800000FFFFFFFFFFFFFFFF44
:101EAA00FFFFFF00FFFF0102FFFFFFFFFFFFFFFF32
:101EBA00FFFFFFFFFFFFFFFF03FFFFFFFFFFFFFF24
:101ECA0000E10000000008000000000012011001FB
:101EDA00EF020108091250C50101010203011200B3
:101EEA0009024B000201008064080B000202020191
:101EFA00040904000001020201040524001001057E
:101F0A0024010000042402020524060001070581B9
:101F1A000308004009040100020A00000407050240
:101F2A0002400000070582024000004B000403093A
:101F3A000404001E0341006D00620069006E006F18
:101F4A000020005200610069006E0050006F0077A7
:101F5A00001E00160343004400430020005300659E
:101F6A00007200690061006C0016000E0341006DEA
:0B1F7A0000620069006E006F000E00A6
:101F85000C033000310032003300340035003600D8
:0A1F95003700380039004100420017
:021F9F00000040
:041FA1007C1C7C1C0C
:041FA5000000000038
:00000001FF
