:0600000002006B0214294E
:03000B000216CD0D
:0300130002147C58
:01001B0032B2
:0300230002139134
:03002B0002195364
:01003300329A
:03003B000214CFDD
:0300430002135253
:01004B003282
:030053000213DDB8
:01005B003272
:030063000218E39D
:030066000215235D
:02006900E4733E
:0D006B0075815112152EE5826003020066BA
:1000780079DFE94400601B7A01901C5178F075A083
:1000880001E493F2A308B8000205A0D9F4DAF275E6
:02009800A0FFC7
:06009A00E478FFF6D8FD3A
:1000A0007800E84400600A799475A000E4F309D868
:1000B000FC785CE84401600C7902900094E4F0A3C1
:0400C000D8FCD9FA95
:1000C4007522237523157524007525007526017581
:0E00D4002894752900E4F53DF53EF53FF54012
:0900E20075141A7515007516005D
:0E00EC007808E4F608F608F608F6780C7600B8
:0200FA00C2033F
:0200FC00C2043C
:0300FE0002006697
:100102009001AD7401F075820E1215329001AE7439
:1001120001F075820E1216399001AD7401F07582EC
:100122000F1215329001AE7401F075820F1216395A
:10013200900BB8E4F5F012178A9001AEE4F07582E4
:100142000E1216399001AEE4F075820F1216399034
:1001520001F4E4F5F012178A9001AD7401F0758292
:10016200111215329001ADE4F0758224121532900D
:1001720001ADE4F07582251215327582241215E95B
:100182007582251215E9E5826005752600800375E2
:100192002601E4B5260302033A7401B52602800162
:1001A200221208749001AE7401F075821112163990
:1001B2009001AD7401F07582101215327F00BF55A7
:1001C20000504F8F17751800900003C0071218C611
:1001D200AD82AE83ED2494FDEE3400FE8D828E83DB
:1001E200E4F08D828E83A37464F08D828E83A3A348
:1001F200E4F07D947E007B007CFF8D828E838CF008
:10020200EB121955900005E4F5F012178AD0070F8A
:1002120080AC7F00BF5500504E8F177518009000BC
:1002220003C0071218C6AD82AE83ED2494FDEE34EE
:1002320000FE8D828E837464F08D828E83A3E4F03F
:100242008D828E83A3A3F07D947E007B007CFF8D44
:10025200828E838CF0EB121955900005E4F5F012B2
:10026200178AD0070F80AD7F00BF5500504E8F1701
:10027200751800900003C0071218C6AD82AE83ED58
:100282002494FDEE3400FE8D828E83E4F08D828E06
:1002920083A3F08D828E83A3A37464F07D947E0089
:1002A2007B007CFF8D828E838CF0EB1219559000BF
:1002B20005E4F5F012178AD0070F80AD7F00BF5515
:1002C20000504C8F17751800900003C0071218C613
:1002D200AD82AE83ED2494FDEE3400FE8D828E83DA
:1002E200E4F08D828E83A3F08D828E83A3A3F07DB2
:1002F200947E007B007CFF8D828E838CF0EB121942
:1003020055900005E4F5F012178AD0070F80AF125E
:10031200174DAC82AD83AEF0FF8C398D3A8E3B8F98
:100322003C8C358D368E378F38120963900064E429
:10033200F5F012178A0209637F00BF5500504F8FF4
:1003420017751800900003C0071218C6AD82AE835D
:10035200ED2494FDEE3400FE8D828E83E4F08D82D6
:100362008E83A37464F08D828E83A3A3E4F07D94C4
:100372007E007B007CFF8D828E838CF0EB12195500
:10038200900005E4F5F012178AD0070F80AC9001B7
:10039200ADE4F075821012153253C67F9001AD7430
:1003A20001F07582251215329001AEE4F0758225B6
:1003B2001216399001AEE4F07582111216399001CD
:1003C200AE7401F075820F1216399001AEE4F07529
:1003D200820E021639E4B52602804E7401B5265506
:1003E20012174D85823185833285F033F534120A36
:1003F200C9E5826031120AD0858230AC31AD32AEAD
:1004020033AF348C398D3A8E3B8F3C8C358D368EA2
:10041200378F38E4B5240280077401B524178003AE
:100422000204380206A70207309001AE7401F0758B
:10043200820F0216392274FD2541500302057FE521
:1004420041901B9293B5300B7402B54103752500A0
:10045200054122E541901B9893B5300B7402B541DA
:1004620003752501054122E541901B9593FFB530A7
:1004720002800302057B7402B54102800302057803
:1004820075820F12098275820C12098275825D12C1
:100492000982758206120982903FFCE493F582126A
:1004A2000982903FFDE493F582120982903FFEE4B7
:1004B20093F582120982903FFFE493F5821209823A
:1004C200903FFAE493F582120982903FFBE493F5A0
:1004D2008212098275820C1209827E007F00C3EEAD
:1004E200940CEF648094805020EE249BF582EF34CC
:1004F2001BF583E493F582C007C006120982D00679
:10050200D0070EBE00D80F80D57582051209827EF3
:10051200007F00C3EE9405EF648094805020EE24A7
:10052200A7F582EF341BF583E493F582C007C0067A
:10053200120982D006D0070EBE00D80F80D5758270
:10054200051209827E007F00C3EE9405EF64809459
:10055200805020EE24ACF582EF341BF583E493F552
:1005620082C007C006120982D006D0070EBE00D88C
:100572000F80D575410005412275410022E54124D5
:10058200F7500122E541240B83F582E541240D83D6
:10059200F583E473A6A6A6A8AEB4BAC0C30606063F
:1005A20005050505050585304205412285304305CF
:1005B20041228530440541228530450541220541CD
:1005C20022E4B5250280087401B52502806D22E57A
:1005D2004365426455B5445F9001AE7401F0758283
:1005E2000E121639AC427D007E008E078D068C05F8
:1005F2007C00A843E4F9FAFBE82CF517E93DF5186D
:10060200EA3EF519EB3FF51A900003E4F5F01218F3
:10061200E585822C85832D85F02EF52FE4F52AF5CC
:100622002BF5177518FFF51990009475F000121646
:10063200AE85452775240175410022E54365426474
:1006420055FFB5445C9001AE7401F075820E12162E
:1006520039AC427D007E008E078D068C057C00A899
:1006620043E4F9FAFBE82CF517E93DF518EA3EF503
:1006720019EB3FF51A900003E4F5F01218E58582B4
:100682002C85832D85F02EF52FE4F52AF52BF51711
:100692007518FFF51990009475F0001216AE7524C6
:1006A2000175410022AE2AAF2BC3EE9402EF9401F2
:1006B2005017E52A2528F582E52B3529F583E53003
:1006C200F0052AE4B52A02052B152C74FFB52C0C73
:1006D200152DB52D07152EB52E02152FE52C452DFE
:1006E200452E452F7047F524B527347E947F00AC04
:1006F2002AAD2B0CBC00010D7D008D028C037C0009
:100702007D008E008F01E4FEFFE84204E94205EE1F
:100712004203EF42028C828D838BF0EA12195590CC
:1007220001AEE4F075820E12163902096322E53138
:10073200C39539FCE532953AFDE533953BFEE53448
:10074200953CFFC3EC94E8ED9403EE9400EF940023
:10075200500122E4B5250280077401B5255A802D87
:10076200120963E53F45407013753F01F540900162
:10077200AE7401F075820E121639803CE4F53FF535
:10078200409001AEF075820E121639802B12096369
:10079200E53F45407013753F01F5409001AE74018D
:1007A200F075820E121639800FE4F53FF540900184
:1007B200AEF075820E12163985313985323A85339B
:1007C2003B85343CE53D453E700122E531C395351C
:1007D200FCE5329536FDE5339537FEE5349538FF75
:1007E200853D17853E18751900751A009003E8E4D7
:1007F200F5F0C007C006C005C0041218E5A882A91A
:1008020083AAF0FBD004D005D006D007C3EC98ED44
:1008120099EE9AEF9B40597F00BF550050318F17D8
:10082200751800900003C0071218C6AD82AE83D0BF
:1008320007ED2494FDEE3400FE8D828E83E4F08D6C
:10084200828E83A3F08D828E83A3A3F00F80CA7E53
:10085200947F007C007DFF8E828F838DF0EC1219D5
:1008620055752400853135853236853337853438E0
:010872002263
:100874001212FF12132912131875DD0075D30075B7
:10088400D500229001F7E4F09001F9F0227F00C333
:10089400E5DB9407920040067D077E008004ADDB13
:1008A4007E008F037C00C3EB9DEC64808EF063F0CC
:1008B4008095F05017EF24F0FDE43401FE8F82752B
:1008C4008300E0FC8D828E83F00F80C3227F008F33
:1008D400057E00C3ED9407EE940050188F057E004A
:1008E400EF24F0F582E43401F583E0FC8D828E83FD
:1008F400F00F80DB90000722900002E0FF9001FAE5
:10090400F0E020E0499001F0E0FCA3E0FDA3E0FE6C
:10091400A3E0FFBCB038BD0435BE0032BF002F7564
:10092400E200C2AF75890075100075113890C3508C
:1009340012183B90C35012183BAE10AF11C007C041
:10094400068E828F83120069D006D00780FE22753E
:1009540017009001FAE06003751701851782229051
:1009640001F9E070189001FBE0FFE060108FD553AF
:10097400D4FC9001F97401F09001FBE4F022AF8201
:100984009001FAE060617D007E009001F9E060244E
:100994000DBD00010E900005C007C006C005121869
:1009A4003BD005D006D007C3ED9450EE94C340DA93
:1009B400758200229001FBE0FEBE400050207D00C5
:1009C40074402EFEE43DFDEE2414F582ED3400F572
:1009D40083EFF09001FBE02401F075820122C0074F
:1009E400120963D007809F75820022AFF0AE83E5C1
:1009F40082900195F0EEA3F0EFA3F09001FAE0707D
:100A040003020AC5900193E0FEA3E0FFC3E49E74D1
:100A1400808FF063F08095F04003020AC57E007F6A
:100A2400009001F9E060200EBE00010F900005C0A7
:100A340007C00612183BD006D007C3EE9450EF94BB
:100A4400C340DE75820022900195E0FDA3E0FEA381
:100A5400E0FF900193E0FBA3E0FCC3E49B74808C73
:100A6400F063F08095F0509C9001FBE0FABA4000EE
:100A740050498A017A00744029F9E43AFAE92414C5
:100A8400F9EA3400FA8D828E838FF01219FFF8A3ED
:100A9400AD82AE83900195EDF0EEA3F0EFA3F08963
:100AA400828A83E8F09001FBE02401F01BBBFF0184
:100AB4001C900193EBF0ECA3F0809F120963020AEF
:100AC40008758200229001F7E0F582229001F7E098
:100AD4007003F582229001F8E02414F582E43400D6
:100AE400F583E0FF9001F8E004F09001F7E014F0E2
:100AF400E0700353D4F38F822275D50074FC55D46F
:100B04004402F5D49001F9E4F02230DE199001F7A3
:100B1400E5DBF09001F8E4F09001F7E0600874F38D
:070B240055D44408F5D4226A
:100B2C00AFDBBF0802800302114E900007E0FE7F8E
:100B3C0000900006E0FD7C00900198ED4FF0EC4E2B
:100B4C00A3F07F00900001E0FE90019AF08F1690C8
:100B5C000000E05460604D900000E0FD5305607CA7
:100B6C0000BD2005BC0002800BBD4033BC00307FB3
:100B7C00FF021150BE2003021150BE21028005BE9F
:100B8C002218800C1208D1AC82AD838C0702115054
:100B9C00C0071208FCD0070211507FFF0211507FD2
:100BAC00FF021150EEFD24F4500302114AED240A09
:100BBC0083F582ED241083F583E47324534A124A9F
:100BCC0017DF4A26475050110F1110110F0B110F40
:100BDC000F1111900003E0FEBE0102800DBE020257
:100BEC00801BBE03028029020E8A7512FC7513014C
:100BFC0090020EE0FDA3E0FE8D07020E8C75121024
:100C0C0075130290025BE0FDA3E0FE8D07020E8CD3
:100C1C00900002E0701375125D751302900261E092
:100C2C00FDA3E0FE8D07020E8C900002E0FEBE01DB
:100C3C00137512977513029002A5E0FDA3E0FE8DCB
:100C4C0007020E8C900002E0FEBE02137512637553
:100C5C00130290027DE0FDA3E0FE8D07020E8C9046
:100C6C000002E0FEBE03028003020E6690019C743B
:100C7C0030F090019D04F090019E04F090019F04CF
:100C8C00F09001A004F09001A104F09001A204F0F6
:100C9C009001A304F09001A404F09001A504F0903D
:100CAC0001A67441F09001A704F09001A804F09003
:100CBC0001A904F09001AA04F09001AB04F090019A
:100CCC00ACE4F09002A7741AF09002A87403F090B0
:100CDC003FFCE493C4540FFE53060F7D00EE249C9E
:100CEC00F582ED3401F583E09002A9F09002AAE4BC
:100CFC00F0903FFC93FE53060F7D00EE249CF58292
:100D0C00ED3401F583E09002ABF09002ACE4F0908E
:100D1C003FFD93C4540FFE53060F7D00EE249CF54B
:100D2C0082ED3401F583E09002ADF09002AEE4F078
:100D3C00903FFD93FE53060F7D00EE249CF582ED53
:100D4C003401F583E09002AFF09002B0E4F0903FF4
:100D5C00FE93C4540FFE53060F7D00EE249CF582C7
:100D6C00ED3401F583E09002B1F09002B2E4F09022
:100D7C003FFE93FE53060F7D00EE249CF582ED346E
:100D8C0001F583E09002B3F09002B4E4F0903FFFE1
:100D9C0093C4540FFE53060F7D00EE249CF582ED98
:100DAC003401F583E09002B5F09002B6E4F0903F88
:100DBC00FF93FE53060F7D00EE249CF582ED34016B
:100DCC00F583E09002B7F09002B8E4F0903FFA930C
:100DDC00C4540FFE53060F7D00EE249CF582ED34B7
:100DEC0001F583E09002B9F09002BAE4F0903FFA7A
:100DFC0093FE53060F7D00EE249CF582ED3401F535
:100E0C0083E09002BBF09002BCE4F0903FFB93C4F3
:100E1C00540FFE53060F7D00EE249CF582ED340139
:100E2C00F583E09002BDF09002BEE4F0903FFB939E
:100E3C00FE53060F7D00EE249CF582ED3401F58304
:100E4C00E0FE9002BFF09002C0E4F075141AF515A4
:100E5C007512A77513027F1A8026900002E0FEBE61
:100E6C00041275127F751302900295E0FDA3E0FE4B
:100E7C008D07800C7512A7751302AF1480027FFFCB
:100E8C00BFFF03021150900198E0FDA3E0FE8F0319
:100E9C007C00C3EB9DEC9E5008900198EBF0ECA30A
:100EAC00F0900198E0FDA3E0FE8D038E04C3EB945B
:100EBC0008EC9400920140067B087C0080048D03B2
:100ECC008E048B077E00C3EE9F50188E047D00EEBF
:100EDC002512F582E43513F583E0FB8C828D83F0CB
:100EEC000E80E38F057E00900198E0FBA3E0FCEB05
:100EFC00C39DFBEC9EFC900198EBF0ECA3F0EF256E
:100F0C0012F512E43513F513021150900002E0FEB5
:100F1C00900198F0E4A3F002115090019BE0900036
:100F2C0000F0900198E0FDA3E0FEC3ED9401EE9477
:100F3C000050030211507F01021150900002E0FE9C
:100F4C0090019BF0021150900000E0541F702E9005
:100F5C000003E0FD7E00900002E0FC7B004206EB0B
:100F6C004205BE0113BD0010900217E0FE30E503F0
:100F7C000211507FFF0211507FFF021150900000B0
:100F8C00E0FE53061F7D00BE0277BD007490000486
:100F9C00E0FEBE0102805FBE02028049BE030280F9
:100FAC0033BE0402801DBE81028040BE8202802AB4
:100FBC00BE83028014BE844474BC55DE4402F5DE4C
:100FCC0002115053DE7302115074BC55D64402F515
:100FDC00D602115053D67302115074BC55D444022E
:100FEC00F5D402115053D47302115074BC55D24431
:100FFC0002F5D202115053D2730211507FFF02112D
:10100C00507FFF021150900000E0541F702E900092
:10101C0003E0FD7E00900002E0FC7B004206EB4208
:10102C0005BE0113BD0010900217E0FE30E503026F
:10103C0011507FFF0211507FFF021150900000E011
:10104C00FE53061F7D00BE0205BD00028003021187
:10105C0020900003E0FD7E00900002E0FC7B00424B
:10106C0006EB4205EE4D600302111C900005E0FDFD
:10107C007E00900004E0FC7B004206EB4205BE01C2
:10108C0006BD0003021110BE0205BD00028061BE48
:10109C000305BD00028045BE0405BD00028029BECB
:1010AC008105BD00028053BE8205BD00028037BEA3
:1010BC008305BD0002801BBE8452BD004F74BF551A
:1010CC00DE4403F5DE021150747F55DE440CF5DE70
:1010DC00807274BF55D64403F5D68068747F55D69C
:1010EC00440CF5D6805E74BF55D44403F5D48054BB
:1010FC00747F55D4440CF5D4804A74BF55D2440344
:10110C00F5D28040747F55D2440CF5D27FFF8034E9
:10111C007FFF80307FFF802C900000E4F090000176
:10112C00F0900198E0FDA3E0FE8D038E04C3EB94D8
:10113C0002EC940040047F02800A8D0780067FFF3A
:10114C0080027FFFBFFF0A90019A74FFF075DCCF1D
:10115C0022EF24F740068FDD75DCC02275DD0075AB
:10116C00DCC02290019AE0FFBF05028073BF06022B
:10117C008003021200900198E0FEA3E0FF8E048F22
:10118C0005C3EC9408ED9400920240067C087D00A7
:10119C0080048E048F057F00C3EF9C50188F057E52
:1011AC0000EF2512F582E43513F583E0FB8D828E7A
:1011BC0083F00F80E38C067F00900198E0FBA3E0A6
:1011CC00FDEBC39EFBED9FFD900198EBF0EDA3F0C2
:1011DC00EC2512F512E43513F5138CDD63DC40229B
:1011EC00E5E35480FF900198E0FDA3E0ED4FF5E3BB
:1011FC0075DC022275DD0075DC022290019AE0FF9D
:10120C00BF200D30DE1012089175DD0085DCDC226C
:10121C0075DD0043DC022275D30074FC55D2440208
:10122C00F5D22220D9030212DAE5D9540FFFADD939
:10123C005305307E00BD0005BE0002801CBD1005AC
:10124C00BE00028036BD2005BE00028043BD3006C4
:10125C00BE00030212C00212D8EF24FB500302128C
:10126C00D8EF2F90127373800880618009805D80A5
:10127C005B1212078056120B0E8051EF24FB404C70
:10128C00EF2F90129273804480428040803E803CCD
:10129C00EF24FB4037EF2F9012A7738008800B8050
:1012AC000E8029802712116F8022121223801D12AA
:1012BC000AFD8018EF24FB4013EF2F9012CB7380A4
:1012CC00088009800780058003120B2CC2D930D806
:1012DC001575DC0275D21275D41275E300C2DAC230
:1012EC00D9C2D812088710DA0122E5DA20E2037598
:1012FC00D8FF2275E20053E27F43E22975E30053E5
:10130C00E2BF53D1FB75D18043D1012243E10443A9
:10131C00E10243E10143D81FD2EAD2AF227E0A7F19
:10132C00008EEE8FEF7E147F008EE48FE575EB0C54
:10133C0075D21275D4127E007F008EEC8FED75EA9B
:05134C004075DC0222E7
:10135200C021C0E0C0F0C082C083C007C006C00583
:10136200C004C003C002C001C000C0D075D00012CA
:10137200122FD0D0D000D001D002D003D004D0059B
:10138200D006D007D083D082D0F0D0E0D02132C0B6
:1013920021C0E0C0F0C082C083C007C006C005C043
:1013A20004C003C002C001C000C0D075D000309894
:1013B20005121A1BC298309905121A51C299D0D03F
:1013C200D000D001D002D003D004D005D006D0077F
:1013D200D083D082D0F0D0E0D02132C021C0E0C092
:1013E200F0C082C083C007C006C005C004C003C0ED
:1013F20002C001C000C0D075D00030C005121A95DD
:10140200C2C030C105121ACBC2C1D0D0D000D001A7
:10141200D002D003D004D005D006D007D083D0822A
:10142200D0F0D0E0D02132C021C0E0C0F0C082C0F4
:1014320083C007C006C005C004C003C002C001C00B
:1014420000C0D075D0009002C3E0FEA3E0FFC00749
:10145200C0068E828F83120069D006D007D0D0D00A
:1014620000D001D002D003D004D005D006D007D0DE
:1014720083D082D0F0D0E0D02132C021C0E0C0F0D1
:10148200C082C083C007C006C005C004C003C0023A
:10149200C001C000C0D075D0009002C5E0FEA3E03C
:1014A200FFC007C0068E828F83120069D006D00764
:1014B200D0D0D000D001D002D003D004D005D006C5
:1014C200D007D083D082D0F0D0E0D02132C021C06A
:1014D200E0C0F0C082C083C007C006C005C004C01F
:1014E20003C002C001C000C0D075D0009002C1E0AC
:1014F200FEA3E04E600E9002C1E0F8A3E0F58388FF
:1015020082120069D0D0D000D001D002D003D00422
:10151200D005D006D007D083D082D0F0D0E0D02141
:10152200321218761201021203D780FB7582002252
:10153200E582FF901C0193FEEF901BD993FF70018F
:10154200229001ADE0FD701BBF0209EEF4FC529245
:10155200EC529322BF0402800122EEF4FC5296EC7C
:10156200529722BD0214BF0207EE4292EE4293222C
:10157200BF0439EE4296EE429722BD0116BF020821
:10158200EEF45292EE429322BF0421EEF45296EE12
:10159200429722BD0316BF0208EE4292EEF4529326
:1015A20022BF0408EE4296EEF4FE529722AF82BFAB
:1015B2000102800FBF02028013BF03028017BF0423
:1015C20025801BE5C620E21E539DFB22E5C620E3D3
:1015D20015539DF722E5C630E20C539DFB22E5C66A
:1015E20030E303539DF722E582FF901BB193FEEF98
:1015F200901C0193FDEF901BD993FF7003F582229B
:10160200EE600D8E82C007C0051215AFD005D0075F
:101612007E00BF0202800ABF03028009BF040C8061
:1016220008AE908006AEA08002AEB0ED5E6004759A
:1016320082012275820022E582FF901BB193FEEFA8
:10164200901C0193FDEF901BD993FFEE600D8E82EB
:10165200C007C0051215AFD005D007A2AFE433FE14
:10166200C2AFBF0202800ABF03028017BF043680E6
:10167200249001AEE07007EDF4FF52908027ED4216
:101682009080229001AEE07007EDF4FF52A0801529
:10169200ED42A080109001AEE07007EDF4FF52B071
:0B16A2008003ED42B0EE6002D2AF22E8
:1016AE00AC82AD83AE18AF19BE0004EF600C1F0FF5
:0F16BE00E5171218ABA3DEFADFF88C828D8322BA
:1016CD00C0D075D00808B8000D09B900090ABA00D4
:1016DD00050BBB00010CD0D032A2AFC2AFA808A938
:1016ED0009AA0AAB0BAC8A8588F092AF30F512745B
:1016FD00012C600D08B8000909B900050ABA0001EE
:10170D000BC3EC9406FCECC313FC75F07DE8A4F858
:10171D00ADF075F07DE9A42DF9E435F0FD75F07DA2
:10172D00EAA42DFAE435F0FD75F07DEBA42DFB7DDB
:10173D0000EC28F582E93DF583EA3DF5F0EB3D221D
:10174D00A2AFC2AFA808A909AA0AAB0BAC0C92AF05
:10175D0075F020E8A4A8F075F020E9A428F582A87A
:10176D00F075F020EAA428F583A8F075F020EBA41D
:10177D0028F9A8F075F020ECA42889F0228582467E
:10178D0085834785F048F5491216E685824A85839B
:10179D004B85F04CF54DE5464547454845497001AB
:1017AD0022A846A947AA48AB49854A4E854B4F8585
:1017BD004C50854D51E8494A4B60DBC003C002C017
:1017CD0001C0001216E6AC82AD83AEF0FFD000D0A2
:1017DD0001D002D003ECC3954EFCED954FFDEE9577
:1017ED0050FEEF9551FFC3EC94E8ED9403EE940099
:1017FD00EF940040A118B8FF0919B9FF051ABAFFF7
:10180D00011B884689478A488B4974E8254EF54E59
:10181D007403354FF54FE43550F550E43551F5511E
:10182D00854E4A854F4B85504C85514D8087AE82F4
:10183D00AF83C374019EE49F40022200C374029ED5
:10184D00FE74009FFF00BE0005BF000200220000D5
:10185D000000000000000000000000000000000E6D
:10186D00BE00EB0FBF00ED002275A15575A1AA7446
:10187D00F855B94406F5B975A10090138812183BB7
:10188D00759E5D759D0074F055894402F58953C9A7
:0D189D00EF758C06C28DD2A9D28CD2AF227D
:1018AB0020F71130F6138883A88220F509F6A88358
:1018BB007583002280FEF280F5F022E5828517F019
:1018CB00A4C582C0F08518F0A4D0F025F0C583859F
:0918DB0017F0A42583F5832232E5
:1018E500AAF0FBE5828517F0A4FCADF0E58385172A
:1018F500F0A42DFDE435F0FEE5828518F0A42DFD5C
:10190500E5F03EFEE433FFEA8517F0A42EFEE5F090
:101915003FFFE5838518F0A42EFEE5F03FFFE58245
:101925008519F0A42EFEE5F03FFFEB8517F0A42FF7
:10193500FFEA8518F0A42FFFE5838519F0A42FFF92
:0F194500E582851AF0A42F8EF08D838C822232DA
:09195500ABF0A2AFE433FEC2AF17
:10195F00E0A3D2963300500A000000000000000000
:10196F000000C296400A00000000000000000000C6
:10197F00530207DADDDBD900C296EE6002D2AF2246
:10198F0022AF82BF02005036EF75F002A424C3F5D8
:10199F0082740235F0F583E517F0E518A3F0BF0068
:1019AF00028005BF0118800B9001AFE024FF9288E1
:1019BF00D2A8229001AFE0FF24FF928AD2AA22AFD1
:1019CF0082BF02005028BF00028005BF01088004BB
:1019DF00C2A88002C2AAEF75F002A424C3FE74024B
:0F19EF0035F0FF8E828F83748FF07419A3F0226E
:1019FF0020F71430F6148883A88220F507E6A88311
:0C1A0F0075830022E280F7E49322E022BD
:101A1B009002C7E0FF7E008F828E83A37517108E16
:101A2B0018121B5CAE829002C8E0FFEEB5070122D4
:101A3B009002C7E024B0F582E43401F583E599F018
:101A4B009002C7EEF0223003409002C9E0FF9002F3
:101A5B00CAE0FEEFB50605A203C203229002CAE05C
:101A6B0024C0F582E43401F583E0F5999002CAE0D5
:101A7B00FF7E008F828E83A37517108E18121B5C4E
:0A1A8B00AE82AF839002CAEEF02293
:101A95009002CBE0FF7E008F828E83A37517108E98
:101AA50018121B5CAE829002CCE0FFEEB507012256
:101AB5009002CBE024D0F582E43401F583E5C1F052
:101AC5009002CBEEF0223004409002CDE0FF900270
:101AD500CEE0FEEFB50605A204C204229002CEE0D8
:101AE50024E0F582E43401F583E0F5C19002CEE00F
:101AF500FF7E008F828E83A37517108E18121B5CD4
:0A1B0500AE82AF839002CEEEF02214
:101B0F00E517451860467A01E51725E0F517E51842
:101B1F00334012F518E5829517E583951840030AAF
:101B2F0080E6C3E51813F518E51713F517C3E5821B
:101B3F009517F5F0E58395184005F58385F082C379
:101B4F00E51813F518E51713F517DAE122C2D5E5F5
:101B5F008330E70DD2D5E4C39582F582E49583F502
:101B6F0083E51830E70BE4C39517F517E49518F5DF
:101B7F0018121B0F30D50BE4C39582F582E49583C1
:031B8F00F58322B9
:101B920061626E646972416461416D62696E6F2057
:0F1BA2004261736963312E302E374142523265F2
:101BB1000000000000000000000000000000000123
:101BC100000000000000000000000000000003040D
:101BD10000000200000000000101010101010101FA
:101BE10000000202020202020202000003030303D8
:101BF10003030303000004040404040404040000B8
:101C01000102040810204080000001020408102095
:101C11004080000001020408102040800000010201
:101C21000408102040800000FFFFFFFFFFFFFFFFBF
:101C3100FFFFFF00FFFF0102FFFFFFFFFFFFFFFFAD
:101C4100FFFFFFFFFFFFFFFF03FFFFFFFFFFFFFF9F
:101C510000E1000000000800000000001201100176
:101C6100EF020108091250C501010102030112002E
:101C710009024B000201008064080B00020202010C
:101C810004090400000102020104052400100105F9
:101C91002401000004240202052406000107058135
:101CA1000308004009040100020A000004070502BC
:101CB10002400000070582024000004B00040309B6
:101CC1000404001A0341006D00620069006E006F98
:101CD100002000420061007300690063001A0016D1
:101CE1000343004400430020005300650072006973
:101CF1000061006C0016000E0341006D0062006976
:071D0100006E006F000E00F0
:101D08000C03300031003200330034003500360057
:0A1D18003700380039004100420096
:021D22000000BF
:041D24008F198F196B
:041D280000000000B7
:041D2C0000000000B3
:00000001FF
