:0600000002006B02130F69
:03000B000218EFE9
:0300130002136273
:01001B0032B2
:030023000212774F
:03002B00021B7540
:01003300329A
:03003B000213B5F8
:030043000212386E
:01004B003282
:030053000212C3D3
:01005B003272
:03006300021B0578
:0300660002140978
:02006900E4733E
:0D006B00758162121414E5826003020066C4
:1000780079DDE94400601B7A01901F64782A75A035
:1000880002E493F2A308B8000205A0D9F4DAF275E5
:02009800A0FFC7
:06009A00E478FFF6D8FD3A
:1000A0007800E84400600A799475A000E4F309D868
:1000B000FC7896E84401600C7902900094E4F0A387
:0400C000D8FCD9FA95
:1000C4007522097523147524007525007527947508
:0B00D4002800E4F53CF53DF53EF53F4B
:0900DF0075141A75150075160060
:0E00E8007808E4F608F608F608F6780C7600BC
:0200F600C20343
:0200F800C20440
:0300FA000200669B
:1000FE0012075A9001AD7401F075820F1214189008
:10010E0001AD7401F07582101214189001AD7401D6
:10011E00F07582111214189001AEE4F0758211126E
:10012E00152F7F00BF5500504F8F17751800900088
:10013E0003C007121AE8AD82AE83ED2494FDEE34AF
:10014E0000FE8D828E83E4F08D828E83A37464F024
:10015E008D828E83A3A3E4F07D947E007B007CFFD2
:10016E008D828E838CF0EB121C5F900005E4F5F00F
:10017E001219ACD0070F80AC7F00BF5500504E8FC8
:10018E0017751800900003C007121AE8AD82AE83EF
:10019E00ED2494FDEE3400FE8D828E837464F08D1A
:1001AE00828E83A3E4F08D828E83A3A3F07D947E52
:1001BE00007B007CFF8D828E838CF0EB121C5F9097
:1001CE000005E4F5F01219ACD0070F80AD7F00BF2B
:1001DE005500504E8F17751800900003C007121A65
:1001EE00E8AD82AE83ED2494FDEE3400FE8D828E5A
:1001FE0083E4F08D828E83A3F08D828E83A3A3740D
:10020E0064F07D947E007B007CFF8D828E838CF06B
:10021E00EB121C5F900005E4F5F01219ACD0070F3D
:10022E0080AD7F00BF5500504C8F177518009000A1
:10023E0003C007121AE8AD82AE83ED2494FDEE34AE
:10024E0000FE8D828E83E4F08D828E83A3F08D82EC
:10025E008E83A3A3F07D947E007B007CFF8D828E27
:10026E00838CF0EB121C5F900005E4F5F01219ACD4
:10027E00D0070F80AF12196FAC82AD83AEF0FF8C3A
:10028E00388D398E3A8F3B8C348D358E368F379034
:10029E0001B374BAF0741EA3F07480A3F0900868D2
:1002AE00121602120849900064E4F5F01219AC908F
:1002BE0001B374BFF0741EA3F07480A3F0900868AD
:1002CE0012160202084912196F8582308583318514
:1002DE00F032F5331209AFE58260311209B685822C
:1002EE002FAC30AD31AE32AF338C388D398E3A8F74
:1002FE003B8C348D358E368F37E4B52402800774EF
:10030E0001B5240B800302031E02058D0206162280
:10031E0074FD25405003020465E540901E9C93B584
:10032E002F0B7402B54003752500054022E5409061
:10033E001EA293B52F0B7402B5400375250105401F
:10034E0022E540901E9F93FFB52F028003020461A9
:10035E007402B54002800302045E75820F120868B3
:10036E0075820C12086875825D1208687582061215
:10037E000868903FFCE493F582120868903FFDE414
:10038E0093F582120868903FFEE493F58212086896
:10039E00903FFFE493F582120868903FFAE493F5DC
:1003AE0082120868903FFBE493F58212086875820A
:1003BE000B1208687E007F00C3EE940BEF648094EE
:1003CE00805020EE24A5F582EF341EF583E493F5DC
:1003DE0082C007C006120868D006D0070EBE00D82D
:1003EE000F80D57582051208687E007F00C3EE94DB
:1003FE0005EF648094805020EE24B0F582EF341E19
:10040E00F583E493F582C007C006120868D006D0C3
:10041E00070EBE00D80F80D57582051208687E00C3
:10042E007F00C3EE9405EF648094805020EE24B5D7
:10043E00F582EF341EF583E493F582C007C00612F1
:10044E000868D006D0070EBE00D80F80D5754000C4
:10045E0005402275400022E54024F7500122E54078
:10046E00240B83F582E540240D83F583E4738C8C95
:10047E008C8E949AA0A6A905050504040404040410
:10048E00852F41054022852F42054022852F4305A9
:10049E004022852F44054022054022E4B5250280E6
:1004AE00087401B52502806D22E54265416455B59B
:1004BE00435F9001AE7401F075821112152FAC419D
:1004CE007D007E008E078D068C057C00A842E4F927
:1004DE00FAFBE82CF517E93DF518EA3EF519EB3F66
:1004EE00F51A900003E4F5F0121B0785822B858325
:1004FE002C85F02DF52EE4F529F52AF5177518FF44
:10050E00F51990009475F0001218D08544267524C4
:10051E000175400022E54265416455FFB5435C908C
:10052E0001AE7401F075821112152FAC417D007E63
:10053E00008E078D068C057C00A842E4F9FAFBE8D4
:10054E002CF517E93DF518EA3EF519EB3FF51A9033
:10055E000003E4F5F0121B0785822B85832C85F0B2
:10056E002DF52EE4F529F52AF5177518FFF51990D6
:10057E00009475F0001218D075240175400022AE5B
:10058E0029AF2AC3EE9402EF94015017E5292527CF
:10059E00F582E52A3528F583E52FF00529E4B529FE
:1005AE0002052A152B74FFB52B0C152CB52C07152F
:1005BE002DB52D02152EE52B452C452D452E7047BC
:1005CE00F524B526347E947F00AC29AD2A0CBC00F0
:1005DE00010D7D008D028C037C007D008E008F014D
:1005EE00E4FEFFE84204E94205EE4203EF42028CCC
:1005FE00828D838BF0EA121C5F9001AEE4F075825F
:10060E001112152F02084922E530C39538FCE53149
:10061E009539FDE532953AFEE533953BFFC3EC94F3
:10062E00E8ED9403EE9400EF9400500122E4B5251A
:10063E000280077401B5255A802D120849E53E4502
:10064E003F7013753E01F53F9001AE7401F0758257
:10065E001112152F803CE4F53EF53F9001AEF0757A
:10066E00821112152F802B120849E53E453F70135B
:10067E00753E01F53F9001AE7401F07582111215B1
:10068E002F800FE4F53EF53F9001AEF0758211120A
:10069E00152F85303885313985323A85333BE53C27
:1006AE00453D700122E530C39534FCE5319535FDAD
:1006BE00E5329536FEE5339537FF853C17853D18B7
:1006CE00751900751A009003E8E4F5F0C007C0062E
:1006DE00C005C004121B07A882A983AAF0FBD00490
:1006EE00D005D006D007C3EC98ED99EE9AEF9B405B
:1006FE00597F00BF550050318F17751800900003B9
:10070E00C007121AE8AD82AE83D007ED2494FDEE39
:10071E003400FE8D828E83E4F08D828E83A3F08D65
:10072E00828E83A3A3F00F80CA7E947F007C007D0F
:10073E00FF8E828F838DF0EC121C5F752400853046
:0B074E00348531358532368533372283
:10075A001211E512120F1211FE75DD0075D3007524
:10076A00D50022900231E4F0900233F0227F00C3D8
:10077A00E5DB9407920040067D077E008004ADDB2E
:10078A007E008F037C00C3EB9DEC64808EF063F0E7
:10079A008095F05017EF242AFDE43402FE8F82750B
:1007AA008300E0FC8D828E83F00F80C3227F008F4E
:1007BA00057E00C3ED9407EE940050188F057E0065
:1007CA00EF242AF582E43402F583E0FC8D828E83DD
:1007DA00F00F80DB90000722900002E0FF900234C5
:1007EA00F0E020E04990022AE0FCA3E0FDA3E0FE4D
:1007FA00A3E0FFBCB038BD0435BE0032BF002F7580
:10080A00E200C2AF75890075100075113890C350A7
:10081A00121A5D90C350121A5DAE10AF11C007C014
:10082A00068E828F83120069D006D00780FE227559
:10083A001700900234E06003751701851782229031
:10084A000233E07018900235E0FFE060108FD55354
:10085A00D4FC9002337401F0900235E4F022AF82A6
:10086A00900234E060617D007E00900233E06024F3
:10087A000DBD00010E900005C007C006C005121A82
:10088A005DD005D006D007C3ED9450EE94C340DA8C
:10089A0075820022900235E0FEBE400050207D00A5
:1008AA0074402EFEE43DFDEE2414F582ED3400F58D
:1008BA0083EFF0900235E02401F075820122C0072F
:1008CA00120849D007809F75820022AFF0AE83E5F7
:1008DA0082900195F0EEA3F0EFA3F0900234E0705D
:1008EA00030209AB900193E0FEA3E0FFC3E49E7408
:1008FA00808FF063F08095F040030209AB7E007FA1
:10090A0000900233E060200EBE00010F900005C087
:10091A0007C006121A5DD006D007C3EE9450EF94B2
:10092A00C340DE75820022900195E0FDA3E0FEA39C
:10093A00E0FF900193E0FBA3E0FCC3E49B74808C8E
:10094A00F063F08095F0509C900235E0FABA4000CE
:10095A0050498A017A00744029F9E43AFAE92414E0
:10096A00F9EA3400FA8D828E838FF0121D09F8A3FA
:10097A00AD82AE83900195EDF0EEA3F0EFA3F0897E
:10098A00828A83E8F0900235E02401F01BBBFF0164
:10099A001C900193EBF0ECA3F0809F120849020827
:1009AA00EE75820022900231E0F58222900231E057
:1009BA007003F58222900232E02414F582E43400B6
:1009CA00F583E0FF900232E004F0900231E014F087
:1009DA00E0700353D4F38F822275D50074FC55D48A
:1009EA004402F5D4900233E4F02230DE1990023149
:1009FA00E5DBF0900232E4F0900231E0600874F333
:070A0A0055D44408F5D42285
:100A1200AFDBBF08028003021034900007E0FE7FC4
:100A220000900006E0FD7C00900198ED4FF0EC4E46
:100A3200A3F07F00900001E0FE90019AF08F1690E3
:100A42000000E05460604D900000E0FD5305607CC2
:100A520000BD2005BC0002800BBD4033BC00307FCE
:100A6200FF021036BE2003021036BE21028005BEF0
:100A72002218800C1207B7AC82AD838C07021036A5
:100A8200C0071207E2D0070210367FFF0210367F3E
:100A9200FF021036EEFD24F45003021030ED240A5A
:100AA20083F582ED241083F583E4730A3930F8303C
:100AB200FDC5300C2D3636100E100E100D0A100E1C
:100AC2000E1010900003E0FEBE0102800DBE020275
:100AD200801BBE03028029020D7075123675130247
:100AE200900248E0FDA3E0FE8D07020D7275124AE6
:100AF200751302900295E0FDA3E0FE8D07020D72D0
:100B0200900002E0701375129775130290029BE039
:100B1200FDA3E0FE8D07020D72900002E0FEBE0111
:100B2200137512CF7513029002DDE0FDA3E0FE8D76
:100B320007020D72900002E0FEBE021375129D754F
:100B420013029002B5E0FDA3E0FE8D07020D729044
:100B52000002E0FEBE03028003020D4C90019C7471
:100B620030F090019D04F090019E04F090019F04EA
:100B7200F09001A004F09001A104F09001A204F011
:100B82009001A304F09001A404F09001A504F09058
:100B920001A67441F09001A704F09001A804F0901E
:100BA20001A904F09001AA04F09001AB04F09001B5
:100BB200ACE4F09002DF741AF09002E07403F0905B
:100BC2003FFCE493C4540FFE53060F7D00EE249CB9
:100BD200F582ED3401F583E09002E1F09002E2E467
:100BE200F0903FFC93FE53060F7D00EE249CF582AD
:100BF200ED3401F583E09002E3F09002E4E4F0903A
:100C02003FFD93C4540FFE53060F7D00EE249CF566
:100C120082ED3401F583E09002E5F09002E6E4F023
:100C2200903FFD93FE53060F7D00EE249CF582ED6E
:100C32003401F583E09002E7F09002E8E4F0903F9F
:100C4200FE93C4540FFE53060F7D00EE249CF582E2
:100C5200ED3401F583E09002E9F09002EAE4F090CD
:100C62003FFE93FE53060F7D00EE249CF582ED3489
:100C720001F583E09002EBF09002ECE4F0903FFF8C
:100C820093C4540FFE53060F7D00EE249CF582EDB3
:100C92003401F583E09002EDF09002EEE4F0903F33
:100CA200FF93FE53060F7D00EE249CF582ED340186
:100CB200F583E09002EFF09002F0E4F0903FFA93B7
:100CC200C4540FFE53060F7D00EE249CF582ED34D2
:100CD20001F583E09002F1F09002F2E4F0903FFA25
:100CE20093FE53060F7D00EE249CF582ED3401F550
:100CF20083E09002F3F09002F4E4F0903FFB93C49F
:100D0200540FFE53060F7D00EE249CF582ED340154
:100D1200F583E09002F5F09002F6E4F0903FFB9349
:100D2200FE53060F7D00EE249CF582ED3401F5831F
:100D3200E0FE9002F7F09002F8E4F075141AF5154F
:100D42007512DF7513027F1A8026900002E0FEBE44
:100D520004127512B77513029002CDE0FDA3E0FEF6
:100D62008D07800C7512DF751302AF1480027FFFAE
:100D7200BFFF03021036900198E0FDA3E0FE8F034F
:100D82007C00C3EB9DEC9E5008900198EBF0ECA325
:100D9200F0900198E0FDA3E0FE8D038E04C3EB9476
:100DA20008EC9400920140067B087C0080048D03CD
:100DB2008E048B077E00C3EE9F50188E047D00EEDA
:100DC2002512F582E43513F583E0FB8C828D83F0E6
:100DD2000E80E38F057E00900198E0FBA3E0FCEB20
:100DE200C39DFBEC9EFC900198EBF0ECA3F0EF2589
:100DF20012F512E43513F513021036900002E0FEEC
:100E0200900198F0E4A3F002103690019BE090006C
:100E120000F0900198E0FDA3E0FEC3ED9401EE9492
:100E22000050030210367F01021036900002E0FEED
:100E320090019BF0021036900000E0541F702E903B
:100E42000003E0FD7E00900002E0FC7B004206EB26
:100E52004205BE0113BD0010900251E0FE30E503D1
:100E62000210367FFF0210367FFF0210369000001C
:100E7200E0FE53061F7D00BE0277BD0074900004A1
:100E8200E0FEBE0102805FBE02028049BE03028014
:100E920033BE0402801DBE81028040BE8202802ACF
:100EA200BE83028014BE844474BC55DE4402F5DE67
:100EB20002103653DE7302103674BC55D64402F566
:100EC200D602103653D67302103674BC55D444027F
:100ED200F5D402103653D47302103674BC55D24482
:100EE20002F5D202103653D2730210367FFF02107F
:100EF200367FFF021036900000E0541F702E9000E3
:100F020003E0FD7E00900002E0FC7B004206EB4223
:100F120005BE0113BD0010900251E0FE30E5030250
:100F220010367FFF0210367FFF021036900000E07D
:100F3200FE53061F7D00BE0205BD000280030210A3
:100F420006900003E0FD7E00900002E0FC7B004280
:100F520006EB4205EE4D6003021002900005E0FD33
:100F62007E00900004E0FC7B004206EB4205BE01DD
:100F720006BD0003020FF6BE0205BD00028061BE7F
:100F82000305BD00028045BE0405BD00028029BEE6
:100F92008105BD00028053BE8205BD00028037BEBE
:100FA2008305BD0002801BBE8452BD004F74BF5535
:100FB200DE4403F5DE021036747F55DE440CF5DEA6
:100FC200807274BF55D64403F5D68068747F55D6B7
:100FD200440CF5D6805E74BF55D44403F5D48054D6
:100FE200747F55D4440CF5D4804A74BF55D244035F
:100FF200F5D28040747F55D2440CF5D27FFF803405
:101002007FFF80307FFF802C900000E4F090000191
:10101200F0900198E0FDA3E0FE8D038E04C3EB94F3
:1010220002EC940040047F02800A8D0780067FFF55
:1010320080027FFFBFFF0A90019A74FFF075DCCF38
:1010420022EF24F740068FDD75DCC02275DD0075C6
:10105200DCC02290019AE0FFBF05028073BF060246
:1010620080030210E6900198E0FEA3E0FF8E048F59
:1010720005C3EC9408ED9400920240067C087D00C2
:1010820080048E048F057F00C3EF9C50188F057E6D
:1010920000EF2512F582E43513F583E0FB8D828E95
:1010A20083F00F80E38C067F00900198E0FBA3E0C1
:1010B200FDEBC39EFBED9FFD900198EBF0EDA3F0DD
:1010C200EC2512F512E43513F5138CDD63DC4022B6
:1010D200E5E35480FF900198E0FDA3E0ED4FF5E3D6
:1010E20075DC022275DD0075DC022290019AE0FFB8
:1010F200BF200D30DE1012077775DD0085DCDC22A3
:1011020075DD0043DC022275D30074FC55D2440223
:10111200F5D22220D9030211C0E5D9540FFFADD96F
:101122005305307E00BD0005BE0002801CBD1005C7
:10113200BE00028036BD2005BE00028043BD3006DF
:10114200BE00030211A60211BEEF24FB50030211DE
:10115200BEEF2F90115973800880618009805D80F5
:101162005B1210ED80561209F48051EF24FB404CC3
:10117200EF2F90117873804480428040803E803C03
:10118200EF24FB4037EF2F90118D738008800B8086
:101192000E802980271210558022121109801D12FB
:1011A20009E38018EF24FB4013EF2F9011B17380F5
:1011B200088009800780058003120A12C2D930D83C
:1011C2001575DC0275D21275D41275E300C2DAC24B
:1011D200D9C2D812076D10DA0122E5DA20E20375CE
:1011E200D8FF2275E20053E27F43E22975E3005300
:1011F200E2BF53D1FB75D18043D1012243E10443C5
:10120200E10243E10143D81FD2EAD2AF227E0A7F34
:10121200008EEE8FEF7E147F008EE48FE575EB0C6F
:1012220075D21275D4127E007F008EEC8FED75EAB6
:051232004075DC022202
:10123800C021C0E0C0F0C082C083C007C006C0059E
:10124800C004C003C002C001C000C0D075D00012E5
:101258001115D0D0D000D001D002D003D004D005D1
:10126800D006D007D083D082D0F0D0E0D02132C0D1
:1012780021C0E0C0F0C082C083C007C006C005C05E
:1012880004C003C002C001C000C0D075D0003098AF
:1012980005121D25C298309905121D5BC299D0D040
:1012A800D000D001D002D003D004D005D006D0079A
:1012B800D083D082D0F0D0E0D02132C021C0E0C0AD
:1012C800F0C082C083C007C006C005C004C003C008
:1012D80002C001C000C0D075D00030C005121D9FEB
:1012E800C2C030C105121DD5C2C1D0D0D000D001B6
:1012F800D002D003D004D005D006D007D083D08246
:10130800D0F0D0E0D02132C021C0E0C0F0C082C00F
:1013180083C007C006C005C004C003C002C001C026
:1013280000C0D075D0009002FBE0FEA3E0FFC0072C
:10133800C0068E828F83120069D006D007D0D0D025
:1013480000D001D002D003D004D005D006D007D0F9
:1013580083D082D0F0D0E0D02132C021C0E0C0F0EC
:10136800C082C083C007C006C005C004C003C00255
:10137800C001C000C0D075D0009002FDE0FEA3E01F
:10138800FFC007C0068E828F83120069D006D0077F
:10139800D0D0D000D001D002D003D004D005D006E0
:1013A800D007D083D082D0F0D0E0D02132C021C085
:1013B800E0C0F0C082C083C007C006C005C004C03A
:1013C80003C002C001C000C0D075D0009002F9E08F
:1013D800FEA3E04E600E9002F9E0F8A3E0F58388E2
:1013E80082120069D0D0D000D001D002D003D0043E
:1013F800D005D006D007D083D082D0F0D0E0D0215D
:1014080032121A981200FE1202D480FB7582002252
:10141800E582FF901F1493FEEF901EEC93FF70017E
:10142800229001ADE0FD701BBF0209EEF4FC529260
:10143800EC529322BF0402800122EEF4FC5296EC97
:10144800529722BD0214BF0207EE4292EE42932247
:10145800BF0439EE4296EE429722BD0116BF02083C
:10146800EEF45292EE429322BF0421EEF45296EE2D
:10147800429722BD0316BF0208EE4292EEF4529341
:1014880022BF0408EE4296EEF4FE529722AF82BFC6
:101498000102800FBF02028013BF03028017BF043E
:1014A800358023E5C620E22E539DFB22E5C620E3C6
:1014B80025539DF722AEC65306047F00BE0117BF11
:1014C8000014539DFB22AEC65306087F00BE0106DA
:1014D800BF0003539DF722E582FF901EC493FEEFE1
:1014E800901F1493FDEF901EEC93FF7003F582227A
:1014F800EE600D8E82C007C005121495D005D00786
:101508007E00BF0202800ABF03028009BF040C806C
:1015180008AE908006AEA08002AEB0ED5E600475A5
:1015280082012275820022E582FF901EC493FEEF9D
:10153800901F1493FDEF901EEC93FFEE600D8E82CA
:10154800C007C005121495D005D007A2AFE433FE3A
:10155800C2AFBF0202800ABF03028017BF043680F1
:10156800249001AEE07007EDF4FF52908027ED4221
:101578009080229001AEE07007EDF4FF52A0801534
:10158800ED42A080109001AEE07007EDF4FF52B07C
:0B1598008003ED42B0EE6002D2AF22F3
:1015A400AE82AF839001AFE0FBA3E0FCA3E0FD7A41
:1015B400009001B2E0F9890019E8603F8B828C83C6
:1015C4008DF0121D09F8A3AB82AC83C007C006C01E
:1015D40005C004C003C002C0011215E28007C006A2
:1015E400C007888222A882D001D002D003D004D0C0
:1015F40005D006D007E860030A80BB8A8222AE8247
:10160400AF839001B3E0FBA3E0FCA3E0FD9001B342
:10161400E0F5F0A3E045F07003F582227A008B82B6
:101624008C838DF0121D09F9A3AB82AC83E9F860B9
:101634002CC007C006C005C004C003C00212164671
:101644008007C006C007888222A982D002D003D0B6
:1016540004D005D006D007E960030A80C18A82223B
:10166400AE82AF839001B6E0FAA3E0FBA3E0FCA353
:10167400E0FD9001BEEAF0EBA3F0ECA3F0EDA3F0E3
:101684009001C2740AF08E828F830216F5AE82AF87
:10169400839001BAE0FAA3E0FBA3E0FCA3E0FD9091
:1016A40001E4EAF0EBA3F0ECA3F0EDA3F09001E881
:1016B400740AF08E828F830217DAAE82AF83C0077A
:1016C400C0061216CB8008C006C00775820D22AD75
:1016D40082D006D007C007C0051216E28008C006F3
:1016E400C00775820A22AE82D005D007EE2DF5829E
:1016F400228582458583469001E3E4F09001C2E0AF
:10170400FDBD020050069001C2740AF09001C2E0CF
:10171400F5477BE37C019001BEE0F548A3E0F54981
:10172400A3E0F54AA3E0F54B85474C754D00754E93
:1017340000754F00854C17854D18854E19854F1A35
:10174400854882854983854AF0E54BC004C003126D
:101754001B77A882854C17854D18854E19854F1A1D
:10176400854882854983854AF0E54BC000121BFAFF
:10177400AA82AD83AEF0FFD000D003D0049001BEA6
:10178400EAF0EDA3F0EEA3F0EFA3F01BBBFF011C06
:101794008B068C07B80A005008880574302DFD802C
:1017A40004743728FD8E828F83EDF09001BEE0F53E
:1017B400F0A3E042F0A3E042F0A3E045F0600302AE
:1017C400171A9001B3EBF0ECA3F0E4A3F085458283
:1017D4008546830216028582508583519001E8E094
:1017E400FD70199001E4E0F9A3E0FAA3E0FBA3E0A3
:1017F400FC0217F8C050C05189822222BD0A02801F
:10180400030218A59001E4E0F9A3E0FAA3E0FBA326
:10181400E0FC30E76FC004C003C002C00112182608
:101824008008C050C05175822D22A882D001D002F8
:10183400D003D00488529001E4C3E499F0E49AA35D
:10184400F0E49BA3F0E49CA3F09001E4E0F553A33F
:10185400E0F554A3E0F555A3E0F5569001BEE55339
:10186400F0E554A3F0E555A3F0E556A3F09001C2CA
:10187400740AF08550828551831216F5AF82E552C1
:101884002FF582229001BEE9F0EAA3F0EBA3F0EC7D
:10189400A3F09001C2740AF0855082855183021628
:1018A400F59001E4E0FBA3E0FCA3E0FEA3E0FF90DD
:1018B40001BEEBF0ECA3F0EEA3F0EFA3F09001C2B5
:0B18C400EDF08550828551830216F57F
:1018D000AC82AD83AE18AF19BE0004EF600C1F0FD1
:0F18E000E517121ACDA3DEFADFF88C828D832272
:1018EF00C0D075D00808B8000D09B900090ABA00B0
:1018FF00050BBB00010CD0D032A2AFC2AFA808A914
:10190F0009AA0AAB0BAC8A8588F092AF30F5127436
:10191F00012C600D08B8000909B900050ABA0001C9
:10192F000BC3EC9406FCECC313FC75F07DE8A4F834
:10193F00ADF075F07DE9A42DF9E435F0FD75F07D7E
:10194F00EAA42DFAE435F0FD75F07DEBA42DFB7DB7
:10195F0000EC28F582E93DF583EA3DF5F0EB3D22F9
:10196F00A2AFC2AFA808A909AA0AAB0BAC0C92AFE1
:10197F0075F020E8A4A8F075F020E9A428F582A856
:10198F00F075F020EAA428F583A8F075F020EBA4F9
:10199F0028F9A8F075F020ECA42889F02285825749
:1019AF0085835885F059F55A12190885825B85830E
:1019BF005C85F05DF55EE55745584559455A700110
:1019CF0022A857A958AA59AB5A855B5F855C6085D9
:1019DF005D61855E62E8494A4B60DBC003C002C0AF
:1019EF0001C000121908AC82AD83AEF0FFD000D059
:1019FF0001D002D003ECC3955FFCED9560FDEE9531
:101A0F0061FEEF9562FFC3EC94E8ED9403EE940052
:101A1F00EF940040A118B8FF0919B9FF051ABAFFD2
:101A2F00011B885789588A598B5A74E8255FF55FCF
:101A3F0074033560F560E43561F561E43562F56294
:101A4F00855F5B85605C85615D85625E8087AE8248
:101A5F00AF83C374019EE49F40022200C374029EB1
:101A6F00FE74009FFF00BE0005BF000200220000B1
:101A7F000000000000000000000000000000000E49
:101A8F00BE00EB0FBF00ED002275A15575A1AA7422
:101A9F00F855B94406F5B975A100901388121A5D6F
:101AAF00759E04759D0074F055894402F58953C9DC
:0D1ABF00EF758C06C28DD2A9D28CD2AF2259
:101ACD0020F71130F6138883A88220F509F6A88334
:101ADD007583002280FEF280F5F022E5828517F0F5
:101AED00A4C582C0F08518F0A4D0F025F0C583857B
:091AFD0017F0A42583F5832232C1
:101B0700AAF0FBE5828517F0A4FCADF0E583851705
:101B1700F0A42DFDE435F0FEE5828518F0A42DFD37
:101B2700E5F03EFEE433FFEA8517F0A42EFEE5F06C
:101B37003FFFE5838518F0A42EFEE5F03FFFE58221
:101B47008519F0A42EFEE5F03FFFEB8517F0A42FD3
:101B5700FFEA8518F0A42FFFE5838519F0A42FFF6E
:0F1B6700E582851AF0A42F8EF08D838C822232B6
:101B7700F9E51745184519451A60777800C308E550
:101B87001A20E73BE51725E0F517E51833F518E5C3
:101B97001933F519E51A33F51AE5829517E5839593
:101BA70018E5F09519E9951A50D4C3E51A13F51AF3
:101BB700E51913F519E51813F518E51713F517E5E2
:101BC700829517FCE5839518FDE5F09519FEE995D3
:101BD7001A4007F98EF08D838C82C3E51A13F51A24
:101BE700E51913F519E51813F518E51713F517D8BF
:101BF700CEE922FB7A20E4FCFDFEFFE5822582F593
:101C070082E58333F583E5F033F5F0EB33FB4017DB
:101C1700DAE98042E5822582F582E58333F583E5BB
:101C2700F033F5F0EB33FBEC33FCED33FDEE33FE35
:101C3700EF33FFEC9517ED9518EE9519EF951A40D0
:101C470013EC9517FCED9518FDEE9519FEEF951A17
:101C5700FF438201DABEEB22ABF0A2AFE433FEC250
:011C6700AFCD
:101C6900E0A3D2953300500A0000000000000000F4
:101C79000000C295400A00000000000000000000BA
:101C8900530207DADDDBD900C295EE6002D2AF223A
:101C990022AF82BF02005036EF75F002A424FBF593
:101CA90082740235F0F583E517F0E518A3F0BF005B
:101CB900028005BF0118800B9001E9E024FF92889A
:101CC900D2A8229001E9E0FF24FF928AD2AA22AF8A
:101CD90082BF02005028BF00028005BF01088004AE
:101CE900C2A88002C2AAEF75F002A424FBFE740206
:0F1CF90035F0FF8E828F837499F0741CA3F02254
:101D090020F71430F6148883A88220F507E6A88303
:0C1D190075830022E280F7E49322E022B0
:101D25009002FFE0FF7E008F828E83A37517108ED1
:101D350018121E66AE82900300E0FFEEB507012281
:101D45009002FFE024EAF582E43401F583E599F099
:101D55009002FFEEF022300340900301E0FF900374
:101D650002E0FEEFB50605A203C20322900302E0DE
:101D750024FAF582E43401F583E0F599900302E055
:101D8500FF7E008F828E83A37517108E18121E6634
:0A1D9500AE82AF83900302EEF0224D
:101D9F00900303E0FF7E008F828E83A37517108E52
:101DAF0018121E66AE82900304E0FFEEB507012203
:101DBF00900303E0240AF582E43402F583E5C1F0D1
:101DCF00900303EEF022300440900305E0FF9003F0
:101DDF0006E0FEEFB50605A204C20422900306E05A
:101DEF00241AF582E43402F583E0F5C1900306E08E
:101DFF00FF7E008F828E83A37517108E18121E66BA
:0A1E0F00AE82AF83900306EEF022CE
:101E1900E517451860467A01E51725E0F517E51835
:101E2900334012F518E5829517E583951840030AA2
:101E390080E6C3E51813F518E51713F517C3E5820E
:101E49009517F5F0E58395184005F58385F082C36C
:101E5900E51813F518E51713F517DAE122C2D5E5E8
:101E69008330E70DD2D5E4C39582F582E49583F5F5
:101E790083E51830E70BE4C39517F517E49518F5D2
:101E890018121E1930D50BE4C39582F582E49583A7
:031E9900F58322AC
:101E9C0061626E646972416461416D62696E6F204A
:101EAC0045444745312E302E34414552316541620F
:081EBC006E0A004164610A0096
:101EC400000000000000000000000000000000010D
:101ED40000000000000000000000000000000304F7
:101EE40000000200000000000101010101010101E4
:101EF40000000202020202020202000003030303C2
:101F040003030303000004040404040404040000A1
:101F1400010204081020408000000102040810207F
:101F240040800000010204081020408000000102EB
:101F34000408102040800000FFFFFFFFFFFFFFFFA9
:101F4400FFFFFF00FFFF0102FFFFFFFFFFFFFFFF97
:101F5400FFFFFFFFFFFFFFFF03FFFFFFFFFFFFFF89
:101F640000E1000000000800000000001201100160
:101F7400EF020108091250C5010101020301120018
:101F840009024B000201008064080B0002020201F6
:101F940004090400000102020104052400100105E3
:101FA400240100000424020205240600010705811F
:101FB4000308004009040100020A000004070502A6
:101FC40002400000070582024000004B00040309A0
:101FD400040400180341006D00620069006E006F84
:101FE4000020004500440047004500180016034344
:101FF4000044004300200053006500720069006142
:10200400006C0016000E0341006D00620069006E52
:05201400006F000E004A
:102019000C03300031003200330034003500360043
:0A2029003700380039004100420082
:022033000000AB
:04203500991C991C3D
:0420390000000000A3
:04203D00000000009F
:00000001FF
