:0600000002006B02145027
:03000B00021A30A6
:030013000214A331
:01001B0032B2
:030023000213B80D
:03002B00021CB6FE
:01003300329A
:03003B000214F6B6
:030043000213792C
:01004B003282
:0300530002140490
:01005B003272
:03006300021C4636
:0300660002154A36
:02006900E4733E
:0D006B00758163121555E582600302006681
:1000780079DDE94400601B7A019020A5782A75A0F3
:1000880002E493F2A308B8000205A0D9F4DAF275E5
:02009800A0FFC7
:06009A00E478FFF6D8FD3A
:1000A0007800E84400600A799475A000E4F309D868
:1000B000FC7896E84401600C7902900094E4F0A387
:0400C000D8FCD9FA95
:1000C40075224A752315752400752500752601755A
:0E00D4002894752900E4F53DF53EF53FF54012
:0900E20075141A7515007516005D
:0E00EB007808E4F608F608F608F6780C7600B9
:0200F900C20340
:0200FB00C2043D
:0300FD0002006698
:100101009001AD7401F075820E1215599001AE7413
:1001110001F075820E1216709001AD7401F07582B6
:100121000F1215599001AE7401F075820F121670FD
:10013100900BB8E4F5F0121AED9001AEE4F075827F
:100141000E1216709001AEE4F075820F12167090C7
:1001510001F4E4F5F0121AED9001AD7401F075822D
:10016100111215599001ADE4F075822412155990C0
:1001710001ADE4F0758225121559758224121620FD
:10018100758225121620E5826005752600800375AB
:100191002601E4B526030203617401B5260280013C
:1001A1002212089B9001AE7401F075821112167033
:1001B1009001AD7401F07582101215597F00BF5581
:1001C10000504F8F17751800900003C007121C29AB
:1001D100AD82AE83ED2494FDEE3400FE8D828E83DC
:1001E100E4F08D828E83A37464F08D828E83A3A349
:1001F100E4F07D947E007B007CFF8D828E838CF009
:10020100EB121DA0900005E4F5F0121AEDD0070FD6
:1002110080AC7F00BF5500504E8F177518009000BD
:1002210003C007121C29AD82AE83ED2494FDEE3488
:1002310000FE8D828E837464F08D828E83A3E4F040
:100241008D828E83A3A3F07D947E007B007CFF8D45
:10025100828E838CF0EB121DA0900005E4F5F01264
:100261001AEDD0070F80AD7F00BF5500504E8F179C
:10027100751800900003C007121C29AD82AE83EDF2
:100281002494FDEE3400FE8D828E83E4F08D828E07
:1002910083A3F08D828E83A3A37464F07D947E008A
:1002A1007B007CFF8D828E838CF0EB121DA0900071
:1002B10005E4F5F0121AEDD0070F80AD7F00BF55B0
:1002C10000504C8F17751800900003C007121C29AD
:1002D100AD82AE83ED2494FDEE3400FE8D828E83DB
:1002E100E4F08D828E83A3F08D828E83A3A3F07DB3
:1002F100947E007B007CFF8D828E838CF0EB121D3F
:10030100A0900005E4F5F0121AEDD0070F80AF12AE
:100311001AB0AC82AD83AEF0FF8C398D3A8E3B8F33
:100321003C8C358D368E378F389001B374FBF07469
:100331001FA3F07480A3F09009A912174312098A30
:10034100900064E4F5F0121AED9001B37400F074BA
:1003510020A3F07480A3F09009A912174302098A1F
:100361007F00BF5500504F8F17751800900003C0D4
:1003710007121C29AD82AE83ED2494FDEE3400FEFC
:100381008D828E83E4F08D828E83A37464F08D82DE
:100391008E83A3A3E4F07D947E007B007CFF8D829D
:1003A1008E838CF0EB121DA0900005E4F5F0121A7B
:1003B100EDD0070F80AC9001ADE4F07582101215FD
:1003C1005953C67F9001AD7401F0758225121559FC
:1003D1009001AEE4F07582251216709001AEE4F042
:1003E1007582111216709001AE7401F075820F12B0
:1003F10016709001AEE4F075820E021670E4B52617
:1004010002804E7401B52655121AB085823185835A
:100411003285F033F534120AF0E5826031120AF7C1
:10042100858230AC31AD32AE33AF348C398D3A8EFA
:100431003B8F3C8C358D368E378F38E4B524028066
:10044100077401B52417800302045F0206CE020778
:10045100579001AE7401F075820F0216702274FD7F
:10046100254150030205A6E541901FDD93B5300BF0
:100471007402B54103752500054122E541901FE352
:1004810093B5300B7402B54103752501054122E591
:1004910041901FE093FFB5300280030205A2740270
:1004A100B54102800302059F75820F1209A9758269
:1004B1000C1209A975825D1209A97582061209A992
:1004C100903FFCE493F5821209A9903FFDE493F576
:1004D100821209A9903FFEE493F5821209A9903F87
:1004E100FFE493F5821209A9903FFAE493F5821291
:1004F10009A9903FFBE493F5821209A975820B12B9
:1005010009A97E007F00C3EE940BEF6480948050B4
:1005110020EE24E6F582EF341FF583E493F582C0E3
:1005210007C0061209A9D006D0070EBE00D80F8059
:10053100D57582051209A97E007F00C3EE9405EFEF
:10054100648094805020EE24F1F582EF341FF5830E
:10055100E493F582C007C0061209A9D006D0070EA0
:10056100BE00D80F80D57582051209A97E007F00D3
:10057100C3EE9405EF648094805020EE24F6F5825A
:10058100EF341FF583E493F582C007C0061209A971
:10059100D006D0070EBE00D80F80D57541000541A9
:1005A1002275410022E54124F7500122E541240B47
:1005B10083F582E541240D83F583E473CDCDCDCF61
:1005C100D5DBE1E7EA0606060505050505058530E3
:1005D10042054122853043054122853044054122AF
:1005E100853045054122054122E4B5250280087484
:1005F10001B52502806D22E54365426455B5445F2E
:100601009001AE7401F075820E121670AC427D003D
:100611007E008E078D068C057C00A843E4F9FAFB69
:10062100E82CF517E93DF518EA3EF519EB3FF51A07
:10063100900003E4F5F0121C4885822C85832D85FA
:10064100F02EF52FE4F52AF52BF5177518FFF5199E
:1006510090009475F000121A1185452775240175D3
:10066100410022E54365426455FFB5445C9001AE0B
:100671007401F075820E121670AC427D007E008E00
:10068100078D068C057C00A843E4F9FAFBE82CF5FC
:1006910017E93DF518EA3EF519EB3FF51A9000030D
:1006A100E4F5F0121C4885822C85832D85F02EF50A
:1006B1002FE4F52AF52BF5177518FFF5199000941D
:1006C10075F000121A1175240175410022AE2AAF8E
:1006D1002BC3EE9402EF94015017E52A2528F582E9
:1006E100E52B3529F583E530F0052AE4B52A020525
:1006F1002B152C74FFB52C0C152DB52D07152EB50A
:100701002E02152FE52C452D452E452F7047F5243A
:10071100B527347E947F00AC2AAD2B0CBC00010DB3
:100721007D008D028C037C007D008E008F01E4FE34
:10073100FFE84204E94205EE4203EF42028C828D5A
:10074100838BF0EA121DA09001AEE4F075820E12C7
:10075100167002098A22E531C39539FCE532953AD2
:10076100FDE533953BFEE534953CFFC3EC94E8EDA4
:100771009403EE9400EF9400500122E4B525028029
:10078100077401B5255A802D12098AE53F4540704D
:1007910013753F01F5409001AE7401F075820E12A0
:1007A1001670803CE4F53FF5409001AEF075820E85
:1007B100121670802B12098AE53F45407013753F70
:1007C10001F5409001AE7401F075820E1216708031
:1007D1000FE4F53FF5409001AEF075820E121670F0
:1007E10085313985323A85333B85343CE53D453E9B
:1007F100700122E531C39535FCE5329536FDE533CF
:100801009537FEE5349538FF853D17853E187519F6
:1008110000751A009003E8E4F5F0C007C006C005B2
:10082100C004121C48A882A983AAF0FBD004D005F9
:10083100D006D007C3EC98ED99EE9AEF9B40597F13
:1008410000BF550050318F17751800900003C00785
:10085100121C29AD82AE83D007ED2494FDEE340045
:10086100FE8D828E83E4F08D828E83A3F08D828E45
:1008710083A3A3F00F80CA7E947F007C007DFF8E4E
:10088100828F838DF0EC121DA07524008531358592
:09089100323685333785343822F4
:10089B0012132612135012133F75DD0075D300751A
:1008AB00D50022900231E4F0900233F0227F00C396
:1008BB00E5DB9407920040067D077E008004ADDBEC
:1008CB007E008F037C00C3EB9DEC64808EF063F0A5
:1008DB008095F05017EF242AFDE43402FE8F8275C9
:1008EB008300E0FC8D828E83F00F80C3227F008F0C
:1008FB00057E00C3ED9407EE940050188F057E0023
:10090B00EF242AF582E43402F583E0FC8D828E839A
:10091B00F00F80DB90000722900002E0FF90023482
:10092B00F0E020E04990022AE0FCA3E0FDA3E0FE0A
:10093B00A3E0FFBCB038BD0435BE0032BF002F753D
:10094B00E200C2AF75890075100075113890C35065
:10095B00121B9E90C350121B9EAE10AF11C007C04E
:10096B00068E828F83120069D006D00780FE227517
:10097B001700900234E060037517018517822290EF
:10098B000233E07018900235E0FFE060108FD55312
:10099B00D4FC9002337401F0900235E4F022AF8264
:1009AB00900234E060617D007E00900233E06024B1
:1009BB000DBD00010E900005C007C006C005121B3F
:1009CB009ED005D006D007C3ED9450EE94C340DA09
:1009DB0075820022900235E0FEBE400050207D0063
:1009EB0074402EFEE43DFDEE2414F582ED3400F54B
:1009FB0083EFF0900235E02401F075820122C007ED
:100A0B0012098AD007809F75820022AFF0AE83E572
:100A1B0082900195F0EEA3F0EFA3F0900234E0701A
:100A2B0003020AEC900193E0FEA3E0FFC3E49E7483
:100A3B00808FF063F08095F04003020AEC7E007F1C
:100A4B0000900233E060200EBE00010F900005C045
:100A5B0007C006121B9ED006D007C3EE9450EF942E
:100A6B00C340DE75820022900195E0FDA3E0FEA35A
:100A7B00E0FF900193E0FBA3E0FCC3E49B74808C4C
:100A8B00F063F08095F0509C900235E0FABA40008C
:100A9B0050498A017A00744029F9E43AFAE924149E
:100AAB00F9EA3400FA8D828E838FF0121E4AF8A376
:100ABB00AD82AE83900195EDF0EEA3F0EFA3F0893C
:100ACB00828A83E8F0900235E02401F01BBBFF0122
:100ADB001C900193EBF0ECA3F0809F12098A020AA1
:100AEB002F75820022900231E0F58222900231E0D4
:100AFB007003F58222900232E02414F582E4340074
:100B0B00F583E0FF900232E004F0900231E014F044
:100B1B00E0700353D4F38F822275D50074FC55D447
:100B2B004402F5D4900233E4F02230DE1990023106
:100B3B00E5DBF0900232E4F0900231E0600874F3F0
:070B4B0055D44408F5D42243
:100B5300AFDBBF08028003021175900007E0FE7F40
:100B630000900006E0FD7C00900198ED4FF0EC4E04
:100B7300A3F07F00900001E0FE90019AF08F1690A1
:100B83000000E05460604D900000E0FD5305607C80
:100B930000BD2005BC0002800BBD4033BC00307F8C
:100BA300FF021177BE2003021177BE21028005BE2A
:100BB3002218800C1208F8AC82AD838C07021177DF
:100BC300C007120923D0070211777FFF0211777F35
:100BD300FF021177EEFD24F45003021171ED240A94
:100BE30083F582ED241083F583E4734B7A713971B5
:100BF3003E06714D6E7777110F1110110F0C110F07
:100C03000F1111900003E0FEBE0102800DBE02022F
:100C1300801BBE03028029020EB1751236751302C2
:100C2300900248E0FDA3E0FE8D07020EB375124A61
:100C3300751302900295E0FDA3E0FE8D07020EB34B
:100C4300900002E0701375129775130290029BE0F7
:100C5300FDA3E0FE8D07020EB3900002E0FEBE018D
:100C6300137512CF7513029002DDE0FDA3E0FE8D34
:100C730007020EB3900002E0FEBE021375129D75CB
:100C830013029002B5E0FDA3E0FE8D07020EB390C0
:100C93000002E0FEBE03028003020E8D90019C74ED
:100CA30030F090019D04F090019E04F090019F04A8
:100CB300F09001A004F09001A104F09001A204F0CF
:100CC3009001A304F09001A404F09001A504F09016
:100CD30001A67441F09001A704F09001A804F090DC
:100CE30001A904F09001AA04F09001AB04F0900173
:100CF300ACE4F09002DF741AF09002E07403F09019
:100D03003FFCE493C4540FFE53060F7D00EE249C76
:100D1300F582ED3401F583E09002E1F09002E2E424
:100D2300F0903FFC93FE53060F7D00EE249CF5826A
:100D3300ED3401F583E09002E3F09002E4E4F090F7
:100D43003FFD93C4540FFE53060F7D00EE249CF524
:100D530082ED3401F583E09002E5F09002E6E4F0E1
:100D6300903FFD93FE53060F7D00EE249CF582ED2C
:100D73003401F583E09002E7F09002E8E4F0903F5D
:100D8300FE93C4540FFE53060F7D00EE249CF582A0
:100D9300ED3401F583E09002E9F09002EAE4F0908B
:100DA3003FFE93FE53060F7D00EE249CF582ED3447
:100DB30001F583E09002EBF09002ECE4F0903FFF4A
:100DC30093C4540FFE53060F7D00EE249CF582ED71
:100DD3003401F583E09002EDF09002EEE4F0903FF1
:100DE300FF93FE53060F7D00EE249CF582ED340144
:100DF300F583E09002EFF09002F0E4F0903FFA9375
:100E0300C4540FFE53060F7D00EE249CF582ED348F
:100E130001F583E09002F1F09002F2E4F0903FFAE2
:100E230093FE53060F7D00EE249CF582ED3401F50D
:100E330083E09002F3F09002F4E4F0903FFB93C45C
:100E4300540FFE53060F7D00EE249CF582ED340112
:100E5300F583E09002F5F09002F6E4F0903FFB9307
:100E6300FE53060F7D00EE249CF582ED3401F583DD
:100E7300E0FE9002F7F09002F8E4F075141AF5150D
:100E83007512DF7513027F1A8026900002E0FEBE02
:100E930004127512B77513029002CDE0FDA3E0FEB4
:100EA3008D07800C7512DF751302AF1480027FFF6C
:100EB300BFFF03021177900198E0FDA3E0FE8F03CB
:100EC3007C00C3EB9DEC9E5008900198EBF0ECA3E3
:100ED300F0900198E0FDA3E0FE8D038E04C3EB9434
:100EE30008EC9400920140067B087C0080048D038B
:100EF3008E048B077E00C3EE9F50188E047D00EE98
:100F03002512F582E43513F583E0FB8C828D83F0A3
:100F13000E80E38F057E00900198E0FBA3E0FCEBDD
:100F2300C39DFBEC9EFC900198EBF0ECA3F0EF2546
:100F330012F512E43513F513021177900002E0FE67
:100F4300900198F0E4A3F002117790019BE09000E8
:100F530000F0900198E0FDA3E0FEC3ED9401EE9450
:100F63000050030211777F01021177900002E0FE27
:100F730090019BF0021177900000E0541F702E90B7
:100F83000003E0FD7E00900002E0FC7B004206EBE4
:100F93004205BE0113BD0010900251E0FE30E5038F
:100FA3000211777FFF0211777FFF02117790000014
:100FB300E0FE53061F7D00BE0277BD00749000045F
:100FC300E0FEBE0102805FBE02028049BE030280D2
:100FD30033BE0402801DBE81028040BE8202802A8D
:100FE300BE83028014BE844474BC55DE4402F5DE25
:100FF30002117753DE7302117774BC55D64402F5A0
:10100300D602117753D67302117774BC55D44402B8
:10101300F5D402117753D47302117774BC55D244BB
:1010230002F5D202117753D2730211777FFF0211B7
:10103300777FFF021177900000E0541F702E90001D
:1010430003E0FD7E00900002E0FC7B004206EB42E1
:1010530005BE0113BD0010900251E0FE30E503020E
:1010630011777FFF0211777FFF021177900000E075
:10107300FE53061F7D00BE0205BD00028003021160
:1010830047900003E0FD7E00900002E0FC7B0042FD
:1010930006EB4205EE4D6003021143900005E0FDAF
:1010A3007E00900004E0FC7B004206EB4205BE019B
:1010B30006BD0003021137BE0205BD00028061BEFA
:1010C3000305BD00028045BE0405BD00028029BEA4
:1010D3008105BD00028053BE8205BD00028037BE7C
:1010E3008305BD0002801BBE8452BD004F74BF55F3
:1010F300DE4403F5DE021177747F55DE440CF5DE22
:10110300807274BF55D64403F5D68068747F55D674
:10111300440CF5D6805E74BF55D44403F5D4805493
:10112300747F55D4440CF5D4804A74BF55D244031C
:10113300F5D28040747F55D2440CF5D27FFF8034C2
:101143007FFF80307FFF802C900000E4F09000014F
:10115300F0900198E0FDA3E0FE8D038E04C3EB94B1
:1011630002EC940040047F02800A8D0780067FFF13
:1011730080027FFFBFFF0A90019A74FFF075DCCFF6
:1011830022EF24F740068FDD75DCC02275DD007584
:10119300DCC02290019AE0FFBF05028073BF060204
:1011A3008003021227900198E0FEA3E0FF8E048FD4
:1011B30005C3EC9408ED9400920240067C087D0080
:1011C30080048E048F057F00C3EF9C50188F057E2B
:1011D30000EF2512F582E43513F583E0FB8D828E53
:1011E30083F00F80E38C067F00900198E0FBA3E07F
:1011F300FDEBC39EFBED9FFD900198EBF0EDA3F09B
:10120300EC2512F512E43513F5138CDD63DC402273
:10121300E5E35480FF900198E0FDA3E0ED4FF5E393
:1012230075DC022275DD0075DC022290019AE0FF75
:10123300BF200D30DE101208B875DD0085DCDC221E
:1012430075DD0043DC022275D30074FC55D24402E1
:10125300F5D22220D903021301E5D9540FFFADD9EA
:101263005305307E00BD0005BE0002801CBD100585
:10127300BE00028036BD2005BE00028043BD30069D
:10128300BE00030212E70212FFEF24FB5003021217
:10129300FFEF2F90129A73800880618009805D8030
:1012A3005B12122E8056120B358051EF24FB404CFB
:1012B300EF2F9012B973804480428040803E803C7F
:1012C300EF24FB4037EF2F9012CE738008800B8002
:1012D3000E80298027121196802212124A801D1235
:1012E3000B248018EF24FB4013EF2F9012F273802E
:1012F300088009800780058003120B53C2D930D8B8
:101303001575DC0275D21275D41275E300C2DAC208
:10131300D9C2D81208AE10DA0122E5DA20E2037549
:10132300D8FF2275E20053E27F43E22975E30053BD
:10133300E2BF53D1FB75D18043D1012243E1044382
:10134300E10243E10143D81FD2EAD2AF227E0A7FF2
:10135300008EEE8FEF7E147F008EE48FE575EB0C2D
:1013630075D21275D4127E007F008EEC8FED75EA74
:051373004075DC0222C0
:10137900C021C0E0C0F0C082C083C007C006C0055C
:10138900C004C003C002C001C000C0D075D00012A3
:101399001256D0D0D000D001D002D003D004D0054D
:1013A900D006D007D083D082D0F0D0E0D02132C08F
:1013B90021C0E0C0F0C082C083C007C006C005C01C
:1013C90004C003C002C001C000C0D075D00030986D
:1013D90005121E66C298309905121E9CC299D0D07A
:1013E900D000D001D002D003D004D005D006D00758
:1013F900D083D082D0F0D0E0D02132C021C0E0C06B
:10140900F0C082C083C007C006C005C004C003C0C5
:1014190002C001C000C0D075D00030C005121EE066
:10142900C2C030C105121F16C2C1D0D0D000D00130
:10143900D002D003D004D005D006D007D083D08203
:10144900D0F0D0E0D02132C021C0E0C0F0C082C0CD
:1014590083C007C006C005C004C003C002C001C0E4
:1014690000C0D075D0009002FBE0FEA3E0FFC007EA
:10147900C0068E828F83120069D006D007D0D0D0E3
:1014890000D001D002D003D004D005D006D007D0B7
:1014990083D082D0F0D0E0D02132C021C0E0C0F0AA
:1014A900C082C083C007C006C005C004C003C00213
:1014B900C001C000C0D075D0009002FDE0FEA3E0DD
:1014C900FFC007C0068E828F83120069D006D0073D
:1014D900D0D0D000D001D002D003D004D005D0069E
:1014E900D007D083D082D0F0D0E0D02132C021C043
:1014F900E0C0F0C082C083C007C006C005C004C0F8
:1015090003C002C001C000C0D075D0009002F9E04C
:10151900FEA3E04E600E9002F9E0F8A3E0F583889F
:1015290082120069D0D0D000D001D002D003D004FB
:10153900D005D006D007D083D082D0F0D0E0D0211A
:1015490032121BD91201011203FE80FB758200229F
:10155900E582FF90205593FEEF90202D93FF7001B7
:10156900229001ADE0FD701BBF0209EEF4FC52921E
:10157900EC529322BF0402800122EEF4FC5296EC55
:10158900529722BD0214BF0207EE4292EE42932205
:10159900BF0439EE4296EE429722BD0116BF0208FA
:1015A900EEF45292EE429322BF0421EEF45296EEEB
:1015B900429722BD0316BF0208EE4292EEF45293FF
:1015C90022BF0408EE4296EEF4FE529722AF82BF84
:1015D9000102800FBF02028013BF03028017BF04FC
:1015E900358023E5C620E22E539DFB22E5C620E384
:1015F90025539DF722AEC65306047F00BE0117BFCF
:101609000014539DFB22AEC65306087F00BE010697
:10161900BF0003539DF722E582FF90200593FEEF5B
:1016290090205593FDEF90202D93FF7003F58222B2
:10163900EE600D8E82C007C0051215D6D005D00701
:101649007E00BF0202800ABF03028009BF040C802A
:1016590008AE908006AEA08002AEB0ED5E60047563
:1016690082012275820022E582FF90200593FEEF18
:1016790090205593FDEF90202D93FFEE600D8E8203
:10168900C007C0051215D6D005D007A2AFE433FEB6
:10169900C2AFBF0202800ABF03028017BF043680AF
:1016A900249001AEE07007EDF4FF52908027ED42DF
:1016B9009080229001AEE07007EDF4FF52A08015F2
:1016C900ED42A080109001AEE07007EDF4FF52B03A
:0B16D9008003ED42B0EE6002D2AF22B1
:1016E500AE82AF839001AFE0FBA3E0FCA3E0FD7AFF
:1016F500009001B2E0F9890019E8603F8B828C8384
:101705008DF0121E4AF8A3AB82AC83C007C006C099
:1017150005C004C003C002C0011217238007C0061C
:10172500C007888222A882D001D002D003D004D07D
:1017350005D006D007E860030A80BB8A8222AE8204
:10174500AF839001B3E0FBA3E0FCA3E0FD9001B300
:10175500E0F5F0A3E045F07003F582227A008B8274
:101765008C838DF0121E4AF9A3AB82AC83E9F86035
:101775002CC007C006C005C004C003C002121787ED
:101785008007C006C007888222A982D002D003D074
:1017950004D005D006D007E960030A80C18A8222F9
:1017A500AE82AF839001B6E0FAA3E0FBA3E0FCA311
:1017B500E0FD9001BEEAF0EBA3F0ECA3F0EDA3F0A1
:1017C5009001C2740AF08E828F83021836AE82AF02
:1017D500839001BAE0FAA3E0FBA3E0FCA3E0FD904F
:1017E50001E4EAF0EBA3F0ECA3F0EDA3F09001E83F
:1017F500740AF08E828F8302191BAE82AF83C007F5
:10180500C00612180C8008C006C00775820D22ADEF
:1018150082D006D007C007C0051218238008C0066D
:10182500C00775820A22AE82D005D007EE2DF5825B
:10183500228582468583479001E3E4F09001C2E06A
:10184500FDBD020050069001C2740AF09001C2E08D
:10185500F5487BE37C019001BEE0F549A3E0F54A3C
:10186500A3E0F54BA3E0F54C85484D754E00754F4B
:1018750000755000854D17854E18854F1985501AEE
:10188500854982854A83854BF0E54CC004C0031227
:101895001CB8A882854D17854E18854F1985501A95
:1018A500854982854A83854BF0E54CC000121D3B76
:1018B500AA82AD83AEF0FFD000D003D0049001BE64
:1018C500EAF0EDA3F0EEA3F0EFA3F01BBBFF011CC4
:1018D5008B068C07B80A005008880574302DFD80EA
:1018E50004743728FD8E828F83EDF09001BEE0F5FC
:1018F500F0A3E042F0A3E042F0A3E045F06003026C
:10190500185B9001B3EBF0ECA3F0E4A3F0854682FD
:101915008547830217438582518583529001E8E00C
:10192500FD70199001E4E0F9A3E0FAA3E0FBA3E060
:10193500FC021939C051C05289822222BD0A028097
:10194500030219E69001E4E0F9A3E0FAA3E0FBA3A2
:10195500E0FC30E76FC004C003C002C00112196784
:101965008008C051C05275822D22A882D001D002B4
:10197500D003D00488539001E4C3E499F0E49AA31A
:10198500F0E49BA3F0E49CA3F09001E4E0F554A3FC
:10199500E0F555A3E0F556A3E0F5579001BEE554F3
:1019A500F0E555A3F0E556A3F0E557A3F09001C285
:1019B500740AF0855182855283121836AF82E55339
:1019C5002FF582229001BEE9F0EAA3F0EBA3F0EC3B
:1019D500A3F09001C2740AF08551828552830218E2
:1019E500369001E4E0FBA3E0FCA3E0FEA3E0FF905A
:1019F50001BEEBF0ECA3F0EEA3F0EFA3F09001C273
:0B1A0500EDF0855182855283021836F7
:101A1100AC82AD83AE18AF19BE0004EF600C1F0F8E
:0F1A2100E517121C0EA3DEFADFF88C828D8322EC
:101A3000C0D075D00808B8000D09B900090ABA006D
:101A4000050BBB00010CD0D032A2AFC2AFA808A9D1
:101A500009AA0AAB0BAC8A8588F092AF30F51274F4
:101A6000012C600D08B8000909B900050ABA000187
:101A70000BC3EC9406FCECC313FC75F07DE8A4F8F2
:101A8000ADF075F07DE9A42DF9E435F0FD75F07D3C
:101A9000EAA42DFAE435F0FD75F07DEBA42DFB7D75
:101AA00000EC28F582E93DF583EA3DF5F0EB3D22B7
:101AB000A2AFC2AFA808A909AA0AAB0BAC0C92AF9F
:101AC00075F020E8A4A8F075F020E9A428F582A814
:101AD000F075F020EAA428F583A8F075F020EBA4B7
:101AE00028F9A8F075F020ECA42889F02285825806
:101AF00085835985F05AF55B121A4985825C858386
:101B00005D85F05EF55FE5584559455A455B7001C6
:101B100022A858A959AA5AAB5B855C60855D61858E
:101B20005E62855F63E8494A4B60DBC003C002C068
:101B300001C000121A49AC82AD83AEF0FFD000D0D4
:101B400001D002D003ECC39560FCED9561FDEE95EC
:101B500062FEEF9563FFC3EC94E8ED9403EE94000E
:101B6000EF940040A118B8FF0919B9FF051ABAFF90
:101B7000011B885889598A5A8B5B74E82560F56087
:101B800074033561F561E43562F562E43563F5634C
:101B900085605C85615D85625E85635F8087AE82FE
:101BA000AF83C374019EE49F40022200C374029E6F
:101BB000FE74009FFF00BE0005BF0002002200006F
:101BC0000000000000000000000000000000000E07
:101BD000BE00EB0FBF00ED002275A15575A1AA74E0
:101BE000F855B94406F5B975A100901388121B9EEB
:101BF000759E04759D0074F055894402F58953C99A
:0D1C0000EF758C06C28DD2A9D28CD2AF2216
:101C0E0020F71130F6138883A88220F509F6A883F1
:101C1E007583002280FEF280F5F022E5828517F0B2
:101C2E00A4C582C0F08518F0A4D0F025F0C5838538
:091C3E0017F0A42583F58322327E
:101C4800AAF0FBE5828517F0A4FCADF0E5838517C3
:101C5800F0A42DFDE435F0FEE5828518F0A42DFDF5
:101C6800E5F03EFEE433FFEA8517F0A42EFEE5F02A
:101C78003FFFE5838518F0A42EFEE5F03FFFE582DF
:101C88008519F0A42EFEE5F03FFFEB8517F0A42F91
:101C9800FFEA8518F0A42FFFE5838519F0A42FFF2C
:0F1CA800E582851AF0A42F8EF08D838C82223274
:101CB800F9E51745184519451A60777800C308E50E
:101CC8001A20E73BE51725E0F517E51833F518E581
:101CD8001933F519E51A33F51AE5829517E5839551
:101CE80018E5F09519E9951A50D4C3E51A13F51AB1
:101CF800E51913F519E51813F518E51713F517E5A0
:101D0800829517FCE5839518FDE5F09519FEE99590
:101D18001A4007F98EF08D838C82C3E51A13F51AE1
:101D2800E51913F519E51813F518E51713F517D87C
:101D3800CEE922FB7A20E4FCFDFEFFE5822582F550
:101D480082E58333F583E5F033F5F0EB33FB401799
:101D5800DAE98042E5822582F582E58333F583E579
:101D6800F033F5F0EB33FBEC33FCED33FDEE33FEF3
:101D7800EF33FFEC9517ED9518EE9519EF951A408E
:101D880013EC9517FCED9518FDEE9519FEEF951AD5
:101D9800FF438201DABEEB22ABF0A2AFE433FEC20E
:011DA800AF8B
:101DAA00E0A3D2963300500A0000000000000000B1
:101DBA000000C296400A0000000000000000000077
:101DCA00530207DADDDBD900C296EE6002D2AF22F7
:101DDA0022AF82BF02005036EF75F002A424FBF551
:101DEA0082740235F0F583E517F0E518A3F0BF0019
:101DFA00028005BF0118800B9001E9E024FF928858
:101E0A00D2A8229001E9E0FF24FF928AD2AA22AF47
:101E1A0082BF02005028BF00028005BF010880046B
:101E2A00C2A88002C2AAEF75F002A424FBFE7402C3
:0F1E3A0035F0FF8E828F8374DAF0741DA3F022CF
:101E4A0020F71430F6148883A88220F507E6A883C1
:0C1E5A0075830022E280F7E49322E0226E
:101E66009002FFE0FF7E008F828E83A37517108E8F
:101E760018121FA7AE82900300E0FFEEB5070122FD
:101E86009002FFE024EAF582E43401F583E599F057
:101E96009002FFEEF022300340900301E0FF900332
:101EA60002E0FEEFB50605A203C20322900302E09C
:101EB60024FAF582E43401F583E0F599900302E013
:101EC600FF7E008F828E83A37517108E18121FA7B0
:0A1ED600AE82AF83900302EEF0220B
:101EE000900303E0FF7E008F828E83A37517108E10
:101EF00018121FA7AE82900304E0FFEEB50701227F
:101F0000900303E0240AF582E43402F583E5C1F08E
:101F1000900303EEF022300440900305E0FF9003AD
:101F200006E0FEEFB50605A204C20422900306E017
:101F3000241AF582E43402F583E0F5C1900306E04B
:101F4000FF7E008F828E83A37517108E18121FA735
:0A1F5000AE82AF83900306EEF0228C
:101F5A00E517451860467A01E51725E0F517E518F3
:101F6A00334012F518E5829517E583951840030A60
:101F7A0080E6C3E51813F518E51713F517C3E582CC
:101F8A009517F5F0E58395184005F58385F082C32A
:101F9A00E51813F518E51713F517DAE122C2D5E5A6
:101FAA008330E70DD2D5E4C39582F582E49583F5B3
:101FBA0083E51830E70BE4C39517F517E49518F590
:101FCA0018121F5A30D50BE4C39582F582E4958323
:031FDA00F583226A
:101FDD0061626E646972416461416D62696E6F2008
:101FED0045444745312E302E3441455232654162CC
:081FFD006E0A004164610A0054
:1020050000000000000000000000000000000001CA
:1020150000000000000000000000000000000304B4
:1020250000000200000000000101010101010101A1
:10203500000002020202020202020000030303037F
:10204500030303030000040404040404040400005F
:10205500010204081020408000000102040810203D
:1020650040800000010204081020408000000102A9
:102075000408102040800000FFFFFFFFFFFFFFFF67
:10208500FFFFFF00FFFF0102FFFFFFFFFFFFFFFF55
:10209500FFFFFFFFFFFFFFFF03FFFFFFFFFFFFFF47
:1020A50000E100000000080000000000120110011E
:1020B500EF020108091250C50101010203011200D6
:1020C50009024B000201008064080B0002020201B4
:1020D50004090400000102020104052400100105A1
:1020E50024010000042402020524060001070581DD
:1020F5000308004009040100020A00000407050264
:1021050002400000070582024000004B000403095D
:10211500040400180341006D00620069006E006F41
:102125000020004500440047004500180016034301
:1021350000440043002000530065007200690061FF
:10214500006C0016000E0341006D00620069006E10
:05215500006F000E0008
:10215A000C03300031003200330034003500360001
:0A216A003700380039004100420040
:02217400000069
:04217600DA1DDA1D77
:04217A000000000061
:04217E00000000005D
:00000001FF
