:0600000002006B0216185D
:03000B00021BF8DD
:0300130002166B67
:01001B0032B2
:0300230002158043
:03002B00021F1D94
:01003300329A
:03003B000216BEEC
:0300430002154162
:01004B003282
:030053000215CCC7
:01005B003272
:03006300021DF18A
:030066000217126C
:02006900E4733E
:0D006B0075817612171DE5826003020066A4
:1000780079E1E94400601B7A01902387782375A011
:1000880002E493F2A308B8000205A0D9F4DAF275E5
:02009800A0FFC7
:06009A00E478FFF6D8FD3A
:1000A0007800E84400600A799475A000E4F309D868
:1000B000FC788FE84401600C7902900094E4F0A38E
:0400C000D8FCD9FA95
:1000C4007522127523177524007525007526017590
:1000D4002894752900E4F53DF53E753F1EF54075FD
:1000E400411FF5427543C8754411F545754610F531
:1000F4004775480FF549F54AF54BF54CF54DF54E66
:02010400F54FB5
:0901060075191A751A00751B0029
:0E010F007808E4F608F608F608F6780C760094
:02011D00C2031B
:02011F00C20418
:0301210002006673
:10012500120A71759E049001A47401F075821F1264
:1001350017219001A47401F075821E1217219001F8
:10014500A47401F075820E1217219001A47401F0B8
:1001550075820F1217219001A47401F07582211286
:1001650017219001A47401F07582101217219001D6
:10017500A47401F075820B1217219001A47401F08B
:10018500758211121721121C78AC82AD83AEF0FF77
:100195008C398D3A8E3B8F3C8C358D368E378F382A
:1001A5009001AA74E2F07422A3F07480A3F0900B7E
:1001B5007F12190B120B60900064E4F5F0121CB568
:1001C500120B60AF3F9001E07480F0E4A3F08F82E2
:1001D500121E18AF419001E0E543F0E4A3F08F82D1
:1001E500021E18121C7885823185833285F033F51D
:1001F50034120CC6E5826031120CCD858230AC31EB
:10020500AD32AE33AF348C398D3A8E3B8F3C8C3565
:100215008D368E378F38E4B5240280077401B524F6
:100225000B80030203B402068202098022E582FFE5
:1002350024F8500122EF240A83F582EF240C83F57C
:1002450083E473587CA1C6EC11375D0202020202F9
:10025500030303AF449001A5E4F08F82121838AF71
:10026500469001A5E4F08F82121838AF489001A599
:10027500E4F08F82021838AF449001A57401F08F25
:1002850082121838AF469001A5E4F08F8212183813
:10029500AF489001A5E4F08F82021838AF44900171
:1002A500A5E4F08F82121838AF469001A57401F0CD
:1002B5008F82121838AF489001A5E4F08F8202189A
:1002C50038AF449001A57401F08F82121838AF46FB
:1002D5009001A57401F08F82121838AF489001A5DE
:1002E500E4F08F82021838AF449001A5E4F08F82C4
:1002F500121838AF469001A5E4F08F82121838AF76
:10030500489001A57401F08F82021838AF4490011E
:10031500A57401F08F82121838AF469001A5E4F05C
:100325008F82121838AF489001A57401F08F8202B0
:100335001838AF449001A5E4F08F82121838AF4603
:100345009001A57401F08F82121838AF489001A56D
:100355007401F08F82021838AF449001A57401F042
:100365008F82121838AF469001A57401F08F821262
:100375001838AF489001A57401F08F82021838AF84
:100385003F900184E0FE7D0074FFC39EFEE49DFD69
:100395009001E0EEF0EDA3F08F82121E18AF4190B0
:1003A5000184E09001E0F0E4A3F08F82021E18744E
:1003B500FD25505003020543E5509022B893B53012
:1003C5000B7402B55003752500055022E5509022A7
:1003D500C493B5300B7402B5500375250105502241
:1003E500E5509022BB93FFB5300280030204F774F9
:1003F50002B5500280030204F475820F120B7F755B
:10040500820C120B7F75825D120B7F758206120BB3
:100415007F903FFCE493F582120B7F903FFDE493C0
:10042500F582120B7F903FFEE493F582120B7F90CD
:100435003FFFE493F582120B7F903FFAE493F58238
:10044500120B7F903FFBE493F582120B7F75820DB3
:10045500120B7F7E007F00C3EE940DEF64809480C5
:100465005020EE24C7F582EF3422F583E493F5821C
:10047500C007C006120B7FD006D0070EBE00D80FEE
:1004850080D5758205120B7F7E007F00C3EE940533
:10049500EF648094805020EE24D4F582EF3422F569
:1004A50083E493F582C007C006120B7FD006D00700
:1004B5000EBE00D80F80D5758205120B7F7E007F9A
:1004C50000C3EE9405EF648094805020EE24D9F5A6
:1004D50082EF3422F583E493F582C007C006120B40
:1004E5007FD006D0070EBE00D80F80D57550000509
:1004F5005022E5509022C193FFB5303E7402B550AD
:100505003675820F120B7F75820C120B7F75825D1B
:10051500120B7F75820A120B7F7F00BF0A005017EE
:10052500EF2484F582E43401F583E0F582C00712F7
:100535000B7FD0070F80E405502275500022E5504F
:1005450024F7500122E550240B83F582E550240D54
:1005550083F583E4738181816C72787E84B60606A7
:1005650006050505050505853051055022853052DE
:100575000550228530530550228530540550227E82
:10058500007F00C3EE940AEF6480948050209001B0
:1005950084E0B530028010752601EE2484F582EFE3
:1005A5003401F583E530F00EBE00D80F80D5055037
:1005B50022E4B5250280087401B52502806122E593
:1005C5005265516455B55353AC517D007E008E077D
:1005D5008D068C057C00A852E4F9FAFBE82CF5732E
:1005E500E93DF574EA3EF575EB3FF576900003E4D9
:1005F500F5F0121EAF85822C85832D85F02EF52F03
:10060500E4F52AF52BF5737574F0F575900094757E
:10061500F000121BD985542775240175500022E579
:100625005265516455FFB55350AC517D007E008E27
:10063500078D068C057C00A852E4F9FAFBE82CF539
:1006450073E93DF574EA3EF575EB3FF576900003E9
:10065500E4F5F0121EAF85822C85832D85F02EF5ED
:100665002FE4F52AF52BF5737574F0F57590009464
:1006750075F000121BD975240175500022C3E52AB7
:1006850094F3E52B94005017E52A2528F582E52BF0
:100695003529F583E530F0052AE4B52A02052B1541
:1006A5002C74FFB52C0C152DB52D07152EB52E0266
:1006B500152FE52C452D452E452F6001227524006B
:1006C500E52724F65003020973E527240B83F582F9
:1006D500E527240E83F583E473F23578BBFE418468
:1006E500C7093F06070707070808080909758205AE
:1006F500120232900064121D667E947F00AC2AAD12
:100705002B0CBC00010D7D008D028C037C007D004F
:100715008E008F01E4FEFFE84204E94205EE420344
:10072500EF42028C828D838BF0EA121FDC02097383
:10073500758206120232900064121D667E947F0057
:10074500AC2AAD2B0CBC00010D7D008D028C037C09
:10075500007D008E008F01E4FEFFE84204E94205BA
:10076500EE4203EF42028C828D838BF0EA121FDC8E
:10077500020973758203120232900064121D667EAF
:10078500947F00AC2AAD2B0CBC00010D7D008D02C1
:100795008C037C007D008E008F01E4FEFFE842049F
:1007A500E94205EE4203EF42028C828D838BF0EA2B
:1007B500121FDC0209737582041202329000641262
:1007C5001D667E947F00AC2AAD2B0CBC00010D7D0F
:1007D500008D028C037C007D008E008F01E4FEFFFE
:1007E500E84204E94205EE4203EF42028C828D8322
:1007F5008BF0EA121FDC0209737582011202329036
:100805000064121D667E947F00AC2AAD2B0CBC00E3
:10081500010D7D008D028C037C007D008E008F0113
:10082500E4FEFFE84204E94205EE4203EF42028C92
:10083500828D838BF0EA121FDC0209737582021226
:100845000232900064121D667E947F00AC2AAD2BA7
:100855000CBC00010D7D008D028C037C007D008E9B
:10086500008F01E4FEFFE84204E94205EE4203EF92
:1008750042028C828D838BF0EA121FDC02097375AC
:100885008207120232900064121D667E947F00ACCE
:100895002AAD2B0CBC00010D7D008D028C037C0064
:1008A5007D008E008F01E4FEFFE84204E94205EE7B
:1008B5004203EF42028C828D838BF0EA121FDC0229
:1008C5000973758200120232900064121D667E94CF
:1008D5007F00AC2AAD2B0CBC00010D7D008D028C78
:1008E500037C007D008E008F01E4FEFFE84204E9F1
:1008F5004205EE4203EF42028C828D838BF0EA12B1
:100905001FDC806A7E947F00AC2AAD2B0CBC0001F5
:100915000D7D008D028C037C007D008E008F01E42F
:10092500FEFFE84204E94205EE4203EF42028C82F3
:100935008D838BF0EA12207B80347E947F00AC2A75
:10094500AD2B0CBC00010D7D008D028C037C007D60
:10095500008E008F01E4FEFFE84204E94205EE4205
:1009650003EF42028C828D838BF0EA121F1FE5266E
:100975006006120384752600020B60E531C39539C4
:10098500FCE532953AFDE533953BFEE534953CFFB4
:10099500C3EC94E8ED9403EE9400EF94005001222B
:1009A500E4B5250280077401B52552803B120B6022
:1009B500E54A454B702B754A01F54BFEFFC3EE9496
:1009C5000AEF648094805014EE2484F582EF34019C
:1009D500F58374C8F00EBE00E40F80E11203848035
:1009E5001CE4F54AF54B8015120B60E54A454B7042
:1009F50007754A01F54B8005E4F54AF54B85313914
:100A050085323A85333B85343CE53D453E605BE5C3
:100A150031C39535FCE5329536FDE5339537FEE571
:100A2500349538FF853D73853E7475750075760080
:100A35009003E8E4F5F0C007C006C005C004121E27
:100A4500AFA882A983AAF0FBD004D005D006D007B1
:100A5500C3EC98ED99EE9AEF9B400F752400853114
:0B0A6500358532368533378534382262
:100A71001214EF12151912150875DD0075D30075E2
:100A8100D5002290022AE4F090022CF0227F00C3CC
:100A9100E5DB9407920040067D077E008004ADDB14
:100AA1007E008F037C00C3EB9DEC64808EF063F0CD
:100AB1008095F05017EF2423FDE43402FE8F8275F8
:100AC1008300E0FC8D828E83F00F80C3227F008F34
:100AD100057E00C3ED9407EE940050188F057E004B
:100AE100EF2423F582E43402F583E0FC8D828E83CA
:100AF100F00F80DB90000722900002E0FF90022DB2
:100B0100F0E020E049900223E0FCA3E0FDA3E0FE39
:100B1100A3E0FFBCB038BD0435BE0032BF002F7565
:100B2100E200C2AF75890075100075113890C3508D
:100B3100121D6690C350121D66AE10AF11C007C0E2
:100B4100068E828F83120069D006D00780FE22753F
:100B5100730090022DE0600375730185738222900A
:100B6100022CE0701890022EE0FFE060108FD55348
:100B7100D4FC90022C7401F090022EE4F022AF829A
:100B810090022DE060617D007E0090022CE06024E7
:100B91000DBD00010E900005C007C006C005121D65
:100BA10066D005D006D007C3ED9450EE94C340DA69
:100BB1007582002290022EE0FEBE400050207D0092
:100BC10074402EFEE43DFDEE2414F582ED3400F573
:100BD10083EFF090022EE02401F075820122C0071C
:100BE100120B60D007809F75820022AFF0AE83E5C3
:100BF10082900190F0EEA3F0EFA3F090022DE0704F
:100C010003020CC290018EE0FEA3E0FFC3E49E74D8
:100C1100808FF063F08095F04003020CC27E007F6C
:100C21000090022CE060200EBE00010F900005C074
:100C310007C006121D66D006D007C3EE9450EF948C
:100C4100C340DE75820022900190E0FDA3E0FEA387
:100C5100E0FF90018EE0FBA3E0FCC3E49B74808C79
:100C6100F063F08095F0509C90022EE0FABA4000BB
:100C710050498A017A00744029F9E43AFAE92414C6
:100C8100F9EA3400FA8D828E838FF0122125F8A3C0
:100C9100AD82AE83900190EDF0EEA3F0EFA3F08969
:100CA100828A83E8F090022EE02401F01BBBFF0151
:100CB1001C90018EEBF0ECA3F0809F120B60020CF4
:100CC100057582002290022AE0F5822290022AE034
:100CD1007003F5822290022BE02414F582E43400A3
:100CE100F583E0FF90022BE004F090022AE014F07B
:100CF100E0700353D4F38F822275D50074FC55D470
:100D01004402F5D490022CE4F02230DE1990022A3C
:100D1100E5DBF090022BE4F090022AE0600874F326
:070D210055D44408F5D4226B
:100D2900AFDBBF0802800302134D900007E0FE7F8E
:100D390000900006E0FD7C004FF512EC4EF5138F94
:100D49001C900001E0F5148F1B900000E0FE546038
:100D59006052900000E0FE5306607D00BE2005BD94
:100D69000002800CBE4037BD0034751CFF021350D1
:100D79007420B514030213507421B514028007744A
:100D890022B51414800C120ACEAD82AE838D1C02DA
:100D99001350120AF9021350751CFF021350751CE7
:100DA900FF021350E51424F45003021348E51424F8
:100DB9000B83F582E514241083F583E473284F48E7
:100DC90012481DDE482A4650501311131213110DF3
:100DD9001311111313900003E0FEBE0102800DBE32
:100DE9000202801EBE0302802F0210A175162F7504
:100DF9001702751800900241E0FDA3E0FE8D1C0268
:100E090010A475164375170275180090028EE0FD3F
:100E1900A3E0FE8D1C0210A4900002E07015751667
:100E290090751702F518900294E0FDA3E0FE8D1C61
:100E39000210A4900002E0FEBE01167516CC7517CB
:100E4900027518009002DAE0FDA3E0FE8D1C021085
:100E5900A4900002E0FEBE0216751696751702757B
:100E690018009002B2E0FDA3E0FE8D1C0210A490D0
:100E79000002E0FEBE030280030210769001937423
:100E890030F090019404F090019504F090019604DB
:100E9900F090019704F090019804F090019904F002
:100EA90090019A04F090019B04F090019C04F09049
:100EB900019D7441F090019E04F090019F04F0900F
:100EC90001A004F09001A104F09001A204F09001A6
:100ED900A3E4F09002DC741AF09002DD7403F09040
:100EE9003FFCE493C4540FFE53060F7D00EE249398
:100EF900F582ED3401F583E09002DEF09002DFE443
:100F0900F0903FFC93FE53060F7D00EE2493F5828B
:100F1900ED3401F583E09002E0F09002E1E4F09015
:100F29003FFD93C4540FFE53060F7D00EE2493F545
:100F390082ED3401F583E09002E2F09002E3E4F0FF
:100F4900903FFD93FE53060F7D00EE2493F582ED4D
:100F59003401F583E09002E4F09002E5E4F0903F7B
:100F6900FE93C4540FFE53060F7D00EE2493F582C1
:100F7900ED3401F583E09002E6F09002E7E4F090A9
:100F89003FFE93FE53060F7D00EE2493F582ED3468
:100F990001F583E09002E8F09002E9E4F0903FFF68
:100FA90093C4540FFE53060F7D00EE2493F582ED92
:100FB9003401F583E09002EAF09002EBE4F0903F0F
:100FC900FF93FE53060F7D00EE2493F582ED340165
:100FD900F583E09002ECF09002EDE4F0903FFA9393
:100FE900C4540FFE53060F7D00EE2493F582ED34B1
:100FF90001F583E09002EEF09002EFE4F0903FFA01
:1010090093FE53060F7D00EE2493F582ED3401F52E
:1010190083E09002F0F09002F1E4F0903FFB93C47A
:10102900540FFE53060F7D00EE2493F582ED340133
:10103900F583E09002F2F09002F3E4F0903FFB9325
:10104900FE53060F7D00EE2493F582ED3401F583FE
:10105900E0FE9002F4F09002F5E4F075191AF51A21
:101069007516DC751702F518751C1A802E9000028A
:10107900E0FEBE04157516B47517027518009002C6
:10108900CAE0FDA3E0FE8D1C80117516DC75170200
:1010990075180085191C8003751CFF74FFB51C03A6
:1010A900021350AD1C7E00C3ED9512EE951350044A
:1010B9008D128E13AD12AE13C3ED9408EE94009207
:1010C9000140067B087C008004AB12AC138B1C7CAE
:1010D90000C3EC951C50208C027B00EC2516F8E42B
:1010E9003517F9AF18888289838FF0122125F88A7C
:1010F900828B83F00C80DAAC1C7F00EDC39CFDEE83
:101109009FFE8D128E13E51C2516F516E43517F58D
:1011190017021350900002E0FF8F1275130002139B
:1011290050900000E515F0AE12AF13C3EE9401EF35
:1011390094005003021350751C01021350900002D1
:10114900E0F515021350900000E0541F7030900034
:1011590003E0FE7F00900002E0FD7C004207EC42C4
:1011690006BF0114BE001190024AE0FF30E50302F8
:101179001350751CFF021350751CFF021350900089
:1011890000E0FF53071F7E00BF0278BE0075900084
:1011990004E0FFBF0102805FBF02028049BF030272
:1011A9008033BF0402801DBF81028040BF8202805C
:1011B9002ABF83028014BF844474BC55DE4402F5FF
:1011C900DE02135053DE7302135074BC55D6440229
:1011D900F5D602135053D67302135074BC55D44438
:1011E90002F5D402135053D47302135074BC55D270
:1011F9004402F5D202135053D273021350751CFFE7
:10120900021350751CFF021350900000E0541F7028
:1012190030900003E0FE7F00900002E0FD7C004278
:1012290007EC4206BF0114BE001190024AE0FF30EC
:10123900E503021350751CFF021350751CFF0213BE
:1012490050900000E0FF53071F7E00BF0205BE005B
:10125900028003021323900003E0FE7F0090000246
:10126900E0FD7C004207EC4206EF4E600302131ECC
:10127900900005E0FE7F00900004E0FD7C0042073D
:10128900EC4206BF0106BE0003021311BF0205BEF0
:1012990000028060BF0305BE00028044BF0405BE92
:1012A90000028028BF8105BE00028052BF8205BEB0
:1012B90000028036BF8305BE0002801ABF8451BE7A
:1012C900004E74BF55DE4403F5DE807B747F55DE26
:1012D900440CF5DE807174BF55D64403F5D680679A
:1012E900747F55D6440CF5D6805D74BF55D444033C
:1012F900F5D48053747F55D4440CF5D4804974BF18
:1013090055D24403F5D2803F747F55D2440CF5D2AF
:10131900751CFF8032751CFF802D751CFF8028907D
:101329000000E4F0900001F0AE12AF13C3EE940296
:10133900EF94004005751C02800D85121C8008750C
:101349001CFF8003751CFF74FFB51C077514FF751E
:10135900DCCF22E51C24F74007851CDD75DCC022A3
:1013690075DD0075DCC0227405B51402806E740643
:10137900B5140280030213F3AE12AF13C3EE94083F
:10138900EF9400920240067C087D008004AC12AD07
:10139900138C737D00C3ED957350208D027B00ED96
:1013A9002516F8E43517F9AC18888289838CF01270
:1013B9002125F88A828B83F00D80DAAC737D00EEEB
:1013C900C39CFEEF9DFF8E128F13E5732516F5164C
:1013D900E43517F5178573DD63DC4022E5E35480B6
:1013E900FFE5124FF5E375DC022275DD0075DC02BD
:1013F900227420B5140D30DE10120A8E75DD0085B9
:10140900DCDC2275DD0043DC022275D30074FC5557
:10141900D24402F5D22220D9030214CAE5D9540FC5
:10142900FFADD95305307E00BD0005BE0002801C0A
:10143900BD1005BE00028036BD2005BE00028043F6
:10144900BD3006BE00030214B00214C8EF24FB50DD
:10145900030214C8EF2F9014637380088061800918
:10146900805D805B1213FA8056120D0B8051EF24B8
:10147900FB404CEF2F90148273804480428040805F
:101489003E803CEF24FB4037EF2F90149773800880
:10149900800B800E8029802712137080221214136A
:1014A900801D120CFA8018EF24FB4013EF2F9014C3
:1014B900BB7380088009800780058003120D29C24B
:1014C900D930D81575DC0275D21275D41275E300BE
:1014D900C2DAC2D9C2D8120A8410DA0122E5DA20A6
:1014E900E20375D8FF2275E20053E27F43E22975D2
:1014F900E30053E2BF53D1FB75D18043D1012243AD
:10150900E10443E10243E10143D81FD2EAD2AF2209
:101519007E0A7F008EEE8FEF7E147F008EE48FE5CA
:1015290075EB0C75D21275D4127E007F008EEC8F8C
:08153900ED75EA4075DC0222A9
:10154100C021C0E0C0F0C082C083C007C006C00592
:10155100C004C003C002C001C000C0D075D00012D9
:10156100141FD0D0D000D001D002D003D004D005B8
:10157100D006D007D083D082D0F0D0E0D02132C0C5
:1015810021C0E0C0F0C082C083C007C006C005C052
:1015910004C003C002C001C000C0D075D0003098A3
:1015A10005122141C298309905122177C299D0D0F4
:1015B100D000D001D002D003D004D005D006D0078E
:1015C100D083D082D0F0D0E0D02132C021C0E0C0A1
:1015D100F0C082C083C007C006C005C004C003C0FC
:1015E10002C001C000C0D075D00030C0051221BBBF
:1015F100C2C030C1051221F1C2C1D0D0D000D0018A
:10160100D002D003D004D005D006D007D083D08239
:10161100D0F0D0E0D02132C021C0E0C0F0C082C003
:1016210083C007C006C005C004C003C002C001C01A
:1016310000C0D075D0009002F8E0FEA3E0FFC00723
:10164100C0068E828F83120069D006D007D0D0D019
:1016510000D001D002D003D004D005D006D007D0ED
:1016610083D082D0F0D0E0D02132C021C0E0C0F0E0
:10167100C082C083C007C006C005C004C003C00249
:10168100C001C000C0D075D0009002FAE0FEA3E016
:10169100FFC007C0068E828F83120069D006D00773
:1016A100D0D0D000D001D002D003D004D005D006D4
:1016B100D007D083D082D0F0D0E0D02132C021C079
:1016C100E0C0F0C082C083C007C006C005C004C02E
:1016D10003C002C001C000C0D075D0009002F6E086
:1016E100FEA3E04E600E9002F6E0F8A3E0F58388D9
:1016F10082120069D0D0D000D001D002D003D00432
:10170100D005D006D007D083D082D0F0D0E0D02150
:1017110032121DA11201251201E880FB75820022FF
:10172100E582FF90233793FEEF90230F93FF700123
:10173100229001A4E0FD701BBF0209EEF4FC52925D
:10174100EC529322BF0402800122EEF4FC5296EC8B
:10175100529722BD0214BF0207EE4292EE4293223B
:10176100BF0439EE4296EE429722BD0116BF020830
:10177100EEF45292EE429322BF0421EEF45296EE21
:10178100429722BD0316BF0208EE4292EEF4529335
:1017910022BF0408EE4296EEF4FE529722AF82BFBA
:1017A1000102800FBF02028013BF03028017BF0432
:1017B100358023E5C620E22E539DFB22E5C620E3BA
:1017C10025539DF722AEC65306047F00BE0117BF05
:1017D1000014539DFB22AEC65306087F00BE0106CE
:1017E100BF0003539DF722E582FF9022E793FEEFAE
:1017F10090233793FDEF90230F93FF7003F582221F
:10180100EE600D8E82C007C00512179ED005D0076D
:101811007E00BF0202800ABF03028009BF040C8060
:1018210008AE908006AEA08002AEB0ED5E60047599
:1018310082012275820022E582FF9022E793FEEF6A
:1018410090233793FDEF90230F93FFEE600D8E826F
:10185100C007C00512179ED005D007A2AFE433FE22
:10186100C2AFBF0202800ABF03028017BF043680E5
:10187100249001A5E07007EDF4FF52908027ED421E
:101881009080229001A5E07007EDF4FF52A0801531
:10189100ED42A080109001A5E07007EDF4FF52B079
:0B18A1008003ED42B0EE6002D2AF22E7
:1018AD00AE82AF839001A6E0FBA3E0FCA3E0FD7A3E
:1018BD00009001A9E0F9890019E8603F8B828C83C3
:1018CD008DF0122125F8A3AB82AC83C007C006C0F2
:1018DD0005C004C003C002C0011218EB8007C0068A
:1018ED00C007888222A882D001D002D003D004D0B4
:1018FD0005D006D007E860030A80BB8A8222AE823B
:10190D00AF839001AAE0FBA3E0FCA3E0FD9001AA48
:10191D00E0F5F0A3E045F07003F582227A008B82AA
:10192D008C838DF0122125F9A3AB82AC83E9F8608D
:10193D002CC007C006C005C004C003C00212194F59
:10194D008007C006C007888222A982D002D003D0AA
:10195D0004D005D006D007E960030A80C18A82222F
:10196D00AE82AF839001ADE0FAA3E0FBA3E0FCA350
:10197D00E0FD9001B5EAF0EBA3F0ECA3F0EDA3F0E0
:10198D009001B9740AF08E828F830219FEAE82AF78
:10199D00839001B1E0FAA3E0FBA3E0FCA3E0FD908E
:1019AD0001DBEAF0EBA3F0ECA3F0EDA3F09001DF87
:1019BD00740AF08E828F83021AE3AE82AF83C00762
:1019CD00C0061219D48008C006C00775820D22AD5D
:1019DD0082D006D007C007C0051219EB8008C006DB
:1019ED00C00775820A22AE82D005D007EE2DF58292
:1019FD00228582558583569001DAE4F09001B9E095
:101A0D00FDBD020050069001B9740AF09001B9E0D5
:101A1D00F5577BDA7C019001B5E0F558A3E0F55957
:101A2D00A3E0F55AA3E0F55B85575C755D00755E27
:101A3D0000755F00855C73855D74855E75855F7669
:101A4D00855882855983855AF0E55BC004C0031221
:101A5D001F59A882855C73855D74855E75855F767B
:101A6D00855882855983855AF0E55BC00012201692
:101A7D00AA82AD83AEF0FFD000D003D0049001B5A3
:101A8D00EAF0EDA3F0EEA3F0EFA3F01BBBFF011CFA
:101A9D008B068C07B80A005008880574302DFD8020
:101AAD0004743728FD8E828F83EDF09001B5E0F53B
:101ABD00F0A3E042F0A3E042F0A3E045F0600302A2
:101ACD001A239001AAEBF0ECA3F0E4A3F085558264
:101ADD0085568302190B8582608583619001DFE055
:101AED00FD70199001DBE0F9A3E0FAA3E0FBA3E0A0
:101AFD00FC021B01C060C06189822222BD0A0280E6
:101B0D0003021BAE9001DBE0F9A3E0FAA3E0FBA317
:101B1D00E0FC30E76FC004C003C002C001121B2FF0
:101B2D008008C060C06175822D22A882D001D002CC
:101B3D00D003D00488629001DBC3E499F0E49AA34A
:101B4D00F0E49BA3F0E49CA3F09001DBE0F563A32C
:101B5D00E0F564A3E0F565A3E0F5669001B5E563F6
:101B6D00F0E564A3F0E565A3F0E566A3F09001B997
:101B7D00740AF08560828561831219FEAF82E56279
:101B8D002FF582229001B5E9F0EAA3F0EBA3F0EC7A
:101B9D00A3F09001B9740AF0856082856183021902
:101BAD00FE9001DBE0FBA3E0FCA3E0FEA3E0FF90D1
:101BBD0001B5EBF0ECA3F0EEA3F0EFA3F09001B9BB
:0B1BCD00EDF08560828561830219FE47
:101BD900AC82AD83AE74AF75BE0004EF600C1F0F0D
:0F1BE900E573121DD6A3DEFADFF88C828D8322FE
:101BF800C0D075D00808B8000D09B900090ABA00A4
:101C0800050BBB00010CD0D032A2AFC2AFA808A907
:101C180009AA0AAB0BAC8A8588F092AF30F512742A
:101C2800012C600D08B8000909B900050ABA0001BD
:101C38000BC3EC9406FCECC313FC75F07DE8A4F828
:101C4800ADF075F07DE9A42DF9E435F0FD75F07D72
:101C5800EAA42DFAE435F0FD75F07DEBA42DFB7DAB
:101C680000EC28F582E93DF583EA3DF5F0EB3D22ED
:101C7800A2AFC2AFA808A909AA0AAB0BAC0C92AFD5
:101C880075F020E8A4A8F075F020E9A428F582A84A
:101C9800F075F020EAA428F583A8F075F020EBA4ED
:101CA80028F9A8F075F020ECA42889F0228582672D
:101CB80085836885F069F56A121C1185826B8583B6
:101CC8006C85F06DF56EE56745684569456A700194
:101CD80022A867A968AA69AB6A856B6F856C70854D
:101CE8006D71856E72E8494A4B60DBC003C002C063
:101CF80001C000121C11AC82AD83AEF0FFD000D041
:101D080001D002D003ECC3956FFCED9570FDEE9504
:101D180071FEEF9572FFC3EC94E8ED9403EE940026
:101D2800EF940040A118B8FF0919B9FF051ABAFFC6
:101D3800011B886789688A698B6A74E8256FF56F63
:101D480074033570F570E43571F571E43572F57228
:101D5800856F6B85706C85716D85726E8087AE82BC
:101D6800AF83C374019EE49F40022200C374029EA5
:101D7800FE74009FFF00BE0005BF000200220000A5
:101D88000000000000000000000000000000000E3D
:101D9800BE00EB0FBF00ED002275A15575A1AA7416
:101DA800F855B94406F5B975A100901388121D6657
:101DB800759E04759D0074F055894402F58953C9D0
:0D1DC800EF758C06C28DD2A9D28CD2AF224D
:101DD60020F71130F6138883A88220F509F6A88328
:0C1DE6007583002280FEF280F5F02232AE
:101DF300E58290235F93FFBFFF0475820022759AEB
:101E03000974FC5580FE74035F4EF580D2842084F0
:101E1300FD859F8222AF829001A47401F08F82C05E
:101E230007121721D0079001E0E0FDA3E0FE4D70FB
:101E33000A9001A5E4F08F820218388D038E047492
:101E4300FF2C500B9001A57401F08F82021838EF1C
:101E53009022E793FA24FB4034EA2A901E627380AF
:101E63002C8006800D8014801B53C6FB439D048D7C
:101E73009C2253C6F7439D088D9B2243C604439D72
:101E8300048D9C2243C608439D088D9B22C3EB947B
:101E930080EC9400500A9001A5E4F08F8202183878
:0B1EA3009001A57401F08F8202183836
:101EAF00AAF0FBE5828573F0A4FCADF0E5838573A2
:101EBF00F0A42DFDE435F0FEE5828574F0A42DFD30
:101ECF00E5F03EFEE433FFEA8573F0A42EFEE5F065
:101EDF003FFFE5838574F0A42EFEE5F03FFFE5821A
:101EEF008575F0A42EFEE5F03FFFEB8573F0A42F70
:101EFF00FFEA8574F0A42FFFE5838575F0A42FFF0B
:0F1F0F00E5828576F0A42F8EF08D838C822232AE
:091F1F00ABF0A2AFE433FEC2AF47
:101F2900E0A3D2913300500A000000000000000035
:101F39000000C291400A00000000000000000000FB
:101F4900530207DADDDBD900C291EE6002D2AF227B
:101F5900F9E57345744575457660777800C308E5FA
:101F69007620E73BE57325E0F573E57433F574E511
:101F79007533F575E57633F576E5829573E58395E1
:101F890074E5F09575E9957650D4C3E57613F57641
:101F9900E57513F575E57413F574E57313F573E5D4
:101FA900829573FCE5839574FDE5F09575FEE995D9
:101FB900764007F98EF08D838C82C3E57613F5762A
:101FC900E57513F575E57413F574E57313F573D8B1
:0C1FD900CEE922ABF0A2AFE433FEC2AFB1
:101FE600E0A3D2943300500A000000000000000075
:101FF6000000C294400A000000000000000000003B
:10200600530207DADDDBD900C294EE6002D2AF22BA
:10201600FB7A20E4FCFDFEFFE5822582F582E5835E
:1020260033F583E5F033F5F0EB33FB4017DAE9805F
:1020360042E5822582F582E58333F583E5F033F5C3
:10204600F0EB33FBEC33FCED33FDEE33FEEF33FF09
:10205600EC9573ED9574EE9575EF95764013EC95CA
:1020660073FCED9574FDEE9575FEEF9576FF438254
:0E20760001DABEEB22ABF0A2AFE433FEC2AF44
:10208500E0A3D2B33300500A0000000000000000B6
:102095000000C2B3400A000000000000000000007C
:1020A500530207DADDDBD900C2B3EE6002D2AF22FC
:1020B50022AF82BF02005036EF75F002A424F8F576
:1020C50082740235F0F583E573F0E574A3F0BF0083
:1020D500028005BF0118800B9001E2E024FF928881
:1020E500D2A8229001E2E0FF24FF928AD2AA22AF71
:1020F50082BF02005028BF00028005BF010880048E
:10210500C2A88002C2AAEF75F002A424F8FE7402E8
:0F21150035F0FF8E828F8374B5F07420A3F02213
:1021250020F71430F6148883A88220F507E6A883E3
:0C21350075830022E280F7E49322E02290
:102141009002FCE0FF7E008F828E83A37573108E58
:1021510074122282AE829002FDE0FFEEB5070122E9
:102161009002FCE024E3F582E43401F583E599F083
:102171009002FCEEF0223003409002FEE0FF90025C
:10218100FFE0FEEFB50605A203C203229002FFE0C5
:1021910024F3F582E43401F583E0F5999002FFE040
:1021A100FF7E008F828E83A37573108E741222823C
:0A21B100AE82AF839002FFEEF02231
:1021BB00900300E0FF7E008F828E83A37573108ED9
:1021CB0074122282AE82900301E0FFEEB50701226A
:1021DB00900300E02403F582E43402F583E5C1F0BB
:1021EB00900300EEF022300440900302E0FF9003D6
:1021FB0003E0FEEFB50605A204C20422900303E040
:10220B002413F582E43402F583E0F5C1900303E077
:10221B00FF7E008F828E83A37573108E74122282C1
:0A222B00AE82AF83900303EEF022B1
:10223500E573457460467A01E57325E0F573E57449
:10224500334012F574E5829573E583957440030A6E
:1022550080E6C3E57413F574E57313F573C3E5827E
:102265009573F5F0E58395744005F58385F082C394
:10227500E57413F574E57313F573DAE122C2D5E558
:102285008330E70DD2D5E4C39582F582E49583F5D5
:1022950083E57430E70BE4C39573F573E49574F542
:1022A5007412223530D50BE4C39582F582E495830B
:0322B500F583228C
:1022B80061626E646972737064313534416461417E
:1022C8006D62696E6F2046616E487562312E302EE0
:0F22D800364146523367E803000041626E0A0048
:1022E70000000000000000000000000000000001E6
:1022F70000000000000000000000000000000304D0
:1023070000000200000000000101010101010101BC
:10231700000002020202020202020000030303039A
:10232700030303030000040404040404040400007A
:102337000102040810204080000001020408102058
:1023470040800000010204081020408000000102C4
:102357000408102040800000FFFFFFFFFFFFFFFF82
:10236700FFFFFF00FFFF0102FFFFFFFFFFFFFFFF70
:10237700FFFFFFFFFFFFFFFF03FFFFFFFFFFFFFF62
:1023870000E1000000000800000000001201100139
:10239700EF020108091250C50101010203011200F1
:1023A70009024B000201008064080B0002020201CF
:1023B70004090400000102020104052400100105BC
:1023C70024010000042402020524060001070581F8
:1023D7000308004009040100020A0000040705027F
:1023E70002400000070582024000004B0004030979
:1023F7000404001C0341006D00620069006E006F59
:10240700002000460061006E004800750062001C55
:102417000016034300440043002000530065007288
:1024270000690061006C0016000E0341006D006238
:092437000069006E006F000E0048
:102440000C03300031003200330034003500360018
:0A2450003700380039004100420057
:02245A00000080
:04245C00B520B520D2
:042460000000000078
:042464000000000074
:00000001FF
