:0600000002004B02124F4A
:03000B0002182DAB
:030013000212A234
:01001B0032B2
:03002300021203C3
:01002B0032A2
:01003300329A
:03003B000212F5B9
:030043000211C4E3
:0300460002134959
:02004900E4735E
:0D004B00758166121354E5826003020046C1
:1000580079DDE94400601B7A01901EC678C775A057
:1000680001E493F2A308B8000205A0D9F4DAF27506
:02007800A0FFE7
:06007A00E478FFF6D8FD5A
:100080007800E84400600A799475A000E4F309D888
:10009000FC7833E84401600C7902900094E4F0A30A
:0400A000D8FCD9FAB5
:1000A40075224975231375240075250075279475E9
:0B00B4002800E4F53CF53DF53EF53F6B
:0900BF0075191A751A00751B0071
:0E00C8007808E4F608F608F608F6780C7600DC
:0200D600C20066
:0300D800020046DD
:1000DB001206D190016A7401F075822012135890A8
:1000EB00016A7401F075820E12135890016A740143
:1000FB00F075820F12135890016A7401F07582101B
:10010B0012135890016A7401F075820B12135890F8
:10011B00016A7401F075822212135890016BE4F09E
:10012B0075822212146F90016A7401F0758221128C
:10013B00135890016B7401F075822112146F121811
:10014B00ADAC82AD83AEF0FF8C388D398E3A8F3BE0
:10015B008C348D358E368F379001707421F0741E70
:10016B00A3F07480A3F09007D61215411207B79035
:10017B000064E4F5F01218EA0207B71218AD858295
:10018B003085833185F032F53312091DE5826031FC
:10019B0012092485822FAC30AD31AE32AF338C389F
:1001AB008D398E3A8F3B8C348D358E368F37E4B547
:1001BB00240280077401B5240B80030201D00204D2
:1001CB00580205D92274FD25405003020317E54060
:1001DB00901E0293B52F0B7402B5400375250005D5
:1001EB004022E540901E0893B52F0B7402B54003D7
:1001FB00752501054022E540901E0593FFB52F02A2
:10020B0080030203137402B54002800302031075CE
:10021B00820F1207D675820C1207D675825D1207F4
:10022B00D67582061207D6903FFCE493F58212072F
:10023B00D6903FFDE493F5821207D6903FFEE493F0
:10024B00F5821207D6903FFFE493F5821207D69002
:10025B003FFAE493F5821207D6903FFBE493F582C5
:10026B001207D675820C1207D67E007F00C3EE9460
:10027B000CEF648094805020EE240BF582EF341E3B
:10028B00F583E493F582C007C0061207D6D006D0DB
:10029B00070EBE00D80F80D57582051207D67E00DB
:1002AB007F00C3EE9405EF648094805020EE2417FA
:1002BB00F582EF341EF583E493F582C007C0061276
:1002CB0007D6D006D0070EBE00D80F80D575820595
:1002DB001207D67E007F00C3EE9405EF64809480F6
:1002EB005020EE241CF582EF341EF583E493F58247
:1002FB00C007C0061207D6D006D0070EBE00D80F17
:10030B0080D575400005402275400022E54024F75A
:10031B00500122E540240B83F582E540240D83F543
:10032B0083E47357575740464C52585B04040403FD
:10033B000303030303852F41054022852F4205400C
:10034B0022852F43054022852F440540220540225C
:10035B00E4B5250280087401B52502807A22E542B6
:10036B006541FF7E00630755AC437D00ECB5076329
:10037B00EDB5065F90016B7401F075822212146F5C
:10038B00AC417D007E008E078D068C057C00A8425B
:10039B00E4F9FAFBE82CF563E93DF564EA3EF56513
:1003AB00EB3FF566900003E4F5F0121A0285822B01
:1003BB0085832C85F02DF52EE4F529F52AF563754B
:1003CB0064C0F56590009475F00012180E854426F4
:1003DB0075240175400022E5426541FF7E006307ED
:1003EB0055AC437D00ECB50760EDB5065C90016B39
:1003FB007401F075822212146FAC417D007E008E69
:10040B00078D068C057C00A842E4F9FAFBE82CF575
:10041B0063E93DF564EA3EF565EB3FF56690000355
:10042B00E4F5F0121A0285822B85832C85F02DF5CD
:10043B002EE4F529F52AF5637564C0F565900094F3
:10044B0075F00012180E75240175400022C3E529C2
:10045B0094C3E52A94005017E5292527F582E52A50
:10046B003528F583E52FF00529E4B52902052A1572
:10047B002B74FFB52B0C152CB52C07152DB52D0298
:10048B00152EE52B452C452D452E6001227524009C
:10049B00E52624FB50030205CBE52675F003A4905B
:1004AB0004AE730204BD0204F402052B02056102C3
:1004BB0005977E947F00AC29AD2A0CBC00010D7D05
:1004CB00008D028C037C007D008E008F01E4FEFF0B
:1004DB00E84204E94205EE4203EF42028C828D832F
:1004EB008BF0EA121B2D0205CB7E947F00AC29AD5D
:1004FB002A0CBC00010D7D008D028C037C007D005D
:10050B008E008F01E4FEFFE84204E94205EE420350
:10051B00EF42028C828D838BF0EA121B670205CBB4
:10052B007E947F00AC29AD2A0CBC00010D7D008DA3
:10053B00028C037C007D008E008F01E4FEFFE842FD
:10054B0004E94205EE4203EF42028C828D838BF06D
:10055B00EA121C06806A7E947F00AC29AD2A0CBC83
:10056B0000010D7D008D028C037C007D008E008FC1
:10057B0001E4FEFFE84204E94205EE4203EF4202CA
:10058B008C828D838BF0EA121C4080347E947F002A
:10059B00AC29AD2A0CBC00010D7D008D028C037CB7
:1005AB00007D008E008F01E4FEFFE84204E9420566
:1005BB00EE4203EF42028C828D838BF0EA121A70AB
:1005CB0090016BE4F075822212146F0207B7E530CD
:1005DB00C39538FCE5319539FDE532953AFEE533A7
:1005EB00953BFFC3EC94E8ED9403EE9400EF94007D
:1005FB00500122E4B5250280077401B5255A802DE0
:10060B001207B7E53E453F7013753E01F53F90016C
:10061B006B7401F075822212146F803CE4F53EF589
:10062B003F90016BF075822212146F802B1207B76B
:10063B00E53E453F7013753E01F53F90016B74012C
:10064B00F075822212146F800FE4F53EF53F900196
:10065B006BF075822212146F8530388531398532F3
:10066B003A85333BE53C453D605BE530C39534FC57
:10067B00E5319535FDE5329536FEE5339537FF854A
:10068B003C63853D647565007566009003E8E4F591
:10069B00F0C007C006C005C004121A02A882A983C5
:1006AB00AAF0FBD004D005D006D007C3EC98ED9987
:1006BB00EE9AEF9B400F75240085303485313585DC
:0606CB00323685333722B0
:1006D10012117212119C12118B75DD0075D3007508
:1006E100D500229001CEE4F09001D0F0227F007479
:1006F100F925DB50067D077E008004ADDB7E008F8F
:10070100037C00C3EB9DEC64808EF063F08095F078
:100711005017EF24C7FDE43401FE8F82758300E09A
:10072100FC8D828E83F00F80C6227F008F057E00B4
:10073100C3ED9407EE940050188F057E00EF24C797
:10074100F582E43401F583E0FC8D828E83F00F8025
:10075100DB90000722900002E0FF9001D1F0E02041
:10076100E0469001C7E0FCA3E0FDA3E0FEA3E0FFAB
:10077100BCB035BD0432BE002FBF002C75E200C2F3
:10078100AF75100075113890C35012199B90C3506A
:1007910012199BAE10AF11C007C0068E828F831253
:1007A1000049D006D00780FE227F009001D1E06091
:1007B100027F018F82229001D0E070189001D2E077
:1007C100FFE060108FD553D4FC9001D07401F090FC
:1007D10001D2E4F022AF829001D1E060617D007E20
:1007E100009001D0E060240DBD00010E900005C015
:1007F10007C006C00512199BD005D006D007C3ED6E
:100801009450EE94C340DA758200229001D2E0FE4A
:10081100BE400050207D0074402EFEE43DFDEE24DC
:1008210014F582ED3400F583EFF09001D2E024015C
:10083100F075820122C0071207B7D007809F758229
:100841000022AFF0AE83E582900156F0EEA3F0EF07
:10085100A3F09001D1E07003020919900154E0FE68
:10086100A3E0FFC3E49E74808FF063F08095F040B5
:10087100030209197E007F009001D0E060200EBEC6
:1008810000010F900005C007C00612199BD006D0C9
:1008910007C3EE9450EF94C340DE758200229001AD
:1008A10056E0FDA3E0FEA3E0FF900154E0FBA3E0CE
:1008B100FCC3E49B74808CF063F08095F0509C90B5
:1008C10001D2E0FABA400050498A017A0074402905
:1008D100F9E43AFAE92414F9EA3400FA8D828E83B4
:1008E1008FF0121CE9F8A3AD82AE83900156EDF0B2
:1008F100EEA3F0EFA3F089828A83E8F09001D2E0C1
:100901002401F01BBBFF011C900154EBF0ECA3F0A0
:10091100809F1207B702085C758200229001CEE029
:10092100F582229001CEE07003F582229001CFE0A2
:100931002414F582E43400F583E0FF9001CFE00454
:10094100F09001CEE014F0E0700353D4F38F8222D3
:100951009001CEE07003F582229001CFE02414F5DE
:1009610082E43400F583E0FF9001CFE004F09001D0
:10097100CEE014F0E0700353D4F38F822275D500DA
:1009810074FC55D44402F5D49001D0E4F02230DE59
:10099100199001CEE5DBF09001CFE4F09001CEE0BB
:0B09A100600874F355D44408F5D4221C
:1009AC00AFDBBF08028003020FCE900007E0FE7F92
:1009BC0000900006E0FD7C004FF512EC4EF5138F15
:1009CC001C900001E0F5148F1B900000E0FE5460B9
:1009DC006052900000E0FE5306607D00BE2005BD15
:1009EC000002800CBE4037BD0034751CFF020FD1D5
:1009FC007420B51403020FD17421B514028007744E
:100A0C0022B51414800C12072BAD82AE838D1C0200
:100A1C000FD1120756020FD1751CFF020FD1751C96
:100A2C00FF020FD1E51424F45003020FC9E514247E
:100A3C000B83F582E514241083F583E473A9D0C9E4
:100A4C0093C99E61C9ABC7D1D10F0D0F0E0F0D0A03
:100A5C000F0D0D0F0F900003E0FEBE0102800DBEC6
:100A6C000202801EBE0302802F020D247516D37560
:100A7C0017017518009001E5E0FDA3E0FE8D1C0246
:100A8C000D277516E7751701751800900232E0FDF9
:100A9C00A3E0FE8D1C020D27900002E07015751668
:100AAC0034751702F518900238E0FDA3E0FE8D1C9A
:100ABC00020D27900002E0FEBE0116751670751728
:100ACC000275180090027EE0FDA3E0FE8D1C020D65
:100ADC0027900002E0FEBE021675163A75170275D5
:100AEC001800900256E0FDA3E0FE8D1C020D27902D
:100AFC000002E0FEBE03028003020CF9900159745F
:100B0C0030F090015A04F090015B04F090015C0409
:100B1C00F090015D04F090015E04F090015F04F030
:100B2C0090016004F090016104F090016204F09077
:100B3C0001637441F090016404F090016504F0903D
:100B4C00016604F090016704F090016804F09001D4
:100B5C0069E4F0900280741AF09002817403F090B2
:100B6C003FFCE493C4540FFE53060F7D00EE245952
:100B7C00F582ED3401F583E0900282F0900283E47B
:100B8C00F0903FFC93FE53060F7D00EE2459F58246
:100B9C00ED3401F583E0900284F0900285E4F0904E
:100BAC003FFD93C4540FFE53060F7D00EE2459F500
:100BBC0082ED3401F583E0900286F0900287E4F038
:100BCC00903FFD93FE53060F7D00EE2459F582ED08
:100BDC003401F583E0900288F0900289E4F0903FB4
:100BEC00FE93C4540FFE53060F7D00EE2459F5827C
:100BFC00ED3401F583E090028AF090028BE4F090E2
:100C0C003FFE93FE53060F7D00EE2459F582ED3422
:100C1C0001F583E090028CF090028DE4F0903FFFA0
:100C2C0093C4540FFE53060F7D00EE2459F582ED4C
:100C3C003401F583E090028EF090028FE4F0903F47
:100C4C00FF93FE53060F7D00EE2459F582ED34011F
:100C5C00F583E0900290F0900291E4F0903FFA93CB
:100C6C00C4540FFE53060F7D00EE2459F582ED346B
:100C7C0001F583E0900292F0900293E4F0903FFA39
:100C8C0093FE53060F7D00EE2459F582ED3401F5E9
:100C9C0083E0900294F0900295E4F0903FFB93C4B3
:100CAC00540FFE53060F7D00EE2459F582ED3401EE
:100CBC00F583E0900296F0900297E4F0903FFB935E
:100CCC00FE53060F7D00EE2459F582ED3401F583B9
:100CDC00E0FE900298F0900299E4F075191AF51A5A
:100CEC00751680751702F518751C1A802E90000267
:100CFC00E0FEBE04157516587517027518009002A3
:100D0C006EE0FDA3E0FE8D1C801175168075170238
:100D1C0075180085191C8003751CFF74FFB51C0326
:100D2C00020FD1AD1C7E00C3ED9512EE951350044D
:100D3C008D128E13AD12AE13C3ED9408EE940040D9
:100D4C00067B087C008004AB12AC138B1C7C00C3AC
:100D5C00EC951C50208C027B00EC2516F8E4351722
:100D6C00F9AF18888289838FF0121CE9F88A828B7C
:100D7C0083F00C80DAAC1C7F00EDC39CFDEE9FFE73
:100D8C008D128E13E51C2516F516E43517F5170292
:100D9C000FD1900002E0FF8F12751300020FD1905B
:100DAC000000E515F0AE12AF13C3EE9401EF940002
:100DBC005003020FD1751C01020FD1900002E0F517
:100DCC0015020FD1900000E0541F7030900003E02A
:100DDC00FE7F00900002E0FD7C004207EC4206BF63
:100DEC000114BE00119001EEE0FF30E503020FD1BB
:100DFC00751CFF020FD1751CFF020FD1900000E093
:100E0C00FF53071F7E00BF0278BE0075900004E000
:100E1C00FFBF0102805FBF02028049BF0302803323
:100E2C00BF0402801DBF81028040BF8202802ABFA6
:100E3C0083028014BF844474BC55DE4402F5DE0288
:100E4C000FD153DE73020FD174BC55D64402F5D6C4
:100E5C00020FD153D673020FD174BC55D44402F592
:100E6C00D4020FD153D473020FD174BC55D24402A7
:100E7C00F5D2020FD153D273020FD1751CFF020FA2
:100E8C00D1751CFF020FD1900000E0541F70309000
:100E9C000003E0FE7F00900002E0FD7C004207ECC6
:100EAC004206BF0114BE00119001EEE0FF30E503D5
:100EBC00020FD1751CFF020FD1751CFF020FD190D0
:100ECC000000E0FF53071F7E00BF0205BE0002803A
:100EDC0003020FA4900003E0FE7F00900002E0FDEF
:100EEC007C004207EC4206EF4E6003020F9F90001D
:100EFC0005E0FE7F00900004E0FD7C004207EC4220
:100F0C0006BF0106BE0003020F92BF0205BE00021F
:100F1C008060BF0305BE00028044BF0405BE000212
:100F2C008028BF8105BE00028052BF8205BE000230
:100F3C008036BF8305BE0002801ABF8451BE004EAE
:100F4C0074BF55DE4403F5DE807B747F55DE440CA4
:100F5C00F5DE807174BF55D64403F5D68067747F77
:100F6C0055D6440CF5D6805D74BF55D44403F5D4E6
:100F7C008053747F55D4440CF5D4804974BF55D23A
:100F8C004403F5D2803F747F55D2440CF5D2751CC6
:100F9C00FF8032751CFF802D751CFF80289000008F
:100FAC00E4F0900001F0AE12AF13C3EE9402EF9494
:100FBC00004005751C02800D85121C8008751CFFF5
:100FCC008003751CFF74FFB51C077514FF75DCCF0F
:100FDC0022E51C24F74007851CDD75DCC02275DD7D
:100FEC000075DCC0227405B5140280707406B5144B
:100FFC00028003021076AE12AF13C3EE9408EF9486
:10100C000040067C087D008004AC12AD138C637D1F
:10101C0000C3ED956350208D027B00ED2516F8E49E
:10102C003517F9AC18888289838CF0121CE9F88A80
:10103C00828B83F00D80DAAC637D00EEC39CFEEFF7
:10104C009DFF8E128F13E5632516F516E43517F503
:10105C00178563DDAEDC6306408EDC22E5E354804D
:10106C00FFE5124FF5E375DC022275DD0075DC023D
:10107C00227420B5140D30DE101206EE75DD0085DD
:10108C00DCDC2275DD0043DC022275D30074FC55D8
:10109C00D24402F5D22220D90302114DE5D9540FC6
:1010AC00FFADD95305307E00BD0005BE0002801C8B
:1010BC00BD1005BE00028036BD2005BE0002804377
:1010CC00BD3006BE000302113302114BEF24FB505E
:1010DC000302114BEF2F9010E6738008806180099A
:1010EC00805D805B12107D805612098F8051EF2439
:1010FC00FB404CEF2F901105738044804280408060
:10110C003E803CEF24FB4037EF2F90111A73800880
:10111C00800B800E80298027120FF18022121096EE
:10112C00801D12097E8018EF24FB4013EF2F9011C5
:10113C003E73800880098007800580031209ACC2C9
:10114C00D930D81575DC0275D21275D41275E3003E
:10115C00C2DAC2D9C2D81206E410DA0122E5DA20CA
:10116C00E20375D8FF2275E20053E27F43E2297552
:10117C00E30053E2BF53D1FB75D18043D10122432D
:10118C00E10443E10243E10143D81FD2EAD2AF228A
:10119C007E0A7F008EEE8FEF7E147F008EE48FE54B
:1011AC0075EB0C75D21275D4127E007F008EEC8F0D
:0811BC00ED75EA4075DC02222A
:1011C400C021C0E0C0F0C082C083C007C006C00513
:1011D400C004C003C002C001C000C0D075D000125A
:1011E40010A2D0D0D000D001D002D003D004D005BA
:1011F400D006D007D083D082D0F0D0E0D02132C046
:1012040021C0E0C0F0C082C083C007C006C005C0D2
:1012140004C003C002C001C000C0D075D000309823
:1012240005121D05C298309905121D3BC299D0D0F4
:10123400D000D001D002D003D004D005D006D0070E
:10124400D083D082D0F0D0E0D02132C021C0E0C021
:10125400F0C082C083C007C006C005C004C003C07C
:1012640002C001C000C0D075D00090029CE0FEA373
:10127400E0FFC007C0068E828F83120049D006D0DB
:1012840007D0D0D000D001D002D003D004D005D0F4
:1012940006D007D083D082D0F0D0E0D02132C02154
:1012A400C0E0C0F0C082C083C007C006C005C0044F
:1012B400C003C002C001C000C0D075D00090029E1F
:1012C400E0FEA3E0FFC007C0068E828F83120049B0
:1012D400D006D007D0D0D000D001D002D003D004A3
:1012E400D005D006D007D083D082D0F0D0E0D02172
:1012F40032C021C0E0C0F0C082C083C007C006C0B5
:1013040005C004C003C002C001C000C0D075D00035
:1013140090029AE0FEA3E04E600E90029AE0F8A3D9
:10132400E0F5838882120049D0D0D000D001D002E9
:10133400D003D004D005D006D007D083D082D0F01B
:10134400D0E0D021321219B31200DB12018680FBE7
:04135400758200227C
:10135800E582FF901E7693FEEF901E4E93FF70017C
:101368002290016AE0FD701BBF0209EEF4FC529264
:10137800EC529322BF0402800122EEF4FC5296EC58
:10138800529722BD0214BF0207EE4292EE42932208
:10139800BF0439EE4296EE429722BD0116BF0208FD
:1013A800EEF45292EE429322BF0421EEF45296EEEE
:1013B800429722BD0316BF0208EE4292EEF4529302
:1013C80022BF0408EE4296EEF4FE529722AF82BF87
:1013D8000102800FBF02028013BF03028017BF04FF
:1013E800358023E5C620E22E539DFB22E5C620E387
:1013F80025539DF722AEC65306047F00BE0117BFD2
:101408000014539DFB22AEC65306087F00BE01069A
:10141800BF0003539DF722E582FF901E2693FEEF3F
:10142800901E7693FDEF901E4E93FF7003F5822277
:10143800EE600D8E82C007C0051213D5D005D00707
:101448007E00BF0202800ABF03028009BF040C802D
:1014580008AE908006AEA08002AEB0ED5E60047566
:1014680082012275820022E582FF901E2693FEEFFC
:10147800901E7693FDEF901E4E93FFEE600D8E82C8
:10148800C007C0051213D5D005D007A2AFE433FEBC
:10149800C2AFBF0202800ABF03028017BF043680B2
:1014A8002490016BE07007EDF4FF52908027ED4225
:1014B80090802290016BE07007EDF4FF52A0801538
:1014C800ED42A0801090016BE07007EDF4FF52B080
:0B14D8008003ED42B0EE6002D2AF22B4
:1014E300AE82AF8390016CE0FBA3E0FCA3E0FD7A46
:1014F3000090016FE0F9890019E8603F8B828C83CB
:101503008DF0121CE9F8A3AB82AC83C007C006C000
:1015130005C004C003C002C0011215218007C00624
:10152300C007888222A882D001D002D003D004D081
:1015330005D006D007E860030A80BB8A8222AE8208
:10154300AF83900170E0FBA3E0FCA3E0FD9001708A
:10155300E0F5F0A3E045F07003F582227A008B8278
:101563008C838DF0121CE9F9A3AB82AC83E9F8609C
:101573002CC007C006C005C004C003C002121585F5
:101583008007C006C007888222A982D002D003D078
:1015930004D005D006D007E960030A80C18A8222FD
:1015A300AE82AF83900173E0FAA3E0FBA3E0FCA358
:1015B300E0FD90017BEAF0EBA3F0ECA3F0EDA3F0E8
:1015C30090017F740AF08E828F83021634AE82AF4D
:1015D30083900177E0FAA3E0FBA3E0FCA3E0FD9096
:1015E30001A1EAF0EBA3F0ECA3F0EDA3F09001A5C9
:1015F300740AF08E828F83021719AE82AF83C007FD
:10160300C00612160A8008C006C00775820D22ADF7
:1016130082D006D007C007C0051216218008C00675
:10162300C00775820A22AE82D005D007EE2DF5825F
:10163300228582458583469001A0E4F090017FE0F6
:10164300FDBD0200500690017F740AF090017FE017
:10165300F5477BA07C0190017BE0F548A3E0F549C9
:10166300A3E0F54AA3E0F54B85474C754D00754E55
:1016730000754F00854C63854D64854E65854F66C7
:10168300854882854983854AF0E54BC004C003122F
:101693001AAAA882854C63854D64854E65854F667D
:1016A300854882854983854AF0E54BC000121BA11A
:1016B300AA82AD83AEF0FFD000D003D00490017BAB
:1016C300EAF0EDA3F0EEA3F0EFA3F01BBBFF011CC8
:1016D3008B068C07B80A005008880574302DFD80EE
:1016E30004743728FD8E828F83EDF090017BE0F543
:1016F300F0A3E042F0A3E042F0A3E045F060030270
:101703001659900170EBF0ECA3F0E4A3F085458249
:101713008546830215418582508583519001A5E05A
:10172300FD70199001A1E0F9A3E0FAA3E0FBA3E0A7
:10173300FC021737C050C05189822222BD0A0280A1
:10174300030217E49001A1E0F9A3E0FAA3E0FBA3ED
:10175300E0FC30E76FC004C003C002C0011217658C
:101763008008C050C05175822D22A882D001D002BA
:10177300D003D00488529001A1C3E499F0E49AA362
:10178300F0E49BA3F0E49CA3F09001A1E0F553A344
:10179300E0F554A3E0F555A3E0F55690017BE5533E
:1017A300F0E554A3F0E555A3F0E556A3F090017FCF
:1017B300740AF0855082855183121634AF82E55244
:1017C3002FF5822290017BE9F0EAA3F0EBA3F0EC82
:1017D300A3F090017F740AF085508285518302162D
:1017E300349001A1E0FBA3E0FCA3E0FEA3E0FF90A3
:1017F300017BEBF0ECA3F0EEA3F0EFA3F090017FFD
:10180300EDF0855082855183021634AC82AD83AEF0
:1018130064AF65BE0004EF600C1F0FE5631219E7A8
:0A182300A3DEFADFF88C828D832229
:10182D00C0D075D00808B8000D09B900090ABA0072
:10183D00050BBB00010CD0D032A2AFC2AFA808A9D6
:10184D0009AA0AAB0BAC8A8588F092AF30F51274F9
:10185D00012C600D08B8000909B900050ABA00018C
:10186D000BC3EC9406FCECC313FC75F07DE8A4F8F7
:10187D00ADF075F07DE9A42DF9E435F0FD75F07D41
:10188D00EAA42DFAE435F0FD75F07DEBA42DFB7D7A
:10189D0000EC28F582E93DF583EA3DF5F0EB3D22BC
:1018AD00A2AFC2AFA808A909AA0AAB0BAC0C92AFA4
:1018BD0075F020E8A4A8F075F020E9A428F582A819
:1018CD00F075F020EAA428F583A8F075F020EBA4BC
:1018DD0028F9A8F075F020ECA42889F0228582570C
:1018ED0085835885F059F55A12184685825B858394
:1018FD005C85F05DF55EE55745584559455A7001D3
:10190D0022A857A958AA59AB5A855B5F855C60859B
:10191D005D61855E62E8494A4B60DBC003C002C071
:10192D0001C000121846AC82AD83AEF0FFD000D0DE
:10193D0001D002D003ECC3955FFCED9560FDEE95F3
:10194D0061FEEF9562FFC3EC94E8ED9403EE940015
:10195D00EF940040A118B8FF0919B9FF051ABAFF95
:10196D00011B885789588A598B5A74E8255FF55F92
:10197D0074033560F560E43561F561E43562F56257
:10198D00855F5B85605C85615D85625E8087AE820B
:10199D00AF83EE4F600F05A105A105A105A11EBEE8
:1019AD00FF011F80ED2275A15575A1AA74F855B9D7
:1019BD004406F5B975A10090138812199B759E5DAB
:1019CD00759D0074F055894402F58953C9EF758CE6
:1019DD0006C28DD2A9D28CD2AF2220F71130F613C8
:1019ED008883A88220F509F6A8837583002280FEDE
:1019FD00F280F5F022AAF0FBE5828563F0A4FCAD40
:101A0D00F0E5838563F0A42DFDE435F0FEE58285D8
:101A1D0064F0A42DFDE5F03EFEE433FFEA8563F0AE
:101A2D00A42EFEE5F03FFFE5838564F0A42EFEE5D0
:101A3D00F03FFFE5828565F0A42EFEE5F03FFFEB5C
:101A4D008563F0A42FFFEA8564F0A42FFFE583855D
:101A5D0065F0A42FFFE5828566F0A42F8EF08D83AF
:031A6D008C822246
:091A7000ABF0A2AFE433FEC2AFFB
:101A7A00E0A3D2913300500A0000000000000000E9
:101A8A000000C291400A00000000000000000000AF
:101A9A00530207DADDDBD900C291EE6002D2AF222F
:101AAA00F9E56345644565456660777800C308E5EE
:101ABA006620E73BE56325E0F563E56433F564E515
:101ACA006533F565E56633F566E5829563E58395E5
:101ADA0064E5F09565E9956650D4C3E56613F56645
:101AEA00E56513F565E56413F564E56313F563E5E8
:101AFA00829563FCE5839564FDE5F09565FEE995BD
:101B0A00664007F98EF08D838C82C3E56613F5660D
:101B1A00E56513F565E56413F564E56313F563D8C4
:0C1B2A00CEE922ABF0A2AFE433FEC2AF64
:101B3700E0A3D2B23300500A00000000000000000A
:101B47000000C2B2400A00000000000000000000D0
:101B5700530207DADDDBD900C2B2EE6002D2AF2250
:091B6700ABF0A2AFE433FEC2AF03
:101B7100E0A3D2943300500A0000000000000000EE
:101B81000000C294400A00000000000000000000B4
:101B9100530207DADDDBD900C294EE6002D2AF2234
:101BA100FB7A20E4FCFDFEFFE5822582F582E583D8
:101BB10033F583E5F033F5F0EB33FB4017DAE980D9
:101BC10042E5822582F582E58333F583E5F033F53D
:101BD100F0EB33FBEC33FCED33FDEE33FEEF33FF83
:101BE100EC9563ED9564EE9565EF95664013EC9584
:101BF10063FCED9564FDEE9565FEEF9566FF43820E
:0E1C010001DABEEB22ABF0A2AFE433FEC2AFBD
:101C1000E0A3D2953300500A00000000000000004D
:101C20000000C295400A0000000000000000000013
:101C3000530207DADDDBD900C295EE6002D2AF2293
:091C4000ABF0A2AFE433FEC2AF29
:101C4A00E0A3D2963300500A000000000000000012
:101C5A000000C296400A00000000000000000000D8
:101C6A00530207DADDDBD900C296EE6002D2AF2258
:101C7A0022AF82BF02005036EF75F002A4249CF511
:101C8A0082740235F0F583E563F0E564A3F0BF00E2
:101C9A00028005BF0118800B9001A6E024FF9288FC
:101CAA00D2A8229001A6E0FF24FF928AD2AA22AFEC
:101CBA0082BF02005028BF00028005BF01088004CD
:101CCA00C2A88002C2AAEF75F002A4249CFE740284
:0F1CDA0035F0FF8E828F83747AF0741CA3F02292
:101CE90020F71430F6148883A88220F507E6A88324
:0C1CF90075830022E280F7E49322E022D1
:101D05009002A0E0FF7E008F828E83A37563108E04
:101D150064121DCCAE829002A1E0FFEEB507012250
:101D25009002A0E024A7F582E43401F583E599F05B
:101D35009002A0EEF0223000409002A2E0FF900257
:101D4500A3E0FEEFB50605A200C200229002A3E0C3
:101D550024B7F582E43401F583E0F5999002A3E018
:101D6500FF7E008F828E83A37563108E64121DCC57
:0A1D7500AE82AF839002A3EEF022CD
:101D7F00E563456460467A01E56325E0F563E56454
:101D8F00334012F564E5829563E583956440030A59
:101D9F0080E6C3E56413F564E56313F563C3E58279
:101DAF009563F5F0E58395644005F58385F082C36F
:101DBF00E56413F564E56313F563DAE122C2D5E553
:101DCF008330E70DD2D5E4C39582F582E49583F590
:101DDF0083E56430E70BE4C39563F563E49564F53D
:101DEF0064121D7F30D50BE4C39582F582E4958391
:031DFF00F5832247
:101E020061626E646972416461416D62696E6F20E4
:101E12004875625633312E302E3141485231674176
:041E2200626E0A00E2
:101E260000000000000000000000000000000001AB
:101E36000000000000000000000000000000030495
:101E46000000020000000000010101010101010182
:101E56000000020202020202020200000303030360
:101E66000303030300000404040404040404000040
:101E7600010204081020408000000102040810201E
:101E8600408000000102040810204080000001028A
:101E96000408102040800000FFFFFFFFFFFFFFFF48
:101EA600FFFFFF00FFFF0102FFFFFFFFFFFFFFFF36
:101EB600FFFFFFFFFFFFFFFF03FFFFFFFFFFFFFF28
:101EC60000E10000000008000000000012011001FF
:101ED600EF020108091250C50101010203011200B7
:101EE60009024B000201008064080B000202020195
:101EF6000409040000010202010405240010010582
:101F060024010000042402020524060001070581BD
:101F16000308004009040100020A00000407050244
:101F260002400000070582024000004B000403093E
:101F36000404001C0341006D00620069006E006F1E
:101F46000020004800750062005600330047001C60
:101F5600001603430044004300200053006500724E
:101F660000690061006C0016000E0341006D0062FE
:091F76000069006E006F000E000E
:101F7F000C033000310032003300340035003600DE
:0A1F8F00370038003900410042001D
:021F9900000046
:041F9B007A1C7A1C16
:041F9F00000000003E
:00000001FF
