:0600000002006B0212B1C8
:03000B0002156576
:03001300021304D1
:01001B0032B2
:03002300021219AD
:03002B0002188A2E
:01003300329A
:03003B0002135756
:030043000211DACD
:01004B003282
:0300530002126531
:01005B003272
:0300630002175E23
:030066000213ABD7
:02006900E4733E
:0D006B007581541213B6E582600302006631
:1000780079E1E94400601B7A01901C3678DF75A0AD
:1000880001E493F2A308B8000205A0D9F4DAF275E6
:02009800A0FFC7
:06009A00E478FFF6D8FD3A
:1000A0007800E84400600A799475A000E4F309D868
:1000B000FC784BE84401600C7902900094E4F0A3D2
:0400C000D8FCD9FA95
:1000C4007522AB7523137524007525007527947567
:0B00D4002800E4F53CF53DF53EF53F4B
:0900DF0075191A751A00751B0051
:0E00E8007808E4F608F608F608F6780C7600BC
:0200F600C20343
:0200F800C20440
:0300FA000200669B
:1000FE001206DE90019A7401F07582201213BA90E6
:10010E00019A7401F075820E1213BA90019A74015D
:10011E00F075820F1213BA90019A7401F075821065
:10012E001213BA90019A7401F075820B1213BA90E1
:10013E00019A7401F075821E1213BA90019A74011D
:10014E00F075821F1213BA90019A7401F075822213
:10015E001213BA90019A7401F07582221213BA909A
:10016E00019BE4F07582221214D190019A7401F071
:10017E007582211213BA90019B7401F075822112BF
:10018E0014D11215E5AC82AD83AEF0FF8C388D39EB
:10019E008E3A8F3B8C348D358E368F370207CD12CB
:1001AE0015E585823085833185F032F533120933BA
:1001BE00E582603112093A85822FAC30AD31AE3214
:1001CE00AF338C388D398E3A8F3B8C348D358E36DD
:1001DE008F37E4B5240280077401B5240B80030227
:1001EE0001F70204660205E62274FD254050030263
:1001FE00033EE540901B7793B52F0B7402B5400379
:10020E00752500054022E540901B7D93B52F0B749C
:10021E0002B54003752501054022E540901B7A93F7
:10022E00FFB52F02800302033A7402B54002800329
:10023E0002033775820F1207EC75820C1207EC75EC
:10024E00825D1207EC7582061207EC903FFCE49378
:10025E00F5821207EC903FFDE493F5821207EC90C5
:10026E003FFEE493F5821207EC903FFFE493F58294
:10027E001207EC903FFAE493F5821207EC903FFBE5
:10028E00E493F5821207EC75820C1207EC7E007F68
:10029E0000C3EE940CEF648094805020EE2480F521
:1002AE0082EF341BF583E493F582C007C006120774
:1002BE00ECD006D0070EBE00D80F80D57582051281
:1002CE0007EC7E007F00C3EE9405EF6480948050AF
:1002DE0020EE248CF582EF341BF583E493F582C077
:1002EE0007C0061207ECD006D0070EBE00D80F804E
:1002FE00D57582051207EC7E007F00C3EE9405EFE4
:10030E00648094805020EE2491F582EF341BF583A7
:10031E00E493F582C007C0061207ECD006D0070E94
:10032E00BE00D80F80D575400005402275400022D2
:10033E00E54024F7500122E540240B83F582E54089
:10034E00240D83F583E473656565676D73797F822C
:10035E00040404030303030303852F410540228590
:10036E002F42054022852F43054022852F4405400C
:10037E0022054022E4B5250280087401B5250280CD
:10038E006D22E54265416455B5435F90019B740152
:10039E00F07582221214D1AC417D007E008E078D45
:1003AE00068C057C00A842E4F9FAFBE82CF551E92D
:1003BE003DF552EA3EF553EB3FF554900003E4F55C
:1003CE00F012181C85822B85832C85F02DF52EE4DA
:1003DE00F529F52AF5517552F0F55390009475F004
:1003EE000012154685442675240175400022E5420B
:1003FE0065416455FFB5435C90019B7401F07582B5
:10040E00221214D1AC417D007E008E078D068C0524
:10041E007C00A842E4F9FAFBE82CF551E93DF552CF
:10042E00EA3EF553EB3FF554900003E4F5F0121855
:10043E001C85822B85832C85F02DF52EE4F529F570
:10044E002AF5517552F0F55390009475F00012157F
:10045E004675240175400022C3E52994F3E52A94DC
:10046E00005017E5292527F582E52A3528F583E57D
:10047E002FF00529E4B52902052A152B74FFB52B9B
:10048E000C152CB52C07152DB52D02152EE52B456B
:10049E002C452D452E600122752400E52624FB50A7
:1004AE00030205D8E52675F003A49004BC7302047C
:1004BE00CB02050202053902056F0205A57E947F67
:1004CE0000AC29AD2A0CBC00010D7D008D028C0301
:1004DE007C007D008E008F01E4FEFFE84204E942BD
:1004EE0005EE4203EF42028C828D838BF0EA1218E6
:1004FE008C0205D87E947F00AC29AD2A0CBC00017D
:10050E000D7D008D028C037C007D008E008F01E43A
:10051E00FEFFE84204E94205EE4203EF42028C82FE
:10052E008D838BF0EA1218C60205D87E947F00AC3C
:10053E0029AD2A0CBC00010D7D008D028C037C00C0
:10054E007D008E008F01E4FEFFE84204E94205EED5
:10055E004203EF42028C828D838BF0EA12190080E7
:10056E00697E947F00AC29AD2A0CBC00010D7D0084
:10057E008D028C037C007D008E008F01E4FEFFE86F
:10058E004204E94205EE4203EF42028C828D838BD8
:10059E00F0EA12193A8033900094E090019CF0E456
:1005AE00A3F075821E121785900095E090019CF0C5
:1005BE00E4A3F075821E121785900096E090019CC0
:1005CE00F0E4A3F075821E12178590019BE4F0757E
:1005DE0082221214D10207CDE530C39538FCE531E5
:1005EE009539FDE532953AFEE533953BFFC3EC9424
:1005FE00E8ED9403EE9400EF9400500122E4B5254B
:10060E000280077401B5255A802D1207CDE53E45AF
:10061E003F7013753E01F53F90019B7401F075829A
:10062E00221214D1803CE4F53EF53F90019BF0750B
:10063E0082221214D1802B1207CDE53E453F701356
:10064E00753E01F53F90019B7401F07582221214E4
:10065E00D1800FE4F53EF53F90019BF0758222129A
:10066E0014D185303885313985323A85333BE53CB6
:10067E00453D605BE530C39534FCE5319535FDE5D0
:10068E00329536FEE5339537FF853C51853D5275E3
:10069E0053007554009003E8E4F5F0C007C006C09F
:1006AE0005C00412181CA882A983AAF0FBD004D09E
:1006BE0005D006D007C3EC98ED99EE9AEF9B400F4C
:1006CE0075240085303485313585323685333722B1
:1006DE001211881211B21211A175DD0075D30075B9
:1006EE00D500229001E6E4F09001E8F0227F00C3ED
:1006FE00E5DB9407920040067D077E008004ADDBAB
:10070E007E008F037C00C3EB9DEC64808EF063F063
:10071E008095F05017EF24DFFDE43401FE8F8275D3
:10072E008300E0FC8D828E83F00F80C3227F008FCA
:10073E00057E00C3ED9407EE940050188F057E00E1
:10074E00EF24DFF582E43401F583E0FC8D828E83A5
:10075E00F00F80DB90000722900002E0FF9001E98D
:10076E00F0E020E0499001DFE0FCA3E0FDA3E0FE15
:10077E00A3E0FFBCB038BD0435BE0032BF002F75FC
:10078E00E200C2AF75890075100075113890C35024
:10079E001216D390C3501216D3AE10AF11C007C0AD
:1007AE00068E828F83120069D006D00780FE2275D6
:1007BE0051009001E9E0600375510185518222904C
:1007CE0001E8E070189001EAE0FFE060108FD55369
:1007DE00D4FC9001E87401F09001EAE4F022AF82BB
:1007EE009001E9E060617D007E009001E8E0602408
:1007FE000DBD00010E900005C007C006C005121603
:10080E00D3D005D006D007C3ED9450EE94C340DA92
:10081E00758200229001EAE0FEBE400050207D006D
:10082E0074402EFEE43DFDEE2414F582ED3400F509
:10083E0083EFF09001EAE02401F075820122C007F7
:10084E001207CDD007809F75820022AFF0AE83E5F0
:10085E0082900186F0EEA3F0EFA3F09001E9E07034
:10086E000302092F900184E0FEA3E0FFC3E49E740F
:10087E00808FF063F08095F0400302092F7E007F99
:10088E00009001E8E060200EBE00010F900005C050
:10089E0007C0061216D3D006D007C3EE9450EF94BD
:1008AE00C340DE75820022900186E0FDA3E0FEA328
:1008BE00E0FF900184E0FBA3E0FCC3E49B74808C1A
:1008CE00F063F08095F0509C9001EAE0FABA400097
:1008DE0050498A017A00744029F9E43AFAE924145D
:1008EE00F9EA3400FA8D828E838FF01219E4F8A3A0
:1008FE00AD82AE83900186EDF0EEA3F0EFA3F0890A
:10090E00828A83E8F09001EAE02401F01BBBFF012C
:10091E001C900184EBF0ECA3F0809F1207CD02082F
:10092E0072758200229001E6E0F582229001E6E0E7
:10093E007003F582229001E7E02414F582E434007E
:10094E00F583E0FF9001E7E004F09001E6E014F09B
:10095E00E0700353D4F38F82229001E6E07003F52A
:10096E0082229001E7E02414F582E43400F583E05E
:10097E00FF9001E7E004F09001E6E014F0E0700370
:10098E0053D4F38F822275D50074FC55D44402F5EE
:10099E00D49001E8E4F02230DE199001E6E5DBF0B8
:1009AE009001E7E4F09001E6E0600874F355D4445A
:0409BE0008F5D42242
:1009C200AFDBBF08028003020FE6900007E0FE7F64
:1009D20000900006E0FD7C004FF512EC4EF5138FFF
:1009E2001C900001E0F5148F1B900000E0FE5460A3
:1009F2006052900000E0FE5306607D00BE2005BDFF
:100A02000002800CBE4037BD0034751CFF020FE9A6
:100A12007420B51403020FE97421B514028007741F
:100A220022B51414800C12073BAD82AE838D1C02DA
:100A32000FE9120766020FE9751CFF020FE9751C28
:100A4200FF020FE9E51424F45003020FE1E5142438
:100A52000B83F582E514241083F583E473C1E8E186
:100A6200ABE1B677E1C3DFE9E90F0D0F0E0F0D0A17
:100A72000F0D0D0F0F900003E0FEBE0102800DBEB0
:100A82000202801EBE0302802F020D3A7516EB751C
:100A920017017518009001FDE0FDA3E0FE8D1C0218
:100AA2000D3D7516FF75170175180090024AE0FD9D
:100AB200A3E0FE8D1C020D3D900002E0701575163C
:100AC2004C751702F518900250E0FDA3E0FE8D1C54
:100AD200020D3D900002E0FEBE01167516887517E4
:100AE20002751800900296E0FDA3E0FE8D1C020D37
:100AF2003D900002E0FEBE02167516527517027591
:100B0200180090026EE0FDA3E0FE8D1C020D3D90E8
:100B12000002E0FEBE03028003020D0F9001897401
:100B220030F090018A04F090018B04F090018C0463
:100B3200F090018D04F090018E04F090018F04F08A
:100B420090019004F090019104F090019204F090D1
:100B520001937441F090019404F090019504F09097
:100B6200019604F090019704F090019804F090012E
:100B720099E4F0900298741AF09002997403F0903C
:100B82003FFCE493C4540FFE53060F7D00EE24890C
:100B9200F582ED3401F583E090029AF090029BE435
:100BA200F0903FFC93FE53060F7D00EE2489F58200
:100BB200ED3401F583E090029CF090029DE4F09008
:100BC2003FFD93C4540FFE53060F7D00EE2489F5BA
:100BD20082ED3401F583E090029EF090029FE4F0F2
:100BE200903FFD93FE53060F7D00EE2489F582EDC2
:100BF2003401F583E09002A0F09002A1E4F0903F6E
:100C0200FE93C4540FFE53060F7D00EE2489F58235
:100C1200ED3401F583E09002A2F09002A3E4F0909B
:100C22003FFE93FE53060F7D00EE2489F582ED34DC
:100C320001F583E09002A4F09002A5E4F0903FFF5A
:100C420093C4540FFE53060F7D00EE2489F582ED06
:100C52003401F583E09002A6F09002A7E4F0903F01
:100C6200FF93FE53060F7D00EE2489F582ED3401D9
:100C7200F583E09002A8F09002A9E4F0903FFA9385
:100C8200C4540FFE53060F7D00EE2489F582ED3425
:100C920001F583E09002AAF09002ABE4F0903FFAF3
:100CA20093FE53060F7D00EE2489F582ED3401F5A3
:100CB20083E09002ACF09002ADE4F0903FFB93C46D
:100CC200540FFE53060F7D00EE2489F582ED3401A8
:100CD200F583E09002AEF09002AFE4F0903FFB9318
:100CE200FE53060F7D00EE2489F582ED3401F58373
:100CF200E0FE9002B0F09002B1E4F075191AF51A14
:100D0200751698751702F518751C1A802E90000238
:100D1200E0FEBE0415751670751702751800900274
:100D220086E0FDA3E0FE8D1C8011751698751702F2
:100D320075180085191C8003751CFF74FFB51C0310
:100D4200020FE9AD1C7E00C3ED9512EE951350041F
:100D52008D128E13AD12AE13C3ED9408EE94009271
:100D62000140067B087C008004AB12AC138B1C7C18
:100D720000C3EC951C50208C027B00EC2516F8E495
:100D82003517F9AF18888289838FF01219E4F88A2F
:100D9200828B83F00C80DAAC1C7F00EDC39CFDEEED
:100DA2009FFE8D128E13E51C2516F516E43517F5F8
:100DB20017020FE9900002E0FF8F12751300020F75
:100DC200E9900000E515F0AE12AF13C3EE9401EF07
:100DD20094005003020FE9751C01020FE990000212
:100DE200E0F515020FE9900000E0541F703090000A
:100DF20003E0FE7F00900002E0FD7C004207EC422F
:100E020006BF0114BE0011900206E0FF30E50302A6
:100E12000FE9751CFF020FE9751CFF020FE9900034
:100E220000E0FF53071F7E00BF0278BE00759000EE
:100E320004E0FFBF0102805FBF02028049BF0302DC
:100E42008033BF0402801DBF81028040BF820280C6
:100E52002ABF83028014BF844474BC55DE4402F569
:100E6200DE020FE953DE73020FE974BC55D6440269
:100E7200F5D6020FE953D673020FE974BC55D44478
:100E820002F5D4020FE953D473020FE974BC55D2B0
:100E92004402F5D2020FE953D273020FE9751CFF27
:100EA200020FE9751CFF020FE9900000E0541F7069
:100EB20030900003E0FE7F00900002E0FD7C0042E3
:100EC20007EC4206BF0114BE0011900206E0FF309B
:100ED200E503020FE9751CFF020FE9751CFF020F03
:100EE200E9900000E0FF53071F7E00BF0205BE002D
:100EF200028003020FBC900003E0FE7F009000021C
:100F0200E0FD7C004207EC4206EF4E6003020FB7A1
:100F1200900005E0FE7F00900004E0FD7C004207A7
:100F2200EC4206BF0106BE0003020FAABF0205BEC5
:100F320000028060BF0305BE00028044BF0405BEFC
:100F420000028028BF8105BE00028052BF8205BE1A
:100F520000028036BF8305BE0002801ABF8451BEE4
:100F6200004E74BF55DE4403F5DE807B747F55DE90
:100F7200440CF5DE807174BF55D64403F5D6806704
:100F8200747F55D6440CF5D6805D74BF55D44403A6
:100F9200F5D48053747F55D4440CF5D4804974BF82
:100FA20055D24403F5D2803F747F55D2440CF5D21A
:100FB200751CFF8032751CFF802D751CFF802890E8
:100FC2000000E4F0900001F0AE12AF13C3EE940201
:100FD200EF94004005751C02800D85121C80087577
:100FE2001CFF8003751CFF74FFB51C077514FF7589
:100FF200DCCF22E51C24F74007851CDD75DCC0220E
:1010020075DD0075DCC0227405B51402806E7406AD
:10101200B51402800302108CAE12AF13C3EE940813
:10102200EF9400920240067C087D008004AC12AD71
:10103200138C517D00C3ED955150208D027B00ED44
:101042002516F8E43517F9AC18888289838CF012DA
:1010520019E4F88A828B83F00D80DAAC517D00EEC0
:10106200C39CFEEF9DFF8E128F13E5512516F516D8
:10107200E43517F5178551DD63DC4022E5E3548042
:10108200FFE5124FF5E375DC022275DD0075DC0227
:10109200227420B5140D30DE101206FB75DD0085BA
:1010A200DCDC2275DD0043DC022275D30074FC55C2
:1010B200D24402F5D22220D903021163E5D9540F9A
:1010C200FFADD95305307E00BD0005BE0002801C75
:1010D200BD1005BE00028036BD2005BE0002804361
:1010E200BD3006BE0003021149021161EF24FB501C
:1010F20003021161EF2F9010FC7380088061800958
:10110200805D805B12109380561209A58051EF24F6
:10111200FB404CEF2F90111B738044804280408033
:101122003E803CEF24FB4037EF2F90113073800854
:10113200800B800E8029802712100980221210ACA9
:10114200801D1209948018EF24FB4013EF2F901199
:101152005473800880098007800580031209C2C287
:10116200D930D81575DC0275D21275D41275E30028
:10117200C2DAC2D9C2D81206F110DA0122E5DA20A7
:10118200E20375D8FF2275E20053E27F43E229753C
:10119200E30053E2BF53D1FB75D18043D101224317
:1011A200E10443E10243E10143D81FD2EAD2AF2274
:1011B2007E0A7F008EEE8FEF7E147F008EE48FE535
:1011C20075EB0C75D21275D4127E007F008EEC8FF7
:0811D200ED75EA4075DC022214
:1011DA00C021C0E0C0F0C082C083C007C006C005FD
:1011EA00C004C003C002C001C000C0D075D0001244
:1011FA0010B8D0D0D000D001D002D003D004D0058E
:10120A00D006D007D083D082D0F0D0E0D02132C02F
:10121A0021C0E0C0F0C082C083C007C006C005C0BC
:10122A0004C003C002C001C000C0D075D00030980D
:10123A0005121A00C298309905121A36C299D0D0EE
:10124A00D000D001D002D003D004D005D006D007F8
:10125A00D083D082D0F0D0E0D02132C021C0E0C00B
:10126A00F0C082C083C007C006C005C004C003C066
:10127A0002C001C000C0D075D00030C005121A7A71
:10128A00C2C030C105121AB0C2C1D0D0D000D0013C
:10129A00D002D003D004D005D006D007D083D082A4
:1012AA00D0F0D0E0D02132C021C0E0C0F0C082C06E
:1012BA0083C007C006C005C004C003C002C001C085
:1012CA0000C0D075D0009002B4E0FEA3E0FFC007D2
:1012DA00C0068E828F83120069D006D007D0D0D084
:1012EA0000D001D002D003D004D005D006D007D058
:1012FA0083D082D0F0D0E0D02132C021C0E0C0F04B
:10130A00C082C083C007C006C005C004C003C002B3
:10131A00C001C000C0D075D0009002B6E0FEA3E0C4
:10132A00FFC007C0068E828F83120069D006D007DD
:10133A00D0D0D000D001D002D003D004D005D0063E
:10134A00D007D083D082D0F0D0E0D02132C021C0E3
:10135A00E0C0F0C082C083C007C006C005C004C098
:10136A0003C002C001C000C0D075D0009002B2E034
:10137A00FEA3E04E600E9002B2E0F8A3E0F5838887
:10138A0082120069D0D0D000D001D002D003D0049C
:10139A00D005D006D007D083D082D0F0D0E0D021BB
:1013AA003212170E1200FE1201AD80FB7582002266
:1013BA00E582FF901BE693FEEF901BBE93FF700140
:1013CA002290019AE0FD701BBF0209EEF4FC5292D2
:1013DA00EC529322BF0402800122EEF4FC5296ECF6
:1013EA00529722BD0214BF0207EE4292EE429322A6
:1013FA00BF0439EE4296EE429722BD0116BF02089B
:10140A00EEF45292EE429322BF0421EEF45296EE8B
:10141A00429722BD0316BF0208EE4292EEF452939F
:10142A0022BF0408EE4296EEF4FE529722AF82BF24
:10143A000102800FBF02028013BF03028017BF049C
:10144A00358023E5C620E22E539DFB22E5C620E324
:10145A0025539DF722AEC65306047F00BE0117BF6F
:10146A000014539DFB22AEC65306087F00BE010638
:10147A00BF0003539DF722E582FF901B9693FEEF70
:10148A00901BE693FDEF901BBE93FF7003F582223B
:10149A00EE600D8E82C007C005121437D005D00742
:1014AA007E00BF0202800ABF03028009BF040C80CB
:1014BA0008AE908006AEA08002AEB0ED5E60047504
:1014CA0082012275820022E582FF901B9693FEEF2D
:1014DA00901BE693FDEF901BBE93FFEE600D8E828C
:1014EA00C007C005121437D005D007A2AFE433FEF7
:1014FA00C2AFBF0202800ABF03028017BF04368050
:10150A002490019BE07007EDF4FF52908027ED4292
:10151A0090802290019BE07007EDF4FF52A08015A5
:10152A00ED42A0801090019BE07007EDF4FF52B0ED
:0B153A008003ED42B0EE6002D2AF2251
:10154600AC82AD83AE52AF53BE0004EF600C1F0FEA
:0F155600E551121743A3DEFADFF88C828D832252
:10156500C0D075D00808B8000D09B900090ABA003D
:10157500050BBB00010CD0D032A2AFC2AFA808A9A1
:1015850009AA0AAB0BAC8A8588F092AF30F51274C4
:10159500012C600D08B8000909B900050ABA000157
:1015A5000BC3EC9406FCECC313FC75F07DE8A4F8C2
:1015B500ADF075F07DE9A42DF9E435F0FD75F07D0C
:1015C500EAA42DFAE435F0FD75F07DEBA42DFB7D45
:1015D50000EC28F582E93DF583EA3DF5F0EB3D2287
:1015E500A2AFC2AFA808A909AA0AAB0BAC0C92AF6F
:1015F50075F020E8A4A8F075F020E9A428F582A8E4
:10160500F075F020EAA428F583A8F075F020EBA486
:1016150028F9A8F075F020ECA42889F022858245E8
:1016250085834685F047F54812157E858249858371
:101635004A85F04BF54CE54545464547454870011B
:1016450022A845A946AA47AB4885494D854A4E85F6
:101655004B4F854C50E8494A4B60DBC003C002C084
:1016650001C00012157EAC82AD83AEF0FFD000D074
:1016750001D002D003ECC3954DFCED954EFDEE95E2
:101685004FFEEF9550FFC3EC94E8ED9403EE940004
:10169500EF940040A118B8FF0919B9FF051ABAFF60
:1016A500011B884589468A478B4874E8254DF54DC9
:1016B5007403354EF54EE4354FF54FE43550F5508E
:1016C500854D49854E4A854F4B85504C8087AE8266
:1016D500AF83C374019EE49F40022200C374029E3F
:1016E500FE74009FFF00BE0005BF0002002200003F
:1016F5000000000000000000000000000000000ED7
:10170500BE00EB0FBF00ED002275A15575A1AA74AF
:10171500F855B94406F5B975A1009013881216D38A
:10172500759E04759D0074F055894402F58953C969
:0D173500EF758C06C28DD2A9D28CD2AF22E6
:1017430020F71130F6138883A88220F509F6A883C1
:0C1753007583002280FEF280F5F0223247
:10176000E582901C0E93FFBFFF0475820022759ADC
:101770000974FC5580FE74035F4EF580D28420848A
:10178000FD859F8222AF8290019A7401F08F82C002
:10179000071213BAD00790019CE0FDA3E0FE4D7044
:1017A0000A90019BE4F08F820214D18D038E0474A1
:1017B000FF2C500B90019B7401F08F820214D1EF2B
:1017C000901B9693FA24FB4034EA2A9017CF73803B
:1017D0002C8006800D8014801B53C6FB439D048D16
:1017E0009C2253C6F7439D088D9B2243C604439D0C
:1017F000048D9C2243C608439D088D9B22C3EB9415
:1018000080EC9400500A90019BE4F08F820214D186
:0B18100090019B7401F08F820214D144
:10181C00AAF0FBE5828551F0A4FCADF0E58385517F
:10182C00F0A42DFDE435F0FEE5828552F0A42DFDEB
:10183C00E5F03EFEE433FFEA8551F0A42EFEE5F020
:10184C003FFFE5838552F0A42EFEE5F03FFFE582D5
:10185C008553F0A42EFEE5F03FFFEB8551F0A42F4D
:10186C00FFEA8552F0A42FFFE5838553F0A42FFFE8
:0F187C00E5828554F0A42F8EF08D838C8222326A
:09188C00ABF0A2AFE433FEC2AFE1
:10189600E0A3D2B23300500A0000000000000000AE
:1018A6000000C2B2400A0000000000000000000074
:1018B600530207DADDDBD900C2B2EE6002D2AF22F4
:0918C600ABF0A2AFE433FEC2AFA7
:1018D000E0A3D2943300500A000000000000000092
:1018E0000000C294400A0000000000000000000058
:1018F000530207DADDDBD900C294EE6002D2AF22D8
:09190000ABF0A2AFE433FEC2AF6C
:10190A00E0A3D2953300500A000000000000000056
:10191A000000C295400A000000000000000000001C
:10192A00530207DADDDBD900C295EE6002D2AF229C
:09193A00ABF0A2AFE433FEC2AF32
:10194400E0A3D2963300500A00000000000000001B
:101954000000C296400A00000000000000000000E1
:10196400530207DADDDBD900C296EE6002D2AF2261
:1019740022AF82BF02005036EF75F002A424B4F502
:1019840082740235F0F583E551F0E552A3F0BF000F
:10199400028005BF0118800B90019EE024FF92880D
:1019A400D2A82290019EE0FF24FF928AD2AA22AFFD
:1019B40082BF02005028BF00028005BF01088004D6
:1019C400C2A88002C2AAEF75F002A424B4FE740275
:0F19D40035F0FF8E828F837474F07419A3F022A4
:1019E40020F71430F6148883A88220F507E6A8832C
:0C19F40075830022E280F7E49322E022D9
:101A00009002B8E0FF7E008F828E83A37551108E06
:101A100052121B41AE829002B9E0FFEEB5070122DF
:101A20009002B8E0249FF582E43401F583E599F053
:101A30009002B8EEF0223003409002BAE0FF90022C
:101A4000BBE0FEEFB50605A203C203229002BBE095
:101A500024AFF582E43401F583E0F5999002BBE010
:101A6000FF7E008F828E83A37551108E52121B4110
:0A1A7000AE82AF839002BBEEF022BD
:101A7A009002BCE0FF7E008F828E83A37551108E88
:101A8A0052121B41AE829002BDE0FFEEB507012261
:101A9A009002BCE024BFF582E43401F583E5C1F08D
:101AAA009002BCEEF0223004409002BEE0FF9002A9
:101ABA00BFE0FEEFB50605A204C204229002BFE011
:101ACA0024CFF582E43401F583E0F5C19002BFE04A
:101ADA00FF7E008F828E83A37551108E52121B4196
:0A1AEA00AE82AF839002BFEEF0223F
:101AF400E551455260467A01E55125E0F551E5523C
:101B0400334012F552E5829551E583955240030A1C
:101B140080E6C3E55213F552E55113F551C3E5824E
:101B24009551F5F0E58395524005F58385F082C320
:101B3400E55213F552E55113F551DAE122C2D5E528
:101B44008330E70DD2D5E4C39582F582E49583F51D
:101B540083E55230E70BE4C39551F551E49552F512
:101B640052121AF430D50BE4C39582F582E49583BE
:031B7400F58322D4
:101B770061626E646972416461416D62696E6F2072
:0F1B87004875625633312E302E31414852326745
:101B9600000000000000000000000000000000013E
:101BA6000000000000000000000000000000030428
:101BB6000000020000000000010101010101010115
:101BC60000000202020202020202000003030303F3
:101BD60003030303000004040404040404040000D3
:101BE60001020408102040800000010204081020B1
:101BF600408000000102040810204080000001021D
:101C06000408102040800000FFFFFFFFFFFFFFFFDA
:101C1600FFFFFF00FFFF0102FFFFFFFFFFFFFFFFC8
:101C2600FFFFFFFFFFFFFFFF03FFFFFFFFFFFFFFBA
:101C360000E1000000000800000000001201100191
:101C4600EF020108091250C5010101020301120049
:101C560009024B000201008064080B000202020127
:101C66000409040000010202010405240010010514
:101C76002401000004240202052406000107058150
:101C86000308004009040100020A000004070502D7
:101C960002400000070582024000004B00040309D1
:101CA6000404001C0341006D00620069006E006FB1
:101CB6000020004800750062005600330047001CF3
:101CC60000160343004400430020005300650072E1
:101CD60000690061006C0016000E0341006D006291
:091CE6000069006E006F000E00A1
:101CEF000C03300031003200330034003500360071
:0A1CFF0037003800390041004200B0
:021D09000000D8
:041D0B0074197419BA
:041D0F0000000000D0
:041D130000000000CC
:00000001FF
